:020000040800F2
:10000000000003205D060008F1240008F324000826
:10001000F5240008F7240008F92400080000000077
:10002000000000000000000000000000A17A0008AD
:10003000FB24000800000000317B0008C7730008A3
:10004000AD060008AD060008AD060008AD060008C4
:10005000AD060008AD060008AD060008AD060008B4
:10006000AD060008AD060008AD060008AD060008A4
:10007000AD060008AD060008AD060008AD06000894
:10008000AD060008AD060008FD240008AD06000816
:10009000AD060008AD060008AD060008AD06000874
:1000A000AD060008AD060008AD060008AD06000864
:1000B000AD060008AD060008AD060008AD06000854
:1000C000AD060008AD060008AD060008AD06000844
:1000D000AD060008AD060008AD060008AD06000834
:1000E000AD060008AD060008AD060008AD06000824
:1000F000AD060008AD060008AD060008AD06000814
:10010000AD060008AD060008AD060008AD06000803
:10011000AD060008AD06000819250008AD06000868
:10012000AD060008AD060008AD060008AD060008E3
:10013000AD060008AD060008AD060008AD060008D3
:10014000AD060008AD060008AD060008AD060008C3
:10015000AD060008AD060008AD060008AD060008B3
:10016000AD060008AD060008AD060008AD060008A3
:10017000AD060008AD060008AD060008000000004E
:10018000AD060008AD060008AD060008AD06000883
:10019000AD060008AD060008AD060008AD06000873
:0C01A00025250008AD06000831250008E8
:1001B00010B5054C237833B9044B13B10448AFF3A1
:1001C00000800123237010BD800300200000000088
:1001D000703E020808B5034B1BB103490348AFF357
:1001E000008008BD0000000084030020703E02086B
:1001F00001F0FF01102A2BDB10F0070F08D010F8D8
:10020000013B013A8B422DD010F0070F42B3F6D1DB
:10021000F0B441EA012141EA014122F007047FF0F4
:1002200000070023F0E80256083C85EA010586EA4B
:10023000010685FA47F5A3FA87F586FA47F6A5FA87
:1002400087F68EB9EED1F0BC01F0FF0102F0070293
:1002500032B110F8013B013A83EA010313B1F8D13E
:100260000020704701387047002D06BF354603381F
:10027000073815F0010F07D1013015F4807F02BF58
:10028000013015F4C03F0130F0BC0138704700BFA9
:100290007BB972B90029BEBF00204FF0004106E0D3
:1002A00008BF00281CBF6FF000414FF0FF3000F086
:1002B000D3B9ADF1080C6DE904CE002909DB002BA0
:1002C0001ADB00F04DF8DDF804E0DDE9022304B0AC
:1002D0007047404261EB4101002B1BDB00F040F80E
:1002E000DDF804E0DDE9022304B0404261EB4101A6
:1002F000524263EB43037047524263EB430300F007
:100300002FF8DDF804E0DDE9022304B0404261EBA0
:1003100041017047524263EB430300F021F8DDF8DE
:1003200004E0DDE9022304B0524263EB430370476B
:1003300053B94AB9002908BF00281CBF4FF0FF314C
:100340004FF0FF3000F088B9ADF1080C6DE904CE34
:1003500000F006F8DDF804E0DDE9022304B07047A0
:100360002DE9F047089D8E4604468846002B4AD169
:100370008A42174662D9B2FA82F64EB1C6F120031C
:1003800001FA06F820FA03F3B74043EA0808B4403C
:100390004FEA174E1FFA87FCB8FBFEF1230C0EFB49
:1003A000118843EA084301FB0CF29A4209D9FB1871
:1003B00001F1FF3080F0EA809A4240F2E780023992
:1003C0003B449A1AA3B2B2FBFEF00EFB102243EAA2
:1003D000024300FB0CFC9C4509D9FB1800F1FF32DD
:1003E00080F0D6809C4540F2D3803B44023840EAFE
:1003F0000140A3EB0C0300211DB1F3400022C5E92D
:100400000032BDE8F0878B4205D90DB1C5E9000186
:1004100000210846F5E7B3FA83F1002946D1734578
:1004200002D3824200F20581841A6EEB030201209E
:100430009046002DE5D0C5E90048E2E7002A00F02B
:100440009080B2FA82F6002E40F0A4808A1A030C43
:100450004FEA174E80B2BCB20121B2FBFEFC0EFB8C
:100460001C2243EA024304FB0CF29A4207D9FB1810
:100470000CF1FF3802D29A4200F2E080C4469B1A87
:10048000B3FBFEF20EFB123340EA034302FB04F41B
:100490009C4207D9FB1802F1FF3002D29C4200F2C5
:1004A000CA8002461B1B42EA0C40A5E7C1F12006A8
:1004B0008B4022FA06F71F430EFA01F420FA06F3E6
:1004C0002EFA06FE4FEA1749234300FA01F81FFAF5
:1004D00087FCBEFBF9F01C0C09FB10EE44EA0E444D
:1004E00000FB0CFEA64502FA01F209D93C1900F105
:1004F000FF3A80F09C80A64540F2998002383C4447
:10050000A4EB0E041FFA83FEB4FBF9F309FB1344BA
:100510004EEA044403FB0CFCA44508D93C1903F142
:10052000FF3E80F08280A4457FD9023B3C4443EAF1
:100530000040A4EB0C04A0FB02EC64457346E146CA
:1005400062D35FD05DB1B8EB030264EB090404FA37
:1005500006F622FA01F31E43CC40C5E900640021EF
:100560004FE7B1FBF2FC010C41EA0E4180B240EAD8
:1005700001423B4638463C46B846BE462026B1FBC3
:10058000F7F1A2EB080241EA0C4166E7014618E7E1
:1005900010462CE7C6F120022EFA02F3B740B14014
:1005A00020FA02F24FEA174E0A43B3FBFEF8BCB240
:1005B0000EFB1833110C41EA034108FB04F9B0406B
:1005C00089454FEA104380B23ED9791808F1FF3CC3
:1005D00001D289451FD8A1EB0901B1FBFEF909FB46
:1005E00004F80EFB191192B242EA0142424529D2A7
:1005F000BA1809F1FF31C4D24245C2D2A9F10201B1
:100600003A44BEE7F0459DD2BEEB02036CEB070C0B
:100610000138E14696E7A7EB09094944A8F1020C25
:10062000B1FBFEF909FB04F8DBE773467FE75046B0
:1006300066E70846FDE63B44023A33E7ACF1020CBC
:100640003B441CE749469CE7A1EB0901C446B1FBCA
:10065000FEF909FB04F8C4E7704700BFDFF834D0A7
:10066000002103E00C4B5B58435004310B480C4B0A
:1006700042189A42F6D30B4A02E0002342F8043BA8
:10068000094B9A42F9D304F04BF922F083FE01F0B2
:10069000B1F8704700000320D83A09080000002094
:1006A0006401002080030020E03B0120FEE770474A
:1006B00008B500F0B9FDBDE8084000F03DBD00F010
:1006C000B5BD704710B50421044621F00BFC20464F
:1006D00010BD000038B50C4B0C4C18800C4B822020
:1006E00019806368984740F6110398420AD1094D72
:1006F00023682C60822098472B688220DB6898470B
:10070000002038BD0120FCE7A60300204C0000209B
:10071000A4030020A80300204FF4A071F020FFF7ED
:10072000D9BF0000F7B5394D2B6804461B698220FC
:100730009847208000284ED02B680DF106025B6997
:1007400001A982209847324B1B78002B4BD0BDF873
:10075000062040F674639A423FD9ADF80630BDF8E2
:1007600006209B1A9BB20A2B42D90B22B3FBF2F351
:10077000284A1288934201D9013A93B2BDF8042065
:10078000254840F6B8318A4234D8C2F571620E323B
:10079000016892B20F25B2FBF5F2204D2D88AA42D6
:1007A00084BF05F1FF35AAB28A4215468EB22AD916
:1007B000921B91B21A4E3768BB42BAB28CBF9A1ADA
:1007C000D21A92B211440529C4BF05603360036890
:1007D00063803368A38003B0F0BDB32A9CBFB4220A
:1007E000ADF80620BBE7BDF80630A3F5B473B9E752
:1007F0000023C3E7C2F56D62083292B20E2A016887
:10080000C8D800252A46891A89B2D3E7A803002050
:10081000841D0020A4030020A0030020A6030020C4
:100820009C03002037B568460D461446FFF77AFF53
:10083000BDF8000030B1BDF802302B60BDF80430C7
:100840002360012003B030BD032821D8DFE800F089
:10085000020B12190F4B1A68B2FA82F252090421E4
:100860000D4804F04DBD0B4B5A68B2FA82F25209A2
:100870000821F5E7074B9A68B2FA82F25209102173
:10088000EEE7044BDA68B2FA82F252092021E7E778
:10089000704700BFAC03002000100240032821D89D
:1008A000DFE800F0020B12190F4B1A68003A18BF6C
:1008B000012204210D4804F023BD0B4B5A68003A75
:1008C00018BF01220821F5E7074B9A68003A18BFC4
:1008D00001221021EEE7044BDA68003A18BF01222A
:1008E0002021E7E7704700BFAC0300200010024062
:1008F00003280DD8DFE800F00206080A04210548A5
:1009000004F003BD0821FAE71021F8E72021F6E7FB
:10091000704700BF0010024008B5032811D8DFE877
:1009200000F0020A0C0E0421074804F0E3FC431E09
:100930005842584108BD0821F6E71021F4E720216C
:10094000F2E70020F3E700BF0010024070B5084D49
:1009500000240126E0B2FFF7DFFF18B12B68012B5E
:1009600018BF2E600134052C05F10405F2D170BDCD
:10097000AC030020012380F8781080F879307047AC
:100980007047002070470000034B4164003918BFD6
:1009900001211970704700BF9F2E01207047002071
:1009A0007047836B0BB10846184770474FF6FF70CE
:1009B0007047406803689B691847704770477047E5
:1009C0007047704710B5044600F046FD23680349A0
:1009D000D3F890302046BDE810401847000000D002
:1009E00008B503680446D3F8843098472368204646
:1009F000DB6F984700F0ECF8236820465B6F984760
:100A0000292001F0DFF900F0E3F8236820465B6F4E
:100A10009847F8E710B5044609F038FE23682046E9
:100A2000D3F8BC30BDE81040184700F0F9BC00F026
:100A3000FDBC00F02FBD00F0CFBC00F03FBD00F0CA
:100A400047BD00F0D3BC09F04FB810B5842104466F
:100A500021F048FA204610BD10B590F8341090F8F7
:100A600078400C4B8C421A7809D03AB90A4A0B49A3
:100A70001488088810800C8001221A7010BD002A8A
:100A8000FCD0054A05491488088810800C80002293
:100A9000F3E700BF982E0120942E0120962E01200E
:100AA00070B50D46194635B9094B0A4A0A4840F255
:100AB000FF2122F053F9C0E90F52084B003A18BF4A
:100AC00001221A700368BDE87040D3F890301847CF
:100AD000E03E0208183F0208663F02089E2E0120F1
:100AE00008B5094B1B888B4203D8084B1B889342DF
:100AF00005D9074B074A0848A32122F02FF9074BD5
:100B00001980074B1A8008BD942E0120962E0120D3
:100B1000AB3F02080E400208663F02089A2E0120F1
:100B20009C2E0120034690F87A0018B1586803689B
:100B30001B68184770470000012108B500220846CD
:100B400006F0CAFC0A4B186028B90A4B0A4A282149
:100B50000A4822F003F900220421012006F05BFD7F
:100B6000074B186018B9074B034A2C21F0E708BD62
:100B7000C0030020514002089A400208C940020800
:100B8000BC03002004410208024B4FF0FF311868FB
:100B900006F0ECBCC0030020014B186806F012BD43
:100BA000C0030020024B0021186806F0DFBC00BF24
:100BB000C0030020FFF7F0BF03480449006800238A
:100BC0001A4606F063BD00BFBC03002004000020ED
:100BD00013B5084C00231A4601A9206806F087FDCA
:100BE00020684FF0FF33002201A906F080FD02B01B
:100BF00010BD00BFBC03002003685B6C18470120D8
:100C0000704703689B6A1847FEE740F2EF30704771
:100C1000054B0360054B4FF08062C3F88820BFF39B
:100C20004F8FBFF36F8F7047204D020800E100E047
:100C300010B504464FF45A61FFF7EAFF204621F051
:100C400051F9204610BD000082B0002301930E4BE5
:100C50001A6B42F400021A631A6B02F4000201924A
:100C6000019A1A6942F400021A611A6922F4000218
:100C70001A61064B064A1A61064A5A61064B4FF042
:100C800080629A6002B0704700380240601F002006
:100C9000E90E0008090C000800E100E008B50A2888
:100CA00009D8DFE800F006100E0808080810101038
:100CB0001000022008BD054B054A0648902122F08D
:100CC0004DF80020F6E70120F4E700BF4641020896
:100CD00061410208AC41020838B50C46887FFFF735
:100CE000DDFFA58AE28A164B2169586342EA054274
:100CF0005A64628BD963521B1A642568082D0ED181
:100D00009A611A615862207F0E4A42EA0062DA61F3
:100D1000E2681A620C4A5961D9601A6038BD002233
:100D2000D8611A61E1680A0A480902F4784200F4BD
:100D3000FC600243C1F3C4010A439A63034AECE72F
:100D400000B002400900010001230200012303005A
:100D500008B50B280BD8DFE800F00612100A0A0AC3
:100D60000A0808080808022008BD0520FCE7054B12
:100D7000054A06486F2121F0F1FF0020F4E7012029
:100D8000F2E700BF46410208E5410208AC41020813
:100D90002DE9F04191F81D800C464046FFF7D8FF41
:100DA000A77F05463846FFF7D3FF06463846FFF7CC
:100DB00075FFA18A628B444B521A1A649A61228B86
:100DC000521A1A61E28A586342EA01425A6421695E
:100DD0006268D963DA602068802828D0227F0FD823
:100DE000202867D0402865D004281AD0364B45EA21
:100DF000026545F40035B845DD6161D0334A44E011
:100E0000B0F5807F04D0B0F5007FEFD1304800E02E
:100E1000304840EA0262DA61E2681A625E62596151
:100E200032E045EA026242F40032DA61F6E7A06895
:100E3000021DDA62227F45EA026545F40035DD6174
:100E40005E625961017841B1012921D0224B234AC8
:100E500023484FF48D7121F081FFDA69418822F433
:100E60007F42013922F0100242EA0122DA610121B7
:100E7000154BDA6942F02002DA61DA699206FCD495
:100E800010229A600029B9D0164A1A60BDE8F08194
:100E9000B2F1FF01DA69408822F47F4200F1FF30AD
:100EA00022F0100242EA002242F0100218BF012193
:100EB000DA61DDE745EA0262034B42F40032B4E74F
:100EC00042F20132E1E700BF00B00240012301001D
:100ED000090002000A0002002F42020849420208EB
:100EE000AC41020801230200024B1B6858680368EA
:100EF0005B691847A02E012070B5044625460A4BB1
:100F00000C30002660602672667245F8203B602235
:100F1000294609F011FD04F55A63EE6024359D421F
:100F2000FBD1204670BD00BF204D0208034B1A685C
:100F3000D207FCD423229A60704700BF00B0024061
:100F40007047000030B50F4C2568ED07FCD4232511
:100F50000904A56041F001010225FF2B656361646E
:100F6000E0630AD00849656241EA0363E361074B25
:100F700022626061E060236030BDE561039BA36392
:100F8000034BF8E700B00240090001000100020035
:100F90000100030030B50E4C2568ED07FCD4232575
:100FA0001204A56042F001020225FF2B6563626412
:100FB000E063E16008D01B0643F00213E361054BD8
:100FC00065626061236030BD034BE3610123F9E793
:100FD00000B0024001000200020002FF30B50B4CDD
:100FE0002568ED07FCD4232512041B06A56043F4F5
:100FF0000033022542F0010265636264E063E16050
:10100000E361034B65626061236030BD00B0024064
:1010100001000200012070474020704700EB811062
:101020000830704700EB811008307047012070478E
:1010300040F61800704740F6180303FB0100083023
:10104000704740F6180303FB010008307047012089
:1010500070471020704700EB01100830704700EB1C
:10106000011008307047084601F018BD10B5034B59
:101070000360044608F08FFA204610BDD84D0208E0
:1010800010B50446FFF7F2FF2046482120F02AFF62
:10109000204610BD10B5034B0360044608F07BFAF0
:1010A000204610BDA44D020810B50446FFF7F2FF1C
:1010B00020464FF4026120F015FF204610BD0000CD
:1010C00010B5034B0360044608F065FA204610BDD6
:1010D000704D020810B50446FFF7F2FF20461821B4
:1010E00020F000FF204610BD10B5084B03600446F9
:1010F00000F64C00FFF7BAFF04F12C00FFF7CAFF1F
:1011000004F11400FFF7DCFF204610BD0C4E02086E
:1011100008B50248FFF7E8FF08BD00BF9C12002099
:1011200010B50446FFF7E0FF204640F61C2120F0F2
:10113000D9FE204610BD00002DE9F34101F06CFA04
:10114000054601F06DFA0024014623462846224652
:10115000009411F015FE274B274A1A60204602F032
:1011600083FD264D264B274A27489A6011F070FDD3
:101170002B68BFF35B8FDB0735D4284620F0B4FE25
:1011800088B3224C224B236004F6BC0604F1140001
:1011900004F12C0804F64C076060C4F80880E7608E
:1011A000266108F0F9F91B4B6361404608F0F4F939
:1011B000194BE362384608F0EFF9184BC4F84C3885
:1011C00004F6940002F06BFE224604F694013046C9
:1011D00002F020FE304601F061FC114821F0DCFDF8
:1011E000284620F08DFE0F4802B0BDE8F041FFF721
:1011F000E9BB00BF042F0120480400209812002002
:10120000680400204C040020080000209C120020EC
:101210000C4E0208704D0208A44D0208D84D020879
:1012200011110008C4030020704700000148FFF7B7
:10123000D7BB00BFC403002070B5264E264C274DF7
:10124000274B23603046FFF757FE284616F09EFED8
:1012500024480FF0EFFD244B2448DC6000224FF4BB
:101260008071C3E9121222491A86C3E91A12214970
:1012700083F85820C3E91E011F49C3F880101F4995
:101280001F480B60F021C3E90422C3E90622C3E929
:101290000822C3E90A22C3E90E22C3E91022C3E9E6
:1012A0001422C3E917225A6683F870205A67C3E9EB
:1012B000016501801348018013484FF4A07101803B
:1012C0001248018012490A70012283F83420114A21
:1012D0001A6070BDF40400209412002068040020FD
:1012E000D03E02084C040020C4030020000001018D
:1012F00001000001000450001A001400A02E01207B
:10130000942E01209A2E0120962E01209C2E012041
:10131000982E0120344C02080148FFF779BC00BF29
:10132000F40400200020704781807047C18070471E
:10133000018170474181704770477047704770471F
:10134000704710B4C4880368121B84885B6D091B46
:1013500012B25DF8044B09B218474FF6FF73838150
:101360004FF0FF3303621368C361106070470020C1
:1013700070478B88838001207047704780F8261063
:10138000704790F82600704710B50022B1F9084068
:10139000B1F90A10028042808480C18010BD002211
:1013A000028042808280C28070470177704780ED62
:1013B000080A704780F82410704780F8251070479D
:1013C00001207047983070478C30704784307047E8
:1013D0007047704770470000034B902283F85A23F0
:1013E00083F85823704700BF00E100E0094A0A492A
:1013F000D3680A48C3F30A03013B9BB20B8011690F
:10140000C1F30A01013901801364536B43F00103F6
:101410005363704700680140BA1C0020B81C0020CC
:10142000014BD3F8AC00704700680140024B012229
:10143000C3F8AC105A6270470068014010B52C2107
:10144000044620F04FFD204610BD10B5BC210446D7
:1014500020F048FD204610BD70B5044608F099FB09
:1014600023689D6E0EF07EFA01462046A847236849
:10147000054AD3F88C502046AC460023BDE87040A6
:10148000A2F51631604700BF00B004D008F068BB79
:1014900008F072BB08F02EBB08F09DBC90F8252028
:1014A00012B103685B691847704790F825201AB19C
:1014B00090F8242002B1186070470000034B4FF0F1
:1014C00080629A604FF080729A60704700E100E09D
:1014D000084B4FF08062C3F88820BFF34F8FBFF3F3
:1014E0006F8F4FF08072C3F88820BFF34F8FBFF328
:1014F0006F8F704700E100E070B50023124E8380CB
:10150000124B0360336893F8582005460AB1D86C33
:1015100000B998680368DB6A98473368B0FA80F4CA
:10152000D86C640930B10368DB6A9847002808BFAB
:1015300044F001042CB9064B064A07482C2121F03F
:101540000DFC284670BD00BFA02E0120204E0208D1
:1015500087420208E54202081E43020870B5254E84
:101560003568BFF35B8F15F0010540D1304620F0A0
:10157000BBFC00283BD0204C204B256104F13400FB
:10158000C4E90035C4E90255E584A562A5850FF0DC
:1015900036FF04F158000AF083FE194BA36520467C
:1015A000184B40F8843BFFF7A7FF174BC4F8843073
:1015B0002433C4F88C304FF4C803C4E92835002321
:1015C000C4F8AC30C4F8B030C4F8B430C4F8B830A3
:1015D0000E480F4BC4F89050C4F89C50C4F8A85063
:1015E000C4F8983021F0D8FB304620F089FC02483E
:1015F00070BD00BFBC1C0020C01C0020D0570208DA
:10160000404E0208B84E020884570208D51300085D
:101610006457020838B5184C23685BB3174B184A57
:101620001B6C11888B4216D1164B198804F052FCA2
:10163000236893F86A200025013283F86A2083F832
:101640007C50FFF7B9FA206809F020F82846BDE879
:101650003840FFF7F9B804F03DFC246823682046C1
:101660001B6A9847012384F87C300020BDE838408D
:10167000FFF714B938BD00BFA02E0120006801405B
:10168000BA1C0020B81C002007B5064BADF80600B8
:101690001B68054801220DF1060105F0CBF903B0E6
:1016A0005DF804FB0C0000200C1E002000B58BB080
:1016B0002022002102A821F0C4FD084B01934FF421
:1016C00000720823CDE90623054801AA002105F090
:1016D000B3FE642005F0F4FEFBE700BF8043020880
:1016E000E516000838B5194C194D21882B88194A80
:1016F00089B21B299BB214D81C3BC82B20D80323CA
:1017000013701378F3B122882B881C3A92B2C82A3E
:101710009BB202D81C3BC82B14D9642005F0D0FE24
:10172000F1E7E42904D91C3BC82B09D80423E7E7D7
:101730001B2B01D80123E3E7E42B01D90223DFE7C8
:101740000023DDE7642005F0BBFECEE77E1D002010
:101750007C1D00203920002030B595B010220021DA
:101760000AA821F06EFD1422002103A821F069FDD2
:1017700000241E4B01941A6C42F080521A641B6CB8
:1017800003F080530193019B194B02941A6842F4B1
:1017900040421A601B6803F4404302930122029BFB
:1017A0004FF48033CDE9082302254FF4800308214C
:1017B000CDE90E534FF4B473CDE9101308A80423F8
:1017C0001393129504F0DEFB04F0A2FB0F23CDE986
:1017D00003354FF4A0504FF48053CDE906030521A3
:1017E00003A8059404F0AAFD15B030BD00380240EE
:1017F000007000402DE980489BB003F09FF8FFF790
:10180000ABFF142200210DA821F01BFD0024C84BC2
:1018100000941A6BC748C84D42F010021A631A6B45
:1018200002F010020092009A01941A6B42F020021A
:101830001A631A6B02F020020192019A02941A6B49
:1018400042F080021A631A6B02F080020292029A3E
:1018500003941A6B42F004021A631A6B02F004023A
:101860000392039A04941A6B42F001021A631A6BF2
:1018700002F001020492049A05941A6B42F00202EB
:101880001A631A6B02F002020592059A06941A6B0B
:1018900042F040021A631A6B02F040020692069A66
:1018A00007941A6B42F008021A631B6B03F00803DB
:1018B000224607933C21079B03F022FD9F4801220B
:1018C000022103F01DFD22469C48042103F018FD6F
:1018D00022469B484FF4405103F012FD01263C2361
:1018E000CDE90D3693480F9403230DA902271093D9
:1018F00003F01CFC91480DA9CDE90D76CDE90F440C
:1019000003F014FC04238D480DA9CDE90D36CDE973
:101910000F4703F00BFC0DA94FF440538848CDE965
:101920000D36CDE90F4703F001FC8648864B036076
:1019300003F0F2FADFF838C2844B2C62C5E900C329
:1019400028464FF48043C5E90434C5E90244C5E99B
:10195000064403F0E3FE1021284604F027F921464F
:10196000284604F042F97A4DDFF808E2AC624FF401
:101970008273C5E900E34FF400781823C5E90683B4
:1019800028460A23C5E90244C5E90444C5E90844D8
:10199000EB6204F0F3FF8F232246394667488DF847
:1019A00024308DF8344003F0ABFC32464FF47A73A8
:1019B00009A9284605F03EF84FF47A7332460DA97E
:1019C000284605F0E3F9324639465C48614D03F09C
:1019D00097FC9DF83430D32B04BF5F4B1E705F4BD8
:1019E0000126C5E900364FF0100840230024C5E960
:1019F00004834FF4C073C5E906344FF40063C5E9AE
:101A000008344FF400534FF0020A4FF0040B032741
:101A1000AB620DA907232846CDE90DA3CDE90FB38D
:101A20004FF00809C5E9024BCDE9117ACDF84CA079
:101A300004F088FE4FF6FF7209A92846CDE90A9600
:101A4000099608940C9404F09DFE304602F0A2FF23
:101A50004FF6FF7209A92846CDE909A9CDE90B6423
:101A600004F090FE4FF6FF7209A92846CDE90979E6
:101A7000CDE90BB404F086FE4FF40C730893089B79
:101A80000C934FF6FF7209A92846CDE909B90B96C8
:101A900004F078FE40F26A51284604F091FE3422A8
:101AA00021460DEB020021F0CCFB2D4D2D4B2C617E
:101AB000C5E900340923C5E905361D23C5E9073703
:101AC00040F20D1240F24313C5E9092340F2171109
:101AD00040F247132846C5E90B13C5E90244AC861A
:101AE00085F8364004F014F9FF21F022CDE91214F4
:101AF0004FF005094FF480614FF4A073CDE90E2437
:101B0000CDE91419CDE916420DA922462846CDE9A2
:101B1000103A154D18930D94ADF864408DF8664059
:101B200004F0AAF9114B2B601B6898472B6823E03F
:101B300000380240001002400C1F00200008024044
:101B4000000C0240A01F002000300240A0860100CF
:101B50000C1E0020901D0020841D0020400100A0CC
:101B6000641E002000680140801D00201400002039
:101B7000005C004000500140474DDB689847474BF0
:101B80002846C5E90034C5E902A4C5E90A4AC5E901
:101B90000C4403F0D1F93146284603F083FA42465B
:101BA00021460DA821F04DFB3D4D3E48DFF81CA11C
:101BB000EE614FF48033C5E900034FF0007B284607
:101BC0006E61C5F808B02C612C7685F82040EC6277
:101BD000C5F828A0EC6085F8304002F0EFFE0D2239
:101BE0000DA92846CDE90D260F9703F0A5F842462A
:101BF0002146DFF8DC800DA821F023FB2A4AC8F833
:101C00001C604FF480334046C8E90023C8F81460D4
:101C1000C8E90AA4C8F808B0C8F8104088F8184005
:101C200088F82040C8F80C4088F8304002F0C6FE22
:101C30000DA94046CDE90D960F971C4E03F07CF898
:101C40001B484FF4E133C0E900630C23C0E90534BD
:101C5000C0E902440461C46105F0EEFAFEF728FD14
:101C6000FEF725FD284602F04FFF404602F04CFFEC
:101C700005F0B6FB0F4A1048214605F0DDFB0F4B7F
:101C80000F4A186021460F4805F0D6FB0E4B18602E
:101C900005F0B8FBFEE700BF601F002000B0024067
:101CA000F01F0020002001400021014000100140F1
:101CB000C41D0020204F0208AD1600088C1D002016
:101CC000FC4E0208BF060008881D00200100000F1E
:101CD000A81F0020704770477FB5094B8DF817206B
:101CE0001B6802930DF117020123009201930A462B
:101CF0000146044803F0BAFD07B05DF804FB00BFDD
:101D0000100000200C1F00207FB500238DF8173035
:101D1000084B1B6802930A4601230DF1170100913D
:101D200001930146044803F031FE9DF8170007B007
:101D30005DF804FB100000200C1F00201FB5084CAC
:101D400024680092CDE901340A4601230146054882
:101D500003F01CFE003818BF012004B010BD00BF06
:101D6000100000200C1F002002F014BE10B5064C1D
:101D700000222046042103F0C3FA20460122BDE8D8
:101D80001040042103F0BCBA0008024038B50B4DE6
:101D9000044601220A484FF4005103F0B1FA002230
:101DA0000421284603F0ACFA2046FFF76DFC2846D4
:101DB0000122BDE83840042103F0A2BA0008024025
:101DC000000C024038B50B4D044600220A484FF47F
:101DD000005103F095FA00220421284603F090FAFE
:101DE0002046FFF751FC28460122BDE83840042177
:101DF00003F086BA00080240000C0240F7B5144E0A
:101E0000144F05460C4630460022042103F078FAB0
:101E100000224FF40051384603F072FA2846FFF7CB
:101E200033FC0D4B0D481B68224601A904F0AEFFA0
:101E3000384601224FF40051019C03F061FA30460C
:101E40000122042103F05CFA204603B0F0BD00BF7C
:101E500000080240000C02400C0000200C1E002074
:101E600002F098BD0B4B984210B5044609D102F020
:101E7000CFFE094B80B218802046BDE8104002F02A
:101E800043BE064B984204D102F0C2FE044B80B21E
:101E9000F1E710BDF01F00207E1D0020A81F0020CC
:101EA0007C1D00200268034B9A4201D102F060BD04
:101EB000704700BF001000407047000082B00E4B1A
:101EC00000220092596C41F480415964596C01F42C
:101ED0008041009100990192196C41F08051196480
:101EE0001B6C03F080530193019B0F216FF00100E5
:101EF00002B002F0D1BF00BF0038024010B514227A
:101F00008AB0044600210DEB020021F09AF9236803
:101F1000254A934227D1254B2548002401945A6C29
:101F200042F480725A645A6C02F480720192019AEF
:101F300002941A6B42F004021A631B6B03F0040351
:101F400002930821029B0323CDE9051305A903F0A1
:101F5000EDF812202246052102F09EFF122002F029
:101F6000CDFF0AB010BD134A9342FAD10F4B12486D
:101F7000002403945A6C42F400725A645A6C02F4BE
:101F800000720392039A04941A6B42F001021A63DE
:101F90001B6B03F001030493049B20220323CDE970
:101FA000052305A9D3E700BF002001400038024007
:101FB0000008024000210140000002400268094B75
:101FC0009A4282B00BD100230193074B1A6B42F463
:101FD00080521A631B6B03F480530193019B02B080
:101FE000704700BF003002400038024007B50F4B79
:101FF00002689A4216D10022A3F5F0430192196BB0
:1020000041F4000119631B6B03F4000301930521E4
:102010005A20019B02F040FF5A2003B05DF804EB08
:1020200002F06CBF03B05DF804FB00BF00B00240DB
:102030002DE9F043044689B01422002103A821F0C1
:1020400000F92268244B9A4243D1244C24480025AD
:102050000095236B43F004032363236B03F0040315
:102060000093009B0195236B43F001032363236BD3
:1020700003F001030193019B4FF012094FF4007329
:102080004FF001080327042603A9CDE90339CDE960
:102090000587079603F04AF84FF4807311480796B6
:1020A00003A9CDE90339CDE9058703F03FF802958F
:1020B000236C43F400032364236C03F400030293B2
:1020C000029B236A43F400032362236A23F4000380
:1020D000236209B0BDE8F083005C00400038024094
:1020E0000008024000000240F0B599B004461422F6
:1020F000002107A821F0A5F830220DEB02000021F5
:1021000021F09FF822685E4B9A4240F0B780082386
:102110000C93C0231093042312930CA84FF40033A4
:10212000159304F0E3F908B1FFF7C6FE554B564886
:10213000002400945A6C42F080625A645A6C02F097
:1021400080620092009A01941A6B42F020021A6396
:102150001A6B02F020020192019A02941A6B42F06B
:1021600001021A631A6B02F001020292029A0394AE
:102170001A6B42F002021A631A6B02F00202039217
:10218000039A04941A6B42F040021A631A6B02F02D
:1021900040020492049A05941A6B42F004021A63F6
:1021A0001A6B02F004020592059A06941A6B42F02B
:1021B00008021A631B6B03F00803069302250E2620
:1021C000069B0B964FF4806307A9CDE90735CDE94F
:1021D000094502F0ABFF41F658032C480B9607A9BE
:1021E000CDE907350927CDE9094502F09FFF032313
:1021F00027480B9707A9CDE90735CDE9094502F036
:1022000095FF4FF4706322480B9607A9CDE9073577
:10221000CDE9094502F08AFF4FF40C631D480B9687
:1022200007A9CDE90735CDE9094502F07FFFC023B5
:1022300019480B9607A9CDE90735CDE9094502F004
:1022400075FF082315480B9607A9CDE90735CDE999
:10225000094502F06BFF4FF4A0530E480B9707A9F6
:10226000CDE90735CDE9094502F060FF5820224647
:10227000052102F011FE582002F040FE19B0F0BD19
:102280000068014000380240001402400000024093
:10229000000402400018024000080240000C024006
:1022A00010B5044688B01422002103A820F0C9FF0D
:1022B0002268144B9A4223D103F56843002101910F
:1022C0005A6C114842F480125A645A6C02F480121B
:1022D0000192019A02911A6B42F020021A631B6B61
:1022E00003F020030293029B4FF460720223032148
:1022F000CDE903230523CDE9061303A902F016FF58
:1023000008B010BD005001400014024010B5044652
:1023100088B01422002103A820F093FF2268144BF8
:102320009A4223D103F59433002101915A6C11484C
:1023300042F010025A645A6C02F010020192019AA3
:1023400002911A6B42F001021A631B6B03F0010346
:102350000293029B4FF4C06202230321CDE90323C1
:102360000723CDE9061303A902F0E0FE08B010BD73
:1023700000100140000002402DE9F04186B000232A
:1023800003932B4B1C68002C4FD14FF00108C3F86E
:102390000080284B00949A6B274842EA08029A630F
:1023A0009B6B03EA08030093022703260C25009B7E
:1023B00001A94FF63F03CDE90137CDE9046502F0ED
:1023C000B5FE1E48059501A9CDE90187CDE9034673
:1023D00002F0ACFE48F233131948059501A9CDE986
:1023E0000137CDE9034602F0A1FE4FF6837315488D
:1023F000059501A9CDE90137CDE9034602F096FE26
:102400004CF203731048059501A9CDE90137CDE9D8
:10241000034602F08BFE60230C48059501A9CDE927
:102420000137CDE9034602F081FE06B0BDE8F08138
:102430003C20002000380240001402400008024006
:102440000018024000100240000C0240000402404C
:1024500070B588B000230293204B1A6C42F0100232
:102460001A641B6C03F010030293054601A903A82C
:10247000029B04F01DF8069B4BBB03F0F9FF184EBE
:10248000184B336040F2E733F360174BB0FBF3F3C4
:10249000013B7360304600233361B360B36104F0E5
:1024A0003FFE044680B9304604F014FD044658B996
:1024B000362002F023FD0F2D0DD822462946362066
:1024C00002F0EAFC094B1D60204608B070BD03F025
:1024D000CFFF4000D3E70124F6E700BF00380240F9
:1024E000402000200010004040420F007C000020EF
:1024F0007047FEE7FEE7FEE7FEE7704708B50448D1
:1025000002F08BFBBDE80840024802F086BB00BF2A
:10251000F01F0020A81F0020014804F019BD00BFD3
:1025200040200020014803F04ABC00BF641E002088
:10253000014802F02DBD00BF601F00200120704740
:1025400008B520F021FF162303604FF0FF3008BDCF
:1025500008B520F019FF16230360FEE770B50D469D
:1025600014460E46731B9C4201DC204670BDAFF33F
:10257000008006F8010BF5E770B50D4614460E46CF
:10258000731B9C4201DC204670BD16F8010BAFF3B3
:102590000080F5E74FF0FF3070474FF400534B6079
:1025A0000020704701207047002070470A4A1168D8
:1025B00008B5034609B90949116010686946034422
:1025C0008B4206D920F0E0FE0C2303604FF0FF3071
:1025D00008BD1360FCE700BF88200020E03B01201D
:1025E000704710B5042104461FF07CFC204610BD46
:1025F000012908B506D0022908D059B901F080FB9D
:10260000006808BD01F07CFB4068FAE701F078FB48
:102610008068F6E70020F4E700487047584F02084A
:102620000F20704713B5002451B1036801948DF851
:10263000034001AA9C680DF10303A04702B010BD3E
:102640000846FBE7C0897047008A7047C08870471A
:1026500080887047807A00F07F007047807AC009D8
:1026600070470020704700009FED010A704700BFCF
:1026700000000000806A70477047704710B558210D
:1026800004461FF02FFC204610BD000073B506461F
:1026900000254FF480721C4B8284C0E90155C0E9CB
:1026A0000355C0E90555C0E90755856246F82C3B3E
:1026B0004FF6FF73A0F85020144AC2620446C0E9E6
:1026C0000C55C0E90E55C0E91055C0E91255A0F8E7
:1026D000523080F8543001A93046ADF804300AF089
:1026E00053FC4FF03213A36001A902233046256347
:1026F000ADF804300AF048FC2046314606F05EFF93
:10270000204602B070BD00BF8C500208645A020817
:10271000704710B5082104461FF0E4FB204610BDA9
:102720007047704700F598730868496803C370479D
:10273000704770474160704770477047064BC0F85C
:102740004C310023C0F8503100F5A273C0F84801A5
:10275000C0F84031704700BFD5280008012303723C
:1027600070477047704710B4C26841685410034600
:1027700001EB6200D20748BF0A599B685DF8044B21
:1027800048BFD35818470346406830B19A681AB911
:10279000D86800F0010070470120704710B50C2187
:1027A00004461FF09FFB204610BD10B510210446C3
:1027B0001FF098FB204610BD10B54FF4AE710446D3
:1027C0001FF090FB204610BD10B5402104461FF0BD
:1027D00089FB204610BD10B50DF0C4F80368BDE8B4
:1027E0001040DB6B18470000054B1B7801462BB1EE
:1027F000406818B103680C315B6E1847704700BF22
:102800009F2E0120037A70B50546BBB94068036866
:10281000DB69984704463CB96868036805F10C0118
:102820001B6EBDE870401847A1886B8FC91A2368DA
:1028300020461B6B09B29847A469ECE770BD10B540
:102840000446D0F8400158B10368DB68984738B1B6
:10285000D4F8400103689B6898470023C4F84031CE
:1028600010BD70B5044690F8390094F83830013046
:10287000C0B2984284F8390005D90123237200239D
:1028800084F8393070BDB4F93A2000210FF020FAF5
:10289000C30706D500284FF6FF73C8BF01231844AD
:1028A00000B2238AC01AA08760680368DB69984772
:1028B00005462DB960680368BDE870405B6918473C
:1028C000A988A38F19442B6828461B6B09B2984727
:1028D000AD69EEE72DE9F14FD0E9556A0746B068DA
:1028E00003681B6A9847C32805D8444B444AA32170
:1028F000444820F033FA706803681B6A98470F2831
:1029000003D8414B3E4AA421F2E7F06803681B6AF2
:1029100098470B2803D83D4B394AA521E8E70DF02D
:1029200021F8DFF8F09004300DF041F8D9F80000FC
:1029300010B10368DB689847D9F8000010B103684C
:102940001B689847DFF8D080D8F8000010B1036802
:102950005B699847D7F83C0110B103685B689847FA
:10296000D8F8000010B103681B689847D7F83C01FD
:1029700010B103689B689847F068036800215B6AA0
:1029800098474FF0000B224BC0F804B0044680F883
:1029900008B00360B068036859465B6A984705460B
:1029A00001F054FC7068036859465B6A98472946F1
:1029B000064601F02BFC331DC7F83C61CAF82430F1
:1029C0002B68C6F808A02846DB68C9F80040C8F89C
:1029D0000050EE639847336830461B68984721469D
:1029E00028460FF06FF9236820461B699847236833
:1029F0005B69204601B0BDE8F04F1847A2430208CA
:102A0000304402080245020849450208EC45020824
:102A10009C510208E82E0120E42E0120044B1B6883
:102A200093F858200AB1D86C00B99868704700BF75
:102A3000A02E0120F8B5174604460E460DF054F8B6
:102A4000124B1C60124B2360124B0025C4E9513518
:102A5000114BC4E953551868036801219B68C4E908
:102A60004F55C4E955769847284601F0FDF8FFF721
:102A7000D5FF17F034F9FFF7D1FF17F0ABF9FFF7E7
:102A8000CDFF17F0B3F92046F8BD00BFF42E0120AA
:102A90004851020830510208A02E0120064BC0F810
:102AA0004C310023C0F8503100F5A273C0F8480142
:102AB000C0F84031704700BFD5280008064BC0F869
:102AC0004C310023C0F8503100F5A273C0F8480122
:102AD000C0F84031704700BFAD2C0008064BC0F86D
:102AE0004C310023C0F8503100F5A273C0F8480102
:102AF000C0F84031704700BF712B00082DE9F0414C
:102B000005460026164B4660067245F80C3B044607
:102B100028460F4609F06CFC124B84F838701B787D
:102B200084F83960A68723B9012323722046BDE8C3
:102B3000F0810D4B0D4FB3F90080E368B7F9001039
:102B40009B6B266128469847E3684146DB6B284625
:102B50009847284609F0C7FB3B885B426387E5E757
:102B6000C05102089F2E0120962E0120942E012094
:102B70002DE9F047D0E9556A0746B06803681B6A3B
:102B8000984740F61703984205D8414B414AA32184
:102B9000414820F0E3F8706803681B6A98470F28E3
:102BA00003D83E4B3B4AA421F2E7F06803681B6A56
:102BB00098473F2803D83A4B364AA521E8E70CF05E
:102BC000D1FEDFF8E09004300CF0F1FED9F80000FF
:102BD00010B10368DB689847D9F8000010B10368AA
:102BE0001B689847DFF8C080D8F8000010B1036870
:102BF0005B699847D7F83C0110B103685B68984758
:102C0000D8F8000010B103681B689847D7F83C015A
:102C100010B103689B689847F068036800215B6AFD
:102C2000984714210446FFF769FFB0680368002144
:102C30005B6A9847054601F06DFB706803680021E8
:102C40005B6A98472946064601F03AFB331DC7F8F0
:102C50003C61CAF824302B68C6F808A02846DB6817
:102C6000C9F80040C8F80050EE6398473368304612
:102C70001B689847214628460FF024F82368204611
:102C80001B699847236820465B69BDE8F0471847F1
:102C9000A24302088F46020802450208494502087D
:102CA000EC450208E82E0120E42E01202DE9F04732
:102CB000D0E9556A0746B06803681B6A9847C3287D
:102CC00005D8414B414AA321414820F047F870689C
:102CD00003681B6A98470F2803D83E4B3B4AA42140
:102CE000F2E7F06803681B6A98473F2803D83A4B1D
:102CF000364AA521E8E70CF035FEDFF8E090043015
:102D00000CF055FED9F8000010B10368DB68984755
:102D1000D9F8000010B103681B689847DFF8C0803D
:102D2000D8F8000010B103685B699847D7F83C01F8
:102D300010B103685B689847D8F8000010B10368C9
:102D40001B689847D7F83C0110B103689B68984707
:102D5000F068036800215B6A984714210446FFF776
:102D6000CDFEB068036800215B6A9847054601F014
:102D70006DFA7068036800215B6A98472946064629
:102D800001F044FA331DC7F83C61CAF824302B68BF
:102D9000C6F808A02846DB68C9F80040C8F800500B
:102DA000EE639847336830461B68984721462846AB
:102DB0000EF088FF236820461B6998472368204649
:102DC0005B69BDE8F0471847A24302087447020850
:102DD0000245020849450208EC450208E82E012098
:102DE000E42E0120406A7047806A704770478A88E5
:102DF0000B8810B5D20A4C88C1699BB251F82200E9
:102E000043EA0443184410BD10B50446BAB1107B20
:102E100068B1537BD27A1B0203F4E0631A43236A3E
:102E200003EB82031A888A4202D193F9020010BD93
:102E300005D8013880B204330028F3D1F7E7002029
:102E4000F5E710B52C2104461FF04CF8204610BDC4
:102E500030B58BB00446BDF860500895BDF85C50A5
:102E600007959DF8505006959DF84C5005959DF896
:102E7000485004959DF8445003959DF840500295A4
:102E80009DF83C500195BDF8385000950EF074FB4C
:102E9000064B2360159BE361169B2362199B6362BB
:102EA0001A9BA36220460BB030BD00BFE45102085C
:102EB000704770477047704770477047704770475A
:102EC00030B4C26844685510034604EB6200D20770
:102ED00048BF62599B6830BC48BFD3581847034667
:102EE000406830B19A681AB9D86800F0010070479C
:102EF0000120704710B5102104461EF0F3FF204654
:102F000010BD10B5C42104461EF0ECFF204610BDD4
:102F10006C30884208B505D10CF024FDBDE80840AE
:102F2000FFF7DCBD08BD70B5036804461B6B154692
:102F300098472368294620465B6BBDE870401847D8
:102F4000F8B5194B018F1B888B4206462AD9174BBF
:102F50001B682BB9164B174A17486C211FF0FEFE51
:102F600013F81120154B1B6853F82250144B1868A6
:102F700000F0B6FE2B6807469B6B284698472B68E7
:102F800004469B6C3946284698472B6814FB00F48E
:102F90005B6A394628469847A4B223181BB2A6F8A4
:102FA0004630F8BD0023FAE7FC2E0120F82E012060
:102FB000594802089B480208D6480208002F012001
:102FC000042F01202DE9F34104460EF0CFFC2F4BD6
:102FD00023602F4B0025C4E910354FF4807304F1B2
:102FE0006C06A4F86430FF2384F86630C4E91255F7
:102FF000C4E91455C4E91655E5632566A56630464F
:103000000AF004F9234BC4E92D34234B04F14007A3
:103010002A46C4E92F3529463846FFF784FF38464B
:10302000F021FEF785F938464FF4A071FEF782F9DA
:1030300004F104084FF07F43A3663946404606F08A
:10304000BDFA29463046C222FFF76DFF01AA694644
:1030500001233046ADF80430ADF8005009F0CDFD45
:103060000423A4F8A4303046FFF76AFF4FF0FF3383
:10307000C4E92A3304F1B4034046C4F8943031461D
:1030800006F09CFA204602B0BDE8F08164520208C6
:10309000945902084C520208112F000830B50368F9
:1030A00085B06D460181D3F8843001460446284638
:1030B000984795E807003C3484E8070005B030BD28
:1030C00030B5036885B06D464181D3F88430014640
:1030D00004462846984795E807003C3484E80700F2
:1030E00005B030BD0022028042808280C2807047DD
:1030F00080F83610704770B5036804461B6B1546A0
:1031000098472368294620465B6EBDE87040184703
:1031100000207047806C7047704770477047704759
:10312000704790F82C304BB100F16C021268C26508
:103130003BB100F174031B680366704700F168023D
:10314000F4E700F17003F6E730B4C2684468551044
:10315000034604EB6200D20748BF62599B6830BC4B
:1031600048BFD35818470346406830B19A681AB927
:10317000D86800F0010070470120704730B4C26881
:1031800044685510034604EB6200D20748BF6259F9
:103190009B6830BC48BFD35818470346406830B1DD
:1031A0009A681AB9D86800F001007047012070478A
:1031B00090F82D3080F85A30704710B54C210446F5
:1031C0001EF090FE204610BD10B5782104461EF07A
:1031D00089FE204610BD10B5102104461EF082FE67
:1031E000204610BD10B5102104461EF07BFE20467F
:1031F00010BD10B50446983000F0EDFD04F1F0006C
:1032000000F0E9FD04F5A47000F0E5FD04F5D070D0
:1032100000F0E1FD04F5FC7000F0DDFD04F5147034
:1032200000F0D9FD04F52A7000F0D5FD04F54070DA
:1032300000F0D1FD04F5567000F0CDFD04F56C7082
:1032400000F0C9FD04F5816000F0C5FD04F58C6057
:1032500000F0C1FD04F5976000F0BDFD04F5A2602B
:1032600000F0B9FD04F5AD6000F0B5FD04F5B860FF
:10327000BDE8104000F0AFBD08B5FEF70FF908BD7E
:1032800010B50446006B50B10368DB68984730B155
:10329000206B036821469B68BDE81040184710BDAD
:1032A00000F5CC628A4202D10368DB6A1847704796
:1032B0000B7970B590F82C6004460D460BB916B129
:1032C00070BD002EFCD0B3FA83F35B0984F82C3078
:1032D00023682046D3F88C309847236820465B69E2
:1032E0009847002EECD02B79012BE9D1236820469A
:1032F000D3F88830BDE8704018470000036870B507
:103300005E6B124B1B6804468DB22BB9104B114AF1
:103310006C2111481FF022FD1049828D09889142CD
:1033200003D80F4B0B4A6D21F3E713F812200D4B16
:103330001B6853F8220003681B6B9847291A334611
:10334000204609B2BDE87040184700BFF82E0120A2
:10335000594802089B480208D6480208FC2E012062
:103360001D490208002F012000F5C360884208B5FE
:1033700005D10CF0F7FABDE80840FFF79FBB08BD88
:1033800000224FF0FF31C0E900218260704770B524
:1033900004461D46BDF91060FFF7C5FD23682946A8
:1033A00020469B6B9847236831462046DB6BBDE87F
:1033B000704018470022C0E90122C0E90322C0E999
:1033C0000522C0E907224FF480728284014A02601C
:1033D000704700BF9852020810B52622044600210B
:1033E0001FF02FFF2046FFF7E5FF044B2360FF236C
:1033F00084F826300023A362204610BD94590208A9
:1034000010B5034B03600446FFF736F9204610BDA4
:1034100094540208224B10B50446036000F5B860CE
:10342000FFF7EEFF04F5AD60FFF7EAFF04F5A260D9
:10343000FFF7E6FF04F59760FFF7E2FF04F58C6005
:10344000FFF7DEFF04F58160FFF7DAFF04F56C702B
:10345000FFF7D6FF04F55670FFF7D2FF04F5407072
:10346000FFF7CEFF04F52A70FFF7CAFF04F51470CA
:10347000FFF7C6FF04F5FC70FFF7C2FF04F5D0703C
:10348000FFF7BEFF04F5A470FFF7BAFF04F1F000E8
:10349000FFF7B6FF04F19800FFF7B2FF204610BD1A
:1034A0005C54020810B50446FFF7B4FF20464FF401
:1034B000FB611EF017FD204610BD10B50446FFF756
:1034C0009FFF204658211EF00DFD204610BD000034
:1034D00010B52622044600211FF0B3FE2046FFF758
:1034E00069FF0A4B23600A4BA3624FF6FF73A38563
:1034F0004FF47F020023C4E90C3223874FF0FF32E0
:10350000C4E91023E363204610BD00BF045902083C
:10351000205102082DE9F04F04469FB0A046002537
:103520000EF024FADB4BE56348F8403B04F16C07EE
:103530004046FFF751FF4FF6FF76262229463846D0
:10354000ADF870601FF07DFE3846FFF733FFD24BB9
:10355000E366BDF87030A4F892301CA984F894603A
:10356000384609F011FD04F198031846069300F05F
:10357000E1FB04F1F0031846079300F0DBFB04F5D0
:10358000A4731846089300F0D5FB04F5D0731846D1
:10359000099300F0CFFB04F5FC7318460A9300F082
:1035A000C9FB04F5147318460B9300F0C3FB04F534
:1035B0002A7318460C9300F0BDFB04F540731846BF
:1035C0000D9300F0B7FB04F5567318460E9300F008
:1035D000B1FB04F56C7318460F9300F0ABFB04F5D8
:1035E00081631846109300F0A5FB04F58C63184620
:1035F000119300F09FFB04F597631846129300F0B7
:1036000099FB04F5A2631846139300F093FB04F5AD
:10361000AD631846149300F08DFB04F5B86304F510
:10362000C36B1846159300F085FB584609F0EEFD74
:1036300004F5CC6303934FF47F43A4F88C3640F237
:103640000113A4F88436954BC4F8603604F29463F1
:10365000C4F88856C4F89056C4F86456C4F868563E
:10366000C4F86C56C4F87056C4F87456C4F878564A
:10367000C4F87C56C4F8805618460493FFF7ACFE95
:10368000874BC4F894362A460498C4F8C056294695
:10369000A4F8C456C4F8C856C4F8CC56C4F8D056DA
:1036A000C4F8D456FFF73FFC04F5DB6ADDE90301FB
:1036B00005F084FF04F5E4695046FFF709FF48462A
:1036C000FFF706FF774EC4F8206704F26C73C4F866
:1036D000685718460593FFF7FBFE734BC4F8B837DD
:1036E000724BC4F8C037724BC4F8C837714BC4F87A
:1036F000D0374FF4A073C4F86C672A46C4F8B457A7
:10370000C4F8BC47C4F8C457C4F8CC47C4F8D4576D
:10371000294600934046F023261DFFF738FE4FF060
:103720007F43A3664146304605F048FF50222946B4
:103730003846FFF7F8FB0E231CA93846ADF8703069
:1037400009F022FC3946304605F038FF0698582229
:103750000821FFF7E8FB0699304605F02FFF079890
:1037600058224221FFF7DFFB0799304605F026FF7C
:10377000089858227C21FFF7D6FB0899304605F0BF
:103780001DFF09985822B621FFF7CDFB0999304655
:1037900005F014FF0A9892220821FFF7C4FB0A994A
:1037A000304605F00BFF0B9892224221FFF7BBFB3E
:1037B0000B99304605F002FF0C9892227C21FFF70E
:1037C000B2FB0C99304605F0F9FE0D989222B62115
:1037D000FFF7A9FB0D99304605F0F0FE0E98CC22BC
:1037E0000821FFF7A0FB0E99304605F0E7FE0F9881
:1037F000CC224221FFF797FB0F99304605F0DEFE01
:103800001098CC227C21FFF78EFB1099304605F0F2
:10381000D5FE1198CC22B621FFF785FB11993046D1
:1038200005F0CCFE12984FF483720821FFF77BFB62
:103830001299304605F0C2FE13984FF4837242216C
:10384000FFF771FB1399304605F0B8FE14984FF45A
:1038500083727C21FFF767FB1499304605F0AEFEBA
:1038600015984FF48372B621FFF75DFB159930462A
:1038700005F0A4FE2A4629465846FFF754FB1CAA29
:103880001BA94FF001035846ADF87030ADF86C50ED
:1038900012E000BF5C540208645A02089053020808
:1038A000FC590208005302082C540208693300082E
:1038B00044540208A132000809F09FF90323A4F838
:1038C00050365846FFF73CFB4FF0FF3804F5F763DE
:1038D000C4F84036594630461627C4F85486C4F812
:1038E000588605F06BFE2A462946049800972A233D
:1038F000FFF74DFD0523A4F8C436434BC4F8CC367E
:1039000003F54B1303F6CD430398C4F8D436C4F83B
:10391000C886C4F8D086FFF704FC04F5F963C4F840
:103920009036039800972A2335220C21FFF72FFDAC
:103930000399DFF8D8B0304605F040FE50463A22F1
:103940001321FFF7F0FA16AF4FF07F42C4F80827B3
:1039500051463846A4F80C5708F04AFE97E807008D
:1039600004F2147383E8070002221CA95046ADF844
:103970007420CDF870B009F0E3F85146304605F0F8
:103980001DFE484635225021FFF7CDFAD4F82027F6
:10399000C4F8508749463846D2F88420A4F85457D2
:1039A000904797E8070004F25C7C8CE807004FF032
:1039B00001031CA94846ADF87430CDF870B009F089
:1039C000BFF84946304605F0F9FD35220598B62185
:1039D000FFF7A9FA0598C4F89C871CA9A4F8A0577A
:1039E000C4F8A857C4F8AC87C4F8B057CDF870B085
:1039F000ADF8745009F0A4F83046059905F0DEFDE5
:103A000020461FB0BDE8F08FCC9900FF205102087E
:103A10007047000030B5174D2C6814F001048FB0CA
:103A2000BFF35B8F22D128461EF05EFAF0B13F2330
:103A30000993114B0893114B07930123CDE90543DB
:103A400004930423CDE902430A230D4900930F2276
:103A50000C23CDE90B440B480A940194FFF7F8F9C5
:103A600009481FF099F928461EF04AFA05480FB098
:103A700030BD00BF8C2000205C6A0208686A020822
:103A8000D068020890200020113A0008704700001A
:103A900030B5164D2C6814F001048FB0BFF35B8F66
:103AA00021D128461EF020FAE8B13F230993104B9C
:103AB0000893104B104911480A94CDE9064301229E
:103AC0000423CDE90332142300930C22CDE90B44E7
:103AD000CDE901440594FFF7BBF909481FF05CF9F3
:103AE00028461EF00DFA05480FB030BDBC2000205E
:103AF000606A02086C6A0208A4690208C0200020FB
:103B00008D3A00087047000030B5164D2C6814F04F
:103B100001048FB0BFF35B8F20D128461EF0E4F97B
:103B2000E0B13F230993104B0893104B1049114803
:103B30000A940122CDE906430423CDE90332282368
:103B40000093CDE90B44CDE901440594FFF780F9DA
:103B500009481FF021F928461EF0D2F905480FB098
:103B600030BD00BFEC200020646A0208706A0208C1
:103B70004C6A0208F0200020053B00080020704736
:103B8000002070470EB403B503AB002153F8042B9B
:103B900001930CF06FFF02B05DF804EB03B07047C7
:103BA0000CB407B504AB53F8042B01930CF062FF7F
:103BB00003B05DF804EB02B070470000436C10B531
:103BC000044673B3038F2BB9184B194AC521194802
:103BD0001FF0C4F8C38E00EB43035B8C0BB30EF0F5
:103BE000FCFD238F012B03D8134B144ACB21EEE7A6
:103BF000E28E531C9BB2092B194688BFA3F10A0120
:103C000004EB410140F63F10498C814209D10A2B57
:103C100004EB420228BF002304EB4303508C58847A
:103C200051842046BDE810400EF0DABC5B49020822
:103C3000644902080F4A0208594A0208674A020802
:103C40000EF095BC10B586B002AC84E806001A46AA
:103C50000AAB05930193099B00932146089B0BF047
:103C60001FFA06B010BD000038B518BB124B134840
:103C70001C681349B4B1226822440260626822447D
:103C80000A60A26814440F4B00221A8000F038F832
:103C9000054600F033F80C4B1C600C4B1D600C4BC0
:103CA000188007E00B4B03600B4B0B600B4B1C6841
:103CB000002CE8D138BD00BF2821002020210020A1
:103CC0001C21002024210020F82E0120002F01209B
:103CD000FC2E0120886A0208746A0208E46A02085D
:103CE000044B1B6853F82100034B1B6803EB400097
:103CF000704700BF1C2100202021002005207047B4
:103D0000004870472C21002010B5FFF7C1FE044C7D
:103D10002060FFF7F9FE6060FFF77CFEA06010BD39
:103D20002C21002010B5002404600C6014601C607D
:103D300010BD000010B50446FEF7A8FC014B23603F
:103D4000204610BD94540208402913B500F12C04FC
:103D50002DD00ED8082926D005D802291CD0042938
:103D60001FD0022319E010291FD02029F9D10923DF
:103D700013E0B1F5007F2AD006D8802919D0B1F51B
:103D8000807FEED1082308E0B1F5806F21D0B1F536
:103D9000006FE6D1072300E00623ADF8043001A947
:103DA0000CE00A23F9E70D23F7E70523F5E70C23D9
:103DB000F3E70423ADF804300DEB0301204609F0CE
:103DC000E3F8204602B0BDE810400CF07DBF0B23A5
:103DD000E3E70323E1E710B50446FEF74EFC204677
:103DE0000021BDE81040FFF7AFBF704710B54FF49A
:103DF000B07104461EF076F8204610BD10B504469A
:103E0000D0F85C0100F0AEF92046BDE810400BF0A0
:103E10002BBE000038B504460D46FEF70BFE034BE3
:103E20002360C4F85C51204638BD00BF2855020805
:103E300070B50023A0B00446811C1D460846002230
:103E400030F8026F2EB920AE06EBC50646E92032E7
:103E500001350132042AF3D10133042B01F10801A9
:103E6000ECD1D5B11FF08AF820AA90FBF5F303FB43
:103E7000150302EBC30353E920651FF07FF80A2303
:103E800005EB860590FBF3F202FB1300092804EB17
:103E900045040CBF04230223A38020B070BD10B5DD
:103EA000002303604362044600F06EFD1FF038F803
:103EB0002046FFF7BDFF2046FFF7BAFF204610BDA2
:103EC0002DE9FF4100240646071D2546002110224A
:103ED00068461FF0B6F9BE4601213EF8023F8BB39B
:103EE0007246084632F802CD03460138BCF1000F95
:103EF00021D05A1E02EB840003EB840306EB400042
:103F000006EB4303B0F80480B3F804C0C44519D1EC
:103F10000DF1100808EB820252F8108CB8F1000F76
:103F200010D14FEA4C0C0125A0F804C042F8105CF7
:103F3000A3F8048006E053881380A2F802C001258C
:103F40000028CFD101310429C7D10134042C07F155
:103F50000807BBD12DB1304604B0BDE8F041FFF7F2
:103F600067BF04B0BDE8F081F0B5002485B0064617
:103F700025460021102268461FF063F906EB440134
:103F800001208B89083193B30B46074633F804CCE4
:103F90003A46013FBCF1000F20D0531E9F0004EBB6
:103FA000820204EB830306EB430306EB4202B3F801
:103FB00004E0B2F804C0F44519D110376F4457F843
:103FC00010ECBEF1000F12D14FEA4C0C0125A3F802
:103FD00004C047F8105CA2F804E008E09A8823F8CF
:103FE000042CA3F804C00125083B002FCED10130DA
:103FF0000428C6D10134042CBBD12DB1304605B004
:10400000BDE8F040FFF714BF05B0F0BD2DE9FF415A
:104010000024064600F10A072546002110226846C2
:104020001FF00FF9BE4602213EF8023D9BB37246D7
:104030000846B2F802C003460130BCF1000F21D09F
:104040005A1C02EB840003EB840306EB400006EBF2
:104050004303B0F80480B3F804C0C4451BD10DF18C
:10406000100808EB820252F8108CB8F1000F12D140
:104070004FEA4C0C0125A0F804C042F8105CA3F8EC
:10408000048008E0138822F8023F032822F802CCBB
:104090004FF00105CDD10139C6D20134042C07F10E
:1040A0000807BAD12DB1304604B0BDE8F041FFF7A2
:1040B000BFBE04B0BDE8F081F0B5002485B006466F
:1040C00025460021102268461FF0BBF806EB44008D
:1040D0000221838AA3B300F110030F46B3F80CC08A
:1040E0003A460137BCF1000F20D0531C9F0004EB6F
:1040F000820204EB830306EB430306EB4202B3F8B0
:1041000004E0B2F804C0F4451AD110376F4457F8F0
:1041100010ECBEF1000F13D14FEA4C0C0125A3F8AF
:1041200004C047F8105CA2F804E009E09A889A817C
:10413000032FA3F804C04FF0010503F10803CDD10C
:1041400001394B1CA0F10800C3D10134042CB8D1B3
:104150002DB1304605B0BDE8F040FFF769BE05B0AF
:10416000F0BD000070B5134D2B78044683B9124E94
:1041700033786BB101232B703378013B032B05D8C7
:10418000DFE803F01215020FFFF79AFE00233370E9
:10419000606A18B10368211DDB68984700232B7003
:1041A00070BDFFF733FFF1E7FFF7DEFEEEE7FFF745
:1041B00083FFEBE7382000203920002070B5051D73
:1041C00004462022002128461FF03BF82046FFF736
:1041D0002FFE2046FFF72CFE606A28B103682946AF
:1041E000DB68BDE87040184770BD70477047704786
:1041F00004387047704710B5102104461DF072FE58
:10420000204610BDA0F10400F5E700000022826006
:10421000024A026018324260C16070477C55020851
:104220007047000010B5034B03600446FEF746FEDE
:10423000204610BDAC55020810B50446FFF7F2FF4A
:104240002046C4211DF04EFE204610BD10B5044688
:10425000FEF7B8FE014B2360204610BDAC550208A6
:10426000FEF72DBE704704387047704710B5102117
:1042700004461DF037FE204610BDA0F10400F5E70E
:10428000C06800F051B8A0F10400FFF7F9BF6B2936
:1042900002D88068FFF714BE942902D98068FFF71E
:1042A000B5BE6B2A02D88068FFF75EBE942A02D999
:1042B0008068FFF701BF7047A0F10400FFF7E7BF78
:1042C00000228260024A026020324260C160704770
:1042D000E0550208806808B1FFF770BF704770476B
:1042E000C06BFFF7F7BF000010B5034B0360044637
:1042F000FFF790F8204610BD1856020810B5044686
:10430000FFF7F2FF204640F618011DF0EBFD2046B6
:1043100010BD000010B50446FFF7FCF8014B236008
:10432000204610BD185602082DE9F04100F2D4765F
:104330008C1E01F11E05374604F1080834F8021FEF
:1043400057F8040FFFF700FD4445F7D1A54206F1E9
:104350001006F0D1BDE8F08110B50446FEF749FF24
:1043600004F19803C4F8D83704F1F003C4F8DC373B
:1043700004F5A473C4F8E03704F5D073C4F8E43747
:1043800004F5FC73C4F8E83704F51473C4F8EC378B
:1043900004F52A73C4F8F03704F54073C4F8F43711
:1043A00004F55673C4F8F83704F56C73C4F8FC3799
:1043B00004F58163C4F8003804F58C63C4F804384C
:1043C00004F59763C4F8083804F5A263C4F80C3800
:1043D00004F5AD63C4F8103804F5B863C4F81438B4
:1043E00010BDF02070474FF4A07070472920FDF7F2
:1043F000E9BC2820FDF7E6BC08B5FDF7B7FCCA20EC
:10440000FDF7E0FCC320FDF7C1FC0820FDF7BEFC72
:104410005020FDF7BBFCCF20FDF7D4FC0020FDF7BA
:10442000B5FCC120FDF7B2FC3020FDF7AFFCED205C
:10443000FDF7C8FC6420FDF7A9FC0320FDF7A6FCEE
:104440001220FDF7A3FC8120FDF7A0FCE820FDF77A
:10445000B9FC8520FDF79AFC0020FDF797FC782039
:10446000FDF794FCCB20FDF7ADFC3920FDF78EFC69
:104470002C20FDF78BFC0020FDF788FC3420FDF795
:1044800085FC0220FDF782FCF720FDF79BFC202035
:10449000FDF77CFCEA20FDF795FC0020FDF776FC9B
:1044A0000020FDF773FCB120FDF78CFC0020FDF728
:1044B0006DFC1B20FDF76AFCB620FDF783FC0A208B
:1044C000FDF764FCA220FDF761FCC020FDF77AFC3B
:1044D0001020FDF75BFCC120FDF774FC1020FDF7F8
:1044E00055FCC520FDF76EFC4520FDF74FFC15205F
:1044F000FDF74CFCC720FDF765FC9020FDF746FC5E
:104500003620FDF75FFCC820FDF740FCF220FDF7E8
:1045100059FC0020FDF73AFCB020FDF753FCC22007
:10452000FDF734FCB620FDF74DFC0A20FDF72EFC0C
:10453000A720FDF72BFC2720FDF728FC0420FDF722
:1045400025FC2A20FDF73EFC0020FDF71FFC002083
:10455000FDF71CFC0020FDF719FCEF20FDF716FC11
:104560002B20FDF72FFC0020FDF710FC0020FDF7AD
:104570000DFC0120FDF70AFC3F20FDF707FCF620AB
:10458000FDF720FC0120FDF701FC0020FDF7FEFBFC
:104590000620FDF7FBFB2C20FDF714FCC820FDF7DF
:1045A0005FFC2620FDF70EFC0120FDF7EFFBE0206D
:1045B000FDF708FC0F20FDF7E9FB2920FDF7E6FBDE
:1045C0002420FDF7E3FB0C20FDF7E0FB0E20FDF7B8
:1045D000DDFB0920FDF7DAFB4E20FDF7D7FB782045
:1045E000FDF7D4FB3C20FDF7D1FB0920FDF7CEFB06
:1045F0001320FDF7CBFB0520FDF7C8FB1720FDF7C7
:10460000C5FB1120FDF7C2FB0020FDF7BFFBE12039
:10461000FDF7D8FB0020FDF7B9FB1620FDF7B6FB30
:104620001B20FDF7B3FB0420FDF7B0FB1120FDF7C5
:10463000ADFB0720FDF7AAFB3120FDF7A7FB3320D8
:10464000FDF7A4FB4220FDF7A1FB0520FDF79EFB33
:104650000C20FDF79BFB0A20FDF798FB2820FDF7B7
:1046600095FB2F20FDF792FB0F20FDF78FFB11200C
:10467000FDF7A8FBC820FDF7F3FB2920FDF7A2FBFF
:10468000BDE808402C20FDF79DBB08B5FDF76EFB8B
:104690000321D320FDF7B2FB80B208BD10B5C4B230
:1046A000022203212046FDF717FB0A20FDF75CFBE1
:1046B000204600220321FDF70FFBBDE81040022039
:1046C000FDF752BB38B50446E4B2FDF703FB002109
:1046D0002046FDF719FB012105462046FDF714FB96
:1046E00040EA052080B238BD10B5C4B24021204652
:1046F000FDF70AFB030607D54C212046FDF704FB16
:10470000003818BF012010BD01224B212046FDF7C3
:10471000E3FA204600224B21FDF7DEFA0020F2E703
:1047200073B50423C4B20E461546D7210DEB030220
:104730002046FDF703FB019B1BBA1A0DC3F30B23A5
:10474000328020462B8001224B21FDF7C5FA002242
:104750004B212046FDF7C0FA02B070BD10B50A4AE1
:104760001378984204460DD0517888420AD00BB194
:1047700041B90123D454FDF7ADFA2046BDE81040FD
:10478000FFF78CBF10BD00BF3821002010B5C4B2A8
:1047900009212046FDF7B8FA40F00102D2B22046C6
:1047A0000921BDE81040FDF797BA10B5C4B2092140
:1047B0002046FDF7A9FA092100F0FE022046BDE8D7
:1047C0001040FDF789BA38B5C4B20D4620460A211B
:1047D000FDF79AFA40EA0502D2B220460A21BDE866
:1047E0003840FDF779BA10B50446FDF774FA204653
:1047F0001F21FFF7E8FF2046BDE81040FFF7C6BFC6
:1048000038B5C4B20D4620460A21FDF77DFA20EAEC
:104810000502D2B220460A21BDE83840FDF75CBA55
:1048200010B50446FFF7C1FF20461F21BDE8104028
:10483000FFF7E6BF10B5C0B20C460B21FDF764FAD6
:10484000204010BD1F21FFF7F5BF0A46C0B20B2163
:10485000FDF742BA1F21FFF7F8BF38B5C4B20D46C5
:1048600020461721FDF750FA20EA0502D2B2204671
:104870001721BDE83840FDF72FBA70B5C4B206461F
:1048800004212046FDF740FA042100F0FB02054612
:104890002046FDF721FA3046F021FFF7DEFF05F054
:1048A000F80220460421FDF717FA4922202120466C
:1048B000FDF712FA0220FDF757FA204601222121C6
:1048C000FDF70AFA20469A224121FDF705FA204613
:1048D00001224A21FDF700FA204601224B21FDF773
:1048E000FBF9204600224B21FDF7F6F92046012274
:1048F0005621FDF7F1F9204601225821FDF7ECF988
:10490000204601224021FDF7E7F92046FF220B2136
:10491000FDF7E2F9BDE870400220FDF725BA00007E
:10492000054BD3F8882042F47002C3F888204FF07A
:1049300000629A60704700BF00ED00E008B50B4BC5
:104940001A6842F400721A601A6842F480621A60AF
:104950001A6842F480721A60032000F08BFA00207B
:10496000FDF776FDFDF7AAFA002008BD003C0240E5
:10497000034A044B11681B780B441360704700BF57
:104980003C21002078000020014B1868704700BFD0
:104990003C21002038B50446FFF7F6FF631C1CBF1E
:1049A000054B1B78054618BFE418FFF7EDFF431BC6
:1049B000A342FAD338BD00BF7800002038B50446C2
:1049C000002800F09B80056C25B9FDF797FA656417
:1049D00084F83C50236CDB0600F18E80236C23F4BA
:1049E000885323F0020343F002032364444B5A68C4
:1049F00022F440325A605A6861680A435A60236858
:104A000021695A6822F480725A605A6842EA012287
:104A10005A605A68A16822F040725A605A680A4384
:104A20005A609A68E16822F400629A609A680A43C0
:104A30009A603449A26A8A4252D0996821F0706122
:104A4000996099680A439A609A68E16A22F0405234
:104A50009A609A680A439A609A6822F002029A6001
:104A60009A68217E42EA41029A6094F82020002A46
:104A70003ED05A68616A42F400625A605A6822F471
:104A800060425A605A68013942EA41325A60DA6A31
:104A9000E16922F47002DA62DA6A013942EA01520B
:104AA000DA629A6822F400729A609A6894F8301078
:104AB00042EA41229A609A68616922F480629A60AF
:104AC0009A68002042EA81229A606064236C23F095
:104AD000030343F001032364002384F83C3038BD12
:104AE0009A6822F070629A609A6822F04052B2E7A7
:104AF0005A6822F40062C9E70120EDE70120EEE7E1
:104B0000002301400100000F82B00023019390F8C0
:104B10003C30012B6FD0012380F83C3003689A6849
:104B2000D2070BD59A68D1071AD4036C43F010034F
:104B30000364436C43F00103436452E09A682F49D5
:104B400042F001029A602E4A1268B2FBF1F202EBC7
:104B500042020192019A002AE4D0019A013AF8E750
:104B6000026C22F4E06222F0010242F480720264DC
:104B70005A68520541BF026C22F4405242F48052FE
:104B80000264026C12F480521CBF426C22F00602D6
:104B90004264002280F83C206FF022021A605A68BA
:104BA00042F0806242F020025A60164A516811F0C9
:104BB0001F0F15491CD18B4207D001F580718B4224
:104BC0000CD1526812F01F0F0BD19A6812F0405F9F
:104BD00007D19A6842F080429A6002E00B498B420A
:104BE00002D0002002B07047526812F0100FEBE7BD
:104BF0008B42F6D1E9E70220F4E700BF40420F0004
:104C000074000020002301400020014000220140E8
:104C10000368D86C704770477047036870B51E68AA
:104C20005D68B20704462BD5A80629D5226CD106AB
:104C30005EBF226C42F4007222649A6812F0405FF8
:104C400017D1227EAAB9DA6A12F4700F02D09A68DC
:104C500052050ED45A6822F020025A60236C23F4C5
:104C600080732364236CD8045EBF236C43F001037C
:104C700023642046FDF7F6F823686FF012021A60ED
:104C8000710733D52A0631D5236CDB065EBF236C52
:104C900043F40053236423689A6812F4401F1ED122
:104CA0009A6B12F4401F02D09A68500517D45A68C4
:104CB000510514D49A6812F0405F10D1227E72B967
:104CC0005A6822F080025A60236C23F480532364D4
:104CD000236CDA055EBF236C43F001032364204696
:104CE00000F0C6F823686FF00C021A60F30710D5C5
:104CF00068060ED523681B68D9070AD5236C43F4D0
:104D0000803323642046FFF786FF23686FF001029B
:104D10001A60B2060ED56B010CD5636C43F002032A
:104D2000636423686FF020051D602046FFF774FF61
:104D300023681D6070BD0000F7B50023019390F853
:104D40003C30012B054600F08680012380F83C3082
:104D500008682B688E68092884B233D904EB4402B2
:104D6000DF681E3A4FF0070C0CFA02FC27EA0C072A
:104D7000DF60DF6806FA02F23A43DA604968062922
:104D800001EB81022DD8596B053A1F26964021EA86
:104D900006015963596B04FA02F20A435A632F4A17
:104DA00093420AD1122837D12D4B5A6822F40002BF
:104DB0005A605A6842F480025A60002085F83C002C
:104DC00003B0F0BD1A6900EB400C072707FA0CF797
:104DD00022EA07021A611A6906FA0CF616431E61E6
:104DE000CCE70C294FF01F010BD81E6B233A9140E2
:104DF00026EA01011963196B04FA02F20A431A63E5
:104E0000CDE7DE6A413A914026EA0101D962D96ACA
:104E100094400C43DC62C2E7124B984201D0112847
:104E2000CBD10F4B5A6822F480025A605A6842F480
:104E300000025A600B4B9842BFD10B4B0B4A1B68C8
:104E4000B3FBF2F30A2253430193019B002BB4D02E
:104E5000019B013BF8E70220B2E700BF00200140C0
:104E600000230140120000107400002040420F0097
:104E7000704700000749CA6822F4E0620302120486
:104E800003F4E063120C134343F0BF6343F40033B5
:104E9000CB60704700ED00E0164B30B5DC68C4F322
:104EA0000224C4F10703251D042B28BF0423062D6B
:104EB0004FF0FF358CBF033C002405FA03F321EAD1
:104EC0000303A54022EA0502A340002843EA0203A7
:104ED000ACBF00F16040084A4FEA0313B8BF00F0CE
:104EE0000F00DBB2AABF00F56140135480F8003315
:104EF00030BD00BF00ED00E014ED00E0002807DB4E
:104F0000044A4109012300F01F00834042F8213088
:104F1000704700BF00E100E010B5044650B143798E
:104F200003F0FF0213B90271FDF748F80123637122
:104F3000002010BD0120FCE710B5044620B390F816
:104F4000393003F0FF021BB980F83820FDF74EF826
:104F5000022384F83930236861681A6822F44032E9
:104F60000A431A605A6BA16822F007020A435A6387
:104F70001A6CE1686FF30D020A431A6400200123E2
:104F8000E06384F8393010BD0120FCE770477047BA
:104F9000036870B55E681D68F207044614D5E9051C
:104FA00012D51A6822F480721A60C26B42F00102B4
:104FB000C26301229A60042380F83930002380F80C
:104FC0003830436903B19847B20616D5AB0414D5FF
:104FD00023681A6822F400521A6020229A60E36B58
:104FE00043F00203E363042384F83930002384F898
:104FF000383063690BB120469847300716D529052C
:1050000014D523681A6822F400621A6008229A6094
:10501000E36B43F00403E363042384F83930002393
:1050200084F8383063690BB12046984772070BD576
:105030006B0509D523681A6822F480621A6004227D
:105040009A602046FFF7A2FFB00714D5A90512D534
:1050500023681A6822F400721A6002229A60E36BD5
:10506000E363012384F83930002384F8383023695E
:105070000BB120469847F20613D5EB0411D52368EF
:105080001A6822F480521A6010229A60E36BE3637C
:10509000012384F83930002384F838302046FFF7A4
:1050A00076FF70BDF0B590F83820012A03464FF026
:1050B00002002BD0012283F8382083F8390003EB5B
:1050C0000112D2E90740556A174F44EA0040093CF3
:1050D000012C9CBF05F07F4210434FEA01161A686D
:1050E00088BF40EA056091B9516A39400143516275
:1050F000012C9969916103D8596A21F07F4191622D
:105100000122002083F8392083F83800F0BDD169EE
:1051100039400143D1619919012C896911619CBF02
:1051200025F07F451562EBE7F0FFFC002DE9F74F16
:10513000DFF8BC916C4A00230D6801249C4004EA0E
:105140000506AC4340F0B7804D68032705F0030423
:105150004FEA430807FA08FC671E012F6FEA0C0CA0
:1051600034D8876807EA0C0ECF6807FA08F747EAD1
:105170000E078760476827EA060EC5F300179F40B1
:1051800047EA0E074760C76807EA0C0E8F6807FA00
:1051900008F747EA0E07022CC76019D14FEAD30A75
:1051A00000EB8A0A03F0070BDAF820704FEA8B0B4A
:1051B0004FF00F0E0EFA0BFE27EA0E0E0F6907FADC
:1051C0000BF747EA0E07CAF8207001E0032CDAD18A
:1051D000076804FA08F407EA0C073C4315F4403F5B
:1051E000046068D000240194D9F8444044F4804419
:1051F000C9F84440D9F8444023F0030707F1804739
:1052000004F4804407F59C37019403F0030C019CDF
:10521000D7F808E04FEA8C0C0F2404FA0CF42EEABD
:10522000040E324CA0424DD004F58064A0424BD015
:1052300004F58064A04249D004F58064A04247D0C0
:1052400004F58064A04245D004F58064A04243D0B8
:1052500004F58064A04241D004F58064A0423FD0B0
:1052600004F58064A0423DD004F58064A04214BFE0
:105270000A24092404FA0CF444EA0E04BC6094687D
:10528000F74315F4801F0CBF3C4034439460D4684E
:1052900015F4001F0CBF3C403443D460546815F42F
:1052A000003F0CBF3C40344354601468ED0354BFCE
:1052B0003C40344314600133102B7FF43DAF03B006
:1052C000BDE8F08F0024D5E70124D3E70224D1E71D
:1052D0000324CFE70424CDE70524CBE70624C9E760
:1052E0000724C7E70824C5E7003C0140000002404E
:1052F000003802400369194214BF012000207047A2
:105300000AB1816170470904FBE7436901EA0302BE
:1053100021EA030141EA02418161704701684B695A
:1053200013F480634FF0000210D06FF480634B6180
:105330002023026380F83D3080F83E20036C80F823
:105340003C2043F004030364012070471846704773
:105350002DE9F84606460F4691461D464FEA114A8A
:105360003368BAF1010F0CBF5C699C6927EA040439
:10537000A4B2B4FA84F46409A14501D0002025E068
:105380006A1CEED0FFF700FB089BC01AA84201D8A8
:10539000002DE5D13368BAF1010F0CBF5B699B6941
:1053A00027EA03039BB2B3FA83F35B099945D7D18C
:1053B00000232022336386F83D2086F83E30326C8D
:1053C00086F83C3042F0200232640120BDE8F886C5
:1053D0002DE9F04104460F4616469846256868694F
:1053E00027EA000080B2C0B16B695A0517D52B6857
:1053F00043F400732B606FF480636B612022002301
:10540000236384F83D2084F83E30236C43F004038A
:105410002364002384F83C300120BDE8F081731C34
:10542000DDD0FFF7B1FAA0EB0800B04201D8002EA2
:10543000D4D123685A6927EA020292B2002ACDD059
:1054400000232022236384F83D2084F83E30236C1F
:105450001343DDE770B504460D46164623685B69C5
:105460001B0601D500201EE02046FFF757FFC8B9F4
:105470006A1CF3D0FFF788FA801BA84201D8002DE0
:10548000ECD123685B6913F08003E7D1202223630A
:1054900084F83D2084F83E30226C84F83C3042F0A1
:1054A00020022264012070BD2DE9F04315460268F8
:1054B00085B0DDE90C789946136843F48073136076
:1054C0000E463B46CDF8008000224FF00111044605
:1054D000FFF73EFF236838B11B68DB0502D54FF4A8
:1054E00000732364032620E006F0FE061E611A49BD
:1054F00043463A462046FFF76BFFA8B9236803905E
:105500005A6903929B690393424639462046039B9E
:10551000FFF7A0FF064660B1236C042B01BF226891
:10552000136843F4007313600126304605B0BDE8EC
:10553000F083B9F1010F236802D1EDB21D61F4E7E8
:105540002A0A1A61394642462046FFF783FF00289F
:10555000E2D12368F1E700BF020001002DE9FF4717
:105560009A46036815461A6842F480621A601A68FF
:10557000DDE90C7842F480721A600E463B46CDF8A5
:10558000008000224FF001110446FFF7E1FE23687E
:1055900038B11B68DB0544BF4FF40073236403205C
:1055A00021E05FFA86F906F0FE061E612B494346AC
:1055B0003A462046FFF70CFFA0B9236803905A69CA
:1055C00003929B690393424639462046039BFFF7AB
:1055D00041FF58B1236C042B01BF2268136843F4C8
:1055E00000731360012004B0BDE8F087BAF1010F29
:1055F00023681AD1EDB242461D6139462046FFF7B5
:1056000029FF02460028E5D121680B6843F4807326
:105610000B602046CDF800803B464FF00111FFF7AC
:1056200097FE226860B11368B4E72A0A1A61394606
:1056300042462046FFF70EFF0028CBD12368D9E76A
:1056400049F001031361054943463A462046FFF7F6
:10565000BFFE003818BF0120C5E700BF02000100EF
:1056600070B504460D46164623685B695B0701D595
:1056700000201EE02046FFF751FEC8B96A1CF3D097
:10568000FFF782F9801BA84201D8002DECD12368D6
:105690005B6913F00403E7D12022236384F83D20E3
:1056A00084F83E30226C84F83C3042F020022264C0
:1056B000012070BD70B504460D46164621684B6941
:1056C00013F0400301D0002011E04A69D2060FD543
:1056D0006FF010024A612022236384F83D2084F891
:1056E0003E30236C2364002384F83C30012070BDDD
:1056F000FFF74AF9801BA84201D8002DDED12368AC
:105700005B6913F04003D9D12022236384F83D2044
:1057100084F83E30236C1343E4E7000070B5044680
:1057200008B9012070BD90F83D3003F0FF021BB9AD
:1057300080F83C20FCF77CFC242384F83D3023686F
:105740001A6822F001021A601A6842F400421A60D4
:105750001A6822F400421A6000F08AFE3F4B656826
:105760009D4294BF3E4B3F4B98428CBF0023012388
:10577000002BD6D12268394E51683B4BB0FBF3F376
:1057800021F03F011943B542516088BF4FF496762E
:10579000116A88BF734321F03F0184BF4FF47A76CA
:1057A000B3FBF6F301330B431362D169431E2B485D
:1057B00021F44F41854221F0FF0132D86D0040F6BF
:1057C000FC70B3FBF5F30133034242D0C3F30B0388
:1057D0001943D161D4E907301168034321F0C001B6
:1057E0000B4313609168D4E9030321F4034103439D
:1057F00021F0FF010B439360D4E90530D1680343E6
:1058000021F0FF010B43D360136843F001031360E1
:1058100000202023206484F83D30206384F83E007B
:1058200080E7A06850B905EB4505B3FBF5F30133FC
:10583000C3F30B037BB143F40043C9E7192068436A
:10584000B3FBF0F30133C3F30B0323B143F4404341
:10585000BEE70423BCE70123BAE700BFA08601002E
:105860007F841E00FF083D0040420F002DE9F743F2
:10587000044699460C9E0F469046FFF785F894F82B
:105880003D30202B054603D0022003B0BDE8F08355
:1058900000903C49192301222046FFF759FD0028BA
:1058A000F2D194F83C30012BEED02068012384F82B
:1058B0003C300368D9075EBF036843F0010303600F
:1058C000036823F400630360212384F83D30402300
:1058D00084F83E30002323640A9B6362BDF82C30B9
:1058E0006385638D2385284BE3624246CDE90065DD
:1058F0004B4639462046FFF7D7FD00282AD0012025
:10590000C3E7FFF7A7FD40B1236C042B01BF22685A
:10591000136843F400731360F1E7636A27681A465B
:1059200012F8011B39616262628D218D013A92B2D7
:1059300062857A69481E80B2520720850AD548B12F
:105940005A783A6102336362638D013B02399BB23C
:1059500021856385238D2A4631462046002BD0D1F0
:10596000FFF77EFE0028CFD12268136843F400734E
:105970001360202384F83D3084F83C0084F83E0016
:1059800083E700BF020010000000FFFF2DE9F04395
:10599000044687B09946109F0D469046FEF7F4FFE7
:1059A00094F83D30202B064604D00225284607B047
:1059B000BDE8F08300907A49192301222046FFF7C1
:1059C000C7FC0028F1D194F83C30012BEDD02068C1
:1059D000012384F83C300368DB075EBF036843F0B3
:1059E00001030360036823F400630360222384F847
:1059F0003D30402384F83E30002323640E9B6362D5
:105A0000BDF83C306385638D2385664BE362294690
:105A1000CDE900764B4642462046FFF79FFD0546FE
:105A200008B10125C2E7228D2368B2B902905A69F4
:105A300002929A690292029A1A6842F400721A60FB
:105A4000DFF86481238D002B2CD1202284F83D20A7
:105A500084F83C3084F83E30A8E7012A0AD11A685D
:105A600022F480621A6003905A6903929A69039241
:105A7000039AE1E7022A0ED11A6822F480621A60C2
:105A80001A6842F400621A6004905A6904929B6991
:105A90000493049BD4E705905A6905929B6905938A
:105AA000059BCDE7032B56D8012B15D1324639463D
:105AB0002046FFF7FFFD0028B3D123681A69636A07
:105AC0001A70636A01336362238D013B2385638D02
:105AD000013B9BB26385B5E7022B00963B464FF036
