:020000040800F2
:10000000000003205D060008F1240008F324000826
:10001000F5240008F7240008F92400080000000077
:10002000000000000000000000000000A17D0008AA
:10003000FB24000800000000317E0008C3760008A1
:10004000AD060008AD060008AD060008AD060008C4
:10005000AD060008AD060008AD060008AD060008B4
:10006000AD060008AD060008AD060008AD060008A4
:10007000AD060008AD060008AD060008AD06000894
:10008000AD060008AD060008FD240008AD06000816
:10009000AD060008AD060008AD060008AD06000874
:1000A000AD060008AD060008AD060008AD06000864
:1000B000AD060008AD060008AD060008AD06000854
:1000C000AD060008AD060008AD060008AD06000844
:1000D000AD060008AD060008AD060008AD06000834
:1000E000AD060008AD060008AD060008AD06000824
:1000F000AD060008AD060008AD060008AD06000814
:10010000AD060008AD060008AD060008AD06000803
:10011000AD060008AD06000819250008AD06000868
:10012000AD060008AD060008AD060008AD060008E3
:10013000AD060008AD060008AD060008AD060008D3
:10014000AD060008AD060008AD060008AD060008C3
:10015000AD060008AD060008AD060008AD060008B3
:10016000AD060008AD060008AD060008AD060008A3
:10017000AD060008AD060008AD060008000000004E
:10018000AD060008AD060008AD060008AD06000883
:10019000AD060008AD060008AD060008AD06000873
:0C01A00025250008AD06000831250008E8
:1001B00010B5054C237833B9044B13B10448AFF3A1
:1001C00000800123237010BD800300200000000088
:1001D0006848020808B5034B1BB103490348AFF355
:1001E000008008BD00000000840300206848020869
:1001F00001F0FF01102A2BDB10F0070F08D010F8D8
:10020000013B013A8B422DD010F0070F42B3F6D1DB
:10021000F0B441EA012141EA014122F007047FF0F4
:1002200000070023F0E80256083C85EA010586EA4B
:10023000010685FA47F5A3FA87F586FA47F6A5FA87
:1002400087F68EB9EED1F0BC01F0FF0102F0070293
:1002500032B110F8013B013A83EA010313B1F8D13E
:100260000020704701387047002D06BF354603381F
:10027000073815F0010F07D1013015F4807F02BF58
:10028000013015F4C03F0130F0BC0138704700BFA9
:100290007BB972B90029BEBF00204FF0004106E0D3
:1002A00008BF00281CBF6FF000414FF0FF3000F086
:1002B000D3B9ADF1080C6DE904CE002909DB002BA0
:1002C0001ADB00F04DF8DDF804E0DDE9022304B0AC
:1002D0007047404261EB4101002B1BDB00F040F80E
:1002E000DDF804E0DDE9022304B0404261EB4101A6
:1002F000524263EB43037047524263EB430300F007
:100300002FF8DDF804E0DDE9022304B0404261EBA0
:1003100041017047524263EB430300F021F8DDF8DE
:1003200004E0DDE9022304B0524263EB430370476B
:1003300053B94AB9002908BF00281CBF4FF0FF314C
:100340004FF0FF3000F088B9ADF1080C6DE904CE34
:1003500000F006F8DDF804E0DDE9022304B07047A0
:100360002DE9F047089D8E4604468846002B4AD169
:100370008A42174662D9B2FA82F64EB1C6F120031C
:1003800001FA06F820FA03F3B74043EA0808B4403C
:100390004FEA174E1FFA87FCB8FBFEF1230C0EFB49
:1003A000118843EA084301FB0CF29A4209D9FB1871
:1003B00001F1FF3080F0EA809A4240F2E780023992
:1003C0003B449A1AA3B2B2FBFEF00EFB102243EAA2
:1003D000024300FB0CFC9C4509D9FB1800F1FF32DD
:1003E00080F0D6809C4540F2D3803B44023840EAFE
:1003F0000140A3EB0C0300211DB1F3400022C5E92D
:100400000032BDE8F0878B4205D90DB1C5E9000186
:1004100000210846F5E7B3FA83F1002946D1734578
:1004200002D3824200F20581841A6EEB030201209E
:100430009046002DE5D0C5E90048E2E7002A00F02B
:100440009080B2FA82F6002E40F0A4808A1A030C43
:100450004FEA174E80B2BCB20121B2FBFEFC0EFB8C
:100460001C2243EA024304FB0CF29A4207D9FB1810
:100470000CF1FF3802D29A4200F2E080C4469B1A87
:10048000B3FBFEF20EFB123340EA034302FB04F41B
:100490009C4207D9FB1802F1FF3002D29C4200F2C5
:1004A000CA8002461B1B42EA0C40A5E7C1F12006A8
:1004B0008B4022FA06F71F430EFA01F420FA06F3E6
:1004C0002EFA06FE4FEA1749234300FA01F81FFAF5
:1004D00087FCBEFBF9F01C0C09FB10EE44EA0E444D
:1004E00000FB0CFEA64502FA01F209D93C1900F105
:1004F000FF3A80F09C80A64540F2998002383C4447
:10050000A4EB0E041FFA83FEB4FBF9F309FB1344BA
:100510004EEA044403FB0CFCA44508D93C1903F142
:10052000FF3E80F08280A4457FD9023B3C4443EAF1
:100530000040A4EB0C04A0FB02EC64457346E146CA
:1005400062D35FD05DB1B8EB030264EB090404FA37
:1005500006F622FA01F31E43CC40C5E900640021EF
:100560004FE7B1FBF2FC010C41EA0E4180B240EAD8
:1005700001423B4638463C46B846BE462026B1FBC3
:10058000F7F1A2EB080241EA0C4166E7014618E7E1
:1005900010462CE7C6F120022EFA02F3B740B14014
:1005A00020FA02F24FEA174E0A43B3FBFEF8BCB240
:1005B0000EFB1833110C41EA034108FB04F9B0406B
:1005C00089454FEA104380B23ED9791808F1FF3CC3
:1005D00001D289451FD8A1EB0901B1FBFEF909FB46
:1005E00004F80EFB191192B242EA0142424529D2A7
:1005F000BA1809F1FF31C4D24245C2D2A9F10201B1
:100600003A44BEE7F0459DD2BEEB02036CEB070C0B
:100610000138E14696E7A7EB09094944A8F1020C25
:10062000B1FBFEF909FB04F8DBE773467FE75046B0
:1006300066E70846FDE63B44023A33E7ACF1020CBC
:100640003B441CE749469CE7A1EB0901C446B1FBCA
:10065000FEF909FB04F8C4E7704700BFDFF834D0A7
:10066000002103E00C4B5B58435004310B480C4B0A
:1006700042189A42F6D30B4A02E0002342F8043BA8
:10068000094B9A42F9D304F0C9FA23F07FFB01F039
:10069000B1F8704700000320FC4409080000002066
:1006A0006401002080030020C03C0120FEE7704769
:1006B00008B500F0B9FDBDE8084000F03DBD00F010
:1006C000B5BD704710B50421044622F007F9204655
:1006D00010BD000038B50C4B0C4C18800C4B822020
:1006E00019806368984740F6110398420AD1094D72
:1006F00023682C60822098472B688220DB6898470B
:10070000002038BD0120FCE7A60300204C0000209B
:10071000A4030020A80300204FF4A071F020FFF7ED
:10072000D9BF0000F7B5394D2B6804461B698220FC
:100730009847208000284ED02B680DF106025B6997
:1007400001A982209847324B1B78002B4BD0BDF873
:10075000062040F674639A423FD9ADF80630BDF8E2
:1007600006209B1A9BB20A2B42D90B22B3FBF2F351
:10077000284A1288934201D9013A93B2BDF8042065
:10078000254840F6B8318A4234D8C2F571620E323B
:10079000016892B20F25B2FBF5F2204D2D88AA42D6
:1007A00084BF05F1FF35AAB28A4215468EB22AD916
:1007B000921B91B21A4E3768BB42BAB28CBF9A1ADA
:1007C000D21A92B211440529C4BF05603360036890
:1007D00063803368A38003B0F0BDB32A9CBFB4220A
:1007E000ADF80620BBE7BDF80630A3F5B473B9E752
:1007F0000023C3E7C2F56D62083292B20E2A016887
:10080000C8D800252A46891A89B2D3E7A803002050
:10081000641E0020A4030020A0030020A6030020E3
:100820009C03002037B568460D461446FFF77AFF53
:10083000BDF8000030B1BDF802302B60BDF80430C7
:100840002360012003B030BD032821D8DFE800F089
:10085000020B12190F4B1A68B2FA82F252090421E4
:100860000D4804F0CBBE0B4B5A68B2FA82F2520923
:100870000821F5E7074B9A68B2FA82F25209102173
:10088000EEE7044BDA68B2FA82F252092021E7E778
:10089000704700BFAC03002000100240032821D89D
:1008A000DFE800F0020B12190F4B1A68003A18BF6C
:1008B000012204210D4804F0A1BE0B4B5A68003AF6
:1008C00018BF01220821F5E7074B9A68003A18BFC4
:1008D00001221021EEE7044BDA68003A18BF01222A
:1008E0002021E7E7704700BFAC0300200010024062
:1008F00003280DD8DFE800F00206080A04210548A5
:1009000004F081BE0821FAE71021F8E72021F6E77C
:10091000704700BF0010024008B5032811D8DFE877
:1009200000F0020A0C0E0421074804F061FE431E89
:100930005842584108BD0821F6E71021F4E720216C
:10094000F2E70020F3E700BF0010024070B5084D49
:1009500000240126E0B2FFF7DFFF18B12B68012B5E
:1009600018BF2E600134052C05F10405F2D170BDCD
:10097000AC030020012380F8781080F879307047AC
:100980007047002070470000034B4164003918BFD6
:1009900001211970704700BF7F2F01207047002090
:1009A0007047836B0BB10846184770474FF6FF70CE
:1009B0007047406803689B691847704770477047E5
:1009C0007047704710B5044600F046FD23680349A0
:1009D000D3F890302046BDE810401847000000D002
:1009E00008B503680446D3F8843098472368204646
:1009F000DB6F984700F0ECF8236820465B6F984760
:100A0000292001F0DFF900F0E3F8236820465B6F4E
:100A10009847F8E710B5044609F0B8FF2368204668
:100A2000D3F8BC30BDE81040184700F0F9BC00F026
:100A3000FDBC00F02FBD00F0CFBC00F03FBD00F0CA
:100A400047BD00F0D3BC09F0CFB910B584210446EE
:100A500021F044FF204610BD10B590F8341090F8F6
:100A600078400C4B8C421A7809D03AB90A4A0B49A3
:100A70001488088810800C8001221A7010BD002A8A
:100A8000FCD0054A05491488088810800C80002293
:100A9000F3E700BF782F0120742F0120762F01206B
:100AA00070B50D46194635B9094B0A4A0A4840F255
:100AB000FF2122F04FFEC0E90F52084B003A18BF49
:100AC00001221A700368BDE87040D3F890301847CF
:100AD000D8480208104902085E4902087E2F01200A
:100AE00008B5094B1B888B4203D8084B1B889342DF
:100AF00005D9074B074A0848A32122F02BFE074BD4
:100B00001980074B1A8008BD742F0120762F012011
:100B1000A3490208064A02085E4902087A2F01200A
:100B20007C2F0120034690F87A0018B158680368BA
:100B30001B68184770470000012108B500220846CD
:100B400006F048FE0A4B186028B90A4B0A4A2821C9
:100B50000A4822F0FFFD00220421012006F0D9FE00
:100B6000074B186018B9074B034A2C21F0E708BD62
:100B7000C0030020494A0208924A0208C14A0208FA
:100B8000BC030020FC4A0208024B4FF0FF311868FA
:100B900006F06ABEC0030020014B186806F090BE44
:100BA000C0030020024B0021186806F05DBE00BFA4
:100BB000C0030020FFF7F0BF03480449006800238A
:100BC0001A4606F0E1BE00BFBC030020040000206E
:100BD00013B5084C00231A4601A9206806F005FF4A
:100BE00020684FF0FF33002201A906F0FEFE02B09C
:100BF00010BD00BFBC03002003685B6C18470120D8
:100C0000704703689B6A1847FEE740F2EF30704771
:100C1000054B0360054B4FF08062C3F88820BFF39B
:100C20004F8FBFF36F8F70471857020800E100E045
:100C300010B504464FF45A61FFF7EAFF204621F051
:100C40004DFE204610BD000082B0002301930E4BE4
:100C50001A6B42F400021A631A6B02F4000201924A
:100C6000019A1A6942F400021A611A6922F4000218
:100C70001A61064B064A1A61064A5A61064B4FF042
:100C800080629A6002B07047003802404020002025
:100C9000E90E0008090C000800E100E008B50A2888
:100CA00009D8DFE800F006100E0808080810101038
:100CB0001000022008BD054B054A0648902122F08D
:100CC00049FD0020F6E70120F4E700BF3E4B020893
:100CD000594B0208A44B020838B50C46887FFFF731
:100CE000DDFFA58AE28A164B2169586342EA054274
:100CF0005A64628BD963521B1A642568082D0ED181
:100D00009A611A615862207F0E4A42EA0062DA61F3
:100D1000E2681A620C4A5961D9601A6038BD002233
:100D2000D8611A61E1680A0A480902F4784200F4BD
:100D3000FC600243C1F3C4010A439A63034AECE72F
:100D400000B002400900010001230200012303005A
:100D500008B50B280BD8DFE800F00612100A0A0AC3
:100D60000A0808080808022008BD0520FCE7054B12
:100D7000054A06486F2122F0EDFC0020F4E701202F
:100D8000F2E700BF3E4B0208DD4B0208A44B02080D
:100D90002DE9F04191F81D800C464046FFF7D8FF41
:100DA000A77F05463846FFF7D3FF06463846FFF7CC
:100DB00075FFA18A628B444B521A1A649A61228B86
:100DC000521A1A61E28A586342EA01425A6421695E
:100DD0006268D963DA602068802828D0227F0FD823
:100DE000202867D0402865D004281AD0364B45EA21
:100DF000026545F40035B845DD6161D0334A44E011
:100E0000B0F5807F04D0B0F5007FEFD1304800E02E
:100E1000304840EA0262DA61E2681A625E62596151
:100E200032E045EA026242F40032DA61F6E7A06895
:100E3000021DDA62227F45EA026545F40035DD6174
:100E40005E625961017841B1012921D0224B234AC8
:100E500023484FF48D7122F07DFCDA69418822F439
:100E60007F42013922F0100242EA0122DA610121B7
:100E7000154BDA6942F02002DA61DA699206FCD495
:100E800010229A600029B9D0164A1A60BDE8F08194
:100E9000B2F1FF01DA69408822F47F4200F1FF30AD
:100EA00022F0100242EA002242F0100218BF012193
:100EB000DA61DDE745EA0262034B42F40032B4E74F
:100EC00042F20132E1E700BF00B00240012301001D
:100ED000090002000A000200274C0208414C0208E7
:100EE000A44B020801230200024B1B6858680368E8
:100EF0005B691847802F012070B5044625460A4BD0
:100F00000C30002660602672667245F8203B602235
:100F1000294609F091FE04F55A63EE6024359D429E
:100F2000FBD1204670BD00BF18570208034B1A685A
:100F3000D207FCD423229A60704700BF00B0024061
:100F40007047000030B50F4C2568ED07FCD4232511
:100F50000904A56041F001010225FF2B656361646E
:100F6000E0630AD00849656241EA0363E361074B25
:100F700022626061E060236030BDE561039BA36392
:100F8000034BF8E700B00240090001000100020035
:100F90000100030030B50E4C2568ED07FCD4232575
:100FA0001204A56042F001020225FF2B6563626412
:100FB000E063E16008D01B0643F00213E361054BD8
:100FC00065626061236030BD034BE3610123F9E793
:100FD00000B0024001000200020002FF30B50B4CDD
:100FE0002568ED07FCD4232512041B06A56043F4F5
:100FF0000033022542F0010265636264E063E16050
:10100000E361034B65626061236030BD00B0024064
:1010100001000200012070474020704700EB811062
:101020000830704700EB811008307047012070478E
:101030004FF40F6070474FF40F6303FB010008305B
:1010400070474FF40F6303FB010008307047012025
:1010500070471020704700EB01100830704700EB1C
:10106000011008307047084601F018BD10B5034B59
:101070000360044608F00FFC204610BDD05702085C
:1010800010B50446FFF7F2FF2046482121F026FC68
:10109000204610BD10B5034B0360044608F0FBFB6F
:1010A000204610BD9C57020810B50446FFF7F2FF1A
:1010B000204640F6F80121F011FC204610BD00004A
:1010C00010B5034B0360044608F0E5FB204610BD55
:1010D0006857020810B50446FFF7F2FF20461821B2
:1010E00021F0FCFB204610BD10B5084B0360044600
:1010F00000F62410FFF7BAFF04F12C00FFF7CAFF37
:1011000004F11400FFF7DCFF204610BD045802086C
:1011100008B50248FFF7E8FF08BD00BF9C12002099
:1011200010B50446FFF7E0FF204640F6FC2121F011
:10113000D5FB204610BD00002DE9F34101F06CFA0B
:10114000054601F06DFA0024014623462846224652
:10115000009412F011FB274B274A1A60204602F038
:1011600083FD264D264B274A27489A6012F06CFAD9
:101170002B68BFF35B8FDB0735D4284621F0B0FB2B
:1011800088B3224C224B236004F69C1604F1140011
:1011900004F12C0804F624176060C4F80880E760A6
:1011A000266108F079FB1B4B6361404608F074FB35
:1011B000194BE362384608F06FFB184BC4F824392A
:1011C00004F66C1002F06BFE224604F66C113046F9
:1011D00002F020FE304601F061FC114822F0D8FAFE
:1011E000284621F089FB0F4802B0BDE8F041FFF727
:1011F000E9BB00BFE42F0120480400209812002022
:10120000680400204C040020080000209C120020EC
:1012100004580208685702089C570208D057020871
:1012200011110008C4030020704700000148FFF7B7
:10123000D7BB00BFC403002070B5264E264C274DF7
:10124000274B23603046FFF757FE284617F09AFBDE
:1012500024480FF06FFF244B2448DC6000224FF439
:101260008071C3E9121222491A86C3E91A12214970
:1012700083F85820C3E91E011F49C3F880101F4995
:101280001F480B60F021C3E90422C3E90622C3E929
:101290000822C3E90A22C3E90E22C3E91022C3E9E6
:1012A0001422C3E917225A6683F870205A67C3E9EB
:1012B000016501801348018013484FF4A07101803B
:1012C0001248018012490A70012283F83420114A21
:1012D0001A6070BDF40400209412002068040020FD
:1012E000C84802084C040020C4030020000001018B
:1012F00001000001000450001A001400802F01209A
:10130000742F01207A2F0120762F01207C2F0120BD
:10131000782F01202C5602080148FFF779BC00BF46
:10132000F40400200020704781807047C18070471E
:10133000018170474181704770477047704770471F
:10134000704710B4C4880368121B84885B6D091B46
:1013500012B25DF8044B09B218474FF6FF73838150
:101360004FF0FF3303621368C361106070470020C1
:1013700070478B88838001207047704780F8261063
:10138000704790F82600704710B50022B1F9084068
:10139000B1F90A10028042808480C18010BD002211
:1013A000028042808280C28070470177704780ED62
:1013B000080A704780F82410704780F8251070479D
:1013C00001207047983070478C30704784307047E8
:1013D0007047704770470000034B902283F85A23F0
:1013E00083F85823704700BF00E100E0094A0A492A
:1013F000D3680A48C3F30A03013B9BB20B8011690F
:10140000C1F30A01013901801364536B43F00103F6
:1014100053637047006801409A1D0020981D00200A
:10142000014BD3F8AC00704700680140024B012229
:10143000C3F8AC105A6270470068014010B52C2107
:10144000044621F04BFA204610BD10B5BC210446DD
:1014500021F044FA204610BD70B5044608F019FD8D
:1014600023689D6E0EF0FEFB01462046A8472368C8
:10147000054AD3F88C502046AC460023BDE87040A6
:10148000A2F51631604700BF00B004D008F0E8BCF8
:1014900008F0F2BC08F0AEBC08F01DBE90F82520A4
:1014A00012B103685B691847704790F825201AB19C
:1014B00090F8242002B1186070470000034B4FF0F1
:1014C00080629A604FF080729A60704700E100E09D
:1014D000084B4FF08062C3F88820BFF34F8FBFF3F3
:1014E0006F8F4FF08072C3F88820BFF34F8FBFF328
:1014F0006F8F704700E100E070B50023124E8380CB
:10150000124B0360336893F8582005460AB1D86C33
:1015100000B998680368DB6A98473368B0FA80F4CA
:10152000D86C640930B10368DB6A9847002808BFAB
:1015300044F001042CB9064B064A07482C2122F03E
:1015400009F9284670BD00BF802F012018580208F5
:101550007F4C0208DD4C0208164D020870B5254E7E
:101560003568BFF35B8F15F0010540D1304621F09F
:10157000B7F900283BD0204C204B256104F1340002
:10158000C4E90035C4E90255E584A562A58510F0DB
:10159000B6F804F158000BF003F8194BA365204688
:1015A000184B40F8843BFFF7A7FF174BC4F8843073
:1015B0002433C4F88C304FF4C803C4E92835002321
:1015C000C4F8AC30C4F8B030C4F8B430C4F8B830A3
:1015D0000E480F4BC4F89050C4F89C50C4F8A85063
:1015E000C4F8983022F0D4F8304621F085F902484A
:1015F00070BD00BF9C1D0020A01D0020F4610208EA
:1016000038580208B0580208A8610208D51300082B
:101610008861020838B5184C23685BB3174B184A29
:101620001B6C11888B4216D1164B198804F0D0FD23
:10163000236893F86A200025013283F86A2083F832
:101640007C50FFF7B9FA206809F0A0F92846BDE8F8
:101650003840FFF7F9B804F0BBFD24682368204642
:101660001B6A9847012384F87C300020BDE838408D
:10167000FFF714B938BD00BF802F0120006801407A
:101680009A1D0020981D002007B5064BADF80600F6
:101690001B68054801220DF1060105F049FB03B066
:1016A0005DF804FB0C000020EC1E002000B58BB0A0
:1016B0002022002102A822F0C0FA084B01934FF427
:1016C00000720823CDE90623054801AA002106F08F
:1016D00031F8642006F072F8FBE700BF784D02088D
:1016E000E516000838B5194C194D21882B88194A80
:1016F00089B21B299BB214D81C3BC82B20D80323CA
:1017000013701378F3B122882B881C3A92B2C82A3E
:101710009BB202D81C3BC82B14D9642006F04EF8AB
:10172000F1E7E42904D91C3BC82B09D80423E7E7D7
:101730001B2B01D80123E3E7E42B01D90223DFE7C8
:101740000023DDE7642006F039F8CEE75E1E0020B6
:101750005C1E00201921002030B595B01022002118
:101760000AA822F06AFA1422002103A822F065FADE
:1017700000241E4B01941A6C42F080521A641B6CB8
:1017800003F080530193019B194B02941A6842F4B1
:1017900040421A601B6803F4404302930122029BFB
:1017A0004FF48033CDE9082302254FF4800308214C
:1017B000CDE90E534FF4B473CDE9101308A80423F8
:1017C0001393129504F05CFD04F020FD0F23CDE986
:1017D00003354FF4A0504FF48053CDE906030521A3
:1017E00003A8059404F028FF15B030BD003802406E
:1017F000007000402DE980489BB003F01DFAFFF710
:10180000ABFF142200210DA822F017FA0024C84BC8
:1018100000941A6BC748C84D42F010021A631A6B45
:1018200002F010020092009A01941A6B42F020021A
:101830001A631A6B02F020020192019A02941A6B49
:1018400042F080021A631A6B02F080020292029A3E
:1018500003941A6B42F004021A631A6B02F004023A
:101860000392039A04941A6B42F001021A631A6BF2
:1018700002F001020492049A05941A6B42F00202EB
:101880001A631A6B02F002020592059A06941A6B0B
:1018900042F040021A631A6B02F040020692069A66
:1018A00007941A6B42F008021A631B6B03F00803DB
:1018B000224607933C21079B03F0A0FE9F4801228C
:1018C000022103F09BFE22469C48042103F096FE71
:1018D00022469B484FF4405103F090FE01263C23E2
:1018E000CDE90D3693480F9403230DA902271093D9
:1018F00003F09AFD91480DA9CDE90D76CDE90F448D
:1019000003F092FD04238D480DA9CDE90D36CDE9F4
:101910000F4703F089FD0DA94FF440538848CDE9E6
:101920000D36CDE90F4703F07FFD8648864B0360F7
:1019300003F070FCDFF838C2844B2C62C5E900C3A9
:1019400028464FF48043C5E90434C5E90244C5E99B
:10195000064404F061F81021284604F0A5FA214657
:10196000284604F0C0FA7A4DDFF808E2AC624FF482
:101970008273C5E900E34FF400781823C5E90683B4
:1019800028460A23C5E90244C5E90444C5E90844D8
:10199000EB6205F071F98F232246394667488DF8CE
:1019A00024308DF8344003F029FE32464FF47A7328
:1019B00009A9284605F0BCF94FF47A7332460DA9FF
:1019C000284605F061FB324639465C48614D03F01C
:1019D00015FE9DF83430D32B04BF5F4B1E705F4B58
:1019E0000126C5E900364FF0100840230024C5E960
:1019F00004834FF4C073C5E906344FF40063C5E9AE
:101A000008344FF400534FF0020A4FF0040B032741
:101A1000AB620DA907232846CDE90DA3CDE90FB38D
:101A20004FF00809C5E9024BCDE9117ACDF84CA079
:101A300005F006F84FF6FF7209A92846CDE90A9687
:101A4000099608940C9405F01BF8304603F020F931
:101A50004FF6FF7209A92846CDE909A9CDE90B6423
:101A600005F00EF84FF6FF7209A92846CDE909796D
:101A7000CDE90BB405F004F84FF40C730893089B00
:101A80000C934FF6FF7209A92846CDE909B90B96C8
:101A900004F0F6FF40F26A51284605F00FF83422B0
:101AA00021460DEB020022F0C8F82D4D2D4B2C6184
:101AB000C5E900340923C5E905361D23C5E9073703
:101AC00040F20D1240F24313C5E9092340F2171109
:101AD00040F247132846C5E90B13C5E90244AC861A
:101AE00085F8364004F092FAFF21F022CDE9121475
:101AF0004FF005094FF480614FF4A073CDE90E2437
:101B0000CDE91419CDE916420DA922462846CDE9A2
:101B1000103A154D18930D94ADF864408DF8664059
:101B200004F028FB114B2B601B6898472B6823E0BF
:101B30000038024000100240EC1F00200008024064
:101B4000000C02408020002000300240A0860100EE
:101B5000EC1E0020701E0020641E0020400100A02A
:101B6000441F002000680140601E00201400002077
:101B7000005C004000500140474DDB689847474BF0
:101B80002846C5E90034C5E902A4C5E90A4AC5E901
:101B90000C4403F04FFB3146284603F001FC42465B
:101BA00021460DA822F049F83D4D3E48DFF81CA122
:101BB000EE614FF48033C5E900034FF0007B284607
:101BC0006E61C5F808B02C612C7685F82040EC6277
:101BD000C5F828A0EC6085F8304003F06DF80D22C0
:101BE0000DA92846CDE90D260F9703F023FA4246AA
:101BF0002146DFF8DC800DA822F01FF82A4AC8F839
:101C00001C604FF480334046C8E90023C8F81460D4
:101C1000C8E90AA4C8F808B0C8F8104088F8184005
:101C200088F82040C8F80C4088F8304003F044F8A9
:101C30000DA94046CDE90D960F971C4E03F0FAF919
:101C40001B484FF4E133C0E900630C23C0E90534BD
:101C5000C0E902440461C46105F06CFCFEF728FD94
:101C6000FEF725FD284603F0CDF8404603F0CAF8FC
:101C700005F034FD0F4A1048214605F05BFD0F4B7F
:101C80000F4A186021460F4805F054FD0E4B1860AE
:101C900005F036FDFEE700BF4020002000B0024006
:101CA000D020002000200140002101400010014010
:101CB000A41E002018590208AD1600086C1E002052
:101CC000F4580208BF060008681E00200100000F3B
:101CD00088200020704770477FB5094B8DF817208A
:101CE0001B6802930DF117020123009201930A462B
:101CF0000146044803F038FF07B05DF804FB00BF5D
:101D000010000020EC1F00207FB500238DF8173055
:101D1000084B1B6802930A4601230DF1170100913D
:101D200001930146044803F0AFFF9DF8170007B088
:101D30005DF804FB10000020EC1F00201FB5084CCC
:101D400024680092CDE901340A4601230146054882
:101D500003F09AFF003818BF012004B010BD00BF87
:101D600010000020EC1F002002F092BF10B5064CBE
:101D700000222046042103F041FC20460122BDE858
:101D80001040042103F03ABC0008024038B50B4D66
:101D9000044601220A484FF4005103F02FFC0022B0
:101DA0000421284603F02AFC2046FFF76DFC284654
:101DB0000122BDE83840042103F020BC00080240A5
:101DC000000C024038B50B4D044600220A484FF47F
:101DD000005103F013FC00220421284603F00EFCFE
:101DE0002046FFF751FC28460122BDE83840042177
:101DF00003F004BC00080240000C0240F7B5144E8A
:101E0000144F05460C4630460022042103F0F6FB31
:101E100000224FF40051384603F0F0FB2846FFF74C
:101E200033FC0D4B0D481B68224601A905F02CF927
:101E3000384601224FF40051019C03F0DFFB30468D
:101E40000122042103F0DAFB204603B0F0BD00BFFD
:101E500000080240000C02400C000020EC1E002094
:101E600002F016BF0B4B984210B5044609D103F09F
:101E70004DF8094B80B218802046BDE8104002F0B2
:101E8000C1BF064B984204D103F040F8044B80B226
:101E9000F1E710BDD02000205E1E00208820002029
:101EA0005C1E00200268034B9A4201D102F0DEBEA4
:101EB000704700BF001000407047000082B00E4B1A
:101EC00000220092596C41F480415964596C01F42C
:101ED0008041009100990192196C41F08051196480
:101EE0001B6C03F080530193019B0F216FF00100E5
:101EF00002B003F04FB900BF0038024010B5142201
:101F00008AB0044600210DEB020021F096FE236802
:101F1000254A934227D1254B2548002401945A6C29
:101F200042F480725A645A6C02F480720192019AEF
:101F300002941A6B42F004021A631B6B03F0040351
:101F400002930821029B0323CDE9051305A903F0A1
:101F50006BFA12202246052103F01CF9122003F02F
:101F60004BF90AB010BD134A9342FAD10F4B1248F5
:101F7000002403945A6C42F400725A645A6C02F4BE
:101F800000720392039A04941A6B42F001021A63DE
:101F90001B6B03F001030493049B20220323CDE970
:101FA000052305A9D3E700BF002001400038024007
:101FB0000008024000210140000002400268094B75
:101FC0009A4282B00BD100230193074B1A6B42F463
:101FD00080521A631B6B03F480530193019B02B080
:101FE000704700BF003002400038024007B50F4B79
:101FF00002689A4216D10022A3F5F0430192196BB0
:1020000041F4000119631B6B03F4000301930521E4
:102010005A20019B03F0BEF85A2003B05DF804EB90
:1020200003F0EAB803B05DF804FB00BF00B0024063
:102030002DE9F043044689B01422002103A821F0C1
:10204000FCFD2268244B9A4243D1244C24480025AD
:102050000095236B43F004032363236B03F0040315
:102060000093009B0195236B43F001032363236BD3
:1020700003F001030193019B4FF012094FF4007329
:102080004FF001080327042603A9CDE90339CDE960
:102090000587079603F0C8F94FF480731148079637
:1020A00003A9CDE90339CDE9058703F0BDF9029510
:1020B000236C43F400032364236C03F400030293B2
:1020C000029B236A43F400032362236A23F4000380
:1020D000236209B0BDE8F083005C00400038024094
:1020E0000008024000000240F0B599B004461422F6
:1020F000002107A821F0A1FD30220DEB02000021F4
:1021000021F09BFD22685E4B9A4240F0B780082385
:102110000C93C0231093042312930CA84FF40033A4
:10212000159304F061FB08B1FFF7C6FE554B564806
:10213000002400945A6C42F080625A645A6C02F097
:1021400080620092009A01941A6B42F020021A6396
:102150001A6B02F020020192019A02941A6B42F06B
:1021600001021A631A6B02F001020292029A0394AE
:102170001A6B42F002021A631A6B02F00202039217
:10218000039A04941A6B42F040021A631A6B02F02D
:1021900040020492049A05941A6B42F004021A63F6
:1021A0001A6B02F004020592059A06941A6B42F02B
:1021B00008021A631B6B03F00803069302250E2620
:1021C000069B0B964FF4806307A9CDE90735CDE94F
:1021D000094503F029F941F658032C480B9607A945
:1021E000CDE907350927CDE9094503F01DF903239A
:1021F00027480B9707A9CDE90735CDE9094503F035
:1022000013F94FF4706322480B9607A9CDE90735FF
:10221000CDE9094503F008F94FF40C631D480B960E
:1022200007A9CDE90735CDE9094503F0FDF8C0233D
:1022300019480B9607A9CDE90735CDE9094503F003
:10224000F3F8082315480B9607A9CDE90735CDE922
:10225000094503F0E9F84FF4A0530E480B9707A97E
:10226000CDE90735CDE9094503F0DEF858202246CF
:10227000052102F08FFF582002F0BEFF19B0F0BD1B
:102280000068014000380240001402400000024093
:10229000000402400018024000080240000C024006
:1022A00010B5044688B01422002103A821F0C5FC13
:1022B0002268144B9A4223D103F56843002101910F
:1022C0005A6C114842F480125A645A6C02F480121B
:1022D0000192019A02911A6B42F020021A631B6B61
:1022E00003F020030293029B4FF460720223032148
:1022F000CDE903230523CDE9061303A903F094F8E0
:1023000008B010BD005001400014024010B5044652
:1023100088B01422002103A821F08FFC2268144BFE
:102320009A4223D103F59433002101915A6C11484C
:1023300042F010025A645A6C02F010020192019AA3
:1023400002911A6B42F001021A631B6B03F0010346
:102350000293029B4FF4C06202230321CDE90323C1
:102360000723CDE9061303A903F05EF808B010BDFA
:1023700000100140000002402DE9F04186B000232A
:1023800003932B4B1C68002C4FD14FF00108C3F86E
:102390000080284B00949A6B274842EA08029A630F
:1023A0009B6B03EA08030093022703260C25009B7E
:1023B00001A94FF63F03CDE90137CDE9046503F0EC
:1023C00033F81E48059501A9CDE90187CDE90346FB
:1023D00003F02AF848F233131948059501A9CDE90D
:1023E0000137CDE9034603F01FF84FF68373154814
:1023F000059501A9CDE90137CDE9034603F014F8AD
:102400004CF203731048059501A9CDE90137CDE9D8
:10241000034603F009F860230C48059501A9CDE9AE
:102420000137CDE9034602F0FFFF06B0BDE8F081B9
:102430001C21002000380240001402400008024025
:102440000018024000100240000C0240000402404C
:1024500070B588B000230293204B1A6C42F0100232
:102460001A641B6C03F010030293054601A903A82C
:10247000029B04F09BF9069B4BBB04F077F9184EC6
:10248000184B336040F2E733F360174BB0FBF3F3C4
:10249000013B7360304600233361B360B36104F0E5
:1024A000BDFF044680B9304604F092FE044658B998
:1024B000362002F0A1FE0F2D0DD8224629463620E7
:1024C00002F068FE094B1D60204608B070BD04F0A4
:1024D0004DF94000D3E70124F6E700BF0038024081
:1024E000202100200010004040420F007C0000200E
:1024F0007047FEE7FEE7FEE7FEE7704708B50448D1
:1025000002F009FDBDE80840024802F004BD00BF2A
:10251000D020002088200020014804F097BE00BF92
:1025200020210020014803F0C8BD00BF441F002047
:10253000014802F0ABBE00BF4020002001207047E0
:1025400008B521F01DFC162303604FF0FF3008BDD5
:1025500008B521F015FC16230360FEE770B50D46A3
:1025600014460E46731B9C4201DC204670BDAFF33F
:10257000008006F8010BF5E770B50D4614460E46CF
:10258000731B9C4201DC204670BD16F8010BAFF3B3
:102590000080F5E74FF0FF3070474FF400534B6079
:1025A0000020704701207047002070470A4A1168D8
:1025B00008B5034609B90949116010686946034422
:1025C0008B4206D921F0DCFB0C2303604FF0FF3077
:1025D00008BD1360FCE700BF68210020C03C01205B
:1025E000704710B50421044620F078F9204610BD4C
:1025F000012908B506D0022908D059B901F080FB9D
:10260000006808BD01F07CFB4068FAE701F078FB48
:102610008068F6E70020F4E7004870475059020848
:102620000F20704713B5002451B1036801948DF851
:10263000034001AA9C680DF10303A04702B010BD3E
:102640000846FBE7C0897047008A7047C08870471A
:1026500080887047807A00F07F007047807AC009D8
:1026600070470020704700009FED010A704700BFCF
:1026700000000000806A70477047704710B558210D
:10268000044620F02BF9204610BD000073B5064625
:1026900000254FF480721C4B8284C0E90155C0E9CB
:1026A0000355C0E90555C0E90755856246F82C3B3E
:1026B0004FF6FF73A0F85020144AC2620446C0E9E6
:1026C0000C55C0E90E55C0E91055C0E91255A0F8E7
:1026D000523080F8543001A93046ADF804300AF089
:1026E000D3FD4FF03213A36001A9022330462563C6
:1026F000ADF804300AF0C8FD2046314607F0DEF898
:10270000204602B070BD00BF845A020888640208E7
:10271000704710B50821044620F0E0F8204610BDAF
:102720007047704700F598730868496803C370479D
:10273000704770474160704770477047064BC0F85C
:102740004C310023C0F8503100F5A273C0F84801A5
:10275000C0F84031704700BFD5280008012303723C
:1027600070477047704710B4C26841685410034600
:1027700001EB6200D20748BF0A599B685DF8044B21
:1027800048BFD35818470346406830B19A681AB911
:10279000D86800F0010070470120704710B50C2187
:1027A000044620F09BF8204610BD10B510210446C9
:1027B00020F094F8204610BD10B54FF4AE710446D9
:1027C00020F08CF8204610BD10B54021044620F0C2
:1027D00085F8204610BD10B50DF044FA0368BDE839
:1027E0001040DB6B18470000054B1B7801462BB1EE
:1027F000406818B103680C315B6E1847704700BF22
:102800007F2F0120037A70B50546BBB94068036885
:10281000DB69984704463CB96868036805F10C0118
:102820001B6EBDE870401847A1886B8FC91A2368DA
:1028300020461B6B09B29847A469ECE770BD10B540
:102840000446D0F8400158B10368DB68984738B1B6
:10285000D4F8400103689B6898470023C4F84031CE
:1028600010BD70B5044690F8390094F83830013046
:10287000C0B2984284F8390005D90123237200239D
:1028800084F8393070BDB4F93A2000210FF0A0FB74
:10289000C30706D500284FF6FF73C8BF01231844AD
:1028A00000B2238AC01AA08760680368DB69984772
:1028B00005462DB960680368BDE870405B6918473C
:1028C000A988A38F19442B6828461B6B09B2984727
:1028D000AD69EEE72DE9F14FD0E9556A0746B068DA
:1028E00003681B6A9847C32805D8444B444AA32170
:1028F000444820F02FFF706803681B6A98470F2830
:1029000003D8414B3E4AA421F2E7F06803681B6AF2
:1029100098470B2803D83D4B394AA521E8E70DF02D
:10292000A1F9DFF8F09004300DF0C1F9D9F80000FA
:1029300010B10368DB689847D9F8000010B103684C
:102940001B689847DFF8D080D8F8000010B1036802
:102950005B699847D7F83C0110B103685B689847FA
:10296000D8F8000010B103681B689847D7F83C01FD
:1029700010B103689B689847F068036800215B6AA0
:1029800098474FF0000B224BC0F804B0044680F883
:1029900008B00360B068036859465B6A984705460B
:1029A00001F014FD7068036859465B6A9847294630
:1029B000064601F0EBFC331DC7F83C61CAF8243031
:1029C0002B68C6F808A02846DB68C9F80040C8F89C
:1029D0000050EE639847336830461B68984721469D
:1029E00028460FF0EFFA236820461B6998472368B2
:1029F0005B69204601B0BDE8F04F18479A4D0208C8
:102A0000284E0208FA4E0208414F0208E44F02081D
:102A1000945B0208C82F0120C42F0120044B1B68BF
:102A200093F858200AB1D86C00B99868704700BF75
:102A3000802F0120F8B5174604460E460DF0D4F954
:102A4000124B1C60124B2360124B0025C4E9513518
:102A5000114BC4E953551868036801219B68C4E908
:102A60004F55C4E955769847284601F0FDF8FFF721
:102A7000D5FF17F030FEFFF7D1FF17F0A7FEFFF7E5
:102A8000CDFF17F0AFFE2046F8BD00BFD42F0120C8
:102A9000405B0208285B0208802F0120064BC0F82B
:102AA0004C310023C0F8503100F5A273C0F8480142
:102AB000C0F84031704700BFD5280008064BC0F869
:102AC0004C310023C0F8503100F5A273C0F8480122
:102AD000C0F84031704700BFAD2C0008064BC0F86D
:102AE0004C310023C0F8503100F5A273C0F8480102
:102AF000C0F84031704700BF712B00082DE9F0414C
:102B000005460026164B4660067245F80C3B044607
:102B100028460F4609F0ECFD124B84F838701B78FC
:102B200084F83960A68723B9012323722046BDE8C3
:102B3000F0810D4B0D4FB3F90080E368B7F9001039
:102B40009B6B266128469847E3684146DB6B284625
:102B50009847284609F047FD3B885B426387E5E7D5
:102B6000B85B02087F2F0120762F0120742F0120EF
:102B70002DE9F047D0E9556A0746B06803681B6A3B
:102B80009847B0F50F6F05D2414B424AA321424806
:102B900020F0E0FD706803681B6A98470F2803D88F
:102BA0003E4B3C4AA421F2E7F06803681B6A984751
:102BB0003F2803D83A4B374AA521E8E70DF052F8F1
:102BC000DFF8E09004300DF072F8D9F8000010B191
:102BD0000368DB689847D9F8000010B103681B68E8
:102BE0009847DFF8C480D8F8000010B103685B692B
:102BF0009847D7F83C0110B103685B689847D8F84C
:102C0000000010B103681B689847D7F83C0110B169
:102C100003689B689847F068036800215B6A9847DF
:102C200014210446FFF76AFFB068036800215B6A5D
:102C30009847054601F072FC7068036800215B6AE2
:102C400098472946064601F00BFC331DC7F83C6146
:102C5000CAF824302B68C6F808A02846DB68C9F8F3
:102C60000040C8F80050EE639847336830461B6850
:102C70009847214628460FF0A5F9236820461B698E
:102C80009847236820465B69BDE8F047184700BFB6
:102C90009A4D020887500208FA4E0208414F020876
:102CA000E44F0208C82F0120C42F01202DE9F0476E
:102CB000D0E9556A0746B06803681B6A9847C3287D
:102CC00005D8414B414AA321414820F043FD70689B
:102CD00003681B6A98470F2803D83E4B3B4AA42140
:102CE000F2E7F06803681B6A98473F2803D83A4B1D
:102CF000364AA521E8E70CF0B5FFDFF8E090043094
:102D00000CF0D5FFD9F8000010B10368DB689847D4
:102D1000D9F8000010B103681B689847DFF8C0803D
:102D2000D8F8000010B103685B699847D7F83C01F8
:102D300010B103685B689847D8F8000010B10368C9
:102D40001B689847D7F83C0110B103689B68984707
:102D5000F068036800215B6A984714210446FFF776
:102D6000CDFEB068036800215B6A9847054601F014
:102D70002DFB7068036800215B6A98472946064668
:102D800001F004FB331DC7F83C61CAF824302B68FE
:102D9000C6F808A02846DB68C9F80040C8F800500B
:102DA000EE639847336830461B68984721462846AB
:102DB0000FF008F9236820461B69984723682046CE
:102DC0005B69BDE8F04718479A4D02086C5102084C
:102DD000FA4E0208414F0208E44F0208C82F0120B2
:102DE000C42F0120406A7047806A704770478A8804
:102DF0000B8810B5D20A4C88C1699BB251F82200E9
:102E000043EA0443184410BD10B50446BAB1107B20
:102E100068B1537BD27A1B0203F4E0631A43236A3E
:102E200003EB82031A888A4202D193F9020010BD93
:102E300005D8013880B204330028F3D1F7E7002029
:102E4000F5E710B52C2104461FF048FD204610BDC3
:102E500030B58BB00446BDF860500895BDF85C50A5
:102E600007959DF8505006959DF84C5005959DF896
:102E7000485004959DF8445003959DF840500295A4
:102E80009DF83C500195BDF8385000950EF0F4FCCB
:102E9000064B2360159BE361169B2362199B6362BB
:102EA0001A9BA36220460BB030BD00BFDC5B02085A
:102EB000704770477047704770477047704770475A
:102EC00030B4C26844685510034604EB6200D20770
:102ED00048BF62599B6830BC48BFD3581847034667
:102EE000406830B19A681AB9D86800F0010070479C
:102EF0000120704710B5102104461FF0EFFC20465A
:102F000010BD10B5C42104461FF0E8FC204610BDDA
:102F10006C30884208B505D10CF0A4FEBDE808402D
:102F2000FFF7DCBD08BD70B5036804461B6B154692
:102F300098472368294620465B6BBDE870401847D8
:102F4000F8B5194B018F1B888B4206462AD9174BBF
:102F50001B682BB9164B174A17486C2120F0FAFB57
:102F600013F81120154B1B6853F82250144B1868A6
:102F700000F0B6FE2B6807469B6B284698472B68E7
:102F800004469B6C3946284698472B6814FB00F48E
:102F90005B6A394628469847A4B223181BB2A6F8A4
:102FA0004630F8BD0023FAE7DC2F0120D82F01209E
:102FB0005152020893520208CE520208E02F01201B
:102FC000E42F01202DE9F34104460EF04FFE2F4B74
:102FD00023602F4B0025C4E910354FF4807304F1B2
:102FE0006C06A4F86430FF2384F86630C4E91255F7
:102FF000C4E91455C4E91655E5632566A56630464F
:103000000AF084FA234BC4E92D34234B04F1400722
:103010002A46C4E92F3529463846FFF784FF38464B
:10302000F021FEF785F938464FF4A071FEF782F9DA
:1030300004F104084FF07F43A3663946404606F08A
:103040003DFC29463046C222FFF76DFF01AA6946C2
:1030500001233046ADF80430ADF8005009F04DFFC3
:103060000423A4F8A4303046FFF76AFF4FF0FF3383
:10307000C4E92A3304F1B4034046C4F8943031461D
:1030800006F01CFC204602B0BDE8F0815C5C020842
:10309000B8630208445C0208112F000830B50368C9
:1030A00085B06D460181D3F8843001460446284638
:1030B000984795E807003C3484E8070005B030BD28
:1030C00030B5036885B06D464181D3F88430014640
:1030D00004462846984795E807003C3484E80700F2
:1030E00005B030BD0022028042808280C2807047DD
:1030F00080F83610704770B5036804461B6B1546A0
:1031000098472368294620465B6EBDE87040184703
:1031100000207047806C7047704770477047704759
:10312000704790F82C304BB100F16C021268C26508
:103130003BB100F174031B680366704700F168023D
:10314000F4E700F17003F6E730B4C2684468551044
:10315000034604EB6200D20748BF62599B6830BC4B
:1031600048BFD35818470346406830B19A681AB927
:10317000D86800F0010070470120704730B4C26881
:1031800044685510034604EB6200D20748BF6259F9
:103190009B6830BC48BFD35818470346406830B1DD
:1031A0009A681AB9D86800F001007047012070478A
:1031B00090F82D3080F85A30704710B54C210446F5
:1031C0001FF08CFB204610BD10B5782104461FF07F
:1031D00085FB204610BD10B5102104461FF07EFB74
:1031E000204610BD10B5102104461FF077FB204685
:1031F00010BD10B50446983000F0EDFD04F1F0006C
:1032000000F0E9FD04F5A47000F0E5FD04F5D070D0
:1032100000F0E1FD04F5FC7000F0DDFD04F5147034
:1032200000F0D9FD04F52A7000F0D5FD04F54070DA
:1032300000F0D1FD04F5567000F0CDFD04F56C7082
:1032400000F0C9FD04F5816000F0C5FD04F58C6057
:1032500000F0C1FD04F5976000F0BDFD04F5A2602B
:1032600000F0B9FD04F5AD6000F0B5FD04F5B860FF
:10327000BDE8104000F0AFBD08B5FEF70FF908BD7E
:1032800010B50446006B50B10368DB68984730B155
:10329000206B036821469B68BDE81040184710BDAD
:1032A00000F5CC628A4202D10368DB6A1847704796
:1032B0000B7970B590F82C6004460D460BB916B129
:1032C00070BD002EFCD0B3FA83F35B0984F82C3078
:1032D00023682046D3F88C309847236820465B69E2
:1032E0009847002EECD02B79012BE9D1236820469A
:1032F000D3F88830BDE8704018470000036870B507
:103300005E6B124B1B6804468DB22BB9104B114AF1
:103310006C21114820F01EFA1049828D09889142D3
:1033200003D80F4B0B4A6D21F3E713F812200D4B16
:103330001B6853F8220003681B6B9847291A334611
:10334000204609B2BDE87040184700BFD82F0120C1
:103350005152020893520208CE520208DC2F01207B
:1033600015530208E02F012000F5C360884208B51C
:1033700005D10CF077FCBDE80840FFF79FBB08BD06
:1033800000224FF0FF31C0E900218260704770B524
:1033900004461D46BDF91060FFF7C5FD23682946A8
:1033A00020469B6B9847236831462046DB6BBDE87F
:1033B000704018470022C0E90122C0E90322C0E999
:1033C0000522C0E907224FF480728284014A02601C
:1033D000704700BF905C020810B526220446002109
:1033E00020F02BFC2046FFF7E5FF044B2360FF2372
:1033F00084F826300023A362204610BDB86302087B
:1034000010B5034B03600446FFF736F9204610BDA4
:103410008C5E0208224B10B50446036000F5B860CC
:10342000FFF7EEFF04F5AD60FFF7EAFF04F5A260D9
:10343000FFF7E6FF04F59760FFF7E2FF04F58C6005
:10344000FFF7DEFF04F58160FFF7DAFF04F56C702B
:10345000FFF7D6FF04F55670FFF7D2FF04F5407072
:10346000FFF7CEFF04F52A70FFF7CAFF04F51470CA
:10347000FFF7C6FF04F5FC70FFF7C2FF04F5D0703C
:10348000FFF7BEFF04F5A470FFF7BAFF04F1F000E8
:10349000FFF7B6FF04F19800FFF7B2FF204610BD1A
:1034A000545E020810B50446FFF7B4FF20464FF4FF
:1034B000FB611FF013FA204610BD10B50446FFF75C
:1034C0009FFF204658211FF009FA204610BD00003A
:1034D00010B526220446002120F0AFFB2046FFF75E
:1034E00069FF0A4B23600A4BA3624FF6FF73A38563
:1034F0004FF47F020023C4E90C3223874FF0FF32E0
:10350000C4E91023E363204610BD00BF286302080E
:10351000185B02082DE9F04F04469FB0A046002535
:103520000EF0A4FBDB4BE56348F8403B04F16C076D
:103530004046FFF751FF4FF6FF76262229463846D0
:10354000ADF8706020F079FB3846FFF733FFD24BBF
:10355000E366BDF87030A4F892301CA984F894603A
:10356000384609F091FE04F198031846069300F0DE
:10357000E1FB04F1F0031846079300F0DBFB04F5D0
:10358000A4731846089300F0D5FB04F5D0731846D1
:10359000099300F0CFFB04F5FC7318460A9300F082
:1035A000C9FB04F5147318460B9300F0C3FB04F534
:1035B0002A7318460C9300F0BDFB04F540731846BF
:1035C0000D9300F0B7FB04F5567318460E9300F008
:1035D000B1FB04F56C7318460F9300F0ABFB04F5D8
:1035E00081631846109300F0A5FB04F58C63184620
:1035F000119300F09FFB04F597631846129300F0B7
:1036000099FB04F5A2631846139300F093FB04F5AD
:10361000AD631846149300F08DFB04F5B86304F510
:10362000C36B1846159300F085FB584609F06EFFF2
:1036300004F5CC6303934FF47F43A4F88C3640F237
:103640000113A4F88436954BC4F8603604F29463F1
:10365000C4F88856C4F89056C4F86456C4F868563E
:10366000C4F86C56C4F87056C4F87456C4F878564A
:10367000C4F87C56C4F8805618460493FFF7ACFE95
:10368000874BC4F894362A460498C4F8C056294695
:10369000A4F8C456C4F8C856C4F8CC56C4F8D056DA
:1036A000C4F8D456FFF73FFC04F5DB6ADDE90301FB
:1036B00006F004F904F5E4695046FFF709FF4846AF
:1036C000FFF706FF774EC4F8206704F26C73C4F866
:1036D000685718460593FFF7FBFE734BC4F8B837DD
:1036E000724BC4F8C037724BC4F8C837714BC4F87A
:1036F000D0374FF4A073C4F86C672A46C4F8B457A7
:10370000C4F8BC47C4F8C457C4F8CC47C4F8D4576D
:10371000294600934046F023261DFFF738FE4FF060
:103720007F43A3664146304606F0C8F8502229463A
:103730003846FFF7F8FB0E231CA93846ADF8703069
:1037400009F0A2FD3946304606F0B8F8069858222E
:103750000821FFF7E8FB0699304606F0AFF8079816
:1037600058224221FFF7DFFB0799304606F0A6F802
:10377000089858227C21FFF7D6FB0899304606F0BE
:103780009DF809985822B621FFF7CDFB09993046DC
:1037900006F094F80A9892220821FFF7C4FB0A99D0
:1037A000304606F08BF80B9892224221FFF7BBFBC4
:1037B0000B99304606F082F80C9892227C21FFF794
:1037C000B2FB0C99304606F079F80D989222B6219A
:1037D000FFF7A9FB0D99304606F070F80E98CC2241
:1037E0000821FFF7A0FB0E99304606F067F80F9806
:1037F000CC224221FFF797FB0F99304606F05EF886
:103800001098CC227C21FFF78EFB1099304606F0F1
:1038100055F81198CC22B621FFF785FB1199304657
:1038200006F04CF812984FF483720821FFF77BFBE7
:103830001299304606F042F813984FF483724221F1
:10384000FFF771FB1399304606F038F814984FF4DF
:1038500083727C21FFF767FB1499304606F02EF83F
:1038600015984FF48372B621FFF75DFB159930462A
:1038700006F024F82A4629465846FFF754FB1CAAAE
:103880001BA94FF001035846ADF87030ADF86C50ED
:1038900012E000BF545E020888640208885D0208D6
:1038A00020640208F85C0208245E020869330008FC
:1038B0003C5E0208A132000809F01FFB0323A4F8B4
:1038C00050365846FFF73CFB4FF0FF3804F5F763DE
:1038D000C4F84036594630461627C4F85486C4F812
:1038E000588605F0EBFF2A462946049800972A23BC
:1038F000FFF74DFD0523A4F8C436434BC4F8CC367E
:1039000003F54B1303F6CD430398C4F8D436C4F83B
:10391000C886C4F8D086FFF704FC04F5F963C4F840
:103920009036039800972A2335220C21FFF72FFDAC
:103930000399DFF8D8B0304605F0C0FF50463A2270
:103940001321FFF7F0FA16AF4FF07F42C4F80827B3
:1039500051463846A4F80C5708F0CAFF97E807000C
:1039600004F2147383E8070002221CA95046ADF844
:103970007420CDF870B009F063FA5146304605F076
:103980009DFF484635225021FFF7CDFAD4F8202775
:10399000C4F8508749463846D2F88420A4F85457D2
:1039A000904797E8070004F25C7C8CE807004FF032
:1039B00001031CA94846ADF87430CDF870B009F089
:1039C0003FFA4946304605F079FF35220598B62181
:1039D000FFF7A9FA0598C4F89C871CA9A4F8A0577A
:1039E000C4F8A857C4F8AC87C4F8B057CDF870B085
:1039F000ADF8745009F024FA3046059905F05EFFE1
:103A000020461FB0BDE8F08FCC9900FF185B02087C
:103A10007047000030B5174D2C6814F001048FB0CA
:103A2000BFF35B8F22D128461EF05AFFF0B13F232F
:103A30000993114B0893114B07930123CDE90543DB
:103A400004930423CDE902430A230D4900930F2276
:103A50000C23CDE90B440B480A940194FFF7F8F9C5
:103A600009481FF095FE28461EF046FF05480FB096
:103A700030BD00BF6C210020807402088C740208E5
:103A8000F472020870210020113A0008704700000B
:103A900030B5164D2C6814F001048FB0BFF35B8F66
:103AA00021D128461EF01CFFE8B13F230993104B9B
:103AB0000893104B104911480A94CDE9064301229E
:103AC0000423CDE90332142300930C22CDE90B44E7
:103AD000CDE901440594FFF7BBF909481FF058FEF2
:103AE00028461EF009FF05480FB030BD9C2100207C
:103AF0008474020890740208C8730208A021002090
:103B00008D3A00087047000030B5164D2C6814F04F
:103B100001048FB0BFF35B8F20D128461EF0E0FE7A
:103B2000E0B13F230993104B0893104B1049114803
:103B30000A940122CDE906430423CDE90332282368
:103B40000093CDE90B44CDE901440594FFF780F9DA
:103B500009481FF01DFE28461EF0CEFE05480FB096
:103B600030BD00BFCC210020887402089474020884
:103B700070740208D0210020053B00080020704727
:103B8000002070470EB403B503AB002153F8042B9B
:103B900001930DF0EFF802B05DF804EB03B070474D
:103BA0000CB407B504AB53F8042B01930DF0E2F805
:103BB00003B05DF804EB02B070470000436C10B531
:103BC000044673B3038F2BB9184B194AC521194802
:103BD0001FF0C0FDC38E00EB43035B8C0BB30EF0F4
:103BE0007CFF238F012B03D8134B144ACB21EEE724
:103BF000E28E531C9BB2092B194688BFA3F10A0120
:103C000004EB410140F63F10498C814209D10A2B57
:103C100004EB420228BF002304EB4303508C58847A
:103C200051842046BDE810400EF05ABE535302089E
:103C30005C53020807540208515402085F540208FA
:103C40000EF015BE10B586B002AC84E806001A4628
:103C50000AAB05930193099B00932146089B0BF047
:103C60009FFB06B010BD000038B518BB124B1348BF
:103C70001C681349B4B1226822440260626822447D
:103C80000A60A26814440F4B00221A8000F038F832
:103C9000054600F033F80C4B1C600C4B1D600C4BC0
:103CA000188007E00B4B03600B4B0B600B4B1C6841
:103CB000002CE8D138BD00BF0822002000220020DF
:103CC000FC21002004220020D82F0120E02F012019
:103CD000DC2F0120AC7402089874020808750208F1
:103CE000044B1B6853F82100034B1B6803EB400097
:103CF000704700BFFC2100200022002005207047F3
:103D0000004870470C22002010B5FFF7C1FE044C9C
:103D10002060FFF7F9FE6060FFF77CFEA06010BD39
:103D20000C22002010B5002404600C6014601C609C
:103D300010BD000010B50446FEF7A8FC014B23603F
:103D4000204610BD8C5E0208402913B500F12C04FA
:103D50002DD00ED8082926D005D802291CD0042938
:103D60001FD0022319E010291FD02029F9D10923DF
:103D700013E0B1F5007F2AD006D8802919D0B1F51B
:103D8000807FEED1082308E0B1F5806F21D0B1F536
:103D9000006FE6D1072300E00623ADF8043001A947
:103DA0000CE00A23F9E70D23F7E70523F5E70C23D9
:103DB000F3E70423ADF804300DEB0301204609F0CE
:103DC00063FA204602B0BDE810400DF0FDB80B23A9
:103DD000E3E70323E1E710B50446FEF74EFC204677
:103DE0000021BDE81040FFF7AFBF704710B54FF49A
:103DF000B07104461EF072FD204610BD10B5044699
:103E0000D0F85C0100F084FA2046BDE810400BF0C9
:103E1000ABBF000038B504460D46FEF70BFE034B62
:103E20002360C4F85C51204638BD00BF205F020803
:103E300070B50023A0B00446811C1D460846002230
:103E400030F8026F2EB920AE06EBC50646E92032E7
:103E500001350132042AF3D10133042B01F10801A9
:103E6000ECD1D5B11FF086FD20AA90FBF5F303FB42
:103E7000150302EBC30353E920651FF07BFD0A2302
:103E800005EB860590FBF3F202FB1300092804EB17
:103E900045040CBF04230223A38020B070BD10B5DD
:103EA0000023C0E909330360C362044600F0EAFE60
:103EB0001FF032FD2046FFF7BBFF2046FFF7B8FF9B
:103EC000204610BD034BD3F800385A1C08BF00230E
:103ED000C362704700F0070870B5051D0446202234
:103EE000002128461FF0A9FE0023A3622046FFF709
:103EF000E9FFFFF79DFF2046FFF79AFF606A18B1C0
:103F000003682946DB689847606A30B10368D4E9E2
:103F10000A121B69BDE87040184770BD00F10A0223
:103F200010B500F12A031446A4F1080131F8020F7C
:103F3000A8B1A142FAD101F108049C42F4D10021B8
:103F4000931F032903D01C88188984420DD0934203
:103F500006D10131042903F10802F1D1012010BD7D
:103F6000188833F8024F8442EBD10020F7E72DE99F
:103F7000FF4700250446071D2E46002110226846F3
:103F80001FF05BFEBC4601213CF8023F002B40D0F5
:103F90006346884633F8022D404608F1FF388AB35D
:103FA00008EB850900EB850304EB490904EB4303A7
:103FB000B9F804E09B8873454FEA850229D10DF1D9
:103FC000100A4FEA880E0AEB880858F8108CB8F1EE
:103FD000000F1ED1A66A5B009BB2A9F804303344DF
:103FE000E66AA3620244B34204EB420288BFE36282
:103FF000002393800EF110030DEB030E01264EF803
:10400000106C06E0588818805A800126B8F1000F1D
:10401000C0D101310429B7D10135042D07F10807BA
:10402000ABD1AEB12046FFF703FF606A20B1036851
:10403000D4E90A121B6998472046FFF76FFF38B191
:10404000606A28B103685B6904B0BDE8F0471847AF
:1040500004B0BDE8F0872DE9FF41002504462E4657
:104060000021102268461FF0E8FD012704EB4501FE
:104070008B890831002B40D00A463B4632F804CCED
:104080001846013BBCF1000F2ED04FEA830C4FEADB
:10409000800E05EB830305EB800004EB430204EB89
:1040A0004000B2F804808388434526D10CF110000B
:1040B000684450F8100C00BB5B009BB29380A26A6E
:1040C0001344E26AA362AE44934204EB4E0E88BFEF
:1040D000E3620023AEF804300CF110030DEB030C87
:1040E00001264CF8106C08E0908822F8040CA2F825
:1040F00004C00126083A002BC0D10137042FB7D1E4
:104100000135042DACD1AEB12046FFF791FE606AB7
:1041100020B10368D4E90A121B6998472046FFF7CB
:10412000FDFE38B1606A28B103685B6904B0BDE880
:10413000F041184704B0BDE8F0812DE9FF470025A4
:10414000044600F10A072E460021102268461FF09F
:1041500074FDBC4602213CF8023D002B42D0634670
:1041600088465A88404608F101088AB308EB850959
:1041700000EB850304EB490904EB4303B9F804E0C1
:104180009B8873454FEA85022CD10DF1100A4FEA46
:10419000880E0AEB880858F8108CB8F1000F21D16E
:1041A000A66A5B009BB2A9F804303344E66AA362B6
:1041B0000244B34204EB420288BFE36200239380CF
:1041C0000EF110030DEB030E01264EF8106C09E002
:1041D000188823F8020FB8F1030F23F8022C4FF0D0
:1041E0000106BED10139B6D20135042D07F1080709
:1041F000AAD1AEB12046FFF71BFE606A20B103686A
:10420000D4E90A121B6998472046FFF787FE38B1A8
:10421000606A28B103685B6904B0BDE8F0471847DD
:1042200004B0BDE8F0872DE9FF41002504462E4685
:104230001022002168461FF000FD04EB4507022014
:10424000BB8A002B42D007F110020346B2F80CC023
:1042500019460133BCF1000F2ED04FEA830C4FEA10
:10426000810E05EB830305EB810104EB430204EBB4
:104270004101B2F804808B88434527D10CF110012D
:10428000694451F8101C09BB5B009BB29380A26A81
:104290001344E26AA362AE44934204EB4E0E88BF1D
:1042A000E3620023AEF804300CF110030DEB030CB5
:1042B00001264CF8106C09E091889181032BA2F83B
:1042C00004C04FF0010602F10802BFD10138431CBF
:1042D000A7F10807B4D10135042DA9D1AEB120460C
:1042E000FFF7A6FD606A20B10368D4E90A121B69D2
:1042F00098472046FFF712FE38B1606A28B103687C
:104300005B6904B0BDE8F041184704B0BDE8F08136
:1043100070B5134D2B78044683B9124E33786BB1C8
:1043200001232B703378013B032B05D8DFE803F022
:104330001215020FFFF71BFE00233370606A18B1DD
:104340000368211DDB68984700232B7070BDFFF7C1
:10435000F4FEF1E7FFF77FFEEEE7FFF764FFEBE720
:1043600018210020192100207047704770477047BE
:10437000704704387047704710B5102104461EF08E
:10438000ADFA204610BDA0F10400F5E700228260DE
:10439000024A026018324260C1607047745F0208CE
:1043A0007047000010B5034B03600446FEF786FD1E
:1043B000204610BDAC5F020810B50446FFF7F2FFBF
:1043C0002046C4211EF08AFA204610BD10B50446CE
:1043D000FEF7F8FD014B2360204610BDAC5F0208DC
:1043E000FEF76DBD7047043870477047C0680368BA
:1043F0001B6B1847A0F10400FFF7F8BFC068036803
:104400005B6B1847A0F10400FFF7F8BF10B510214F
:1044100004461EF063FA204610BDA0F10400F5E743
:10442000C06800F0D7B8A0F10400FFF7F9BF6B290E
:1044300002D88068FFF79BBD942902D98068FFF7F6
:104440007CBE6B2A02D88068FFF705BE942A02D989
:104450008068FFF7E8BE7047A0F10400FFF7E7BFF0
:1044600000228260024A026028324260C1607047C6
:10447000E05F0208806808B1FFF72EBD7047704703
:10448000C06BFFF7F7BF00002DE9F84300F61805F1
:10449000DFF858804FF0200904460E4617460021E9
:1044A0004A4628461FF0C9FB3B4642461021284693
:1044B0000FF0BCF8C4F8685704F5E46004F638055A
:1044C0000CF082FD4A46002128461FF0B6FB334619
:1044D0004246284610210FF0A9F8C4F8B45704F258
:1044E0006C70BDE8F8430CF06FBD00BF3155020899
:1044F00010B5034B03600446FEF78CFF204610BD49
:104500002860020810B50446FFF7F2FF20464FF47A
:104510000F611EF0E3F9204610BD000010B50446FF
:10452000FEF7F8FF274AC4F85C284FF48072A4F81D
:104530008028A4F8AC28244AC4F88828234A244BAD
:10454000C4F8B0284FF6FF722360FF210023A4F8BF
:10455000B4284FF47F02C4F8BC2884F882184FF0C6
:10456000FF32A4F8C03884F85838C4F86038C4F86A
:104570006438C4F86838C4F86C38C4F87038C4F8C3
:104580007438C4F87838C4F87C38C4F88438C4F86F
:104590008C38C4F89038C4F89438C4F89838C4F803
:1045A0009C38C4F8A038C4F8A438C4F8A838C4F8B3
:1045B000B838C4F8C438C4F8C828C4F8CC38204681
:1045C00010BD00BFB863020828630208185B020828
:1045D000286002082DE9F04100F2D4768C1E01F12A
:1045E0001E05374604F1080834F8021F57F8040F77
:1045F000FFF7AAFB4445F7D1A54206F11006F0D11A
:10460000BDE8F08170B50446324D334EFEF7F1FD42
:10461000C4F8685704F5E4600CF0D6FCC4F8B4574D
:1046200004F26C7004F618050CF0CEFC0023324640
:10463000102128460EF0FAFFC4F8685704F6380532
:1046400000233246102128460EF0F0FF04F19803B3
:10465000C4F8D83704F1F003C4F8DC3704F5A473C8
:10466000C4F8E03704F5D073C4F8E43704F5FC73FC
:10467000C4F8E83704F51473C4F8EC3704F52A736A
:10468000C4F8F03704F54073C4F8F43704F55673F2
:10469000C4F8F83704F56C73C4F8FC3704F581638B
:1046A000C4F8003804F58C63C4F8043804F5976343
:1046B000C4F8083804F5A263C4F80C3804F5AD63F7
:1046C000C4F8103804F5B863C4F8B457C4F8143803
:1046D00070BD00BF6060020831550208F0207047CD
:1046E0004FF4A07070472920FDF76CBB2820FDF720
:1046F00069BB08B5FDF73AFBCA20FDF763FBC32091
:10470000FDF744FB0820FDF741FB5020FDF73EFB81
:10471000CF20FDF757FB0020FDF738FBC120FDF748
:1047200035FB3020FDF732FBED20FDF74BFB64201D
:10473000FDF72CFB0320FDF729FB1220FDF726FBDC
:104740008120FDF723FBE820FDF73CFB8520FDF7EA
:104750001DFB0020FDF71AFB7820FDF717FBCB208F
:10476000FDF730FB3920FDF711FB2C20FDF70EFB88
:104770000020FDF70BFB3420FDF708FB0220FDF7BE
:1047800005FBF720FDF71EFB2020FDF7FFFAEA20CE
:10479000FDF718FB0020FDF7F9FA0020FDF7F6FA07
:1047A000B120FDF70FFB0020FDF7F0FA1B20FDF70D
:1047B000EDFAB620FDF706FB0A20FDF7E7FAA22086
:1047C000FDF7E4FAC020FDF7FDFA1020FDF7DEFA50
:1047D000C120FDF7F7FA1020FDF7D8FAC520FDF744
:1047E000F1FA4520FDF7D2FA1520FDF7CFFAC720E0
:1047F000FDF7E8FA9020FDF7C9FA3620FDF7E2FA56
:10480000C820FDF7C3FAF220FDF7DCFA0020FDF71F
:10481000BDFAB020FDF7D6FAC220FDF7B7FAB620F0
:10482000FDF7D0FA0A20FDF7B1FAA720FDF7AEFA9E
:104830002720FDF7ABFA0420FDF7A8FA2A20FDF7A0
:10484000C1FA0020FDF7A2FA0020FDF79FFA002030
:10485000FDF79CFAEF20FDF799FA2B20FDF7B2FA4D
:104860000020FDF793FA0020FDF790FA0120FDF7F4
:104870008DFA3F20FDF78AFAF620FDF7A3FA012012
:10488000FDF784FA0020FDF781FA0620FDF77EFA95
:104890002C20FDF797FAC820FDF7E2FA2620FDF755
:1048A00091FA0120FDF772FAE020FDF78BFA0F2054
:1048B000FDF76CFA2920FDF769FA2420FDF766FA66
:1048C0000C20FDF763FA0E20FDF760FA0920FDF7D2
:1048D0005DFA4E20FDF75AFA7820FDF757FA3C2092
:1048E000FDF754FA0920FDF751FA1320FDF74EFAAF
:1048F0000520FDF74BFA1720FDF748FA1120FDF7C8
:1049000045FA0020FDF742FAE120FDF75BFA0020AE
:10491000FDF73CFA1620FDF739FA1B20FDF736FAB1
:104920000420FDF733FA1120FDF730FA0720FDF7D8
:104930002DFA3120FDF72AFA3320FDF727FA42201D
:10494000FDF724FA0520FDF721FA0C20FDF71EFAE9
:104950000A20FDF71BFA2820FDF718FA2F20FDF793
:1049600015FA0F20FDF712FA1120FDF72BFAC820D7
:10497000FDF776FA2920FDF725FABDE808402C203E
:10498000FDF720BA08B5FDF7F1F90321D320FDF7B3
:1049900035FA80B208BD10B5C4B202220321204608
:1049A000FDF79AF90A20FDF7DFF9204600220321DE
:1049B000FDF792F9BDE810400220FDF7D5B938B5F2
:1049C0000446E4B2FDF786F900212046FDF79CF984
:1049D000012105462046FDF797F940EA052080B2FF
:1049E00038BD10B5C4B240212046FDF78DF903064D
:1049F00007D54C212046FDF787F9003818BF012064
:104A000010BD01224B212046FDF766F92046002209
:104A10004B21FDF761F90020F2E773B50423C4B21E
:104A20000E461546D7210DEB03022046FDF786F909
:104A3000019B1BBA1A0DC3F30B23328020462B8037
:104A400001224B21FDF748F900224B212046FDF7BA
:104A500043F902B070BD000010B50A4A13789842BD
:104A600004460DD0517888420AD00BB141B90123D8
:104A7000D454FDF72FF92046BDE81040FFF78BBF57
:104A800010BD00BF1822002010B5C4B20921204675
:104A9000FDF73AF940F00102D2B220460921BDE803
:104AA0001040FDF719B910B5C4B209212046FDF731
:104AB0002BF9092100F0FE022046BDE81040FDF769
:104AC0000BB938B5C4B20D4620460A21FDF71CF9D2
:104AD00040EA0502D2B220460A21BDE83840FDF77F
:104AE000FBB810B50446FDF7F6F820461F21FFF786
:104AF000E8FF2046BDE81040FFF7C6BF38B5C4B296
:104B00000D4620460A21FDF7FFF820EA0502D2B241
:104B100020460A21BDE83840FDF7DEB810B504464E
:104B2000FFF7C1FF20461F21BDE81040FFF7E6BF99
:104B300010B5C0B20C460B21FDF7E6F8204010BDC1
:104B40001F21FFF7F5BF0A46C0B20B21FDF7C4B81D
:104B50001F21FFF7F8BF38B5C4B20D462046172114
:104B6000FDF7D2F820EA0502D2B220461721BDE8AF
:104B70003840FDF7B1B870B5C4B2064604212046EE
:104B8000FDF7C2F8042100F0FB0205462046FDF7C0
:104B9000A3F83046F021FFF7DEFF05F0F8022046CB
:104BA0000421FDF799F8492220212046FDF794F8C9
:104BB0000220FDF7D9F8204601222121FDF78CF8CB
:104BC00020469A224121FDF787F8204601224A21FA
:104BD000FDF782F8204601224B21FDF77DF82046A3
:104BE00000224B21FDF778F8204601225621FDF7DF
:104BF00073F8204601225821FDF76EF82046012265
:104C00004021FDF769F82046FF220B21FDF764F8EB
:104C1000BDE870400220FDF7A7B80000054BD3F8AF
:104C2000882042F47002C3F888204FF000629A6036
:104C3000704700BF00ED00E008B50B4B1A6842F466
:104C400000721A601A6842F480621A601A6842F4AC
:104C500080721A60032000F08BFA0020FDF7F8FB49
:104C6000FDF72CF9002008BD003C0240034A044B2C
:104C700011681B780B441360704700BF1C22002092
:104C800078000020014B1868704700BF1C220020EC
:104C900038B50446FFF7F6FF631C1CBF054B1B78B5
:104CA000054618BFE418FFF7EDFF431BA342FAD3F4
:104CB00038BD00BF7800002038B50446002800F059
:104CC0009B80056C25B9FDF719F9656484F83C50A3
:104CD000236CDB0600F18E80236C23F4885323F0D1
:104CE000020343F002032364444B5A6822F4403227
:104CF0005A605A6861680A435A60236821695A6891
:104D000022F480725A605A6842EA01225A605A6854
:104D1000A16822F040725A605A680A435A609A6841
:104D2000E16822F400629A609A680A439A60344902
:104D3000A26A8A4252D0996821F07061996099689C
:104D40000A439A609A68E16A22F040529A609A682F
:104D50000A439A609A6822F002029A609A68217E59
:104D600042EA41029A6094F82020002A3ED05A6814
:104D7000616A42F400625A605A6822F460425A60E2
:104D80005A68013942EA41325A60DA6AE16922F42A
:104D90007002DA62DA6A013942EA0152DA629A682A
:104DA00022F400729A609A6894F8301042EA412224
:104DB0009A609A68616922F480629A609A68002019
:104DC00042EA81229A606064236C23F0030343F07B
:104DD00001032364002384F83C3038BD9A6822F034
:104DE00070629A609A6822F04052B2E75A6822F4E0
:104DF0000062C9E70120EDE70120EEE70023014052
:104E00000100000F82B00023019390F83C30012B89
:104E10006FD0012380F83C3003689A68D2070BD525
:104E20009A68D1071AD4036C43F010030364436CEF
:104E300043F00103436452E09A682F4942F00102B3
:104E40009A602E4A1268B2FBF1F202EB4202019222
:104E5000019A002AE4D0019A013AF8E7026C22F4A0
:104E6000E06222F0010242F4807202645A68520544
:104E700041BF026C22F4405242F480520264026C40
:104E800012F480521CBF426C22F0060242640022DF
:104E900080F83C206FF022021A605A6842F080626B
:104EA00042F020025A60164A516811F01F0F15494E
:104EB0001CD18B4207D001F580718B420CD1526816
:104EC00012F01F0F0BD19A6812F0405F07D19A6859
:104ED00042F080429A6002E00B498B4202D00020EF
:104EE00002B07047526812F0100FEBE78B42F6D118
:104EF000E9E70220F4E700BF40420F007400002001
:104F00000023014000200140002201400368D86CCA
:104F1000704770477047036870B51E685D68B207D8
:104F200004462BD5A80629D5226CD1065EBF226C7B
:104F300042F4007222649A6812F0405F17D1227E18
:104F4000AAB9DA6A12F4700F02D09A6852050ED428
:104F50005A6822F020025A60236C23F48073236481
:104F6000236CD8045EBF236C43F001032364204606
:104F7000FCF778FF23686FF012021A60710733D5CF
:104F80002A0631D5236CDB065EBF236C43F4005345
:104F9000236423689A6812F4401F1ED19A6B12F49E
:104FA000401F02D09A68500517D45A68510514D48E
:104FB0009A6812F0405F10D1227E72B95A6822F0CE
:104FC00080025A60236C23F480532364236CDA0537
:104FD0005EBF236C43F001032364204600F0C6F853
:104FE00023686FF00C021A60F30710D568060ED51F
:104FF00023681B68D9070AD5236C43F480332364E4
:105000002046FFF786FF23686FF001021A60B206A0
:105010000ED56B010CD5636C43F002036364236807
:105020006FF020051D602046FFF774FF23681D60A8
:1050300070BD0000F7B50023019390F83C30012BC0
:10504000054600F08680012380F83C3008682B6814
:105050008E68092884B233D904EB4402DF681E3A13
:105060004FF0070C0CFA02FC27EA0C07DF60DF6840
:1050700006FA02F23A43DA604968062901EB810236
:105080002DD8596B053A1F26964021EA060159632F
:10509000596B04FA02F20A435A632F4A93420AD127
:1050A000122837D12D4B5A6822F400025A605A68F0
:1050B00042F480025A60002085F83C0003B0F0BD45
:1050C0001A6900EB400C072707FA0CF722EA0702DF
:1050D0001A611A6906FA0CF616431E61CCE70C2910
:1050E0004FF01F010BD81E6B233A914026EA0101B5
:1050F0001963196B04FA02F20A431A63CDE7DE6AF8
:10510000413A914026EA0101D962D96A94400C43A0
:10511000DC62C2E7124B984201D01128CBD10F4B71
:105120005A6822F480025A605A6842F400025A60B7
:105130000B4B9842BFD10B4B0B4A1B68B3FBF2F3EE
:105140000A2253430193019B002BB4D0019B013BE6
:10515000F8E70220B2E700BF002001400023014031
:10516000120000107400002040420F007047000041
:105170000749CA6822F4E0620302120403F4E06300
:10518000120C134343F0BF6343F40033CB6070470A
:1051900000ED00E0164B30B5DC68C4F30224C4F126
:1051A0000703251D042B28BF0423062D4FF0FF35D0
:1051B0008CBF033C002405FA03F321EA0303A54056
:1051C00022EA0502A340002843EA0203ACBF00F133
:1051D0006040084A4FEA0313B8BF00F00F00DBB28B
:1051E000AABF00F56140135480F8003330BD00BF02
:1051F00000ED00E014ED00E0002807DB044A41095F
:10520000012300F01F00834042F82130704700BFA7
:1052100000E100E010B5044650B1437903F0FF020D
:1052200013B90271FCF7CAFE01236371002010BD9F
:105230000120FCE710B5044620B390F8393003F0A4
:10524000FF021BB980F83820FCF7D0FE022384F857
:105250003930236861681A6822F440320A431A60C0
:105260005A6BA16822F007020A435A631A6CE1687C
:105270006FF30D020A431A6400200123E06384F8EF
:10528000393010BD0120FCE770477047036870B5E6
:105290005E681D68F207044614D5E90512D51A6840
:1052A00022F480721A60C26B42F00102C2630122D2
:1052B0009A60042380F83930002380F8383043693D
:1052C00003B19847B20616D5AB0414D523681A6803
:1052D00022F400521A6020229A60E36B43F002032A
:1052E000E363042384F83930002384F83830636999
:1052F0000BB120469847300716D5290514D52368E9
:105300001A6822F400621A6008229A60E36B43F084
:105310000403E363042384F83930002384F838302D
:1053200063690BB12046984772070BD56B0509D509
:1053300023681A6822F480621A6004229A60204668
:10534000FFF7A2FFB00714D5A90512D523681A6884
:1053500022F400721A6002229A60E36BE363012375
:1053600084F83930002384F8383023690BB12046A3
:105370009847F20613D5EB0411D523681A6822F476
:1053800080521A6010229A60E36BE363012384F871
:105390003930002384F838302046FFF776FF70BD9F
:1053A000F0B590F83820012A03464FF002002BD0C8
:1053B000012283F8382083F8390003EB0112D2E987
:1053C0000740556A174F44EA0040093C012C9CBF36
:1053D00005F07F4210434FEA01161A6888BF40EA81
:1053E000056091B9516A394001435162012C9969B4
:1053F000916103D8596A21F07F4191620122002016
:1054000083F8392083F83800F0BDD1693940014371
:10541000D1619919012C896911619CBF25F07F45E3
:105420001562EBE7F0FFFC002DE9F74FDFF8BC91C8
:105430006C4A00230D6801249C4004EA0506AC4335
:1054400040F0B7804D68032705F003044FEA430896
:1054500007FA08FC671E012F6FEA0C0C34D8876826
:1054600007EA0C0ECF6807FA08F747EA0E078760CD
:10547000476827EA060EC5F300179F4047EA0E0764
:105480004760C76807EA0C0E8F6807FA08F747EA13
:105490000E07022CC76019D14FEAD30A00EB8A0A23
:1054A00003F0070BDAF820704FEA8B0B4FF00F0E6A
:1054B0000EFA0BFE27EA0E0E0F6907FA0BF747EA02
:1054C0000E07CAF8207001E0032CDAD1076804FA4D
:1054D00008F407EA0C073C4315F4403F046068D029
:1054E00000240194D9F8444044F48044C9F844406D
:1054F000D9F8444023F0030707F1804704F48044BF
:1055000007F59C37019403F0030C019CD7F808E0E1
:105510004FEA8C0C0F2404FA0CF42EEA040E324CE1
:10552000A0424DD004F58064A0424BD004F58064C5
:10553000A04249D004F58064A04247D004F58064BD
:10554000A04245D004F58064A04243D004F58064B5
:10555000A04241D004F58064A0423FD004F58064AD
:10556000A0423DD004F58064A04214BF0A2409245F
:1055700004FA0CF444EA0E04BC609468F74315F492
:10558000801F0CBF3C4034439460D46815F4001F66
:105590000CBF3C403443D460546815F4003F0CBF4A
:1055A0003C40344354601468ED0354BF3C403443E2
:1055B00014600133102B7FF43DAF03B0BDE8F08FD2
:1055C0000024D5E70124D3E70224D1E70324CFE761
:1055D0000424CDE70524CBE70624C9E70724C7E761
:1055E0000824C5E7003C01400000024000380240AA
:1055F0000369194214BF0120002070470AB181617C
:1056000070470904FBE7436901EA030221EA030149
:1056100041EA02418161704701684B6913F480637C
:105620004FF0000210D06FF480634B6120230263BF
:1056300080F83D3080F83E20036C80F83C2043F039
:105640000403036401207047184670472DE9F846AB
:1056500006460F4691461D464FEA114A3368BAF195
:10566000010F0CBF5C699C6927EA0404A4B2B4FA78
:1056700084F46409A14501D0002025E06A1CEED025
:10568000FFF700FB089BC01AA84201D8002DE5D106
:105690003368BAF1010F0CBF5B699B6927EA03030A
:1056A0009BB2B3FA83F35B099945D7D1002320223B
:1056B000336386F83D2086F83E30326C86F83C3005
:1056C00042F0200232640120BDE8F8862DE9F04165
:1056D00004460F46164698462568686927EA000082
:1056E00080B2C0B16B695A0517D52B6843F40073BB
:1056F0002B606FF480636B6120220023236384F8A6
:105700003D2084F83E30236C43F0040323640023DF
:1057100084F83C300120BDE8F081731CDDD0FFF738
:10572000B1FAA0EB0800B04201D8002ED4D1236812
:105730005A6927EA020292B2002ACDD00023202221
:10574000236384F83D2084F83E30236C1343DDE767
:1057500070B504460D46164623685B691B0601D5E5
:1057600000201EE02046FFF757FFC8B96A1CF3D09F
:10577000FFF788FA801BA84201D8002DECD12368DE
:105780005B6913F08003E7D12022236384F83D2076
:1057900084F83E30226C84F83C3042F020022264CF
:1057A000012070BD2DE9F0431546026885B0DDE9A2
:1057B0000C789946136843F4807313600E463B4699
:1057C000CDF8008000224FF001110446FFF73EFFA4
:1057D000236838B11B68DB0502D54FF400732364DE
:1057E000032620E006F0FE061E611A4943463A46AB
:1057F0002046FFF76BFFA8B9236803905A6903920C
:105800009B690393424639462046039BFFF7A0FF5E
:10581000064660B1236C042B01BF2268136843F471
:10582000007313600126304605B0BDE8F083B9F17E
:10583000010F236802D1EDB21D61F4E72A0A1A6153
:10584000394642462046FFF783FF0028E2D123680D
:10585000F1E700BF020001002DE9FF479A46036807
:1058600015461A6842F480621A601A68DDE90C78FD
:1058700042F480721A600E463B46CDF8008000224A
:105880004FF001110446FFF7E1FE236838B11B68B1
:10589000DB0544BF4FF400732364032021E05FFA6B
:1058A00086F906F0FE061E612B4943463A4620461D
:1058B000FFF70CFFA0B9236803905A6903929B6914
:1058C0000393424639462046039BFFF741FF58B1F8
:1058D000236C042B01BF2268136843F40073136028
:1058E000012004B0BDE8F087BAF1010F23681AD196
:1058F000EDB242461D6139462046FFF729FF0246B8
:105900000028E5D121680B6843F480730B602046C2
:10591000CDF800803B464FF00111FFF797FE22685B
:1059200060B11368B4E72A0A1A6139464246204634
:10593000FFF70EFF0028CBD12368D9E749F0010318
:105940001361054943463A462046FFF7BFFE00383B
:1059500018BF0120C5E700BF0200010070B5044672
:105960000D46164623685B695B0701D500201EE0E3
:105970002046FFF751FEC8B96A1CF3D0FFF782F941
:10598000801BA84201D8002DECD123685B6913F07D
:105990000403E7D12022236384F83D2084F83E30BD
:1059A000226C84F83C3042F020022264012070BD59
:1059B00070B504460D46164621684B6913F0400346
:1059C00001D0002011E04A69D2060FD56FF0100215
:1059D0004A612022236384F83D2084F83E30236C02
:1059E0002364002384F83C30012070BDFFF74AF99E
:1059F000801BA84201D8002DDED123685B6913F01B
:105A00004003D9D12022236384F83D2084F83E301E
:105A1000236C1343E4E7000070B5044608B9012085
:105A200070BD90F83D3003F0FF021BB980F83C20B8
:105A3000FCF7FEFA242384F83D3023681A6822F02C
:105A400001021A601A6842F400421A601A6822F4CD
:105A500000421A6000F08AFE3F4B65689D4294BF89
:105A60003E4B3F4B98428CBF00230123002BD6D1E5
:105A70002268394E51683B4BB0FBF3F321F03F01F4
:105A80001943B542516088BF4FF49676116A88BFBA
:105A9000734321F03F0184BF4FF47A76B3FBF6F3F2
:105AA00001330B431362D169431E2B4821F44F414C
:105AB000854221F0FF0132D86D0040F6FC70B3FB47
:105AC000F5F30133034242D0C3F30B031943D16111
:105AD000D4E907301168034321F0C0010B43136080
