:020000040800F2
:10000000000003205D060008F1240008F324000826
:10001000F5240008F7240008F92400080000000077
:10002000000000000000000000000000C175000892
:10003000FB2400080000000051760008E36E000871
:10004000AD060008AD060008AD060008AD060008C4
:10005000AD060008AD060008AD060008AD060008B4
:10006000AD060008AD060008AD060008AD060008A4
:10007000AD060008AD060008AD060008AD06000894
:10008000AD060008AD060008FD240008AD06000816
:10009000AD060008AD060008AD060008AD06000874
:1000A000AD060008AD060008AD060008AD06000864
:1000B000AD060008AD060008AD060008AD06000854
:1000C000AD060008AD060008AD060008AD06000844
:1000D000AD060008AD060008AD060008AD06000834
:1000E000AD060008AD060008AD060008AD06000824
:1000F000AD060008AD060008AD060008AD06000814
:10010000AD060008AD060008AD060008AD06000803
:10011000AD060008AD06000819250008AD06000868
:10012000AD060008AD060008AD060008AD060008E3
:10013000AD060008AD060008AD060008AD060008D3
:10014000AD060008AD060008AD060008AD060008C3
:10015000AD060008AD060008AD060008AD060008B3
:10016000AD060008AD060008AD060008AD060008A3
:10017000AD060008AD060008AD060008000000004E
:10018000AD060008AD060008AD060008AD06000883
:10019000AD060008AD060008AD060008AD06000873
:0C01A00025250008AD06000831250008E8
:1001B00010B5054C237833B9044B13B10448AFF3A1
:1001C00000800123237010BD800300200000000088
:1001D000B02F020808B5034B1BB103490348AFF326
:1001E000008008BD0000000084030020B02F02083A
:1001F00001F0FF01102A2BDB10F0070F08D010F8D8
:10020000013B013A8B422DD010F0070F42B3F6D1DB
:10021000F0B441EA012141EA014122F007047FF0F4
:1002200000070023F0E80256083C85EA010586EA4B
:10023000010685FA47F5A3FA87F586FA47F6A5FA87
:1002400087F68EB9EED1F0BC01F0FF0102F0070293
:1002500032B110F8013B013A83EA010313B1F8D13E
:100260000020704701387047002D06BF354603381F
:10027000073815F0010F07D1013015F4807F02BF58
:10028000013015F4C03F0130F0BC0138704700BFA9
:100290007BB972B90029BEBF00204FF0004106E0D3
:1002A00008BF00281CBF6FF000414FF0FF3000F086
:1002B000D3B9ADF1080C6DE904CE002909DB002BA0
:1002C0001ADB00F04DF8DDF804E0DDE9022304B0AC
:1002D0007047404261EB4101002B1BDB00F040F80E
:1002E000DDF804E0DDE9022304B0404261EB4101A6
:1002F000524263EB43037047524263EB430300F007
:100300002FF8DDF804E0DDE9022304B0404261EBA0
:1003100041017047524263EB430300F021F8DDF8DE
:1003200004E0DDE9022304B0524263EB430370476B
:1003300053B94AB9002908BF00281CBF4FF0FF314C
:100340004FF0FF3000F088B9ADF1080C6DE904CE34
:1003500000F006F8DDF804E0DDE9022304B07047A0
:100360002DE9F047089D8E4604468846002B4AD169
:100370008A42174662D9B2FA82F64EB1C6F120031C
:1003800001FA06F820FA03F3B74043EA0808B4403C
:100390004FEA174E1FFA87FCB8FBFEF1230C0EFB49
:1003A000118843EA084301FB0CF29A4209D9FB1871
:1003B00001F1FF3080F0EA809A4240F2E780023992
:1003C0003B449A1AA3B2B2FBFEF00EFB102243EAA2
:1003D000024300FB0CFC9C4509D9FB1800F1FF32DD
:1003E00080F0D6809C4540F2D3803B44023840EAFE
:1003F0000140A3EB0C0300211DB1F3400022C5E92D
:100400000032BDE8F0878B4205D90DB1C5E9000186
:1004100000210846F5E7B3FA83F1002946D1734578
:1004200002D3824200F20581841A6EEB030201209E
:100430009046002DE5D0C5E90048E2E7002A00F02B
:100440009080B2FA82F6002E40F0A4808A1A030C43
:100450004FEA174E80B2BCB20121B2FBFEFC0EFB8C
:100460001C2243EA024304FB0CF29A4207D9FB1810
:100470000CF1FF3802D29A4200F2E080C4469B1A87
:10048000B3FBFEF20EFB123340EA034302FB04F41B
:100490009C4207D9FB1802F1FF3002D29C4200F2C5
:1004A000CA8002461B1B42EA0C40A5E7C1F12006A8
:1004B0008B4022FA06F71F430EFA01F420FA06F3E6
:1004C0002EFA06FE4FEA1749234300FA01F81FFAF5
:1004D00087FCBEFBF9F01C0C09FB10EE44EA0E444D
:1004E00000FB0CFEA64502FA01F209D93C1900F105
:1004F000FF3A80F09C80A64540F2998002383C4447
:10050000A4EB0E041FFA83FEB4FBF9F309FB1344BA
:100510004EEA044403FB0CFCA44508D93C1903F142
:10052000FF3E80F08280A4457FD9023B3C4443EAF1
:100530000040A4EB0C04A0FB02EC64457346E146CA
:1005400062D35FD05DB1B8EB030264EB090404FA37
:1005500006F622FA01F31E43CC40C5E900640021EF
:100560004FE7B1FBF2FC010C41EA0E4180B240EAD8
:1005700001423B4638463C46B846BE462026B1FBC3
:10058000F7F1A2EB080241EA0C4166E7014618E7E1
:1005900010462CE7C6F120022EFA02F3B740B14014
:1005A00020FA02F24FEA174E0A43B3FBFEF8BCB240
:1005B0000EFB1833110C41EA034108FB04F9B0406B
:1005C00089454FEA104380B23ED9791808F1FF3CC3
:1005D00001D289451FD8A1EB0901B1FBFEF909FB46
:1005E00004F80EFB191192B242EA0142424529D2A7
:1005F000BA1809F1FF31C4D24245C2D2A9F10201B1
:100600003A44BEE7F0459DD2BEEB02036CEB070C0B
:100610000138E14696E7A7EB09094944A8F1020C25
:10062000B1FBFEF909FB04F8DBE773467FE75046B0
:1006300066E70846FDE63B44023A33E7ACF1020CBC
:100640003B441CE749469CE7A1EB0901C446B1FBCA
:10065000FEF909FB04F8C4E7704700BFDFF834D0A7
:10066000002103E00C4B5B58435004310B480C4B0A
:1006700042189A42F6D30B4A02E0002342F8043BA8
:10068000094B9A42F9D303F0D9FE21F023FF01F080
:10069000B1F87047000003202C2709080000002053
:1006A0006401002080030020783A0120FEE77047B3
:1006B00008B500F0B9FDBDE8084000F03DBD00F010
:1006C000B5BD704710B50421044620F0ABFC2046B0
:1006D00010BD000038B50C4B0C4C18800C4B822020
:1006E00019806368984740F6110398420AD1094D72
:1006F00023682C60822098472B688220DB6898470B
:10070000002038BD0120FCE7A60300204C0000209B
:10071000A4030020A80300204FF4A071F020FFF7ED
:10072000D9BF0000F7B5394D2B6804461B698220FC
:100730009847208000284ED02B680DF106025B6997
:1007400001A982209847324B1B78002B4BD0BDF873
:10075000062040F674639A423FD9ADF80630BDF8E2
:1007600006209B1A9BB20A2B42D90B22B3FBF2F351
:10077000284A1288934201D9013A93B2BDF8042065
:10078000254840F6B8318A4234D8C2F571620E323B
:10079000016892B20F25B2FBF5F2204D2D88AA42D6
:1007A00084BF05F1FF35AAB28A4215468EB22AD916
:1007B000921B91B21A4E3768BB42BAB28CBF9A1ADA
:1007C000D21A92B211440529C4BF05603360036890
:1007D00063803368A38003B0F0BDB32A9CBFB4220A
:1007E000ADF80620BBE7BDF80630A3F5B473B9E752
:1007F0000023C3E7C2F56D62083292B20E2A016887
:10080000C8D800252A46891A89B2D3E7A803002050
:100810001C1C0020A4030020A0030020A60300202D
:100820009C03002037B568460D461446FFF77AFF53
:10083000BDF8000030B1BDF802302B60BDF80430C7
:100840002360012003B030BD032821D8DFE800F089
:10085000020B12190F4B1A68B2FA82F252090421E4
:100860000D4804F0DBBA0B4B5A68B2FA82F2520917
:100870000821F5E7074B9A68B2FA82F25209102173
:10088000EEE7044BDA68B2FA82F252092021E7E778
:10089000704700BFAC03002000100240032821D89D
:1008A000DFE800F0020B12190F4B1A68003A18BF6C
:1008B000012204210D4804F0B1BA0B4B5A68003AEA
:1008C00018BF01220821F5E7074B9A68003A18BFC4
:1008D00001221021EEE7044BDA68003A18BF01222A
:1008E0002021E7E7704700BFAC0300200010024062
:1008F00003280DD8DFE800F00206080A04210548A5
:1009000004F091BA0821FAE71021F8E72021F6E770
:10091000704700BF0010024008B5032811D8DFE877
:1009200000F0020A0C0E0421074804F071FA431E7D
:100930005842584108BD0821F6E71021F4E720216C
:10094000F2E70020F3E700BF0010024070B5084D49
:1009500000240126E0B2FFF7DFFF18B12B68012B5E
:1009600018BF2E600134052C05F10405F2D170BDCD
:10097000AC030020012380F8781080F879307047AC
:100980007047002070470000034B4164003918BFD6
:1009900001211970704700BF372D012070470020DA
:1009A0007047836B0BB10846184770474FF6FF70CE
:1009B0007047406803689B691847704770477047E5
:1009C0007047704710B5044600F046FD23680349A0
:1009D000D3F890302046BDE810401847000000D002
:1009E00008B503680446D3F8843098472368204646
:1009F000DB6F984700F0ECF8236820465B6F984760
:100A0000292001F0DFF900F0E3F8236820465B6F4E
:100A10009847F8E710B5044609F0C8FB236820465C
:100A2000D3F8BC30BDE81040184700F0F9BC00F026
:100A3000FDBC00F02FBD00F0CFBC00F03FBD00F0CA
:100A400047BD00F0D3BC08F0DFBD10B584210446DB
:100A500020F0E8FA204610BD10B590F8341090F858
:100A600078400C4B8C421A7809D03AB90A4A0B49A3
:100A70001488088810800C8001221A7010BD002A8A
:100A8000FCD0054A05491488088810800C80002293
:100A9000F3E700BF302D01202C2D01202E2D012049
:100AA00070B50D46194635B9094B0A4A0A4840F255
:100AB000FF2121F0F3F9C0E90F52084B003A18BFAB
:100AC00001221A700368BDE87040D3F890301847CF
:100AD0002030020858300208A6300208362D0120C6
:100AE00008B5094B1B888B4203D8084B1B889342DF
:100AF00005D9074B074A0848A32121F0CFF9074B36
:100B00001980074B1A8008BD2C2D01202E2D0120A5
:100B1000EB3002084E310208A6300208322D0120C7
:100B2000342D0120034690F87A0018B15868036804
:100B30001B68184770470000012108B500220846CD
:100B400006F058FA0A4B186028B90A4B0A4A2821BD
:100B50000A4821F0A3F900220421012006F0E9FA55
:100B6000074B186018B9074B034A2C21F0E708BD62
:100B7000C003002091310208DA310208093202086C
:100B8000BC03002044320208024B4FF0FF311868CA
:100B900006F07ABAC0030020014B186806F0A0BA2C
:100BA000C0030020024B0021186806F06DBA00BF98
:100BB000C0030020FFF7F0BF03480449006800238A
:100BC0001A4606F0F1BA00BFBC0300200400002062
:100BD00013B5084C00231A4601A9206806F015FB3E
:100BE00020684FF0FF33002201A906F00EFB02B08F
:100BF00010BD00BFBC03002003685B6C18470120D8
:100C0000704703689B6A1847FEE740F2EF30704771
:100C1000054B0360054B4FF08062C3F88820BFF39B
:100C20004F8FBFF36F8F7047203E020800E100E056
:100C300010B504464FF45A61FFF7EAFF204620F052
:100C4000F1F9204610BD000082B0002301930E4B45
:100C50001A6B42F400021A631A6B02F4000201924A
:100C6000019A1A6942F400021A611A6922F4000218
:100C70001A61064B064A1A61064A5A61064B4FF042
:100C800080629A6002B0704700380240F81D002070
:100C9000E90E0008090C000800E100E008B50A2888
:100CA00009D8DFE800F006100E0808080810101038
:100CB0001000022008BD054B054A0648902121F08E
:100CC000EDF80020F6E70120F4E700BF86320208C5
:100CD000A1320208EC32020838B50C46887FFFF7D3
:100CE000DDFFA58AE28A164B2169586342EA054274
:100CF0005A64628BD963521B1A642568082D0ED181
:100D00009A611A615862207F0E4A42EA0062DA61F3
:100D1000E2681A620C4A5961D9601A6038BD002233
:100D2000D8611A61E1680A0A480902F4784200F4BD
:100D3000FC600243C1F3C4010A439A63034AECE72F
:100D400000B002400900010001230200012303005A
:100D500008B50B280BD8DFE800F00612100A0A0AC3
:100D60000A0808080808022008BD0520FCE7054B12
:100D7000054A06486F2121F091F80020F4E7012090
:100D8000F2E700BF8632020825330208EC3202087F
:100D90002DE9F04191F81D800C464046FFF7D8FF41
:100DA000A77F05463846FFF7D3FF06463846FFF7CC
:100DB00075FFA18A628B444B521A1A649A61228B86
:100DC000521A1A61E28A586342EA01425A6421695E
:100DD0006268D963DA602068802828D0227F0FD823
:100DE000202867D0402865D004281AD0364B45EA21
:100DF000026545F40035B845DD6161D0334A44E011
:100E0000B0F5807F04D0B0F5007FEFD1304800E02E
:100E1000304840EA0262DA61E2681A625E62596151
:100E200032E045EA026242F40032DA61F6E7A06895
:100E3000021DDA62227F45EA026545F40035DD6174
:100E40005E625961017841B1012921D0224B234AC8
:100E500023484FF48D7121F021F8DA69418822F49A
:100E60007F42013922F0100242EA0122DA610121B7
:100E7000154BDA6942F02002DA61DA699206FCD495
:100E800010229A600029B9D0164A1A60BDE8F08194
:100E9000B2F1FF01DA69408822F47F4200F1FF30AD
:100EA00022F0100242EA002242F0100218BF012193
:100EB000DA61DDE745EA0262034B42F40032B4E74F
:100EC00042F20132E1E700BF00B00240012301001D
:100ED000090002000A0002006F3302088933020889
:100EE000EC32020801230200024B1B6858680368B9
:100EF0005B691847382D012070B5044625460A4B1A
:100F00000C30002660602672667245F8203B602235
:100F1000294609F0A1FA04F55A63EE6024359D4292
:100F2000FBD1204670BD00BF203E0208034B1A686B
:100F3000D207FCD423229A60704700BF00B0024061
:100F40007047000030B50F4C2568ED07FCD4232511
:100F50000904A56041F001010225FF2B656361646E
:100F6000E0630AD00849656241EA0363E361074B25
:100F700022626061E060236030BDE561039BA36392
:100F8000034BF8E700B00240090001000100020035
:100F90000100030030B50E4C2568ED07FCD4232575
:100FA0001204A56042F001020225FF2B6563626412
:100FB000E063E16008D01B0643F00213E361054BD8
:100FC00065626061236030BD034BE3610123F9E793
:100FD00000B0024001000200020002FF30B50B4CDD
:100FE0002568ED07FCD4232512041B06A56043F4F5
:100FF0000033022542F0010265636264E063E16050
:10100000E361034B65626061236030BD00B0024064
:1010100001000200012070474020704700EB811062
:101020000830704700EB811008307047012070478E
:101030004FF4D66070474FF4D66303FB01000830CD
:1010400070474FF4D66303FB01000830704701205E
:1010500070471020704700EB01100830704700EB1C
:10106000011008307047084601F018BD10B5034B59
:101070000360044608F01FF8204610BDD83E020861
:1010800010B50446FFF7F2FF204648211FF0CAFFC3
:10109000204610BD10B5034B0360044608F00BF862
:1010A000204610BDA43E020810B50446FFF7F2FF2B
:1010B00020464FF4D7611FF0B5FF204610BD000059
:1010C00010B5034B0360044607F0F5FF204610BD42
:1010D000703E020810B50446FFF7F2FF20461821C3
:1010E0001FF0A0FF204610BD10B5084B036004465A
:1010F00000F2E460FFF7BAFF04F12C00FFF7CAFF2B
:1011000004F11400FFF7DCFF204610BD0C3F02087D
:1011100008B50248FFF7E8FF08BD00BF9C12002099
:1011200010B50446FFF7E0FF204640F6B4011FF07B
:1011300079FF204610BD00002DE9F34101F06CFA63
:10114000054601F06DFA0024014623462846224652
:10115000009410F0B5FE274B274A1A60204602F093
:1011600031FB264D264B274A27489A6010F010FE87
:101170002B68BFF35B8FDB0735D428461FF054FF85
:1011800088B3224C224B236004F2547604F11400FD
:1011900004F12C0804F2E4676060C4F80880E7609A
:1011A000266107F089FF1B4B6361404607F084FF0F
:1011B000194BE362384607F07FFF184BC4F8E4365A
:1011C00004F22C7002F019FC224604F22C71304615
:1011D00002F0CEFB304601F061FC114820F07CFEAD
:1011E00028461FF02DFF0F4802B0BDE8F041FFF781
:1011F000E9BB00BF9C2D012048040020981200206C
:10120000680400204C040020080000209C120020EC
:101210000C3F0208703E0208A43E0208D83E0208B5
:1012200011110008C4030020704700000148FFF7B7
:10123000D7BB00BFC403002070B5264E264C274DF7
:10124000274B23603046FFF757FE284615F03EFF38
:1012500024480EF0A7FE244B2448DC6000224FF403
:101260008071C3E9121222491A86C3E91A12214970
:1012700083F85820C3E91E011F49C3F880101F4995
:101280001F480B60F021C3E90422C3E90622C3E929
:101290000822C3E90A22C3E90E22C3E91022C3E9E6
:1012A0001422C3E917225A6683F870205A67C3E9EB
:1012B000016501801348018013484FF4A07101803B
:1012C0001248018012490A70012283F83420114A21
:1012D0001A6070BDF40400209412002068040020FD
:1012E000103002084C040020C4030020000001015B
:1012F00001000001000450001A001400382D0120E4
:101300002C2D0120322D01202E2D0120342D0120E5
:10131000302D0120343D02080148FFF779BC00BFA1
:10132000F40400200020704781807047C18070471E
:10133000018170474181704770477047704770471F
:10134000704710B4C4880368121B84885B6D091B46
:1013500012B25DF8044B09B218474FF6FF73838150
:101360004FF0FF3303621368C361106070470020C1
:1013700070478B88838001207047704780F8261063
:10138000704790F82600704710B50022B1F9084068
:10139000B1F90A10028042808480C18010BD002211
:1013A000028042808280C28070470177704780ED62
:1013B000080A704780F82410704780F8251070479D
:1013C00001207047983070478C30704784307047E8
:1013D0007047704770470000034B902283F85A23F0
:1013E00083F85823704700BF00E100E0094A0A492A
:1013F000D3680A48C3F30A03013B9BB20B8011690F
:10140000C1F30A01013901801364536B43F00103F6
:101410005363704700680140521B0020501B00209E
:10142000014BD3F8AC00704700680140024B012229
:10143000C3F8AC105A6270470068014010B52C2107
:1014400004461FF0EFFD204610BD10B5BC21044638
:101450001FF0E8FD204610BD70B5044608F029F9DC
:1014600023689D6E0DF036FB01462046A847236891
:10147000054AD3F88C502046AC460023BDE87040A6
:10148000A2F51631604700BF00B004D008F0F8B8EC
:1014900008F002B908F0BEB808F02DBA90F825207F
:1014A00012B103685B691847704790F825201AB19C
:1014B00090F8242002B1186070470000034B4FF0F1
:1014C00080629A604FF080729A60704700E100E09D
:1014D000084B4FF08062C3F88820BFF34F8FBFF3F3
:1014E0006F8F4FF08072C3F88820BFF34F8FBFF328
:1014F0006F8F704700E100E070B50023124E8380CB
:10150000124B0360336893F8582005460AB1D86C33
:1015100000B998680368DB6A98473368B0FA80F4CA
:10152000D86C640930B10368DB6A9847002808BFAB
:1015300044F001042CB9064B064A07482C2120F040
:10154000ADFC284670BD00BF382D0120203F0208A9
:10155000C7330208253402085E34020870B5254EF0
:101560003568BFF35B8F15F0010540D130461FF0A1
:101570005BFD00283BD0204C204B256104F134005A
:10158000C4E90035C4E90255E584A562A5850EF0DD
:10159000EEFF04F158000AF013FC194BA365204636
:1015A000184B40F8843BFFF7A7FF174BC4F8843073
:1015B0002433C4F88C304FF4C803C4E92835002321
:1015C000C4F8AC30C4F8B030C4F8B430C4F8B830A3
:1015D0000E480F4BC4F89050C4F89C50C4F8A85063
:1015E000C4F8983020F078FC30461FF029FD0248FE
:1015F00070BD00BF541B0020581B00201C47020870
:10160000403F0208B83F0208D0460208D513000840
:10161000B046020838B5184C23685BB3174B184A1C
:101620001B6C11888B4216D1164B198804F0E0F917
:10163000236893F86A200025013283F86A2083F832
:101640007C50FFF7B9FA206808F0B0FD2846BDE8E5
:101650003840FFF7F9B804F0CBF924682368204636
:101660001B6A9847012384F87C300020BDE838408D
:10167000FFF714B938BD00BF382D012000680140C4
:10168000521B0020501B002007B5064BADF806008A
:101690001B68054801220DF1060104F059FF03B053
:1016A0005DF804FB0C000020A41C002000B58BB0EA
:1016B0002022002102A820F064FE084B01934FF481
:1016C00000720823CDE90623054801AA002105F090
:1016D00041FC642005F082FCFBE700BFC034020837
:1016E000E516000838B5194C194D21882B88194A80
:1016F00089B21B299BB214D81C3BC82B20D80323CA
:1017000013701378F3B122882B881C3A92B2C82A3E
:101710009BB202D81C3BC82B14D9642005F05EFC98
:10172000F1E7E42904D91C3BC82B09D80423E7E7D7
:101730001B2B01D80123E3E7E42B01D90223DFE7C8
:101740000023DDE7642005F049FCCEE7161C0020ED
:10175000141C0020D11E002030B595B010220021AD
:101760000AA820F00EFE1422002103A820F009FE92
:1017700000241E4B01941A6C42F080521A641B6CB8
:1017800003F080530193019B194B02941A6842F4B1
:1017900040421A601B6803F4404302930122029BFB
:1017A0004FF48033CDE9082302254FF4800308214C
:1017B000CDE90E534FF4B473CDE9101308A80423F8
:1017C0001393129504F06CF904F030F90F23CDE96E
:1017D00003354FF4A0504FF48053CDE906030521A3
:1017E00003A8059404F038FB15B030BD0038024062
:1017F000007000402DE980489BB002F02DFEFFF7FD
:10180000ABFF142200210DA820F0BBFD0024C84B23
:1018100000941A6BC748C84D42F010021A631A6B45
:1018200002F010020092009A01941A6B42F020021A
:101830001A631A6B02F020020192019A02941A6B49
:1018400042F080021A631A6B02F080020292029A3E
:1018500003941A6B42F004021A631A6B02F004023A
:101860000392039A04941A6B42F001021A631A6BF2
:1018700002F001020492049A05941A6B42F00202EB
:101880001A631A6B02F002020592059A06941A6B0B
:1018900042F040021A631A6B02F040020692069A66
:1018A00007941A6B42F008021A631B6B03F00803DB
:1018B000224607933C21079B03F0B0FA9F48012280
:1018C000022103F0ABFA22469C48042103F0A6FA59
:1018D00022469B484FF4405103F0A0FA01263C23D6
:1018E000CDE90D3693480F9403230DA902271093D9
:1018F00003F0AAF991480DA9CDE90D76CDE90F4481
:1019000003F0A2F904238D480DA9CDE90D36CDE9E8
:101910000F4703F099F90DA94FF440538848CDE9DA
:101920000D36CDE90F4703F08FF98648864B0360EB
:1019300003F080F8DFF838C2844B2C62C5E900C39D
:1019400028464FF48043C5E90434C5E90244C5E99B
:10195000064403F071FC1021284603F0B5FE214631
:10196000284603F0D0FE7A4DDFF808E2AC624FF46F
:101970008273C5E900E34FF400781823C5E90683B4
:1019800028460A23C5E90244C5E90444C5E90844D8
:10199000EB6204F081FD8F232246394667488DF8BB
:1019A00024308DF8344003F039FA32464FF47A731C
:1019B00009A9284604F0CCFD4FF47A7332460DA9EC
:1019C000284604F071FF324639465C48614D03F009
:1019D00025FA9DF83430D32B04BF5F4B1E705F4B4C
:1019E0000126C5E900364FF0100840230024C5E960
:1019F00004834FF4C073C5E906344FF40063C5E9AE
:101A000008344FF400534FF0020A4FF0040B032741
:101A1000AB620DA907232846CDE90DA3CDE90FB38D
:101A20004FF00809C5E9024BCDE9117ACDF84CA079
:101A300004F016FC4FF6FF7209A92846CDE90A9674
:101A4000099608940C9404F02BFC304602F030FD0B
:101A50004FF6FF7209A92846CDE909A9CDE90B6423
:101A600004F01EFC4FF6FF7209A92846CDE909795A
:101A7000CDE90BB404F014FC4FF40C730893089BED
:101A80000C934FF6FF7209A92846CDE909B90B96C8
:101A900004F006FC40F26A51284604F01FFC342290
:101AA00021460DEB020020F06CFC2D4D2D4B2C61DE
:101AB000C5E900340923C5E905361D23C5E9073703
:101AC00040F20D1240F24313C5E9092340F2171109
:101AD00040F247132846C5E90B13C5E90244AC861A
:101AE00085F8364003F0A2FEFF21F022CDE9121462
:101AF0004FF005094FF480614FF4A073CDE90E2437
:101B0000CDE91419CDE916420DA922462846CDE9A2
:101B1000103A154D18930D94ADF864408DF8664059
:101B200003F038FF114B2B601B6898472B6823E0AC
:101B30000038024000100240A41D002000080240AE
:101B4000000C0240381E002000300240A086010038
:101B5000A41C0020281C00201C1C0020400100A008
:101B6000FC1C002000680140181C0020140000200C
:101B7000005C004000500140474DDB689847474BF0
:101B80002846C5E90034C5E902A4C5E90A4AC5E901
:101B90000C4402F05FFF3146284603F011F842463C
:101BA00021460DA820F0EDFB3D4D3E48DFF81CA17D
:101BB000EE614FF48033C5E900034FF0007B284607
:101BC0006E61C5F808B02C612C7685F82040EC6277
:101BD000C5F828A0EC6085F8304002F07DFC0D22AD
:101BE0000DA92846CDE90D260F9702F033FE424697
:101BF0002146DFF8DC800DA820F0C3FB2A4AC8F894
:101C00001C604FF480334046C8E90023C8F81460D4
:101C1000C8E90AA4C8F808B0C8F8104088F8184005
:101C200088F82040C8F80C4088F8304002F054FC96
:101C30000DA94046CDE90D960F971C4E02F00AFE05
:101C40001B484FF4E133C0E900630C23C0E90534BD
:101C5000C0E902440461C46105F07CF8FEF728FD88
:101C6000FEF725FD284602F0DDFC404602F0DAFCD6
:101C700005F044F90F4A1048214605F06BF90F4B67
:101C80000F4A186021460F4805F064F90E4B1860A2
:101C900005F046F9FEE700BFF81D002000B0024045
:101CA000881E00200020014000210140001001405A
:101CB0005C1C002020400208AD160008241C0020F7
:101CC000FC3F0208BF060008201C00200100000F96
:101CD000401E0020704770477FB5094B8DF81720D4
:101CE0001B6802930DF117020123009201930A462B
:101CF0000146044803F048FB07B05DF804FB00BF51
:101D000010000020A41D00207FB500238DF817309F
:101D1000084B1B6802930A4601230DF1170100913D
:101D200001930146044803F0BFFB9DF8170007B07C
:101D30005DF804FB10000020A41D00201FB5084C16
:101D400024680092CDE901340A4601230146054882
:101D500003F0AAFB003818BF012004B010BD00BF7B
:101D600010000020A41D002002F0A2BB10B5064CFC
:101D700000222046042103F051F820460122BDE84C
:101D80001040042103F04AB80008024038B50B4D5A
:101D9000044601220A484FF4005103F03FF80022A4
:101DA0000421284603F03AF82046FFF76DFC284648
:101DB0000122BDE83840042103F030B80008024099
:101DC000000C024038B50B4D044600220A484FF47F
:101DD000005103F023F800220421284603F01EF8E6
:101DE0002046FFF751FC28460122BDE83840042177
:101DF00003F014B800080240000C0240F7B5144E7E
:101E0000144F05460C4630460022042103F006F824
:101E100000224FF40051384603F000F82846FFF73F
:101E200033FC0D4B0D481B68224601A904F03CFD14
:101E3000384601224FF40051019C02F0EFFF30467A
:101E40000122042102F0EAFF204603B0F0BD00BFEA
:101E500000080240000C02400C000020A41C0020DE
:101E600002F026BB0B4B984210B5044609D102F094
:101E70005DFC094B80B218802046BDE8104002F09E
:101E8000D1BB064B984204D102F050FC044B80B207
:101E9000F1E710BD881E0020161C0020401E002007
:101EA000141C00200268034B9A4201D102F0EEBAE2
:101EB000704700BF001000407047000082B00E4B1A
:101EC00000220092596C41F480415964596C01F42C
:101ED0008041009100990192196C41F08051196480
:101EE0001B6C03F080530193019B0F216FF00100E5
:101EF00002B002F05FBD00BF0038024010B51422EE
:101F00008AB0044600210DEB020020F03AFA236863
:101F1000254A934227D1254B2548002401945A6C29
:101F200042F480725A645A6C02F480720192019AEF
:101F300002941A6B42F004021A631B6B03F0040351
:101F400002930821029B0323CDE9051305A902F0A2
:101F50007BFE12202246052102F02CFD122002F009
:101F60005BFD0AB010BD134A9342FAD10F4B1248E1
:101F7000002403945A6C42F400725A645A6C02F4BE
:101F800000720392039A04941A6B42F001021A63DE
:101F90001B6B03F001030493049B20220323CDE970
:101FA000052305A9D3E700BF002001400038024007
:101FB0000008024000210140000002400268094B75
:101FC0009A4282B00BD100230193074B1A6B42F463
:101FD00080521A631B6B03F480530193019B02B080
:101FE000704700BF003002400038024007B50F4B79
:101FF00002689A4216D10022A3F5F0430192196BB0
:1020000041F4000119631B6B03F4000301930521E4
:102010005A20019B02F0CEFC5A2003B05DF804EB7D
:1020200002F0FABC03B05DF804FB00BF00B0024050
:102030002DE9F043044689B01422002103A820F0C2
:10204000A0F92268244B9A4243D1244C244800250D
:102050000095236B43F004032363236B03F0040315
:102060000093009B0195236B43F001032363236BD3
:1020700003F001030193019B4FF012094FF4007329
:102080004FF001080327042603A9CDE90339CDE960
:102090000587079602F0D8FD4FF480731148079624
:1020A00003A9CDE90339CDE9058702F0CDFD0295FD
:1020B000236C43F400032364236C03F400030293B2
:1020C000029B236A43F400032362236A23F4000380
:1020D000236209B0BDE8F083005C00400038024094
:1020E0000008024000000240F0B599B004461422F6
:1020F000002107A820F045F930220DEB0200002155
:1021000020F03FF922685E4B9A4240F0B7800823E6
:102110000C93C0231093042312930CA84FF40033A4
:10212000159303F071FF08B1FFF7C6FE554B5648F3
:10213000002400945A6C42F080625A645A6C02F097
:1021400080620092009A01941A6B42F020021A6396
:102150001A6B02F020020192019A02941A6B42F06B
:1021600001021A631A6B02F001020292029A0394AE
:102170001A6B42F002021A631A6B02F00202039217
:10218000039A04941A6B42F040021A631A6B02F02D
:1021900040020492049A05941A6B42F004021A63F6
:1021A0001A6B02F004020592059A06941A6B42F02B
:1021B00008021A631B6B03F00803069302250E2620
:1021C000069B0B964FF4806307A9CDE90735CDE94F
:1021D000094502F039FD41F658032C480B9607A932
:1021E000CDE907350927CDE9094502F02DFD032387
:1021F00027480B9707A9CDE90735CDE9094502F036
:1022000023FD4FF4706322480B9607A9CDE90735EB
:10221000CDE9094502F018FD4FF40C631D480B96FB
:1022200007A9CDE90735CDE9094502F00DFDC02329
:1022300019480B9607A9CDE90735CDE9094502F004
:1022400003FD082315480B9607A9CDE90735CDE90D
:10225000094502F0F9FC4FF4A0530E480B9707A96B
:10226000CDE90735CDE9094502F0EEFC58202246BC
:10227000052102F09FFB582002F0CEFB19B0F0BD03
:102280000068014000380240001402400000024093
:10229000000402400018024000080240000C024006
:1022A00010B5044688B01422002103A820F069F874
:1022B0002268144B9A4223D103F56843002101910F
:1022C0005A6C114842F480125A645A6C02F480121B
:1022D0000192019A02911A6B42F020021A631B6B61
:1022E00003F020030293029B4FF460720223032148
:1022F000CDE903230523CDE9061303A902F0A4FCCD
:1023000008B010BD005001400014024010B5044652
:1023100088B01422002103A820F033F82268144B5F
:102320009A4223D103F59433002101915A6C11484C
:1023300042F010025A645A6C02F010020192019AA3
:1023400002911A6B42F001021A631B6B03F0010346
:102350000293029B4FF4C06202230321CDE90323C1
:102360000723CDE9061303A902F06EFC08B010BDE7
:1023700000100140000002402DE9F04186B000232A
:1023800003932B4B1C68002C4FD14FF00108C3F86E
:102390000080284B00949A6B274842EA08029A630F
:1023A0009B6B03EA08030093022703260C25009B7E
:1023B00001A94FF63F03CDE90137CDE9046502F0ED
:1023C00043FC1E48059501A9CDE90187CDE90346E7
:1023D00002F03AFC48F233131948059501A9CDE9FA
:1023E0000137CDE9034602F02FFC4FF68373154801
:1023F000059501A9CDE90137CDE9034602F024FC9A
:102400004CF203731048059501A9CDE90137CDE9D8
:10241000034602F019FC60230C48059501A9CDE99B
:102420000137CDE9034602F00FFC06B0BDE8F081AC
:10243000D41E002000380240001402400008024070
:102440000018024000100240000C0240000402404C
:1024500070B588B000230293204B1A6C42F0100232
:102460001A641B6C03F010030293054601A903A82C
:10247000029B03F0ABFD069B4BBB03F087FD184EA0
:10248000184B336040F2E733F360174BB0FBF3F3C4
:10249000013B7360304600233361B360B36104F0E5
:1024A000CDFB044680B9304604F0A2FA044658B980
:1024B000362002F0B1FA0F2D0DD8224629463620DB
:1024C00002F078FA094B1D60204608B070BD03F099
:1024D0005DFD4000D3E70124F6E700BF003802406D
:1024E000D81E00200010004040420F007C00002059
:1024F0007047FEE7FEE7FEE7FEE7704708B50448D1
:1025000002F019F9BDE80840024802F014B900BF12
:10251000881E0020401E0020014804F0A7BA00BF1A
:10252000D81E0020014803F0D8B900BFFC1C0020D1
:10253000014802F0BBBA00BFF81D0020012070471F
:1025400008B51FF0C1FF162303604FF0FF3008BD30
:1025500008B51FF0B9FF16230360FEE770B50D46FE
:1025600014460E46731B9C4201DC204670BDAFF33F
:10257000008006F8010BF5E770B50D4614460E46CF
:10258000731B9C4201DC204670BD16F8010BAFF3B3
:102590000080F5E74FF0FF3070474FF400534B6079
:1025A0000020704701207047002070470A4A1168D8
:1025B00008B5034609B90949116010686946034422
:1025C0008B4206D91FF080FF0C2303604FF0FF30D1
:1025D00008BD1360FCE700BF201F0020783A0120EF
:1025E000704710B5042104461EF01CFD204610BDA6
:1025F000012908B506D0022908D059B901F02EF9F1
:10260000006808BD01F02AF94068FAE701F026F9F0
:102610008068F6E70020F4E7004870475840020859
:102620000F20704713B5002451B1036801948DF851
:10263000034001AA9C680DF10303A04702B010BD3E
:102640000846FBE7C0897047008A7047C08870471A
:1026500080887047807A00F07F007047807AC009D8
:1026600070470020704700009FED010A704700BFCF
:1026700000000000806A70477047704710B558210D
:1026800004461EF0CFFC204610BD000073B5064680
:1026900000254FF480721C4B8284C0E90155C0E9CB
:1026A0000355C0E90555C0E90755856246F82C3B3E
:1026B0004FF6FF73A0F85020144AC2620446C0E9E6
:1026C0000C55C0E90E55C0E91055C0E91255A0F8E7
:1026D000523080F8543001A93046ADF8043009F08A
:1026E0003CFD4FF03213A36001A90223304625635D
:1026F000ADF8043009F031FD2046314606F0EEFC1D
:10270000204602B070BD00BF8C410208B8480208E4
:10271000704710B5082104461EF084FC204610BD09
:102720007047704700F598730868496803C370479D
:10273000704770474160704770477047064BC0F85C
:102740004C310023C0F8503100F5A273C0F84801A5
:10275000C0F84031704700BFD5280008012303723C
:1027600070477047704710B4C26841685410034600
:1027700001EB6200D20748BF0A599B685DF8044B21
:1027800048BFD35818470346406830B19A681AB911
:10279000D86800F0010070470120704710B50C2187
:1027A00004461EF03FFC204610BD10B51021044623
:1027B0001EF038FC204610BD10B54FF4AE71044633
:1027C0001EF030FC204610BD10B5402104461EF01E
:1027D00029FC204610BD10B50CF07CF90368BDE85B
:1027E0001040DB6B18470000054B1B7801462BB1EE
:1027F000406818B103680C315B6E1847704700BF22
:10280000372D0120037A70B50546BBB940680368CF
:10281000DB69984704463CB96868036805F10C0118
:102820001B6EBDE870401847A1886B8FC91A2368DA
:1028300020461B6B09B29847A469ECE770BD10B540
:102840000446D0F8400158B10368DB68984738B1B6
:10285000D4F8400103689B6898470023C4F84031CE
:1028600010BD70B5044690F8390094F83830013046
:10287000C0B2984284F8390005D90123237200239D
:1028800084F8393070BDB4F93A2000210EF0D8FA3E
:10289000C30706D500284FF6FF73C8BF01231844AD
:1028A00000B2238AC01AA08760680368DB69984772
:1028B00005462DB960680368BDE870405B6918473C
:1028C000A988A38F19442B6828461B6B09B2984727
:1028D000AD69EEE72DE9F14FD0E9556A0746B068DA
:1028E00003681B6A9847C32805D8444B444AA32170
:1028F00044481FF0D3FA706803681B6A98470F2892
:1029000003D8414B3E4AA421F2E7F06803681B6AF2
:1029100098470B2803D83D4B394AA521E8E70CF02E
:10292000D9F8DFF8F09004300CF0F9F8D9F800008D
:1029300010B10368DB689847D9F8000010B103684C
:102940001B689847DFF8D080D8F8000010B1036802
:102950005B699847D7F83C0110B103685B689847FA
:10296000D8F8000010B103681B689847D7F83C01FD
:1029700010B103689B689847F068036800215B6AA0
:1029800098474FF0000B224BC0F804B0044680F883
:1029900008B00360B068036859465B6A984705460B
:1029A00001F0EAF97068036859465B6A984729465E
:1029B000064601F0C1F9331DC7F83C61CAF824305E
:1029C0002B68C6F808A02846DB68C9F80040C8F89C
:1029D0000050EE639847336830461B68984721469D
:1029E00028460EF027FA236820461B69984723687B
:1029F0005B69204601B0BDE8F04F1847E234020899
:102A00007035020842360208893602082C3702085F
:102A10009C420208802D01207C2D0120044B1B6864
:102A200093F858200AB1D86C00B99868704700BF75
:102A3000382D0120F8B5174604460E460CF00CF967
:102A4000124B1C60124B2360124B0025C4E9513518
:102A5000114BC4E953551868036801219B68C4E908
:102A60004F55C4E955769847284600F0ABFEFFF76E
:102A7000D5FF16F0D4F9FFF7D1FF16F04BFAFFF7A8
:102A8000CDFF16F053FA2046F8BD00BF8C2D012073
:102A90004842020830420208382D0120064BC0F897
:102AA0004C310023C0F8503100F5A273C0F8480142
:102AB000C0F84031704700BFD5280008064BC0F869
:102AC0004C310023C0F8503100F5A273C0F8480122
:102AD000C0F84031704700BFAD2C0008064BC0F86D
:102AE0004C310023C0F8503100F5A273C0F8480102
:102AF000C0F84031704700BF712B00082DE9F0414C
:102B000005460026164B4660067245F80C3B044607
:102B100028460F4609F0FCF9124B84F838701B78F0
:102B200084F83960A68723B9012323722046BDE8C3
:102B3000F0810D4B0D4FB3F90080E368B7F9001039
:102B40009B6B266128469847E3684146DB6B284625
:102B50009847284609F057F93B885B426387E5E7C9
:102B6000C0420208372D01202E2D01202C2D0120DE
:102B70002DE9F047D0E9556A0746B06803681B6A3B
:102B80009847B0F5D66F05D2414B424AA32142483F
:102B90001FF084F9706803681B6A98470F2803D8F0
:102BA0003E4B3C4AA421F2E7F06803681B6A984751
:102BB0003F2803D83A4B374AA521E8E70BF08AFFB4
:102BC000DFF8E09004300BF0AAFFD9F8000010B154
:102BD0000368DB689847D9F8000010B103681B68E8
:102BE0009847DFF8C480D8F8000010B103685B692B
:102BF0009847D7F83C0110B103685B689847D8F84C
:102C0000000010B103681B689847D7F83C0110B169
:102C100003689B689847F068036800215B6A9847DF
:102C200014210446FFF76AFFB068036800215B6A5D
:102C30009847054601F0FCF87068036800215B6A5C
:102C400098472946064601F0D1F8331DC7F83C6184
:102C5000CAF824302B68C6F808A02846DB68C9F8F3
:102C60000040C8F80050EE639847336830461B6850
:102C70009847214628460EF0DDF8236820461B6958
:102C80009847236820465B69BDE8F047184700BFB6
:102C9000E2340208CF3702084236020889360208B9
:102CA0002C370208802D01207C2D01202DE9F047D2
:102CB000D0E9556A0746B06803681B6A9847C3287D
:102CC00005D8414B414AA32141481FF0E7F87068FD
:102CD00003681B6A98470F2803D83E4B3B4AA42140
:102CE000F2E7F06803681B6A98473F2803D83A4B1D
:102CF000364AA521E8E70BF0EDFEDFF8E09004305E
:102D00000BF00DFFD9F8000010B10368DB6898479D
:102D1000D9F8000010B103681B689847DFF8C0803D
:102D2000D8F8000010B103685B699847D7F83C01F8
:102D300010B103685B689847D8F8000010B10368C9
:102D40001B689847D7F83C0110B103689B68984707
:102D5000F068036800215B6A984714210446FFF776
:102D6000CDFEB068036800215B6A9847054601F014
:102D700003F87068036800215B6A98472946064695
:102D800000F0DAFF331DC7F83C61CAF824302B6825
:102D9000C6F808A02846DB68C9F80040C8F800500B
:102DA000EE639847336830461B68984721462846AB
:102DB0000EF040F8236820461B6998472368204698
:102DC0005B69BDE8F0471847E2340208B4380208EE
:102DD00042360208893602082C370208802D01206D
:102DE0007C2D0120406A7047806A704770478A884E
:102DF0000B8810B5D20A4C88C1699BB251F82200E9
:102E000043EA0443184410BD10B50446BAB1107B20
:102E100068B1537BD27A1B0203F4E0631A43236A3E
:102E200003EB82031A888A4202D193F9020010BD93
:102E300005D8013880B204330028F3D1F7E7002029
:102E4000F5E710B52C2104461EF0ECF8204610BD25
:102E500030B58BB00446BDF860500895BDF85C50A5
:102E600007959DF8505006959DF84C5005959DF896
:102E7000485004959DF8445003959DF840500295A4
:102E80009DF83C500195BDF8385000950DF02CFC94
:102E9000064B2360159BE361169B2362199B6362BB
:102EA0001A9BA36220460BB030BD00BFE44202086B
:102EB000704770477047704770477047704770475A
:102EC00030B4C26844685510034604EB6200D20770
:102ED00048BF62599B6830BC48BFD3581847034667
:102EE000406830B19A681AB9D86800F0010070479C
:102EF0000120704710B5102104461EF093F82046BB
:102F000010BD10B5C42104461EF08CF8204610BD3B
:102F10006C30884208B505D10BF0DCFDBDE80840F7
:102F2000FFF7DCBD08BD70B5036804461B6B154692
:102F300098472368294620465B6BBDE870401847D8
:102F4000F8B5194B018F1B888B4206462AD9174BBF
:102F50001B682BB9164B174A17486C211EF09EFFB1
:102F600013F81120154B1B6853F82250144B1868A6
:102F700000F064FC2B6807469B6B284698472B683B
:102F800004469B6C3946284698472B6814FB00F48E
:102F90005B6A394628469847A4B223181BB2A6F8A4
:102FA0004630F8BD0023FAE7942D0120902D012032
:102FB00099390208DB390208163A0208982D0120D7
:102FC0009C2D01202DE9F34104460DF087FD2F4B88
:102FD00023602F4B0025C4E910354FF4807304F1B2
:102FE0006C06A4F86430FF23C4E91255C4E91455F3
:102FF000C4E91655E563256684F86630A566304653
:1030000009F0ECF9234BC4E92D34234B04F14007BC
:10301000C4E92F352A4629463846FFF784FF38464B
:10302000F021FEF785F938464FF4A071FEF782F9DA
:1030300004F104084FF07F43A3663946404606F08A
:103040004DF829463046C222FFF76DFF01AA6946B6
:10305000ADF8005030460125ADF8045008F0B7FF38
:103060003046A4F8A450FFF76BFF4FF0FF33C4E9DC
:103070002A3304F1B4034046C4F89430314606F0D4
:103080002DF8204602B0BDE8F08100BF644302087D
:10309000504802084C430208112F0008704730B412
:1030A000C26844685510034604EB6200D20748BF6B
:1030B00062599B6830BC48BFD358184703464068E4
:1030C00030B19A681AB9D86800F001007047012041
:1030D000704710B5102104461DF0A4FF204610BD16
:1030E00010B50446983000F024FC04F1F00000F024
:1030F00020FC04F5A47000F01CFC04F5D07000F076
:1031000018FC04F5FC7000F014FC04F5147000F0D9
:1031100010FC04F52A7000F00CFC04F5407000F07F
:1031200008FC04F5567000F004FC04F56C7000F027
:1031300000FC04F5816000F0FCFB04F58C6000F0FD
:10314000F8FB04F5976000F0F4FB04F5A26000F0D2
:10315000F0FB04F5AD6000F0ECFB04F5B860BDE8F1
:10316000104000F0E6BB00F5C360884208B505D109
:103170000BF0B0FCBDE80840FFF7A0BC08BD0000A4
:1031800010B5034B03600446FFF776FA204610BDE6
:10319000E4430208224B10B50446036000F5B86012
:1031A000FFF7EEFF04F5AD60FFF7EAFF04F5A2605C
:1031B000FFF7E6FF04F59760FFF7E2FF04F58C6088
:1031C000FFF7DEFF04F58160FFF7DAFF04F56C70AE
:1031D000FFF7D6FF04F55670FFF7D2FF04F54070F5
:1031E000FFF7CEFF04F52A70FFF7CAFF04F514704D
:1031F000FFF7C6FF04F5FC70FFF7C2FF04F5D070BF
:10320000FFF7BEFF04F5A470FFF7BAFF04F1F0006A
:10321000FFF7B6FF04F19800FFF7B2FF204610BD9C
:10322000B043020810B50446FFF7B4FF20464FF440
:10323000CE611DF0F7FE204610BD10B50446FFF725
:103240009FFF204658211DF0EDFE204610BD0000D6
:103250002DE9F04F044691B00DF040FCBF4A2260CA
:10326000BF4A0027C4E910274FF48071FF2204F100
:103270006C09A4F8641084F86620A4F890104FF646
:10328000FF72B849A4F8922084F8942004F1980BB6
:10329000E16648460FA9C4E91277C4E91477C4E986
:1032A0001677C4E91C77C4E91E77C4E92077C4E91E
:1032B0002277E7632766A766ADF83C2004F1F00AA1
:1032C00008F04BFF584600F0E3FA504600F0E0FAF1
:1032D00004F5A4731846009300F0DAFA04F5D073ED
:1032E0001846019300F0D4FA04F5FC7318460293D3
:1032F00000F0CEFA04F514731846039300F0C8FAF0
:1033000004F52A731846049300F0C2FA04F54073DA
:103310001846059300F0BCFA04F556731846069358
:1033200000F0B6FA04F56C731846079300F0B0FA93
:1033300004F581631846089300F0AAFA04F58C633B
:103340001846099300F0A4FA04F5976318460A9307
:1033500000F09EFA04F5A26318460B9300F098FA69
:1033600004F5AD6318460C9300F092FA04F5B863C7
:10337000184604F5C3660D9300F08AFA304609F04A
:103380002DF8794AC4F8602604F14008774AC4F859
:10339000682639463A464046C4F86446C4F86C7616
:1033A000FFF7C1FD4046F021FDF7C2FF40464FF454
:1033B000A071251DFDF7BEFF4FF07F42A26641467A
:1033C000284605F08BFE394648465022FFF7ABFDF4
:1033D0000E220FA94846ADF83C2008F0BEFE494633
:1033E000284605F07BFE582258460821FFF79BFD32
:1033F0005946284605F072FE582250464221FFF7F2
:1034000092FD5146284605F069FE009858227C211D
:10341000FFF789FD0099284605F060FE01985822C3
:10342000B621FFF780FD0199284605F057FE029866
:1034300092220821FFF777FD0299284605F04EFEFB
:10344000039892224221FFF76EFD0399284605F06A
:1034500045FE049892227C21FFF765FD04992846D9
:1034600005F03CFE05989222B621FFF75CFD059918
:10347000284605F033FE0698CC220821FFF753FDBD
:103480000699284605F02AFE0798CC224221FFF72C
:103490004AFD0799284605F021FE0898CC227C2198
:1034A000FFF741FD0899284605F018FE0998CC223F
:1034B000B621FFF738FD0999284605F00FFE0A9856
:1034C0004FF483720821FFF72EFD0A99284605F074
:1034D00005FE0B984FF483724221FFF724FD0B99F0
:1034E000284605F0FBFD0C984FF483727C21FFF712
:1034F0001AFD0C99284605F0F1FD0D984FF48372E2
:10350000B621FFF710FD0D99284605F0E7FD3A4674
:1035100039463046FFF707FD01220EA9ADF83C20E1
:1035200030460FAAADF8387008F051FD3046A4F8C7
:103530005076FFF705FD4FF0FF33C4F85436C4F85A
:10354000583604F5CC632846C4F84036314605F0B9
:10355000C5FD204611B0BDE8F08F00BFB0430208A2
:1035600050480208B848020898430208673100082A
:103570007047000030B5164D2C6814F001048FB070
:10358000BFF35B8F20D128461DF04EFDE0B13F23F5
:103590000993104B0893104B104911480A940122CB
:1035A000CDE906430423CDE903320A230093CDE994
:1035B0000B44CDE901440594FFF74AFC09481EF08D
:1035C0008BFC28461DF03CFD05480FB030BD00BF08
:1035D000241F0020F4560208005702082C56020847
:1035E000281F0020713500087047000030B5164DC7
:1035F0002C6814F001048FB0BFF35B8F21D12846F3
:103600001DF012FDE8B13F230993104B0893104BB6
:10361000104911480A94CDE9064301220423CDE95B
:103620000332142300930C22CDE90B44CDE901446D
:103630000594FFF70DFC09481EF04EFC28461DF0CE
:10364000FFFC05480FB030BD541F0020F85602089B
:10365000045702083C560208581F0020E9350008AC
:103660007047000030B5164D2C6814F001048FB07F
:10367000BFF35B8F20D128461DF0D6FCE0B13F237D
:103680000993104B0893104B104911480A940122DA
:10369000CDE906430423CDE9033228230093CDE985
:1036A0000B44CDE901440594FFF7D2FB09481EF015
:1036B00013FC28461DF0C4FC05480FB030BD00BF08
:1036C000841F0020FC56020808570208E45602082E
:1036D000881F0020613600080020704700207047D6
:1036E0000EB403B503AB002153F8042B01930CF087
:1036F00079FA02B05DF804EB03B070470CB407B57B
:1037000004AB53F8042B01930CF06CFA03B05DF892
:1037100004EB02B070470000436C10B5044673B36D
:10372000038F2BB9184B194AC52119481EF0B6FB57
:10373000C38E00EB43035B8C0BB30EF0EEF8238FCC
:10374000012B03D8134B144ACB21EEE7E28E531C16
:103750009BB2092B194688BFA3F10A0104EB410172
:1037600040F63F10498C814209D10A2B04EB4202FA
:1037700028BF002304EB4303508C58845184204617
:10378000BDE810400DF0CCBF5D3A0208663A020871
:10379000113B02085B3B0208693B02080DF087BF42
:1037A00010B586B002AC84E806001A460AAB059351
:1037B0000193099B00932146089B0AF029FD06B05E
:1037C00010BD000038B518BB124B13481C681349D4
:1037D000B4B1226822440260626822440A60A2688E
:1037E00014440F4B00221A8000F038F8054600F010
:1037F00033F80C4B1C600C4B1D600C4B188007E021
:103800000B4B03600B4B0B600B4B1C68002CE8D17F
:1038100038BD00BFC01F0020B81F0020B41F00200B
:10382000BC1F0020902D0120982D0120942D0120F7
:10383000145702080C57020840570208044B1B6833
:1038400053F82100034B1B6803EB4000704700BF97
:10385000B41F0020B81F00200220704700487047A6
:10386000C41F002010B5FFF7C1FE044C2060FFF715
:10387000F9FE6060FFF77EFEA06010BDC41F00204F
:1038800010B5002404600C6014601C6010BD0000C2
:1038900010B50446FEF7FAFE014B2360204610BD2A
:1038A000E4430208402913B500F12C042DD00ED8B2
:1038B000082926D005D802291CD004291FD00223AC
:1038C00019E010291FD02029F9D1092313E0B1F5FF
:1038D000007F2AD006D8802919D0B1F5807FEED19B
:1038E000082308E0B1F5806F21D0B1F5006FE6D173
:1038F000072300E00623ADF8043001A90CE00A23F9
:10390000F9E70D23F7E70523F5E70C23F3E7042395
:10391000ADF804300DEB0301204608F01EFC2046F4
:1039200002B0BDE810400CF087BA0B23E3E7032395
:10393000E1E710B50446FEF7A0FE20460021BDE8F1
:103940001040FFF7AFBF704710B54FF4B071044699
:103950001DF068FB204610BD10B50446D0F85C0190
:1039600000F0AEF92046BDE810400BF035B900007C
:1039700038B504460D46FFF75DF8034B2360C4F8E5
:103980005C51204638BD00BF7844020870B5002362
:10399000A0B00446811C1D460846002230F8026F84
:1039A0002EB920AE06EBC50646E9203201350132BC
:1039B000042AF3D10133042B01F10801ECD1D5B174
:1039C0001EF07CFB20AA90FBF5F303FB150302EB32
:1039D000C30353E920651EF071FB0A2305EB86053E
:1039E00090FBF3F202FB1300092804EB45040CBF23
:1039F00004230223A38020B070BD10B50023036010
:103A00004362044600F04EFD1EF02AFB2046FFF7FD
:103A1000BDFF2046FFF7BAFF204610BD2DE9FF414C
:103A200000240646071D25460021102268461EF088
:103A3000A8FCBE4601213EF8023F8BB37246084601
:103A400032F802CD03460138BCF1000F21D05A1ED6
:103A500002EB840003EB840306EB400006EB430318
:103A6000B0F80480B3F804C0C44519D10DF11008B2
:103A700008EB820252F8108CB8F1000F10D14FEA17
:103A80004C0C0125A0F804C042F8105CA3F8048097
:103A900006E053881380A2F802C001250028CFD188
:103AA00001310429C7D10134042C07F10807BBD127
:103AB0002DB1304604B0BDE8F041FFF767BF04B058
:103AC000BDE8F081F0B5002485B00646254600210A
:103AD000102268461EF055FC06EB440101208B893C
:103AE000083193B30B46074633F804CC3A46013FFE
:103AF000BCF1000F20D0531E9F0004EB820204EBA8
:103B0000830306EB430306EB4202B3F804E0B2F88A
:103B100004C0F44519D110376F4457F810ECBEF1CA
:103B2000000F12D14FEA4C0C0125A3F804C047F84E
:103B3000105CA2F804E008E09A8823F8042CA3F8AB
:103B400004C00125083B002FCED101300428C6D186
:103B50000134042CBBD12DB1304605B0BDE8F04096
:103B6000FFF714BF05B0F0BD2DE9FF410024064664
:103B700000F10A0725460021102268461EF001FCCC
:103B8000BE4602213EF8023D9BB372460846B2F89B
:103B900002C003460130BCF1000F21D05A1C02EBD9
:103BA000840003EB840306EB400006EB4303B0F80C
:103BB0000480B3F804C0C4451BD10DF1100808EB14
:103BC000820252F8108CB8F1000F12D14FEA4C0C5F
:103BD0000125A0F804C042F8105CA3F8048008E0B6
:103BE000138822F8023F032822F802CC4FF0010587
:103BF000CDD10139C6D20134042C07F10807BAD15E
:103C00002DB1304604B0BDE8F041FFF7BFBE04B0AF
:103C1000BDE8F081F0B5002485B0064625460021B8
:103C2000102268461EF0ADFB06EB44000221838A99
:103C3000A3B300F110030F46B3F80CC03A460137A6
:103C4000BCF1000F20D0531C9F0004EB820204EB58
:103C5000830306EB430306EB4202B3F804E0B2F839
:103C600004C0F4451AD110376F4457F810ECBEF178
:103C7000000F13D14FEA4C0C0125A3F804C047F8FC
:103C8000105CA2F804E009E09A889A81032FA3F857
:103C900004C04FF0010503F10803CDD101394B1CDD
:103CA000A0F10800C3D10134042CB8D12DB13046A5
:103CB00005B0BDE8F040FFF769BE05B0F0BD0000FB
:103CC00070B5134D2B78044683B9124E33786BB11F
:103CD00001232B703378013B032B05D8DFE803F079
:103CE0001215020FFFF79AFE00233370606A18B1B5
:103CF0000368211DDB68984700232B7070BDFFF718
:103D000033FFF1E7FFF7DEFEEEE7FFF783FFEBE7B8
:103D1000D01E0020D11E0020704770477047043825
:103D20007047704710B5102104461DF07BF92046FE
:103D300010BDA0F10400F5E700228260024A026093
:103D400018324260C1607047CC44020870470000DE
:103D500010B5034B03600446FFF7B0F8204610BDD2
:103D6000FC44020810B50446FFF7F2FF2046C421C8
:103D70001DF058F9204610BD10B50446FFF722F992
:103D8000014B2360204610BDFC440208FFF797B8A2
:103D9000704704387047704710B5102104461DF075
:103DA00041F9204610BDA0F10400F5E7C06800F01D
:103DB00049B8A0F10400FFF7F9BF6B2902D8806869
:103DC000FFF72CBE942902D98068FFF7CDBE6B2A7D
:103DD00002D88068FFF776BE942A02D98068FFF780
:103DE00019BF7047A0F10400FFF7E7BF002282600F
:103DF000024A026020324260C160704730450208CA
:103E00007047000010B5034B03600446FFF7C2F98A
:103E1000204610BD6845020810B50446FFF7F2FFC2
:103E200020464FF4D6611DF0FDF8204610BD00007D
:103E300010B50446FFF70CFA014B2360204610BD75
:103E4000684502082DE9F04100F26C668C1E01F114
:103E50001E05374604F1080834F8021F57F8040F0E
:103E6000FFF720FD4445F7D1A54206F11006F0D139
:103E7000BDE8F08110B50446FFF732F904F198036C
:103E8000C4F8703604F1F003C4F8743604F5A47372
:103E9000C4F8783604F5D073C4F87C3604F5FC73A6
:103EA000C4F8803604F51473C4F8843604F52A7314
:103EB000C4F8883604F54073C4F88C3604F556739C
:103EC000C4F8903604F56C73C4F8943604F5816335
:103ED000C4F8983604F58C63C4F89C3604F59763EF
:103EE000C4F8A03604F5A263C4F8A43604F5AD63A3
:103EF000C4F8A83604F5B863C4F8AC3610BDF02099
:103F000070474FF4A07070472920FDF75BBF282051
:103F1000FDF758BF08B5FDF729FFCA20FDF752FF8E
:103F2000C320FDF733FF0820FDF730FF5020FDF7D9
:103F30002DFFCF20FDF746FF0020FDF727FFC12012
:103F4000FDF724FF3020FDF721FFED20FDF73AFFBC
:103F50006420FDF71BFF0320FDF718FF1220FDF77B
:103F600015FF8120FDF712FFE820FDF72BFF8520CC
:103F7000FDF70CFF0020FDF709FF7820FDF706FF95
:103F8000CB20FDF71FFF3920FDF700FF2C20FDF7A8
:103F9000FDFE0020FDF7FAFE3420FDF7F7FE0220BB
:103FA000FDF7F4FEF720FDF70DFF2020FDF7EEFEF4
:103FB000EA20FDF707FF0020FDF7E8FE0020FDF7EF
:103FC000E5FEB120FDF7FEFE0020FDF7DFFE1B2021
:103FD000FDF7DCFEB620FDF7F5FE0A20FDF7D6FE64
:103FE000A220FDF7D3FEC020FDF7ECFE1020FDF768
:103FF000CDFEC120FDF7E6FE1020FDF7C7FEC5206F
:10400000FDF7E0FE4520FDF7C1FE1520FDF7BEFEE1
:10401000C720FDF7D7FE9020FDF7B8FE3620FDF74C
:10402000D1FEC820FDF7B2FEF220FDF7CBFE002046
:10403000FDF7ACFEB020FDF7C5FEC220FDF7A6FEE1
:10404000B620FDF7BFFE0A20FDF7A0FEA720FDF772
:104050009DFE2720FDF79AFE0420FDF797FE2A20FB
:10406000FDF7B0FE0020FDF791FE0020FDF78EFE6B
:104070000020FDF78BFEEF20FDF788FE2B20FDF7DB
:10408000A1FE0020FDF782FE0020FDF77FFE01204B
:10409000FDF77CFE3F20FDF779FEF620FDF792FE4E
:1040A0000120FDF773FE0020FDF770FE0620FDF7EE
:1040B0006DFE2C20FDF786FEC820FDF7D1FE2620E0
:1040C000FDF780FE0120FDF761FEE020FDF77AFE9E
:1040D0000F20FDF75BFE2920FDF758FE2420FDF799
:1040E00055FE0C20FDF752FE0E20FDF74FFE092075
:1040F000FDF74CFE4E20FDF749FE7820FDF746FE09
:104100003C20FDF743FE0920FDF740FE1320FDF79C
:104110003DFE0520FDF73AFE1720FDF737FE112082
:10412000FDF734FE0020FDF731FEE120FDF74AFEE9
:104130000020FDF72BFE1620FDF728FE1B20FDF7C3
:1041400025FE0420FDF722FE1120FDF71FFE0720AB
:10415000FDF71CFE3120FDF719FE3320FDF716FE9A
:104160004220FDF713FE0520FDF710FE0C20FDF7A1
:104170000DFE0A20FDF70AFE2820FDF707FE2F207E
:10418000FDF704FE0F20FDF701FE1120FDF71AFEDA
:10419000C820FDF765FE2920FDF714FEBDE80840A4
:1041A0002C20FDF70FBE08B5FDF7E0FD0321D3205D
:1041B000FDF724FE80B208BD10B5C4B2022203216F
:1041C0002046FDF789FD0A20FDF7CEFD204600229E
:1041D0000321FDF781FDBDE810400220FDF7C4BDBD
:1041E00038B50446E4B2FDF775FD00212046FDF721
:1041F0008BFD012105462046FDF786FD40EA05209E
:1042000080B238BD10B5C4B240212046FDF77CFD18
:10421000030607D54C212046FDF776FD003818BF70
:10422000012010BD01224B212046FDF755FD2046FF
:1042300000224B21FDF750FD0020F2E773B5042367
:10424000C4B20E461546D7210DEB03022046FDF7FA
:1042500075FD019B1BBA1A0DC3F30B233280204658
:104260002B8001224B21FDF737FD00224B212046F8
:10427000FDF732FD02B070BD10B50A4A13789842BE
:1042800004460DD0517888420AD00BB141B90123C0
:10429000D454FDF71FFD2046BDE81040FFF78CBF4A
:1042A00010BD00BFD01F002010B5C4B209212046A8
:1042B000FDF72AFD40F00102D2B220460921BDE8F7
:1042C0001040FDF709BD10B5C4B209212046FDF725
:1042D0001BFD092100F0FE022046BDE81040FDF75D
:1042E000FBBC38B5C4B20D4620460A21FDF70CFDD3
:1042F00040EA0502D2B220460A21BDE83840FDF767
:10430000EBBC10B50446FDF7E6FC20461F21FFF785
:10431000E8FF2046BDE81040FFF7C6BF38B5C4B27D
:104320000D4620460A21FDF7EFFC20EA0502D2B235
:1043300020460A21BDE83840FDF7CEBC10B5044642
:10434000FFF7C1FF20461F21BDE81040FFF7E6BF81
:1043500010B5C0B20C460B21FDF7D6FC204010BDB5
:104360001F21FFF7F5BF0A46C0B20B21FDF7B4BC11
:104370001F21FFF7F8BF38B5C4B20D4620461721FC
:10438000FDF7C2FC20EA0502D2B220461721BDE8A3
:104390003840FDF7A1BC70B5C4B2064604212046E2
:1043A000FDF7B2FC042100F0FB0205462046FDF7B4
:1043B00093FC3046F021FFF7DEFF05F0F8022046BF
:1043C0000421FDF789FC492220212046FDF784FCC9
:1043D0000220FDF7C9FC204601222121FDF77CFCCB
:1043E00020469A224121FDF777FC204601224A21EE
:1043F000FDF772FC204601224B21FDF76DFC2046A3
:1044000000224B21FDF768FC204601225621FDF7D2
:1044100063FC204601225821FDF75EFC2046012264
:104420004021FDF759FC2046FF220B21FDF754FCEB
:10443000BDE870400220FDF797BC0000054BD3F8A3
:10444000882042F47002C3F888204FF000629A601E
:10445000704700BF00ED00E008B50B4B1A6842F44E
:1044600000721A601A6842F480621A601A6842F494
:1044700080721A60032000F08BFA0020FDF7E8FF3D
:10448000FDF71CFD002008BD003C0240034A044B20
:1044900011681B780B441360704700BFD41F0020C5
:1044A00078000020014B1868704700BFD41F00201F
:1044B00038B50446FFF7F6FF631C1CBF054B1B789D
:1044C000054618BFE418FFF7EDFF431BA342FAD3DC
:1044D00038BD00BF7800002038B50446002800F041
:1044E0009B80056C25B9FDF709FD656484F83C5097
:1044F000236CDB0600F18E80236C23F4885323F0B9
:10450000020343F002032364444B5A6822F440320E
:104510005A605A6861680A435A60236821695A6878
:1045200022F480725A605A6842EA01225A605A683C
:10453000A16822F040725A605A680A435A609A6829
:10454000E16822F400629A609A680A439A603449EA
:10455000A26A8A4252D0996821F070619960996884
:104560000A439A609A68E16A22F040529A609A6817
:104570000A439A609A6822F002029A609A68217E41
:1045800042EA41029A6094F82020002A3ED05A68FC
:10459000616A42F400625A605A6822F460425A60CA
:1045A0005A68013942EA41325A60DA6AE16922F412
:1045B0007002DA62DA6A013942EA0152DA629A6812
:1045C00022F400729A609A6894F8301042EA41220C
:1045D0009A609A68616922F480629A609A68002001
:1045E00042EA81229A606064236C23F0030343F063
:1045F00001032364002384F83C3038BD9A6822F01C
:1046000070629A609A6822F04052B2E75A6822F4C7
:104610000062C9E70120EDE70120EEE70023014039
:104620000100000F82B00023019390F83C30012B71
:104630006FD0012380F83C3003689A68D2070BD50D
:104640009A68D1071AD4036C43F010030364436CD7
:1046500043F00103436452E09A682F4942F001029B
:104660009A602E4A1268B2FBF1F202EB420201920A
:10467000019A002AE4D0019A013AF8E7026C22F488
:10468000E06222F0010242F4807202645A6852052C
:1046900041BF026C22F4405242F480520264026C28
:1046A00012F480521CBF426C22F0060242640022C7
:1046B00080F83C206FF022021A605A6842F0806253
:1046C00042F020025A60164A516811F01F0F154936
:1046D0001CD18B4207D001F580718B420CD15268FE
:1046E00012F01F0F0BD19A6812F0405F07D19A6841
:1046F00042F080429A6002E00B498B4202D00020D7
:1047000002B07047526812F0100FEBE78B42F6D1FF
:10471000E9E70220F4E700BF40420F0074000020E8
:104720000023014000200140002201400368D86CB2
:10473000704770477047036870B51E685D68B207C0
:1047400004462BD5A80629D5226CD1065EBF226C63
:1047500042F4007222649A6812F0405F17D1227E00
:10476000AAB9DA6A12F4700F02D09A6852050ED410
:104770005A6822F020025A60236C23F48073236469
:10478000236CD8045EBF236C43F0010323642046EE
:10479000FDF768FB23686FF012021A60710733D5CA
:1047A0002A0631D5236CDB065EBF236C43F400532D
:1047B000236423689A6812F4401F1ED19A6B12F486
:1047C000401F02D09A68500517D45A68510514D476
:1047D0009A6812F0405F10D1227E72B95A6822F0B6
:1047E00080025A60236C23F480532364236CDA051F
:1047F0005EBF236C43F001032364204600F0C6F83B
:1048000023686FF00C021A60F30710D568060ED506
:1048100023681B68D9070AD5236C43F480332364CB
:104820002046FFF786FF23686FF001021A60B20688
:104830000ED56B010CD5636C43F0020363642368EF
:104840006FF020051D602046FFF774FF23681D6090
:1048500070BD0000F7B50023019390F83C30012BA8
:10486000054600F08680012380F83C3008682B68FC
:104870008E68092884B233D904EB4402DF681E3AFB
:104880004FF0070C0CFA02FC27EA0C07DF60DF6828
:1048900006FA02F23A43DA604968062901EB81021E
:1048A0002DD8596B053A1F26964021EA0601596317
:1048B000596B04FA02F20A435A632F4A93420AD10F
:1048C000122837D12D4B5A6822F400025A605A68D8
:1048D00042F480025A60002085F83C0003B0F0BD2D
:1048E0001A6900EB400C072707FA0CF722EA0702C7
:1048F0001A611A6906FA0CF616431E61CCE70C29F8
:104900004FF01F010BD81E6B233A914026EA01019C
:104910001963196B04FA02F20A431A63CDE7DE6ADF
:10492000413A914026EA0101D962D96A94400C4388
:10493000DC62C2E7124B984201D01128CBD10F4B59
:104940005A6822F480025A605A6842F400025A609F
:104950000B4B9842BFD10B4B0B4A1B68B3FBF2F3D6
:104960000A2253430193019B002BB4D0019B013BCE
:10497000F8E70220B2E700BF002001400023014019
:10498000120000107400002040420F007047000029
:104990000749CA6822F4E0620302120403F4E063E8
:1049A000120C134343F0BF6343F40033CB607047F2
:1049B00000ED00E0164B30B5DC68C4F30224C4F10E
:1049C0000703251D042B28BF0423062D4FF0FF35B8
:1049D0008CBF033C002405FA03F321EA0303A5403E
:1049E00022EA0502A340002843EA0203ACBF00F11B
:1049F0006040084A4FEA0313B8BF00F00F00DBB273
:104A0000AABF00F56140135480F8003330BD00BFE9
:104A100000ED00E014ED00E0002807DB044A410946
:104A2000012300F01F00834042F82130704700BF8F
:104A300000E100E010B5044650B1437903F0FF02F5
:104A400013B90271FDF7BAFA01236371002010BD9A
:104A50000120FCE710B5044620B390F8393003F08C
:104A6000FF021BB980F83820FDF7C0FA022384F852
:104A70003930236861681A6822F440320A431A60A8
:104A80005A6BA16822F007020A435A631A6CE16864
:104A90006FF30D020A431A6400200123E06384F8D7
:104AA000393010BD0120FCE770477047036870B5CE
:104AB0005E681D68F207044614D5E90512D51A6828
:104AC00022F480721A60C26B42F00102C2630122BA
:104AD0009A60042380F83930002380F83830436925
:104AE00003B19847B20616D5AB0414D523681A68EB
:104AF00022F400521A6020229A60E36B43F0020312
:104B0000E363042384F83930002384F83830636980
:104B10000BB120469847300716D5290514D52368D0
:104B20001A6822F400621A6008229A60E36B43F06C
:104B30000403E363042384F83930002384F8383015
:104B400063690BB12046984772070BD56B0509D5F1
:104B500023681A6822F480621A6004229A60204650
:104B6000FFF7A2FFB00714D5A90512D523681A686C
:104B700022F400721A6002229A60E36BE36301235D
:104B800084F83930002384F8383023690BB120468B
:104B90009847F20613D5EB0411D523681A6822F45E
:104BA00080521A6010229A60E36BE363012384F859
:104BB0003930002384F838302046FFF776FF70BD87
:104BC000F0B590F83820012A03464FF002002BD0B0
:104BD000012283F8382083F8390003EB0112D2E96F
:104BE0000740556A174F44EA0040093C012C9CBF1E
:104BF00005F07F4210434FEA01161A6888BF40EA69
:104C0000056091B9516A394001435162012C99699B
:104C1000916103D8596A21F07F41916201220020FD
:104C200083F8392083F83800F0BDD1693940014359
:104C3000D1619919012C896911619CBF25F07F45CB
:104C40001562EBE7F0FFFC002DE9F74FDFF8BC91B0
:104C50006C4A00230D6801249C4004EA0506AC431D
:104C600040F0B7804D68032705F003044FEA43087E
:104C700007FA08FC671E012F6FEA0C0C34D887680E
:104C800007EA0C0ECF6807FA08F747EA0E078760B5
:104C9000476827EA060EC5F300179F4047EA0E074C
:104CA0004760C76807EA0C0E8F6807FA08F747EAFB
:104CB0000E07022CC76019D14FEAD30A00EB8A0A0B
:104CC00003F0070BDAF820704FEA8B0B4FF00F0E52
:104CD0000EFA0BFE27EA0E0E0F6907FA0BF747EAEA
:104CE0000E07CAF8207001E0032CDAD1076804FA35
:104CF00008F407EA0C073C4315F4403F046068D011
:104D000000240194D9F8444044F48044C9F8444054
:104D1000D9F8444023F0030707F1804704F48044A6
:104D200007F59C37019403F0030C019CD7F808E0C9
:104D30004FEA8C0C0F2404FA0CF42EEA040E324CC9
:104D4000A0424DD004F58064A0424BD004F58064AD
:104D5000A04249D004F58064A04247D004F58064A5
:104D6000A04245D004F58064A04243D004F580649D
:104D7000A04241D004F58064A0423FD004F5806495
:104D8000A0423DD004F58064A04214BF0A24092447
:104D900004FA0CF444EA0E04BC609468F74315F47A
:104DA000801F0CBF3C4034439460D46815F4001F4E
:104DB0000CBF3C403443D460546815F4003F0CBF32
:104DC0003C40344354601468ED0354BF3C403443CA
:104DD00014600133102B7FF43DAF03B0BDE8F08FBA
:104DE0000024D5E70124D3E70224D1E70324CFE749
:104DF0000424CDE70524CBE70624C9E70724C7E749
:104E00000824C5E7003C0140000002400038024091
:104E10000369194214BF0120002070470AB1816163
:104E200070470904FBE7436901EA030221EA030131
:104E300041EA02418161704701684B6913F4806364
:104E40004FF0000210D06FF480634B6120230263A7
:104E500080F83D3080F83E20036C80F83C2043F021
:104E60000403036401207047184670472DE9F84693
:104E700006460F4691461D464FEA114A3368BAF17D
:104E8000010F0CBF5C699C6927EA0404A4B2B4FA60
:104E900084F46409A14501D0002025E06A1CEED00D
:104EA000FFF700FB089BC01AA84201D8002DE5D1EE
:104EB0003368BAF1010F0CBF5B699B6927EA0303F2
:104EC0009BB2B3FA83F35B099945D7D10023202223
:104ED000336386F83D2086F83E30326C86F83C30ED
:104EE00042F0200232640120BDE8F8862DE9F0414D
:104EF00004460F46164698462568686927EA00006A
:104F000080B2C0B16B695A0517D52B6843F40073A2
:104F10002B606FF480636B6120220023236384F88D
:104F20003D2084F83E30236C43F0040323640023C7
:104F300084F83C300120BDE8F081731CDDD0FFF720
:104F4000B1FAA0EB0800B04201D8002ED4D12368FA
:104F50005A6927EA020292B2002ACDD00023202209
:104F6000236384F83D2084F83E30236C1343DDE74F
:104F700070B504460D46164623685B691B0601D5CD
:104F800000201EE02046FFF757FFC8B96A1CF3D087
:104F9000FFF788FA801BA84201D8002DECD12368C6
:104FA0005B6913F08003E7D12022236384F83D205E
:104FB00084F83E30226C84F83C3042F020022264B7
:104FC000012070BD2DE9F0431546026885B0DDE98A
:104FD0000C789946136843F4807313600E463B4681
:104FE000CDF8008000224FF001110446FFF73EFF8C
:104FF000236838B11B68DB0502D54FF400732364C6
:10500000032620E006F0FE061E611A4943463A4692
:105010002046FFF76BFFA8B9236803905A690392F3
:105020009B690393424639462046039BFFF7A0FF46
:10503000064660B1236C042B01BF2268136843F459
:10504000007313600126304605B0BDE8F083B9F166
:10505000010F236802D1EDB21D61F4E72A0A1A613B
:10506000394642462046FFF783FF0028E2D12368F5
:10507000F1E700BF020001002DE9FF479A460368EF
:1050800015461A6842F480621A601A68DDE90C78E5
:1050900042F480721A600E463B46CDF80080002232
:1050A0004FF001110446FFF7E1FE236838B11B6899
:1050B000DB0544BF4FF400732364032021E05FFA53
:1050C00086F906F0FE061E612B4943463A46204605
:1050D000FFF70CFFA0B9236803905A6903929B69FC
:1050E0000393424639462046039BFFF741FF58B1E0
:1050F000236C042B01BF2268136843F40073136010
:10510000012004B0BDE8F087BAF1010F23681AD17D
:10511000EDB242461D6139462046FFF729FF02469F
:105120000028E5D121680B6843F480730B602046AA
:10513000CDF800803B464FF00111FFF797FE226843
:1051400060B11368B4E72A0A1A613946424620461C
:10515000FFF70EFF0028CBD12368D9E749F0010300
:105160001361054943463A462046FFF7BFFE003823
:1051700018BF0120C5E700BF0200010070B504465A
:105180000D46164623685B695B0701D500201EE0CB
:105190002046FFF751FEC8B96A1CF3D0FFF782F929
:1051A000801BA84201D8002DECD123685B6913F065
:1051B0000403E7D12022236384F83D2084F83E30A5
:1051C000226C84F83C3042F020022264012070BD41
:1051D00070B504460D46164621684B6913F040032E
:1051E00001D0002011E04A69D2060FD56FF01002FD
:1051F0004A612022236384F83D2084F83E30236CEA
:105200002364002384F83C30012070BDFFF74AF985
:10521000801BA84201D8002DDED123685B6913F002
:105220004003D9D12022236384F83D2084F83E3006
:10523000236C1343E4E7000070B5044608B901206D
:1052400070BD90F83D3003F0FF021BB980F83C20A0
:10525000FCF7EEFE242384F83D3023681A6822F020
:1052600001021A601A6842F400421A601A6822F4B5
:1052700000421A6000F08AFE3F4B65689D4294BF71
:105280003E4B3F4B98428CBF00230123002BD6D1CD
:105290002268394E51683B4BB0FBF3F321F03F01DC
:1052A0001943B542516088BF4FF49676116A88BFA2
:1052B000734321F03F0184BF4FF47A76B3FBF6F3DA
:1052C00001330B431362D169431E2B4821F44F4134
:1052D000854221F0FF0132D86D0040F6FC70B3FB2F
:1052E000F5F30133034242D0C3F30B031943D161F9
:1052F000D4E907301168034321F0C0010B43136068
:105300009168D4E9030321F40341034321F0FF0131
:105310000B439360D4E90530D168034321F0FF01CA
:105320000B43D360136843F0010313600020202374
:10533000206484F83D30206384F83E0080E7A06854
:1053400050B905EB4505B3FBF5F30133C3F30B038C
:105350007BB143F40043C9E719206843B3FBF0F382
:105360000133C3F30B0323B143F44043BEE70423EB
:10537000BCE70123BAE700BFA08601007F841E00BE
:10538000FF083D0040420F002DE9F74304469946CF
:105390000C9E0F469046FFF785F894F83D30202B81
:1053A000054603D0022003B0BDE8F08300903C49DD
:1053B000192301222046FFF759FD0028F2D194F865
:1053C0003C30012BEED02068012384F83C30036888
:1053D000D9075EBF036843F001030360036823F449
:1053E00000630360212384F83D30402384F83E307D
:1053F000002323640A9B6362BDF82C306385638DB0
:105400002385284BE3624246CDE900654B46394689
:105410002046FFF7D7FD00282AD00120C3E7FFF779
:10542000A7FD40B1236C042B01BF2268136843F42D
:1054300000731360F1E7636A27681A4612F8011BCC
:1054400039616262628D218D013A92B262857A6918
:10545000481E80B2520720850AD548B15A783A6171
:1054600002336362638D013B02399BB22185638500
:10547000238D2A4631462046002BD0D1FFF77EFEF1
:105480000028CFD12268136843F4007313602023EF
:1054900084F83D3084F83C0084F83E0083E700BF88
:1054A000020010000000FFFF2DE9F043044687B022
:1054B0009946109F0D469046FEF7F4FF94F83D3054
:1054C000202B064604D00225284607B0BDE8F0830D
:1054D00000907A49192301222046FFF7C7FC0028D3
:1054E000F1D194F83C30012BEDD02068012384F8F1
:1054F0003C300368DB075EBF036843F001030360D1
:10550000036823F400630360222384F83D304023C2
:1055100084F83E30002323640E9B6362BDF83C3068
:105520006385638D2385664BE3622946CDE900766A
:105530004B4642462046FFF79FFD054608B1012530
:10554000C2E7228D2368B2B902905A6902929A6921
:105550000292029A1A6842F400721A60DFF86481BB
:10556000238D002B2CD1202284F83D2084F83C3060
:1055700084F83E30A8E7012A0AD11A6822F4806232
:105580001A6003905A6903929A690392039AE1E7B9
:10559000022A0ED11A6822F480621A601A6842F454
:1055A00000621A6004905A6904929B690493049BF8
:1055B000D4E705905A6905929B690593059BCDE751
:1055C000032B56D8012B15D1324639462046FFF71A
:1055D000FFFD0028B3D123681A69636A1A70636AF1
:1055E00001336362238D013B2385638D013B9BB2B5
:1055F0006385B5E7022B00963B464FF0000241461B
:10560000204619D1FFF732FC002898D123681A6888
:1056100042F400721A601A69636A1A70626A531C53
:105620006362238D013B2385638D013B9BB26385C0
:1056300023681B695370D2E7FFF718FC0246002865
:105640007FF47DAF2368196821F4806119601969BE
:10565000636A1970636A01336362238D013B23859A
:10566000638D013B9BB26385414600963B462046D5
:10567000C8E7324639462046FFF7AAFD00287FF4E6
:105680005EAF23681A69636A1A70628D616A013AB3
:1056900092B24B1C628522686362238D5069013B84
:1056A0009BB2400723857FF55BAF032B02BF1368D6
:1056B00023F48063136013694B7090E702001000BD
:1056C0000000FFFF0400010010B590F83D30202BD2
:1056D000DCB216D1242380F83D3003681A6822F02A
:1056E00001021A605A6A22F010025A625A6A114381
:1056F00059621A6842F001021A6080F83D400020A9
:1057000010BD0220FCE730B590F83D30202BDCB214
:1057100016D10268242380F83D30136823F001037A
:105720001360556A4FF6F0732B400B439BB25362E4
:10573000136843F00103136080F83D40002030BD42
:105740000220FCE70068D20184328318F0B5C768F4
:105750005D684C680E6805F470455D60C56806F1CB
:10576000010CC5F30B45C7F30B472744654445EAD5
:1057700007455D60C768CD68C7F30A072F449D6879
:1057800005F470459D60D0F80CC08D68CCF30A0C10
:105790000135654445EA07459D601D69D1F810C093
:1057A0008F6925F007051D61C3F810C091F83050CE
:1057B00045EA076591F8317045EA072591F832709E
:1057C00045EA07459D615D6925F0FF055D614D690D
:1057D0005D61DD6925F4E06525F00705DD61D1E94E
:1057E00007573D43DD61BCF1070F4D6A9D629CBFC9
:1057F0000D4D15F80C70DD6A05F0E025DD6288BFFF
:1058000001278D6AC96AA41B7C437D43033444EAA3
:105810000544DC621C6B6FF30A041C631963835834
:1058200043F001038350F0BDAC45020838B504468F
:1058300000284ED090F8A13003F0FF021BB980F889
:10584000A020FCF751FC022384F8A13023689A6958
:1058500022F070429A61D4E901200243E06899691C
:105860000243206902430A439A61D4E9051242EADD
:1058700001429A60D4E9071242EA0142DA60D4E9AF
:10588000091242EA01421A61D4E90B1242EA0142CA
:105890005A61DA6A94F8350094F8361002F07F42C3
:1058A000DA62DD6A94F834202A4342EA002242EAAE
:1058B0000142DA625A6B42F006025A639A6942F078
:1058C00001029A6100200123C4F8A40084F8A130E9
:1058D00038BD0120FCE770477047036870B59E6BC8
:1058E0005D6B7207044614D5690712D55A6B22F016
:1058F00004025A630422DA63D0F8A43043F00103AF
:10590000C0F8A430002380F8A12080F8A030FFF771
:10591000E2FFB20716D5AB0714D523685A6B22F005
:1059200002025A630222DA63D4F8A4301343C4F8A3
:10593000A430042384F8A130002384F8A03020464A
:10594000FFF7C9FFF00710D5E9070ED523685A6B9A
:1059500022F001025A630122DA63002384F8A120B5
:1059600084F8A0302046FBF755FE320711D52B07EF
:105970000FD523685A6B22F008025A630822DA63B3
:10598000012384F8A130002384F8A0302046FFF7DB
:10599000A3FF70BD2DE9F04190F8A030012B064621
:1059A0000F4694464FF002001FD04FF0010886F8D2
:1059B000A08086F8A10034240D4604FB02640FCDBC
:1059C00038340FC40FCD0FC40FCD0FC42B68236024
:1059D000304662463946FFF7B5FE33680020C3F80B
:1059E000248086F8A18086F8A000BDE8F081000040
:1059F00090F8A020012A03464FF0020012D01A6846
:105A000083F8A100506B20F0010050630648016448
:105A1000516B41F0010151630020012283F8A12064
:105A200083F8A000704700BF0068014037B500232D
:105A30000193184B184D1A6C42F080521A641B6C7B
:105A400003F080530193019B144B01221A64FEF76B
:105A500029FD04466B68DA030BD5104B0E4D01226D
:105A60005A64FEF71FFD04466B689B030AD50020AD
:105A700006E0FEF717FD001BB0F57A7FEAD9032098
:105A800003B030BDFEF70EFD001BB0F57A7FEBD9F9
:105A9000F5E700BF003802400070004000000E42F1
:105AA0002DE9F341044640B30368DE0710D42368B0
:105AB0009D075BD42368190700F19D8023685A076E
:105AC00000F1BD80A369002B40F0248100202CE070
:105AD0008D4B9A6802F00C02042A07D09A6802F0F3
