:020000040800F2
:10000000000003205D060008992400089B240008D6
:100010009D2400089F240008A1240008000000007F
:100020000000000000000000000000003175000822
:10003000A324000800000000C17500084B6E0008F2
:10004000AD060008AD060008AD060008AD060008C4
:10005000AD060008AD060008AD060008AD060008B4
:10006000AD060008AD060008AD060008AD060008A4
:10007000AD060008AD060008AD060008AD06000894
:10008000AD060008AD060008A5240008AD0600086E
:10009000AD060008AD060008AD060008AD06000874
:1000A000AD060008AD060008AD060008AD06000864
:1000B000AD060008AD060008AD060008AD06000854
:1000C000AD060008AD060008AD060008AD06000844
:1000D000AD060008AD060008AD060008AD06000834
:1000E000AD060008AD060008AD060008AD06000824
:1000F000AD060008AD060008AD060008AD06000814
:10010000AD060008AD060008AD060008AD06000803
:10011000AD060008AD060008C1240008AD060008C1
:10012000AD060008AD060008AD060008AD060008E3
:10013000AD060008AD060008AD060008AD060008D3
:10014000AD060008AD060008AD060008AD060008C3
:10015000AD060008AD060008AD060008AD060008B3
:10016000AD060008AD060008AD060008AD060008A3
:10017000AD060008AD060008AD060008000000004E
:10018000AD060008AD060008AD060008AD06000883
:10019000AD060008AD060008AD060008AD06000873
:0C01A000CD240008AD060008D92400089A
:1001B00010B5054C237833B9044B13B10448AFF3A1
:1001C00000800123237010BD800300200000000088
:1001D000C42E020808B5034B1BB103490348AFF313
:1001E000008008BD0000000084030020C42E020827
:1001F00001F0FF01102A2BDB10F0070F08D010F8D8
:10020000013B013A8B422DD010F0070F42B3F6D1DB
:10021000F0B441EA012141EA014122F007047FF0F4
:1002200000070023F0E80256083C85EA010586EA4B
:10023000010685FA47F5A3FA87F586FA47F6A5FA87
:1002400087F68EB9EED1F0BC01F0FF0102F0070293
:1002500032B110F8013B013A83EA010313B1F8D13E
:100260000020704701387047002D06BF354603381F
:10027000073815F0010F07D1013015F4807F02BF58
:10028000013015F4C03F0130F0BC0138704700BFA9
:100290007BB972B90029BEBF00204FF0004106E0D3
:1002A00008BF00281CBF6FF000414FF0FF3000F086
:1002B000D3B9ADF1080C6DE904CE002909DB002BA0
:1002C0001ADB00F04DF8DDF804E0DDE9022304B0AC
:1002D0007047404261EB4101002B1BDB00F040F80E
:1002E000DDF804E0DDE9022304B0404261EB4101A6
:1002F000524263EB43037047524263EB430300F007
:100300002FF8DDF804E0DDE9022304B0404261EBA0
:1003100041017047524263EB430300F021F8DDF8DE
:1003200004E0DDE9022304B0524263EB430370476B
:1003300053B94AB9002908BF00281CBF4FF0FF314C
:100340004FF0FF3000F088B9ADF1080C6DE904CE34
:1003500000F006F8DDF804E0DDE9022304B07047A0
:100360002DE9F047089D8E4604468846002B4AD169
:100370008A42174662D9B2FA82F64EB1C6F120031C
:1003800001FA06F820FA03F3B74043EA0808B4403C
:100390004FEA174E1FFA87FCB8FBFEF1230C0EFB49
:1003A000118843EA084301FB0CF29A4209D9FB1871
:1003B00001F1FF3080F0EA809A4240F2E780023992
:1003C0003B449A1AA3B2B2FBFEF00EFB102243EAA2
:1003D000024300FB0CFC9C4509D9FB1800F1FF32DD
:1003E00080F0D6809C4540F2D3803B44023840EAFE
:1003F0000140A3EB0C0300211DB1F3400022C5E92D
:100400000032BDE8F0878B4205D90DB1C5E9000186
:1004100000210846F5E7B3FA83F1002946D1734578
:1004200002D3824200F20581841A6EEB030201209E
:100430009046002DE5D0C5E90048E2E7002A00F02B
:100440009080B2FA82F6002E40F0A4808A1A030C43
:100450004FEA174E80B2BCB20121B2FBFEFC0EFB8C
:100460001C2243EA024304FB0CF29A4207D9FB1810
:100470000CF1FF3802D29A4200F2E080C4469B1A87
:10048000B3FBFEF20EFB123340EA034302FB04F41B
:100490009C4207D9FB1802F1FF3002D29C4200F2C5
:1004A000CA8002461B1B42EA0C40A5E7C1F12006A8
:1004B0008B4022FA06F71F430EFA01F420FA06F3E6
:1004C0002EFA06FE4FEA1749234300FA01F81FFAF5
:1004D00087FCBEFBF9F01C0C09FB10EE44EA0E444D
:1004E00000FB0CFEA64502FA01F209D93C1900F105
:1004F000FF3A80F09C80A64540F2998002383C4447
:10050000A4EB0E041FFA83FEB4FBF9F309FB1344BA
:100510004EEA044403FB0CFCA44508D93C1903F142
:10052000FF3E80F08280A4457FD9023B3C4443EAF1
:100530000040A4EB0C04A0FB02EC64457346E146CA
:1005400062D35FD05DB1B8EB030264EB090404FA37
:1005500006F622FA01F31E43CC40C5E900640021EF
:100560004FE7B1FBF2FC010C41EA0E4180B240EAD8
:1005700001423B4638463C46B846BE462026B1FBC3
:10058000F7F1A2EB080241EA0C4166E7014618E7E1
:1005900010462CE7C6F120022EFA02F3B740B14014
:1005A00020FA02F24FEA174E0A43B3FBFEF8BCB240
:1005B0000EFB1833110C41EA034108FB04F9B0406B
:1005C00089454FEA104380B23ED9791808F1FF3CC3
:1005D00001D289451FD8A1EB0901B1FBFEF909FB46
:1005E00004F80EFB191192B242EA0142424529D2A7
:1005F000BA1809F1FF31C4D24245C2D2A9F10201B1
:100600003A44BEE7F0459DD2BEEB02036CEB070C0B
:100610000138E14696E7A7EB09094944A8F1020C25
:10062000B1FBFEF909FB04F8DBE773467FE75046B0
:1006300066E70846FDE63B44023A33E7ACF1020CBC
:100640003B441CE749469CE7A1EB0901C446B1FBCA
:10065000FEF909FB04F8C4E7704700BFDFF834D0A7
:10066000002103E00C4B5B58435004310B480C4B0A
:1006700042189A42F6D30B4A02E0002342F8043BA8
:10068000094B9A42F9D303F0A1FD21F0ADFE01F030
:1006900063F870470000032034260908000000209A
:1006A0006401002080030020783A0120FEE77047B3
:1006B00008B500F0BBFDBDE8084000F03FBD00F00C
:1006C000B7BD00F0B5BD704710B50421044620F059
:1006D00061FC204610BD000038B50C4B0C4C188056
:1006E0000C4B822019806368984740F611039842AA
:1006F0000AD1094D23682C60822098472B688220FC
:10070000DB689847002038BD0120FCE7A6030020E5
:100710004C000020A4030020A80300204FF4A07187
:10072000F020FFF7D9BF0000F7B5394D2B6804461C
:100730001B6982209847208000284ED02B680DF13D
:1007400006025B6901A982209847324B1B78002B77
:100750004BD0BDF8062040F674639A423FD9ADF8FD
:100760000630BDF806209B1A9BB20A2B42D90B22F9
:10077000B3FBF2F3284A1288934201D9013A93B2AB
:10078000BDF80420254840F6B8318A4234D8C2F575
:1007900071620E32016892B20F25B2FBF5F2204D64
:1007A0002D88AA4284BF05F1FF35AAB28A421546B8
:1007B0008EB22AD9921B91B21A4E3768BB42BAB296
:1007C0008CBF9A1AD21A92B211440529C4BF05608F
:1007D0003360036863803368A38003B0F0BDB32A3D
:1007E0009CBFB422ADF80620BBE7BDF80630A3F5E8
:1007F000B473B9E70023C3E7C2F56D62083292B261
:100800000E2A0168C8D800252A46891A89B2D3E77A
:10081000A8030020181C0020A4030020A00300202F
:10082000A60300209C03002037B568460D461446F9
:10083000FFF77AFFBDF8000030B1BDF802302B6041
:10084000BDF804302360012003B030BD032821D857
:10085000DFE800F0020B12190F4B1A68B2FA82F2AD
:10086000520904210D4804F08DBA0B4B5A68B2FAB4
:1008700082F252090821F5E7074B9A68B2FA82F230
:1008800052091021EEE7044BDA68B2FA82F25209FB
:100890002021E7E7704700BFAC03002000100240B2
:1008A000032821D8DFE800F0020B12190F4B1A6859
:1008B000003A18BF012204210D4804F063BA0B4B23
:1008C0005A68003A18BF01220821F5E7074B9A68D9
:1008D000003A18BF01221021EEE7044BDA68003A13
:1008E00018BF01222021E7E7704700BFAC030020BA
:1008F0000010024003280DD8DFE800F00206080AC5
:100900000421054804F043BA0821FAE71021F8E76A
:100910002021F6E7704700BF0010024008B5032809
:1009200011D8DFE800F0020A0C0E0421074804F099
:1009300023FA431E5842584108BD0821F6E710210A
:10094000F4E72021F2E70020F3E700BF00100240A7
:1009500070B5084D00240126E0B2FFF7DFFF18B1A3
:100960002B68012B18BF2E600134052C05F10405FE
:10097000F2D170BDAC030020012380F8781080F81C
:10098000793070477047002070470000034B416486
:10099000003918BF01211970704700BF372D0120A1
:1009A000704700207047836B0BB1084618477047AB
:1009B0004FF6FF707047406803689B69184770479F
:1009C000704770477047704710B5044600F046FD09
:1009D00023680349D3F890302046BDE810401847FB
:1009E000000000D008B503680446D3F88430984767
:1009F00023682046DB6F984700F0ECF82368204618
:100A00005B6F9847292001F0D1F900F0E3F82368E3
:100A100020465B6F9847F8E710B5044609F07EFB67
:100A200023682046D3F8BC30BDE81040184700F0DA
:100A3000F9BC00F0FDBC00F02FBD00F0CFBC00F011
:100A40003FBD00F047BD00F0D3BC08F095BD10B528
:100A50008421044620F09EFA204610BD10B590F87F
:100A6000341090F878400C4B8C421A7809D03AB97F
:100A70000A4A0B491488088810800C8001221A70D9
:100A800010BD002AFCD0054A05491488088810804A
:100A90000C800022F3E700BF302D01202C2D012017
:100AA0002E2D012070B50D46194635B9094B0A4A5D
:100AB0000A4840F2FF2121F0A9F9C0E90F52084B82
:100AC000003A18BF01221A700368BDE87040D3F8DD
:100AD00090301847342F02086C2F0208BA2F0208F2
:100AE000362D012008B5094B1B888B4203D8084BD3
:100AF0001B88934205D9074B074A0848A32121F0D8
:100B000085F9074B1980074B1A8008BD2C2D012051
:100B10002E2D0120FF2F020862300208BA2F020892
:100B2000322D0120342D0120034690F87A0018B1AF
:100B3000586803681B68184770470000012108B512
:100B40000022084606F00AFA0A4B186028B90A4B38
:100B50000A4A28210A4821F059F9002204210120DB
:100B600006F09BFA074B186018B9074B034A2C2173
:100B7000F0E708BDC0030020A5300208EE300208EF
:100B80001D310208BC03002058310208024B4FF00F
:100B9000FF31186806F02CBAC0030020014B18681A
:100BA00006F052BAC0030020024B0021186806F07C
:100BB0001FBA00BFC0030020FFF7F0BF034804497D
:100BC000006800231A4606F0A3BA00BFBC03002049
:100BD0000400002013B5084C00231A4601A9206820
:100BE00006F0C7FA20684FF0FF33002201A906F093
:100BF000C0FA02B010BD00BFBC03002003685B6CEC
:100C000018470120704703689B6A1847FEE740F2C7
:100C1000EF307047054B0360054B4FF08062C3F81F
:100C20008820BFF34F8FBFF36F8F7047283D0208B6
:100C300000E100E010B504464FF45A61FFF7EAFF07
:100C4000204620F0A7F9204610BD000082B0002306
:100C500001930E4B1A6B42F400021A631A6B02F4F2
:100C600000020192019A1A6942F400021A611A699B
:100C700022F400021A61064B064A1A61064A5A61BA
:100C8000064B4FF080629A6002B070470038024015
:100C9000F41D0020ED0E00080D0C000800E100E03E
:100CA00008B50A2809D8DFE800F006100E08080881
:100CB000081010101000022008BD054B054A064818
:100CC000902121F0A3F80020F6E70120F4E700BF0F
:100CD0009A310208B53102080032020838B50C46D4
:100CE000887FFFF7DDFFA58AE28A164B21695863EA
:100CF00042EA05425A64628BD963521B1A64256822
:100D0000082D0ED19A611A615862207F0E4A42EA7C
:100D10000062DA61E2681A620C4A5961D9601A60AD
:100D200038BD0022D8611A61E1680A0A480902F454
:100D3000784200F4FC600243C1F3C4010A439A63A1
:100D4000034AECE700B00240090001000123020061
:100D50000123030008B50B280BD8DFE800F00612CA
:100D6000100A0A0A0A0808080808022008BD052017
:100D7000FCE7054B054A06486F2121F047F80020A3
:100D8000F4E70120F2E700BF9A3102083932020885
:100D9000003202082DE9F04191F81D800C464046D2
:100DA000FFF7D8FFA77F05463846FFF7D3FF064673
:100DB0003846FFF775FFA18A628B444B521A1A64BA
:100DC0009A61228B521A1A61E28A586342EA0142FE
:100DD0005A6421696268D963DA602068802828D063
:100DE000227F0FD8202867D0402865D004281AD049
:100DF000364B45EA026545F40035B845DD6161D002
:100E0000334A44E0B0F5807F04D0B0F5007FEFD1E5
:100E1000304800E0304840EA0262DA61E2681A6273
:100E20005E62596132E045EA026242F40032DA6100
:100E3000F6E7A068021DDA62227F45EA026545F402
:100E40000035DD615E625961017841B1012921D02F
:100E5000224B234A23484FF48D7120F0D7FFDA69E3
:100E6000418822F47F42013922F0100242EA012235
:100E7000DA610121154BDA6942F02002DA61DA69A0
:100E80009206FCD410229A600029B9D0164A1A6042
:100E9000BDE8F081B2F1FF01DA69408822F47F42B7
:100EA00000F1FF3022F0100242EA002242F010026C
:100EB00018BF0121DA61DDE745EA0262034B42F423
:100EC0000032B4E742F20132E1E700BF00B0024075
:100ED00001230100090002000A0002008332020817
:100EE0009D3202080032020801230200024B1B68F7
:100EF000586803685B691847382D012070B50446AF
:100F000025460A4B0C30002660602672667245F852
:100F1000203B6022294609F057FA04F55A63EE6037
:100F200024359D42FBD1204670BD00BF283D0208FC
:100F3000034B1A68D207FCD423229A60704700BF83
:100F400000B002407047000030B50F4C2568ED0737
:100F5000FCD423250904A56041F001010225FF2BE3
:100F600065636164E0630AD00849656241EA03632E
:100F7000E361074B22626061E060236030BDE561A0
:100F8000039BA363034BF8E700B002400900010094
:100F9000010002000100030030B50E4C2568ED078A
:100FA000FCD423251204A56042F001020225FF2B88
:100FB00065636264E063E16008D01B0643F00213DE
:100FC000E361054B65626061236030BD034BE36103
:100FD0000123F9E700B0024001000200020002FF15
:100FE00030B50B4C2568ED07FCD4232512041B06F5
:100FF000A56043F40033022542F001026563626498
:10100000E063E160E361034B65626061236030BDD2
:1010100000B00240010002000120704740207047EC
:1010200000EB81100830704700EB811008307047EA
:10103000012070474FF4D66070474FF4D66303FB2E
:101040000100083070474FF4D66303FB01000830FD
:101050007047012070471020704700EB01100830E6
:10106000704700EB011008307047084601F0EABCF9
:1010700010B5034B0360044607F0D5FF204610BDB2
:10108000E03D020810B50446FFF7F2FF2046482174
:101090001FF080FF204610BD10B5034B03600446CF
:1010A00007F0C1FF204610BDAC3D020810B5044654
:1010B000FFF7F2FF20464FF4D7611FF06BFF204689
:1010C00010BD000010B5034B0360044607F0ABFFF2
:1010D000204610BD783D020810B50446FFF7F2FF28
:1010E000204618211FF056FF204610BD10B5084BB2
:1010F0000360044600F2E460FFF7BAFF04F12C003D
:10110000FFF7CAFF04F11400FFF7DCFF204610BD13
:10111000143E020808B50248FFF7E8FF08BD00BF0B
:101120009C12002010B50446FFF7E0FF204640F671
:10113000B4011FF02FFF204610BD00002DE9F34140
:1011400001F03EFA054601F03FFA0024014623462D
:1011500028462246009410F06BFE274B274A1A605F
:10116000204602F003FB264D264B274A27489A606B
:1011700010F0C6FD2B68BFF35B8FDB0735D4284624
:101180001FF00AFF88B3224C224B236004F25476EE
:1011900004F1140004F12C0804F2E4676060C4F860
:1011A0000880E760266107F03FFF1B4B6361404604
:1011B00007F03AFF194BE362384607F035FF184B4A
:1011C000C4F8E43604F22C7002F0C1FB224604F2AB
:1011D0002C71304602F0A0FB304601F033FC114880
:1011E00020F032FE28461FF0E3FE0F4802B0BDE8B3
:1011F000F041FFF7E9BB00BF9C2D0120480400200F
:1012000098120020680400204C04002008000020F0
:101210009C120020143E0208783D0208AC3D0208F2
:10122000E03D020815110008C403002070470000CB
:101230000148FFF7D7BB00BFC403002070B5264E9E
:10124000264C274D274B23603046FFF757FE284694
:1012500015F0F4FE24480EF05DFE244B2448DC60BB
:1012600000224FF48071C3E9121222491A86C3E9A1
:101270001A12214983F85820C3E91E011F49C3F8F7
:1012800080101F491F480B60F021C3E90422C3E905
:101290000622C3E90822C3E90A22C3E90E22C3E9F0
:1012A0001022C3E91422C3E917225A6683F870207A
:1012B0005A67C3E9016501801348018013484FF460
:1012C000A07101801248018012490A70012283F83E
:1012D0003420114A1A6070BDF404002094120020DA
:1012E00068040020242F02084C040020C4030020BE
:1012F0000000010101000001000450001A00140068
:10130000382D01202C2D0120322D01202E2D0120E1
:10131000342D0120302D01203C3C02080148FFF70C
:1013200079BC00BFF4040020002070478180704722
:10133000C180704701817047418170477047704795
:1013400070477047704710B4C4880368121B8488C4
:101350005B6D091B12B25DF8044B09B218474FF6DA
:10136000FF7383814FF0FF3303621368C361106022
:101370007047002070478B8883800120704770473A
:1013800080F82610704790F82600704710B50022AC
:10139000B1F90840B1F90A10028042808480C1800E
:1013A00010BD0022028042808280C2807047017797
:1013B000704780ED080A704780F82410704780F865
:1013C0002510704701207047983070478C30704767
:1013D000843070477047704770470000034B90227D
:1013E00083F85A2383F85823704700BF00E100E0D8
:1013F000094A0A49D3680A48C3F30A03013B9BB26E
:101400000B801169C1F30A01013901801364536B28
:1014100043F001035363704700680140521B0020F2
:10142000501B0020014BD3F8AC007047006801400E
:10143000024B0122C3F8AC105A62704700680140A9
:1014400010B52C2104461FF0A5FD204610BD10B597
:10145000BC2104461FF09EFD204610BD70B5044619
:1014600008F0DFF823689D6E0DF0ECFA0146204687
:10147000A8472368054AD3F88C502046AC46002381
:10148000BDE87040A2F51631604700BF00B004D03F
:1014900008F0AEB808F0B8B808F074B808F0E3B9CE
:1014A00090F8252012B103685B691847704790F8DF
:1014B00025201AB190F8242002B11860704700006E
:1014C000034B4FF080629A604FF080729A607047D1
:1014D00000E100E0084B4FF08062C3F88820BFF3C2
:1014E0004F8FBFF36F8F4FF08072C3F88820BFF328
:1014F0004F8FBFF36F8F704700E100E070B500239E
:10150000124E8380124B0360336893F858200546CF
:101510000AB1D86C00B998680368DB6A98473368E9
:10152000B0FA80F4D86C640930B10368DB6A98477C
:10153000002808BF44F001042CB9064B064A0748AE
:101540002C2120F063FC284670BD00BF382D0120FF
:10155000283E0208DB3202083933020872330208DF
:1015600070B5254E3568BFF35B8F15F0010540D18E
:1015700030461FF011FD00283BD0204C204B256148
:1015800004F13400C4E90035C4E90255E584A562DC
:10159000A5850EF0A4FF04F158000AF0C9FB194B11
:1015A000A3652046184B40F8843BFFF7A7FF174B75
:1015B000C4F884302433C4F88C304FF4C803C4E931
:1015C00028350023C4F8AC30C4F8B030C4F8B430C7
:1015D000C4F8B8300E480F4BC4F89050C4F89C5073
:1015E000C4F8A850C4F8983020F02EFC30461FF004
:1015F000DFFC024870BD00BF541B0020581B0020B8
:1016000024460208483E0208C03E0208D8450208A7
:10161000D9130008B845020838B5184C23685BB3E5
:10162000174B184A1B6C11888B4216D1164B198820
:1016300004F092F9236893F86A200025013283F8B8
:101640006A2083F87C50FFF7B9FA206808F066FD3D
:101650002846BDE83840FFF7F9B804F07DF9246862
:10166000236820461B6A9847012384F87C300020B9
:10167000BDE83840FFF714B938BD00BF382D012050
:1016800000680140521B0020501B002007B5064B8C
:10169000ADF806001B68054801220DF1060104F0B3
:1016A0000BFF03B05DF804FB0C000020A01C002021
:1016B00008B5642005F046FCFBE7000030B595B0A6
:1016C000102200210AA820F0E6FD1422002103A820
:1016D00020F0E1FD00241E4B01941A6C42F0805270
:1016E0001A641B6C03F080530193019B194B029405
:1016F0001A6842F440421A601B6803F440430293A4
:101700000122029B4FF48033CDE9082302254FF4D8
:1017100080030821CDE90E534FF4B473CDE91013C3
:1017200008A804231393129504F06EF904F032F91B
:101730000F23CDE903354FF4A0504FF48053CDE98A
:101740000603052103A8059404F03AFB15B030BD4B
:1017500000380240007000402DE9F04F9BB002F0CD
:1017600043FDFFF7ABFF142200210DA820F093FDED
:101770000024C94B00941A6BC848C94D42F01002AE
:101780001A631A6B02F010020092009A01941A6B0D
:1017900042F020021A631A6B02F020020192019AB1
:1017A00002941A6B42F080021A631A6B02F08002F4
:1017B0000292029A03941A6B42F004021A631A6BA3
:1017C00002F004020392039A04941A6B42F001029D
:1017D0001A631A6B02F001020492049A05941A6BC0
:1017E00042F002021A631A6B02F002020592059A95
:1017F00006941A6B42F040021A631A6B02F0400220
:101800000692069A07941A6B42F008021A631B6B41
:1018100003F00803224607933C21079B03F0B2FA2A
:10182000A0480122022103F0ADFA22469D4804217E
:1018300003F0A8FA22469C484FF4405103F0A2FA64
:1018400001263C23CDE90D3694480F9403230DA9BE
:101850000227109303F0ACF992480DA9CDE90D765B
:10186000CDE90F4403F0A4F904238E480DA9CDE976
:101870000D36CDE90F4703F09BF90DA94FF4405306
:101880008948CDE90D36CDE90F4703F091F9874836
:10189000874B036003F082F8DFF83CC2854B2C6273
:1018A000C5E900C328464FF48043C5E90434C5E9BF
:1018B0000244C5E9064403F073FC1021284603F0F6
:1018C000B7FE2146284603F0D2FE7B4DDFF80CE23E
:1018D000AC624FF48273C5E900E34FF4007818233B
:1018E000C5E9068328460A23C5E90244C5E904443C
:1018F000C5E90844EB6204F083FD8F232246394694
:1019000068488DF824308DF8344003F03BFA3246B5
:101910004FF47A7309A9284604F0CEFD4FF47A7388
:1019200032460DA9284604F073FF324639465D4819
:10193000624D03F027FA9DF83430D32B04BF604B7F
:101940001E70604B0127C5E900374FF01008402397
:101950000024C5E904834FF4C073C5E906344FF48D
:101960000063C5E908344FF4005302264FF0040A1F
:101970004FF0030BAB620DA907232846CDE90D6399
:10198000CDE90FA34FF00809C5E9024ACDE911B628
:10199000139604F019FC4FF6FF7209A92846CDE909
:1019A0000A97099708940C9404F02EFC384602F02C
:1019B00047FC4FF6FF7209A92846CDE90969CDE930
:1019C0000B7404F021FC4FF6FF7209A92846CDE9FB
:1019D00009B9CDE90BA404F017FC4FF40C7308937C
:1019E000089B0C934FF6FF7209A92846CDE909A977
:1019F0000B9704F009FC40F26A51284604F022FCDF
:101A0000342221460DEB020020F045FC2E4D2F4BD9
:101A10002C61C5E900340923C5E905371D23C5E953
:101A2000073B40F20D1240F24313C5E9092340F28F
:101A3000171140F247132846C5E90B13C5E90244C4
:101A4000AC8685F8364003F0A5FEFF21F022CDE9F3
:101A500012144FF005094FF480614FF4A073CDE9E3
:101A60000E24CDE91419CDE916420DA922462846C7
:101A7000CDE91036164D18930D94ADF864408DF8ED
:101A8000664003F03BFF134B2B601B68DFF850A050
:101A900098472B6826E000BF003802400010024043
:101AA000A01D002000080240000C0240341E00204F
:101AB00000300240A0860100A01C0020241C002051
:101AC000181C0020400100A0F81C00200068014004
:101AD000141C002014000020005C00400050014055
:101AE0000100000F564DDB689847564B2846C5E964
:101AF0000034C5E90264C5E90A46C5E90C4402F0B0
:101B00005DFF3946284603F00FF8424621460DA8EE
:101B100020F0C1FB4C4D4D482F614FF48033C5E997
:101B200000034FF0007B2846EF616F61C5F808B0F5
:101B30002C7685F82040EC62C5F828A0EC6085F88A
:101B4000304002F091FB0D220DA92846404E0F9423
:101B5000CDE90D2702F032FE214642460DA820F0C5
:101B60009AFB3C4A37614FF480333046C6E9002384
:101B7000F7617761C6E90AA4C6F808B0347686F83A
:101B80002040F46086F8304002F06EFB0DA930462C
:101B9000CDE90D970F94304F02F010FE2F484FF40F
:101BA000E133C0E900730C23C0E90534C0E9024405
:101BB0000461C46105F082F8FEF77AFDFEF777FD57
:101BC000274B28461C6002F0E1FC05F04BF9254A42
:101BD0002548214605F072F9244B254A1860214614
:101BE000244805F06BF9244B186005F04DF92846A0
:101BF00002F0E0FB4FF0FF31284602F074FC28466B
:101C000002F048FD0446284602F052FC304602F03D
:101C1000D1FB4FF0FF31304602F065FC304602F058
:101C200039FD0746304602F043FCFEF748FDA0B2FE
:101C3000B9B201F07FFE0A2002F002FBD7E700BF35
:101C4000F41D002000B00240841E0020002001404E
:101C50003C1E00200021014000100140581C0020C3
:101C6000CC1E0020283F0208B1160008201C0020CE
:101C7000043F0208C30600081C1C00200C4B9842BD
:101C800010B5044612D102F005FD0A4A0A4913684C
:101C900021F813000133012B13602046C8BF002335
:101CA000BDE81040C8BF136002F070BC10BD00BF9B
:101CB000841E0020CC1E0020D01E002070477047DC
:101CC0007FB5094B8DF817201B6802930DF11702A1
:101CD0000123009201930A460146044803F008FBE1
:101CE00007B05DF804FB00BF10000020A01D00201D
:101CF0007FB500238DF81730084B1B6802930A4606
:101D000001230DF11701009101930146044803F0EE
:101D10007FFB9DF8170007B05DF804FB1000002062
:101D2000A01D00201FB5084C24680092CDE90134A5
:101D30000A4601230146054803F06AFB003818BF34
:101D4000012004B010BD00BF10000020A01D002025
:101D500002F076BA10B5064C00222046042103F0AA
:101D600011F820460122BDE81040042103F00AB812
:101D70000008024038B50B4D044601220A484FF4D2
:101D8000005102F0FFFF00220421284602F0FAFF72
:101D90002046FFF77BFC28460122BDE8384004219D
:101DA00002F0F0BF00080240000C024038B50B4DB5
:101DB000044600220A484FF4005102F0E3FF0022DB
:101DC0000421284602F0DEFF2046FFF75FFC28468C
:101DD0000122BDE83840042102F0D4BF00080240CF
:101DE000000C0240F7B5144E144F05460C46304621
:101DF0000022042102F0C6FF00224FF400513846B1
:101E000002F0C0FF2846FFF741FC0D4B0D481B6850
:101E1000224601A904F0FCFC384601224FF400518F
:101E2000019C02F0AFFF30460122042102F0AAFF1C
:101E3000204603B0F0BD00BF00080240000C024085
:101E40000C000020A01C002002F0FAB90268034B2D
:101E50009A4201D102F0E2B9704700BF0010004081
:101E60007047000082B00E4B00220092596C41F482
:101E700080415964596C01F48041009100990192AC
:101E8000196C41F0805119641B6C03F0805301936D
:101E9000019B0F216FF0010002B002F03FBD00BFB7
:101EA0000038024010B514228AB0044600210DEB20
:101EB000020020F0F0F92368254A934227D1254BF0
:101EC0002548002401945A6C42F480725A645A6C7A
:101ED00002F480720192019A02941A6B42F0040299
:101EE0001A631B6B03F0040302930821029B032374
:101EF000CDE9051305A902F05BFE1220224605215B
:101F000002F00CFD122002F03BFD0AB010BD134A96
:101F10009342FAD10F4B1248002403945A6C42F4B6
:101F200000725A645A6C02F400720392039A049489
:101F30001A6B42F001021A631B6B03F00103049356
:101F4000049B20220323CDE9052305A9D3E700BF85
:101F500000200140003802400008024000210140FA
:101F6000000002400268094B9A4282B00BD1002364
:101F70000193074B1A6B42F480521A631B6B03F4F4
:101F800080530193019B02B0704700BF00300240B4
:101F90000038024007B50F4B02689A4216D1002262
:101FA000A3F5F0430192196B41F4000119631B6B17
:101FB00003F40003019305215A20019B02F0AEFCBB
:101FC0005A2003B05DF804EB02F0DABC03B05DF810
:101FD00004FB00BF00B002402DE9F043044689B085
:101FE0001422002103A820F056F92268244B9A42BB
:101FF00043D1244C244800250095236B43F004036F
:102000002363236B03F004030093009B0195236B70
:1020100043F001032363236B03F001030193019B4E
:102020004FF012094FF400734FF001080327042604
:1020300003A9CDE90339CDE90587079602F0B8FD7C
:102040004FF480731148079603A9CDE90339CDE910
:10205000058702F0ADFD0295236C43F40003236471
:10206000236C03F400030293029B236A43F40003EE
:102070002362236A23F40003236209B0BDE8F083DE
:10208000005C0040003802400008024000000240AE
:10209000F0B599B004461422002107A820F0FBF8FF
:1020A00030220DEB0200002120F0F5F822685E4B93
:1020B0009A4240F0B78008230C93C0231093042366
:1020C00012930CA84FF40033159303F051FF08B19D
:1020D000FFF7C6FE554B5648002400945A6C42F058
:1020E00080625A645A6C02F080620092009A0194F5
:1020F0001A6B42F020021A631A6B02F0200201925E
:10210000019A02941A6B42F001021A631A6B02F0F0
:1021100001020292029A03941A6B42F002021A63BD
:102120001A6B02F002020392039A04941A6B42F0B3
:1021300040021A631A6B02F040020492049A05945A
:102140001A6B42F004021A631A6B02F00402059241
:10215000059A06941A6B42F008021A631B6B03F08F
:102160000803069302250E26069B0B964FF4806308
:1021700007A9CDE90735CDE9094502F019FD41F67A
:1021800058032C480B9607A9CDE907350927CDE957
:10219000094502F00DFD032327480B9707A9CDE958
:1021A0000735CDE9094502F003FD4FF4706322487D
:1021B0000B9607A9CDE90735CDE9094502F0F8FCF2
:1021C0004FF40C631D480B9607A9CDE90735CDE9FF
:1021D000094502F0EDFCC02319480B9607A9CDE98B
:1021E0000735CDE9094502F0E3FC082315480B96B5
:1021F00007A9CDE90735CDE9094502F0D9FC4FF42F
:10220000A0530E480B9707A9CDE90735CDE909453D
:1022100002F0CEFC58202246052102F07FFB582018
:1022200002F0AEFB19B0F0BD00680140003802407A
:102230000014024000000240000402400018024066
:1022400000080240000C024010B5044688B0142279
:10225000002103A820F01FF82268144B9A4223D1D2
:1022600003F56843002101915A6C114842F4801231
:102270005A645A6C02F480120192019A02911A6B0C
:1022800042F020021A631B6B03F020030293029BAF
:102290004FF4607202230321CDE903230523CDE926
:1022A000061303A902F084FC08B010BD00500140E1
:1022B0000014024010B5044688B01422002103A87F
:1022C0001FF0E9FF2268144B9A4223D103F594339F
:1022D000002101915A6C114842F010025A645A6C64
:1022E00002F010020192019A02911A6B42F001026F
:1022F0001A631B6B03F001030293029B4FF4C0624D
:1023000002230321CDE903230723CDE9061303A903
:1023100002F04EFC08B010BD001001400000024069
:102320002DE9F04186B0002303932B4B1C68002C51
:102330004FD14FF00108C3F80080284B00949A6BEE
:10234000274842EA08029A639B6B03EA080300935A
:10235000022703260C25009B01A94FF63F03CDE978
:102360000137CDE9046502F023FC1E48059501A95B
:10237000CDE90187CDE9034602F01AFC48F2331398
:102380001948059501A9CDE90137CDE9034602F0C9
:102390000FFC4FF683731548059501A9CDE9013768
:1023A000CDE9034602F004FC4CF203731048059596
:1023B00001A9CDE90137CDE9034602F0F9FB60231D
:1023C0000C48059501A9CDE90137CDE9034602F096
:1023D000EFFB06B0BDE8F081D41E002000380240BB
:1023E00000140240000802400018024000100240A1
:1023F000000C02400004024070B588B00023029334
:10240000204B1A6C42F010021A641B6C03F010038C
:102410000293054601A903A8029B03F08BFD069BCE
:102420004BBB03F067FD184E184B336040F2E733A7
:10243000F360174BB0FBF3F3013B736030460023AE
:102440003361B360B36104F0ADFB044680B930463C
:1024500004F082FA044658B9362002F091FA0F2DA2
:102460000DD822462946362002F058FA094B1D6045
:10247000204608B070BD03F03DFD4000D3E70124C5
:10248000F6E700BF00380240D81E002000100040D0
:1024900040420F007C0000207047FEE7FEE7FEE7A9
:1024A000FEE7704708B5044802F0F9F8BDE80840B7
:1024B000024802F0F4B800BF841E00203C1E002039
:1024C000014804F087BA00BFD81E0020014803F07D
:1024D000B8B900BFF81C0020014802F09BBA00BF49
:1024E000F41D00200120704708B51FF077FF162368
:1024F00003604FF0FF3008BD08B51FF06FFF1623D3
:102500000360FEE770B50D4614460E46731B9C42F1
:1025100001DC204670BDAFF3008006F8010BF5E743
:1025200070B50D4614460E46731B9C4201DC2046D6
:1025300070BD16F8010BAFF30080F5E74FF0FF30E8
:1025400070474FF400534B600020704701207047E4
:10255000002070470A4A116808B5034609B90949BD
:1025600011601068694603448B4206D91FF036FF9C
:102570000C2303604FF0FF3008BD1360FCE700BF81
:10258000201F0020783A0120704710B5042104462E
:102590001EF000FD204610BD012908B506D0022915
:1025A00008D059B901F02EF9006808BD01F02AF9E8
:1025B0004068FAE701F026F98068F6E70020F4E7C2
:1025C00000487047603F02080F20704713B5002491
:1025D00051B1036801948DF8034001AA9C680DF184
:1025E0000303A04702B010BD0846FBE7C08970474F
:1025F000008A7047C088704780887047807A00F0F2
:102600007F007047807AC009704700207047000043
:102610009FED010A704700BF00000000806A70470C
:102620007047704710B5582104461EF0B3FC204691
:1026300010BD000073B5064600254FF480721C4B98
:102640008284C0E90155C0E90355C0E90555C0E9D8
:102650000755856246F82C3B4FF6FF73A0F85020D3
:10266000144AC2620446C0E90C55C0E90E55C0E9DF
:102670001055C0E91255A0F8523080F8543001A925
:102680003046ADF8043009F020FD4FF03213A3605E
:1026900001A9022330462563ADF8043009F015FD89
:1026A0002046314606F0D2FC204602B070BD00BF85
:1026B00094400208C0470208704710B5082104463C
:1026C0001EF068FC204610BD7047704700F59873F7
:1026D0000868496803C37047704770474160704796
:1026E00070477047064BC0F84C310023C0F850319A
:1026F00000F5A273C0F84801C0F84031704700BF30
:102700007D2800080123037270477047704710B49A
:10271000C26841685410034601EB6200D20748BF0B
:102720000A599B685DF8044B48BFD35818470346C5
:10273000406830B19A681AB9D86800F00100704753
:102740000120704710B50C2104461EF023FC2046E2
:1027500010BD10B5102104461EF01CFC204610BD13
:1027600010B54FF4AE7104461EF014FC204610BDA7
:1027700010B5402104461EF00DFC204610BD10B5DA
:102780000CF060F90368BDE81040DB6B18470000EF
:10279000054B1B7801462BB1406818B103680C311A
:1027A0005B6E1847704700BF372D0120037A70B564
:1027B0000546BBB940680368DB69984704463CB9E5
:1027C0006868036805F10C011B6EBDE8704018478E
:1027D000A1886B8FC91A236820461B6B09B29847E2
:1027E000A469ECE770BD10B50446D0F8400158B1BB
:1027F0000368DB68984738B1D4F8400103689B68E8
:1028000098470023C4F8403110BD70B5044690F8D5
:10281000390094F838300130C0B2984284F8390059
:1028200005D901232372002384F8393070BDB4F92F
:102830003A2000210EF0BCFAC30706D500284FF657
:10284000FF73C8BF0123184400B2238AC01AA087AF
:1028500060680368DB69984705462DB960680368BE
:10286000BDE870405B691847A988A38F19442B689D
:1028700028461B6B09B29847AD69EEE72DE9F14F89
:10288000D0E9556A0746B06803681B6A9847C328B1
:1028900005D8444B444AA32144481FF0B7FA706856
:1028A00003681B6A98470F2803D8414B3E4AA4216E
:1028B000F2E7F06803681B6A98470B2803D83D4B82
:1028C000394AA521E8E70CF0BDF8DFF8F0900430B4
:1028D0000CF0DDF8D9F8000010B10368DB68984708
:1028E000D9F8000010B103681B689847DFF8D08062
:1028F000D8F8000010B103685B699847D7F83C012D
:1029000010B103685B689847D8F8000010B10368FD
:102910001B689847D7F83C0110B103689B6898473B
:10292000F068036800215B6A98474FF0000B224B68
:10293000C0F804B0044680F808B00360B0680368CB
:1029400059465B6A9847054601F0DEF870680368EF
:1029500059465B6A98472946064601F0B5F8331D8B
:10296000C7F83C61CAF824302B68C6F808A028468E
:10297000DB68C9F80040C8F80050EE639847336838
:1029800030461B689847214628460EF00BFA23680C
:1029900020461B69984723685B69204601B0BDE863
:1029A000F04F1847E9330208773402084935020826
:1029B0009035020833360208A4410208802D012018
:1029C0007C2D0120044B1B6893F858200AB1D86C69
:1029D00000B99868704700BF382D0120F8B5174638
:1029E00004460E460CF0F0F8124B1C60124B2360AC
:1029F000124B0025C4E95135114BC4E953551868F1
:102A0000036801219B68C4E94F55C4E9557698478E
:102A1000284600F0ABFEFFF7D5FF16F0B8F9FFF738
:102A2000D1FF16F02FFAFFF7CDFF16F037FA204648
:102A3000F8BD00BF8C2D012050410208384102082A
:102A4000382D0120064BC0F84C310023C0F850311E
:102A500000F5A273C0F84801C0F84031704700BFCC
:102A60007D280008064BC0F84C310023C0F85031D7
:102A700000F5A273C0F84801C0F84031704700BFAC
:102A8000552C0008064BC0F84C310023C0F85031DB
:102A900000F5A273C0F84801C0F84031704700BF8C
:102AA000192B00082DE9F04105460026164B46601B
:102AB000067245F80C3B044628460F4609F0E0F93B
:102AC000124B84F838701B7884F83960A68723B9D4
:102AD000012323722046BDE8F0810D4B0D4FB3F961
:102AE0000080E368B7F900109B6B26612846984781
:102AF000E3684146DB6B28469847284609F03BF9D6
:102B00003B885B426387E5E7C8410208372D012017
:102B10002E2D01202C2D01202DE9F047D0E9556AFA
:102B20000746B06803681B6A9847B0F5D66F05D2B0
:102B3000414B424AA32142481FF068F9706803687C
:102B40001B6A98470F2803D83E4B3C4AA421F2E762
:102B5000F06803681B6A98473F2803D83A4B374A06
:102B6000A521E8E70BF06EFFDFF8E09004300BF0F2
:102B70008EFFD9F8000010B10368DB689847D9F8D8
:102B8000000010B103681B689847DFF8C480D8F8CC
:102B9000000010B103685B699847D7F83C0110B199
:102BA00003685B689847D8F8000010B103681B6899
:102BB0009847D7F83C0110B103689B689847F068C4
:102BC000036800215B6A984714210446FFF76AFFF7
:102BD000B068036800215B6A9847054600F0F0FF83
:102BE0007068036800215B6A98472946064600F032
:102BF000C5FF331DC7F83C61CAF824302B68C6F8FE
:102C000008A02846DB68C9F80040C8F80050EE6309
:102C10009847336830461B689847214628460EF08F
:102C2000C1F8236820461B699847236820465B69E2
:102C3000BDE8F047184700BFE9330208D63602085E
:102C4000493502089035020833360208802D0120EC
:102C50007C2D01202DE9F047D0E9556A0746B06880
:102C600003681B6A9847C32805D8414B414AA321F2
:102C700041481FF0CBF8706803681B6A98470F281B
:102C800003D83E4B3B4AA421F2E7F06803681B6A75
:102C900098473F2803D83A4B364AA521E8E70BF07E
:102CA000D1FEDFF8E09004300BF0F1FED9F800001F
:102CB00010B10368DB689847D9F8000010B10368C9
:102CC0001B689847DFF8C080D8F8000010B103688F
:102CD0005B699847D7F83C0110B103685B68984777
:102CE000D8F8000010B103681B689847D7F83C017A
:102CF00010B103689B689847F068036800215B6A1D
:102D0000984714210446FFF7CDFEB0680368002100
:102D10005B6A9847054600F0F7FE7068036800217B
:102D20005B6A98472946064600F0CEFE331DC7F879
:102D30003C61CAF824302B68C6F808A02846DB6836
:102D4000C9F80040C8F80050EE6398473368304631
:102D50001B689847214628460EF024F82368204631
:102D60001B699847236820465B69BDE8F047184710
:102D7000E9330208BB3702084935020890350208DA
:102D800033360208802D01207C2D0120406A7047D7
:102D9000806A704770478A880B8810B5D20A4C88C1
:102DA000C1699BB251F8220043EA0443184410BDA4
:102DB00010B50446BAB1107B68B1537BD27A1B02BE
:102DC00003F4E0631A43236A03EB82031A888A42FE
:102DD00002D193F9020010BD05D8013880B2043346
:102DE0000028F3D1F7E70020F5E710B52C210446C1
:102DF0001EF0D0F8204610BD30B58BB00446BDF8AB
:102E000060500895BDF85C5007959DF850500695A8
:102E10009DF84C5005959DF8485004959DF84450F8
:102E200003959DF8405002959DF83C500195BDF8E2
:102E3000385000950DF010FC064B2360159BE361A4
:102E4000169B2362199B63621A9BA36220460BB0F8
:102E500030BD00BFEC4102087047704770477047B3
:102E6000704770477047704730B4C2684468551067
:102E7000034604EB6200D20748BF62599B6830BC2E
:102E800048BFD35818470346406830B19A681AB90A
:102E9000D86800F0010070470120704710B510217C
:102EA00004461EF077F8204610BD10B5C421044634
:102EB0001EF070F8204610BD6C30884208B505D170
:102EC0000BF0C0FDBDE80840FFF7DCBD08BD70B5E4
:102ED000036804461B6B154698472368294620461D
:102EE0005B6BBDE870401847F8B5194B018F1B8824
:102EF0008B4206462AD9174B1B682BB9164B174A2B
:102F000017486C211EF082FF13F81120154B1B6827
:102F100053F82250144B186800F064FC2B680746E5
:102F20009B6B284698472B6804469B6C394628467D
:102F300098472B6814FB00F45B6A3946284698478B
:102F4000A4B223181BB2A6F84630F8BD0023FAE756
:102F5000942D0120902D0120A0380208E2380208AB
:102F60001D390208982D01209C2D01202DE9F341E7
:102F700004460DF06BFD2F4B23602F4B0025C4E959
:102F800010354FF4807304F16C06A4F86430FF230D
:102F9000C4E91255C4E91455C4E91655E56325661C
:102FA00084F86630A566304609F0D0F9234BC4E9B1
:102FB0002D34234B04F14007C4E92F352A46294616
:102FC0003846FFF784FF3846F021FEF7B3F938465C
:102FD0004FF4A071FEF7B0F904F104084FF07F43FD
:102FE000A3663946404606F031F829463046C222EB
:102FF000FFF76DFF01AA6946ADF800503046012584
:10300000ADF8045008F09BFF3046A4F8A450FFF739
:103010006BFF4FF0FF33C4E92A3304F1B403404699
:10302000C4F89430314606F011F8204602B0BDE8ED
:10303000F08100BF6C42020858470208544202085F
:10304000B92E0008704730B4C26844685510034672
:1030500004EB6200D20748BF62599B6830BC48BF8E
:10306000D35818470346406830B19A681AB9D868EF
:1030700000F0010070470120704710B51021044690
:103080001DF088FF204610BD10B50446983000F0B2
:1030900024FC04F1F00000F020FC04F5A47000F022
:1030A0001CFC04F5D07000F018FC04F5FC7000F076
:1030B00014FC04F5147000F010FC04F52A7000F004
:1030C0000CFC04F5407000F008FC04F5567000F0AC
:1030D00004FC04F56C7000F000FC04F5816000F065
:1030E000FCFB04F58C6000F0F8FB04F5976000F041
:1030F000F4FB04F5A26000F0F0FB04F5AD6000F015
:10310000ECFB04F5B860BDE8104000F0E6BB00F54C
:10311000C360884208B505D10BF094FCBDE80840B7
:10312000FFF7A0BC08BD000010B5034B03600446C8
:10313000FFF776FA204610BDEC420208224B10B58C
:103140000446036000F5B860FFF7EEFF04F5AD60DC
:10315000FFF7EAFF04F5A260FFF7E6FF04F59760CA
:10316000FFF7E2FF04F58C60FFF7DEFF04F58160F6
:10317000FFF7DAFF04F56C70FFF7D6FF04F5567021
:10318000FFF7D2FF04F54070FFF7CEFF04F52A7079
:10319000FFF7CAFF04F51470FFF7C6FF04F5FC70D3
:1031A000FFF7C2FF04F5D070FFF7BEFF04F5A4706F
:1031B000FFF7BAFF04F1F000FFF7B6FF04F1980043
:1031C000FFF7B2FF204610BDB842020810B5044612
:1031D000FFF7B4FF20464FF4CE611DF0DBFE204622
:1031E00010BD10B50446FFF79FFF204658211DF083
:1031F000D1FE204610BD00002DE9F04F044691B0ED
:103200000DF024FCBF4A2260BF4A0027C4E9102702
:103210004FF48071FF2204F16C09A4F8641084F863
:103220006620A4F890104FF6FF72B849A4F89220D7
:1032300084F8942004F1980BE16648460FA9C4E98C
:103240001277C4E91477C4E91677C4E91C77C4E996
:103250001E77C4E92077C4E92277E7632766A7666B
:10326000ADF83C2004F1F00A08F02FFF584600F0BA
:10327000E3FA504600F0E0FA04F5A4731846009310
:1032800000F0DAFA04F5D0731846019300F0D4FA8E
:1032900004F5FC731846029300F0CEFA04F514739B
:1032A0001846039300F0C8FA04F52A7318460493ED
:1032B00000F0C2FA04F540731846059300F0BCFA1A
:1032C00004F556731846069300F0B6FA04F56C73CD
:1032D0001846079300F0B0FA04F581631846089386
:1032E00000F0AAFA04F58C631846099300F0A4FADA
:1032F00004F5976318460A9300F09EFA04F5A2635A
:1033000018460B9300F098FA04F5AD6318460C9339
:1033100000F092FA04F5B863184604F5C3660D93FD
:1033200000F08AFA304609F011F8794AC4F86026AC
:1033300004F14008774AC4F8682639463A464046C0
:10334000C4F86446C4F86C76FFF7C1FD4046F0212E
:10335000FDF7F0FF40464FF4A071251DFDF7ECFF8F
:103360004FF07F42A2664146284605F06FFE39467F
:1033700048465022FFF7ABFD0E220FA94846ADF894
:103380003C2008F0A2FE4946284605F05FFE582280
:1033900058460821FFF79BFD5946284605F056FE82
:1033A000582250464221FFF792FD5146284605F02B
:1033B0004DFE009858227C21FFF789FD0099284690
:1033C00005F044FE01985822B621FFF780FD0199CF
:1033D000284605F03BFE029892220821FFF777FD70
:1033E0000299284605F032FE039892224221FFF707
:1033F0006EFD0399284605F029FE049892227C214F
:10340000FFF765FD0499284605F020FE05989222F5
:10341000B621FFF75CFD0599284605F017FE0698D2
:10342000CC220821FFF753FD0699284605F00EFE31
:103430000798CC224221FFF74AFD0799284605F05C
:1034400005FE0898CC227C21FFF741FD089928460B
:1034500005F0FCFD0998CC22B621FFF738FD09994B
:10346000284605F0F3FD0A984FF483720821FFF710
:103470002EFD0A99284605F0E9FD0B984FF483725A
:103480004221FFF724FD0B99284605F0DFFD0C983B
:103490004FF483727C21FFF71AFD0C99284605F042
:1034A000D5FD0D984FF48372B621FFF710FD0D99ED
:1034B000284605F0CBFD3A4639463046FFF707FD72
:1034C00001220EA9ADF83C2030460FAAADF83870A5
:1034D00008F035FD3046A4F85076FFF705FD4FF0B3
:1034E000FF33C4F85436C4F8583604F5CC63284684
:1034F000C4F84036314605F0A9FD204611B0BDE8BC
:10350000F08F00BFB842020858470208C0470208BF
:10351000A04202080F3100087047000030B5164D78
:103520002C6814F001048FB0BFF35B8F20D12846C4
:103530001DF032FDE0B13F230993104B0893104B6F
:10354000104911480A940122CDE906430423CDE92C
:1035500003320A230093CDE90B44CDE901440594DD
:10356000FFF74AFC09481EF06FFC28461DF020FDBD
:1035700005480FB030BD00BF241F0020FC550208D5
:103580000856020834550208281F00201935000883
:103590007047000030B5164D2C6814F001048FB050
:1035A000BFF35B8F21D128461DF0F6FCE8B13F2325
:1035B0000993104B0893104B104911480A94CDE918
:1035C000064301220423CDE90332142300930C2285
:1035D000CDE90B44CDE901440594FFF70DFC094802
:1035E0001EF032FC28461DF0E3FC05480FB030BD4C
:1035F000541F0020005602080C56020844550208C9
:10360000581F0020913500087047000030B5164D56
:103610002C6814F001048FB0BFF35B8F20D12846D3
:103620001DF0BAFCE0B13F230993104B0893104BF7
:10363000104911480A940122CDE906430423CDE93B
:10364000033228230093CDE90B44CDE901440594CE
:10365000FFF7D2FB09481EF0F7FB28461DF0A8FC37
:1036600005480FB030BD00BF841F0020045602087B
:1036700010560208EC550208881F00200936000881
:1036800000207047002070470EB403B503AB002143
:1036900053F8042B01930CF05DFA02B05DF804EBD3
:1036A00003B070470CB407B504AB53F8042B019377
:1036B0000CF050FA03B05DF804EB02B07047000064
:1036C000436C10B5044673B3038F2BB9184B194ADA
:1036D000C52119481EF09AFBC38E00EB43035B8C97
:1036E0000BB30EF0D2F8238F012B03D8134B144ADF
:1036F000CB21EEE7E28E531C9BB2092B194688BF03
:10370000A3F10A0104EB410140F63F10498C8142CC
:1037100009D10A2B04EB420228BF002304EB430328
:10372000508C588451842046BDE810400DF0B0BF45
:10373000643902086D390208183A0208623A020830
:10374000703A02080DF06BBF10B586B002AC84E889
:1037500006001A460AAB05930193099B0093214684
:10376000089B0AF00DFD06B010BD000038B518BB6F
:10377000124B13481C681349B4B1226822440260FA
:10378000626822440A60A26814440F4B00221A8027
:1037900000F038F8054600F033F80C4B1C600C4B79
:1037A0001D600C4B188007E00B4B03600B4B0B604C
:1037B0000B4B1C68002CE8D138BD00BFC01F002097
:1037C000B81F0020B41F0020BC1F0020902D012036
:1037D000982D0120942D01201C5602081456020831
:1037E00048560208044B1B6853F82100034B1B6822
:1037F00003EB4000704700BFB41F0020B81F00203B
:103800000220704700487047C41F002010B5FFF722
:10381000C1FE044C2060FFF7F9FE6060FFF77EFEFA
:10382000A06010BDC41F002010B5002404600C600F
:1038300014601C6010BD000010B50446FEF7FAFECF
:10384000014B2360204610BDEC420208402913B50D
:1038500000F12C042DD00ED8082926D005D8022935
:103860001CD004291FD0022319E010291FD02029C1
:10387000F9D1092313E0B1F5007F2AD006D88029B9
:1038800019D0B1F5807FEED1082308E0B1F5806F43
:1038900021D0B1F5006FE6D1072300E00623ADF893
:1038A000043001A90CE00A23F9E70D23F7E705230B
:1038B000F5E70C23F3E70423ADF804300DEB030127
:1038C000204608F002FC204602B0BDE810400CF093
:1038D0006BBA0B23E3E70323E1E710B50446FEF7D9
:1038E000A0FE20460021BDE81040FFF7AFBF7047A3
:1038F00010B54FF4B07104461DF04CFB204610BDCE
:1039000010B50446D0F85C0100F025F82046BDE86B
:1039100010400BF019B9000038B504460D46FFF70A
:103920005DF8034B2360C4F85C51204638BD00BFEE
:103930008043020838B50D4604460BF083F82A464A
:103940002146D0F85C01BDE8384000F016B80022EE
:1039500002604262704710B50446406A20B10368B5
:1039600062889B6821889847606A28B10368211D96
:10397000DB68BDE81040184710BD018042807047E9
:1039800070B50023A0B00446811C1D4608460022E5
:1039900030F8026F2EB920AE06EBC50646E920329C
:1039A00001350132042AF3D10133042B01F108015E
:1039B000ECD1D5B11EF00CFB20AA90FBF5F303FB74
:1039C000150302EBC30353E920651EF001FB0A2334
:1039D00005EB860590FBF3F202FB1300092804EBCC
:1039E00045040CBF04230223A38020B070BD2DE941
:1039F000F043071D002685B00446B8463546102220
:103A0000002168461EF047FCC44601203CF8023FF6
:103A10007BB36246014632F802ED0B460139BEF136
:103A2000000F1FD05A1E02EB860E03EB860304EB39
:103A30004E0E04EB4303BEF804909988494518D113
:103A40000DF1100909EB820252F8109CB9F1000F38
:103A50000FD149000125AEF8041042F8105CA3F81C
:103A6000049006E053881380A2F802E001250029A3
:103A7000D1D101300428C9D10136042E08F108083B
:103A8000BDD115B12046FFF77BFF606A30B10368F6
:103A9000DB68394605B0BDE8F043184705B0BDE81E
:103AA000F08370477047704770477047704704381D
:103AB0007047704710B5102104461DF06BFA204680
:103AC00010BDA0F10400F5E700228260024A026006
:103AD00018324260C1607047D4430208704700004A
:103AE00010B5034B03600446FFF7BCF9204610BD38
:103AF0000444020810B50446FFF7F2FF2046C42133
:103B00001DF048FA204610BD10B50446FFF72EFA06
:103B1000014B2360204610BD04440208FFF7A3B9FF
:103B2000704704387047704710B5102104461DF0E7
:103B300031FA204610BDA0F10400F5E7C06800F09E
:103B400049B8A0F10400FFF7F9BF7F2902D88068C7
:103B5000FFF74DBF802902D08068FFF7A3BF7F2AFF
:103B600002D88068FFF79DBF802A02D08068FFF7E7
:103B70009ABF7047A0F10400FFF7E7BF0022826000
:103B8000024A026020324260C16070473844020835
:103B90007047000010B5034B03600446FFF7CEFAF0
:103BA000204610BD7044020810B50446FFF7F2FF2E
:103BB00020464FF4D6611DF0EDF9204610BD0000FF
:103BC00010B50446FFF718FB014B2360204610BDDB
:103BD000704402082DE9F04100F26C668C1E01F180
:103BE0001E05374604F1080834F8021F57F8040F81
:103BF000FFF72CFE4445F7D1A54206F11006F0D19F
:103C0000BDE8F08110B50446FFF73EFA04F19803D1
:103C1000C4F8703604F1F003C4F8743604F5A473E4
:103C2000C4F8783604F5D073C4F87C3604F5FC7318
:103C3000C4F8803604F51473C4F8843604F52A7386
:103C4000C4F8883604F54073C4F88C3604F556730E
:103C5000C4F8903604F56C73C4F8943604F58163A7
:103C6000C4F8983604F58C63C4F89C3604F5976361
:103C7000C4F8A03604F5A263C4F8A43604F5AD6315
:103C8000C4F8A83604F5B863C4F8AC3610BDF0200B
:103C900070474FF4A07070472920FEF787B828209E
:103CA000FEF784B808B5FEF755F8CA20FEF77EF88F
:103CB000C320FEF75FF80820FEF75CF85020FEF7FF
:103CC00059F8CF20FEF772F80020FEF753F8C12014
:103CD000FEF750F83020FEF74DF8ED20FEF766F8BD
:103CE0006420FEF747F80320FEF744F81220FEF7A1
:103CF00041F88120FEF73EF8E820FEF757F88520CE
:103D0000FEF738F80020FEF735F87820FEF732F895
:103D1000CB20FEF74BF83920FEF72CF82C20FEF7CD
:103D200029F80020FEF726F83420FEF723F80220B9
:103D3000FEF720F8F720FEF739F82020FEF71AF8F2
:103D4000EA20FEF733F80020FEF714F80020FEF713
:103D500011F8B120FEF72AF80020FEF70BF81B201F
:103D6000FEF708F8B620FEF721F80A20FEF702F861
:103D7000A220FDF7FFFFC020FEF718F81020FDF786
:103D8000F9FFC120FEF712F81020FDF7F3FFC52060
:103D9000FEF70CF84520FDF7EDFF1520FDF7EAFFD3
:103DA000C720FEF703F89020FDF7E4FF3620FDF76B
:103DB000FDFFC820FDF7DEFFF220FDF7F7FF002032
:103DC000FDF7D8FFB020FDF7F1FFC220FDF7D2FFCD
:103DD000B620FDF7EBFF0A20FDF7CCFFA720FDF78B
:103DE000C9FF2720FDF7C6FF0420FDF7C3FF2A20E7
:103DF000FDF7DCFF0020FDF7BDFF0020FDF7BAFF57
:103E00000020FDF7B7FFEF20FDF7B4FF2B20FDF7F3
:103E1000CDFF0020FDF7AEFF0020FDF7ABFF012036
:103E2000FDF7A8FF3F20FDF7A5FFF620FDF7BEFF39
:103E30000120FDF79FFF0020FDF79CFF0620FDF706
:103E400099FF2C20FDF7B2FFC820FDF7FDFF2620CB
:103E5000FDF7ACFF0120FDF78DFFE020FDF7A6FF89
:103E60000F20FDF787FF2920FDF784FF2420FDF7B1
:103E700081FF0C20FDF77EFF0E20FDF77BFF092060
:103E8000FDF778FF4E20FDF775FF7820FDF772FFF4
:103E90003C20FDF76FFF0920FDF76CFF1320FDF7B5
:103EA00069FF0520FDF766FF1720FDF763FF11206E
:103EB000FDF760FF0020FDF75DFFE120FDF776FFD5
:103EC0000020FDF757FF1620FDF754FF1B20FDF7DC
:103ED00051FF0420FDF74EFF1120FDF74BFF072097
:103EE000FDF748FF3120FDF745FF3320FDF742FF86
:103EF0004220FDF73FFF0520FDF73CFF0C20FDF7BA
:103F000039FF0A20FDF736FF2820FDF733FF2F2069
:103F1000FDF730FF0F20FDF72DFF1120FDF746FFC5
:103F2000C820FDF791FF2920FDF740FFBDE80840BC
:103F30002C20FDF73BBF08B5FDF70CFF0321D32074
:103F4000FDF750FF80B208BD10B5C4B202220321B4
:103F50002046FDF7B5FE0A20FDF7FAFE20460022B6
:103F60000321FDF7ADFEBDE810400220FDF7F0BED5
:103F700038B50446E4B2FDF7A1FE00212046FDF766
:103F8000B7FE012105462046FDF7B2FE40EA0520B6
:103F900080B238BD10B5C4B240212046FDF7A8FE5E
:103FA000030607D54C212046FDF7A2FE003818BFB6
:103FB000012010BD01224B212046FDF781FE204645
:103FC00000224B21FDF77CFE0020F2E773B50423AD
:103FD000C4B20E461546D7210DEB03022046FDF76D
:103FE000A1FE019B1BBA1A0DC3F30B23328020469E
:103FF0002B8001224B21FDF763FE00224B2120463E
:10400000FDF75EFE02B070BD10B50A4A1378984203
:1040100004460DD0517888420AD00BB141B9012332
:10402000D454FDF74BFE2046BDE81040FFF78CBF8F
:1040300010BD00BFD01F002010B5C4B2092120461A
:10404000FDF756FE40F00102D2B220460921BDE83C
:104050001040FDF735BE10B5C4B209212046FDF76A
:1040600047FE092100F0FE022046BDE81040FDF7A2
:1040700027BE38B5C4B20D4620460A21FDF738FEEA
:1040800040EA0502D2B220460A21BDE83840FDF7D9
:1040900017BE10B50446FDF712FE20461F21FFF79C
:1040A000E8FF2046BDE81040FFF7C6BF38B5C4B2F0
:1040B0000D4620460A21FDF71BFE20EA0502D2B27A
:1040C00020460A21BDE83840FDF7FABD10B5044688
:1040D000FFF7C1FF20461F21BDE81040FFF7E6BFF4
:1040E00010B5C0B20C460B21FDF702FE204010BDFA
:1040F0001F21FFF7F5BF0A46C0B20B21FDF7E0BD57
:104100001F21FFF7F8BF38B5C4B20D46204617216E
:10411000FDF7EEFD20EA0502D2B220461721BDE8E8
:104120003840FDF7CDBD70B5C4B206460421204627
:10413000FDF7DEFD042100F0FB0205462046FDF7F9
:10414000BFFD3046F021FFF7DEFF05F0F802204604
:104150000421FDF7B5FD492220212046FDF7B0FDE1
:104160000220FDF7F5FD204601222121FDF7A8FDE3
:1041700020469A224121FDF7A3FD204601224A2133
:10418000FDF79EFD204601224B21FDF799FD2046BB
:1041900000224B21FDF794FD204601225621FDF718
:1041A0008FFD204601225821FDF78AFD204601227D
:1041B0004021FDF785FD2046FF220B21FDF780FD04
:1041C000BDE870400220FDF7C3BD0000054BD3F8E9
:1041D000882042F47002C3F888204FF000629A6091
:1041E000704700BF00ED00E008B50B4B1A6842F4C1
:1041F00000721A601A6842F480621A601A6842F407
:1042000080721A60032000F077FB0020FEF7F4F8BC
:10421000FDF728FE002008BD003C0240034A044B85
:1042200011681B780B441360704700BFD41F002037
:1042300078000020014B1868704700BFD41F002091
:1042400038B50446FFF7F6FF631C1CBF054B1B780F
:10425000054618BFE418FFF7EDFF431BA342FAD34E
:1042600038BD00BF7800002038B50446002800F0B3
:104270009B80056C25B9FDF715FE656484F83C50FC
:10428000236CDB0600F18E80236C23F4885323F02B
:10429000020343F002032364444B5A6822F4403281
:1042A0005A605A6861680A435A60236821695A68EB
:1042B00022F480725A605A6842EA01225A605A68AF
:1042C000A16822F040725A605A680A435A609A689C
:1042D000E16822F400629A609A680A439A6034495D
:1042E000A26A8A4252D0996821F0706199609968F7
:1042F0000A439A609A68E16A22F040529A609A688A
:104300000A439A609A6822F002029A609A68217EB3
:1043100042EA41029A6094F82020002A3ED05A686E
:10432000616A42F400625A605A6822F460425A603C
:104330005A68013942EA41325A60DA6AE16922F484
:104340007002DA62DA6A013942EA0152DA629A6884
:1043500022F400729A609A6894F8301042EA41227E
:104360009A609A68616922F480629A609A68002073
:1043700042EA81229A606064236C23F0030343F0D5
:1043800001032364002384F83C3038BD9A6822F08E
:1043900070629A609A6822F04052B2E75A6822F43A
:1043A0000062C9E70120EDE70120EEE700230140AC
:1043B0000100000F82B00023019390F83C30012BE4
:1043C00069D0012380F83C3003689A68D2070BD586
:1043D0009A68D1071AD4036C43F010030364436C4A
:1043E00043F0010343644CE09A682C4942F0010217
:1043F0009A602B4A1268B2FBF1F202EB4202019280
:10440000019A002AE4D0019A013AF8E7026C22F4FA
:10441000E06222F0010242F4807202645A6852059E
:1044200041BF026C22F4405242F480520264026C9A
:1044300012F480521CBF426C22F006024264002239
:1044400080F83C206FF022021A60164A516811F081
:104450001F0F15491CD18B4207D001F580718B428B
:104460000CD1526812F01F0F0BD19A6812F0405F06
:1044700007D19A6842F080429A6002E00B498B4271
:1044800002D0002002B07047526812F0100FEBE724
:104490008B42F6D1E9E70220F4E700BF40420F006B
:1044A0007400002000230140002001400022014050
:1044B00090F83C30012B14D003689A6822F0010276
:1044C0009A609B68DB0707D4036C23F4885323F0BE
:1044D000010343F001030364002380F83C301846D5
:1044E00070470220704703689A68520570B5044609
:1044F0000D460BD59B68DE0508D5036C43F0200301
:104500000364002380F83C30012070BDFFF792FE69
:10451000064623681A6891070CD56FF012021A60DC
:10452000226C42F4007222649A6812F0405F17D045
:104530000020EAE7681CEDD065B923681B6813F01A
:104540000203E6D1226C84F83C3042F0040222647B
:104550000320DAE7FFF76EFE801BA842EDD8D8E70C
:10456000227E002AE4D1DA6A12F4700F02D09B682E
:104570005A05DDD4236C23F480732364236CDB049D
:10458000D6D4236C43F001032364D1E782B0002327
:10459000019390F83C30012B6FD0012380F83C3020
:1045A00003689A68D2070BD59A68D1071AD4036CAE
:1045B00043F010030364436C43F00103436452E08F
:1045C0009A682F4942F001029A602E4A1268B2FBA3
:1045D000F1F202EB42020192019A002AE4D0019A20
:1045E000013AF8E7026C22F4E06222F0010242F4A0
:1045F000807202645A68520541BF026C22F4405234
:1046000042F480520264026C12F480521CBF426C6D
:1046100022F006024264002280F83C206FF0220261
:104620001A605A6842F0806242F020025A60164ACC
:10463000516811F01F0F15491CD18B4207D001F5AD
:1046400080718B420CD1526812F01F0F0BD19A6807
:1046500012F0405F07D19A6842F080429A6002E00F
:104660000B498B4202D0002002B07047526812F012
:10467000100FEBE78B42F6D1E9E70220F4E700BF29
:1046800040420F0074000020002301400020014040
:10469000002201400368D86C704770477047036878
:1046A00070B51E685D68B20704462BD5A80629D5EB
:1046B000226CD1065EBF226C42F4007222649A68BA
:1046C00012F0405F17D1227EAAB9DA6A12F4700F95
:1046D00002D09A6852050ED45A6822F020025A601D
:1046E000236C23F480732364236CD8045EBF236C93
:1046F00043F0010323642046FDF7C0FA23686FF0FE
:1047000012021A60710733D52A0631D5236CDB06F5
:104710005EBF236C43F40053236423689A6812F449
:10472000401F1ED19A6B12F4401F02D09A685005A8
:1047300017D45A68510514D49A6812F0405F10D10A
:10474000227E72B95A6822F080025A60236C23F4E8
:1047500080532364236CDA055EBF236C43F00103AE
:104760002364204600F0C6F823686FF00C021A603C
:10477000F30710D568060ED523681B68D9070AD53C
:10478000236C43F4803323642046FFF786FF2368BD
:104790006FF001021A60B2060ED56B010CD5636C86
:1047A00043F00203636423686FF020051D60204618
:1047B000FFF774FF23681D6070BD0000F7B500238C
:1047C000019390F83C30012B054600F086800123D0
:1047D00080F83C3008682B688E68092884B233D989
:1047E00004EB4402DF681E3A4FF0070C0CFA02FC9F
:1047F00027EA0C07DF60DF6806FA02F23A43DA6064
:104800004968062901EB81022DD8596B053A1F260C
:10481000964021EA06015963596B04FA02F20A43F1
:104820005A632F4A93420AD1122837D12D4B5A6826
:1048300022F400025A605A6842F480025A60002052
:1048400085F83C0003B0F0BD1A6900EB400C072767
:1048500007FA0CF722EA07021A611A6906FA0CF63F
:1048600016431E61CCE70C294FF01F010BD81E6BBD
:10487000233A914026EA01011963196B04FA02F206
:104880000A431A63CDE7DE6A413A914026EA010104
:10489000D962D96A94400C43DC62C2E7124B984259
:1048A00001D01128CBD10F4B5A6822F480025A60F4
:1048B0005A6842F400025A600B4B9842BFD10B4B2E
:1048C0000B4A1B68B3FBF2F30A2253430193019B8B
:1048D000002BB4D0019B013BF8E70220B2E700BFF8
:1048E000002001400023014012000010740000204D
:1048F00040420F00704700000749CA6822F4E06296
:104900000302120403F4E063120C134343F0BF6389
:1049100043F40033CB60704700ED00E0164B30B538
:10492000DC68C4F30224C4F10703251D042B28BF4F
:104930000423062D4FF0FF358CBF033C002405FAFD
:1049400003F321EA0303A54022EA0502A34000285D
:1049500043EA0203ACBF00F16040084A4FEA031388
:10496000B8BF00F00F00DBB2AABF00F561401354DE
:1049700080F8003330BD00BF00ED00E014ED00E032
:10498000002807DB044A4109012300F01F0083408F
:1049900042F82130704700BF00E100E010B5044646
:1049A00050B1437903F0FF0213B90271FDF7DAFA4F
:1049B00001236371002010BD0120FCE710B50446FF
:1049C00020B390F8393003F0FF021BB980F838208B
:1049D000FDF7E0FA022384F83930236861681A6829
:1049E00022F440320A431A605A6BA16822F007028F
:1049F0000A435A631A6CE1686FF30D020A431A64A2
:104A000000200123E06384F8393010BD0120FCE769
:104A100070477047036870B55E681D68F20704460A
:104A200014D5E90512D51A6822F480721A60C26B97
:104A300042F00102C26301229A60042380F83930F7
:104A4000002380F83830436903B19847B20616D581
:104A5000AB0414D523681A6822F400521A6020228D
:104A60009A60E36B43F00203E363042384F8393074
:104A7000002384F8383063690BB12046984730072B
:104A800016D5290514D523681A6822F400621A6025
:104A900008229A60E36B43F00403E363042384F881
:104AA0003930002384F8383063690BB120469847C9
:104AB00072070BD56B0509D523681A6822F480624A
:104AC0001A6004229A602046FFF7A2FFB00714D5AF
:104AD000A90512D523681A6822F400721A6002220E
:104AE0009A60E36BE363012384F83930002384F890
:104AF000383023690BB120469847F20613D5EB04F2
:104B000011D523681A6822F480521A6010229A6024
:104B1000E36BE363012384F83930002384F83830F1
:104B20002046FFF776FF70BDF0B590F83820012AD7
:104B300003464FF002002BD0012283F8382083F87F
:104B4000390003EB0112D2E90740556A174F44EAD6
:104B50000040093C012C9CBF05F07F4210434FEA06
:104B600001161A6888BF40EA056091B9516A394058
:104B700001435162012C9969916103D8596A21F06E
:104B80007F4191620122002083F8392083F83800A8
:104B9000F0BDD16939400143D1619919012C89696E
:104BA00011619CBF25F07F451562EBE7F0FFFC002B
:104BB0002DE9F74FDFF8BC916C4A00230D68012402
:104BC0009C4004EA0506AC4340F0B7804D680327DB
:104BD00005F003044FEA430807FA08FC671E012F9B
:104BE0006FEA0C0C34D8876807EA0C0ECF6807FA16
:104BF00008F747EA0E078760476827EA060EC5F3FD
:104C000000179F4047EA0E074760C76807EA0C0E87
:104C10008F6807FA08F747EA0E07022CC76019D118
:104C20004FEAD30A00EB8A0A03F0070BDAF8207088
:104C30004FEA8B0B4FF00F0E0EFA0BFE27EA0E0E0B
:104C40000F6907FA0BF747EA0E07CAF8207001E070
:104C5000032CDAD1076804FA08F407EA0C073C438E
:104C600015F4403F046068D000240194D9F8444012
:104C700044F48044C9F84440D9F8444023F0030781
:104C800007F1804704F4804407F59C37019403F052
:104C9000030C019CD7F808E04FEA8C0C0F2404FAAF
:104CA0000CF42EEA040E324CA0424DD004F5806480
:104CB000A0424BD004F58064A04249D004F5806442
:104CC000A04247D004F58064A04245D004F580643A
:104CD000A04243D004F58064A04241D004F5806432
:104CE000A0423FD004F58064A0423DD004F580642A
:104CF000A04214BF0A24092404FA0CF444EA0E0466
:104D0000BC609468F74315F4801F0CBF3C403443EB
:104D10009460D46815F4001F0CBF3C403443D46049
:104D2000546815F4003F0CBF3C4034435460146891
:104D3000ED0354BF3C40344314600133102B7FF427
:104D40003DAF03B0BDE8F08F0024D5E70124D3E7E1
:104D50000224D1E70324CFE70424CDE70524CBE7E1
:104D60000624C9E70724C7E70824C5E7003C01403B
:104D700000000240003802400369194214BF0120BC
:104D8000002070470AB1816170470904FBE743695D
:104D900001EA030221EA030141EA0241816170470D
:104DA00001684B6913F480634FF0000210D06FF478
:104DB00080634B612023026380F83D3080F83E2001
:104DC000036C80F83C2043F0040303640120704727
:104DD000184670472DE9F84606460F4691461D468F
:104DE0004FEA114A3368BAF1010F0CBF5C699C6944
:104DF00027EA0404A4B2B4FA84F46409A14501D0FA
:104E0000002025E06A1CEED0FFF714FA089BC01AB8
:104E1000A84201D8002DE5D13368BAF1010F0CBFCB
:104E20005B699B6927EA03039BB2B3FA83F35B09CF
:104E30009945D7D100232022336386F83D2086F898
:104E40003E30326C86F83C3042F020023264012061
:104E5000BDE8F8862DE9F04104460F46164698460F
:104E60002568686927EA000080B2C0B16B695A05FD
:104E700017D52B6843F400732B606FF480636B616C
:104E800020220023236384F83D2084F83E30236CE5
:104E900043F004032364002384F83C300120BDE880
:104EA000F081731CDDD0FFF7C5F9A0EB0800B0421C
:104EB00001D8002ED4D123685A6927EA020292B29F
:104EC000002ACDD000232022236384F83D2084F8DB
:104ED0003E30236C1343DDE770B504460D4616469D
:104EE00023685B691B0601D500201EE02046FFF702
:104EF00057FFC8B96A1CF3D0FFF79CF9801BA84282
:104F000001D8002DECD123685B6913F08003E7D151
:104F10002022236384F83D2084F83E30226C84F8FC
:104F20003C3042F020022264012070BD2DE9F043A4
:104F30001546026885B0DDE90C789946136843F49C
:104F4000807313600E463B46CDF8008000224FF080
:104F500001110446FFF73EFF236838B11B68DB05EB
:104F600002D54FF400732364032620E006F0FE060A
:104F70001E611A4943463A462046FFF76BFFA8B91F
:104F8000236803905A6903929B690393424639460A
:104F90002046039BFFF7A0FF064660B1236C042B5D
:104FA00001BF2268136843F4007313600126304682
:104FB00005B0BDE8F083B9F1010F236802D1EDB26D
:104FC0001D61F4E72A0A1A61394642462046FFF776
:104FD00083FF0028E2D12368F1E700BF020001004F
:104FE0002DE9FF479A46036815461A6842F4806225
:104FF0001A601A68DDE90C7842F480721A600E4675
:105000003B46CDF8008000224FF001110446FFF727
:10501000E1FE236838B11B68DB0544BF4FF4007321
:105020002364032021E05FFA86F906F0FE061E6184
:105030002B4943463A462046FFF70CFFA0B92368A8
:1050400003905A6903929B6903934246394620466E
:10505000039BFFF741FF58B1236C042B01BF22686B
:10506000136843F400731360012004B0BDE8F087B7
:10507000BAF1010F23681AD1EDB242461D613946DB
:105080002046FFF729FF02460028E5D121680B687A
:1050900043F480730B602046CDF800803B464FF010
:1050A0000111FFF797FE226860B11368B4E72A0A7E
:1050B0001A61394642462046FFF70EFF0028CBD141
:1050C0002368D9E749F001031361054943463A468D
:1050D0002046FFF7BFFE003818BF0120C5E700BF1C
:1050E0000200010070B504460D46164623685B6950
:1050F0005B0701D500201EE02046FFF751FEC8B92E
:105100006A1CF3D0FFF796F8801BA84201D8002D47
:10511000ECD123685B6913F00403E7D120222363F9
:1051200084F83D2084F83E30226C84F83C3042F014
:1051300020022264012070BD70B504460D4616465B
:1051400021684B6913F0400301D0002011E04A6947
:10515000D2060FD56FF010024A612022236384F833
:105160003D2084F83E30236C2364002384F83C30D7
:10517000012070BDFFF75EF8801BA84201D8002D0A
:10518000DED123685B6913F04003D9D12022236369
:1051900084F83D2084F83E30236C1343E4E700009C
:1051A00070B5044608B9012070BD90F83D3003F099
:1051B000FF021BB980F83C20FCF70EFF242384F883
:1051C0003D3023681A6822F001021A601A6842F41E
:1051D00000421A601A6822F400421A6000F08AFE47
:1051E0003F4B65689D4294BF3E4B3F4B98428CBFFE
:1051F00000230123002BD6D12268394E51683B4B46
:10520000B0FBF3F321F03F011943B542516088BF71
:105210004FF49676116A88BF734321F03F0184BF33
:105220004FF47A76B3FBF6F301330B431362D16983
:10523000431E2B4821F44F41854221F0FF0132D813
:105240006D0040F6FC70B3FBF5F30133034242D02E
:10525000C3F30B031943D161D4E907301168034349
:1052600021F0C0010B4313609168D4E9030321F4DA
:105270000341034321F0FF010B439360D4E9053060
:10528000D168034321F0FF010B43D360136843F05F
:105290000103136000202023206484F83D30206344
:1052A00084F83E0080E7A06850B905EB4505B3FBE4
:1052B000F5F30133C3F30B037BB143F40043C9E7B8
:1052C00019206843B3FBF0F30133C3F30B0323B19D
:1052D00043F44043BEE70423BCE70123BAE700BF21
:1052E000A08601007F841E00FF083D0040420F00A1
:1052F0002DE9F743044699460C9E0F469046FEF76B
:1053000099FF94F83D30202B054603D0022003B0CE
:10531000BDE8F08300903C49192301222046FFF7A5
:1053200059FD0028F2D194F83C30012BEED02068D2
:10533000012384F83C300368D9075EBF036843F05B
:1053400001030360036823F400630360212384F8EE
:105350003D30402384F83E30002323640A9B63627F
:10536000BDF82C306385638D2385284BE36242466C
:10537000CDE900654B4639462046FFF7D7FD0028AA
:105380002AD00120C3E7FFF7A7FD40B1236C042B0F
:1053900001BF2268136843F400731360F1E7636A86
:1053A00027681A4612F8011B39616262628D218DED
:1053B000013A92B262857A69481E80B2520720850E
:1053C0000AD548B15A783A6102336362638D013B72
:1053D00002399BB221856385238D2A4631462046BA
:1053E000002BD0D1FFF77EFE0028CFD122681368B2
:1053F00043F400731360202384F83D3084F83C00AC
:1054000084F83E0083E700BF020010000000FFFFA9
:105410002DE9F043044687B09946109F0D4690460B
:10542000FEF708FF94F83D30202B064604D00225F5
:10543000284607B0BDE8F08300907A49192301227D
:105440002046FFF7C7FC0028F1D194F83C30012B2F
:10545000EDD02068012384F83C300368DB075EBF91
:10546000036843F001030360036823F400630360EF
:10547000222384F83D30402384F83E300023236407
:105480000E9B6362BDF83C306385638D2385664B5C
:10549000E3622946CDE900764B4642462046FFF7B7
:1054A0009FFD054608B10125C2E7228D2368B2B9E8
:1054B00002905A6902929A690292029A1A6842F418
:1054C00000721A60DFF86481238D002B2CD120221A
:1054D00084F83D2084F83C3084F83E30A8E7012A67
:1054E0000AD11A6822F480621A6003905A69039202
:1054F0009A690392039AE1E7022A0ED11A6822F40C
:1055000080621A601A6842F400621A6004905A6954
:1055100004929B690493049BD4E705905A69059211
:105520009B690593059BCDE7032B56D8012B15D11D
:10553000324639462046FFF7FFFD0028B3D12368E5
:105540001A69636A1A70636A01336362238D013BCF
:105550002385638D013B9BB26385B5E7022B0096E3
:105560003B464FF000024146204619D1FFF732FC7E
:10557000002898D123681A6842F400721A601A69E8
:10558000636A1A70626A531C6362238D013B238530
:10559000638D013B9BB2638523681B695370D2E71F
:1055A000FFF718FC024600287FF47DAF23681968D6
:1055B00021F4806119601969636A1970636A0133A3
:1055C0006362238D013B2385638D013B9BB2638521
:1055D000414600963B462046C8E7324639462046BB
:1055E000FFF7AAFD00287FF45EAF23681A69636A9B
:1055F0001A70628D616A013A92B24B1C6285226810
:105600006362238D5069013B9BB2400723857FF580
:105610005BAF032B02BF136823F48063136013692D
:105620004B7090E7020010000000FFFF0400010033
:1056300010B590F83D30202BDCB216D1242380F831
:105640003D3003681A6822F001021A605A6A22F09B
:1056500010025A625A6A114359621A6842F00102F2
:105660001A6080F83D40002010BD0220FCE730B5F4
:1056700090F83D30202BDCB216D10268242380F84C
:105680003D30136823F001031360556A4FF6F07341
:105690002B400B439BB25362136843F0010313602A
:1056A00080F83D40002030BD0220FCE70068D201B8
:1056B00084328318F0B5C7685D684C680E6805F4DD
:1056C00070455D60C56806F1010CC5F30B45C7F375
:1056D0000B472744654445EA07455D60C768CD68C8
:1056E000C7F30A072F449D6805F470459D60D0F804
:1056F0000CC08D68CCF30A0C0135654445EA0745BA
:105700009D601D69D1F810C08F6925F007051D61E6
:10571000C3F810C091F8305045EA076591F8317030
:1057200045EA072591F8327045EA07459D615D69B4
:1057300025F0FF055D614D695D61DD6925F4E0657A
:1057400025F00705DD61D1E907573D43DD61BCF177
:10575000070F4D6A9D629CBF0D4D15F80C70DD6AF8
:1057600005F0E025DD6288BF01278D6AC96AA41BA8
:105770007C437D43033444EA0544DC621C6B6FF3D5
:105780000A041C631963835843F001038350F0BD7E
:10579000B444020838B5044600284ED090F8A13031
:1057A00003F0FF021BB980F8A020FCF771FC022374
:1057B00084F8A13023689A6922F070429A61D4E992
:1057C00001200243E06899690243206902430A43C9
:1057D0009A61D4E9051242EA01429A60D4E90712BB
:1057E00042EA0142DA60D4E9091242EA01421A614E
:1057F000D4E90B1242EA01425A61DA6A94F83500A0
:1058000094F8361002F07F42DA62DD6A94F83420B0
:105810002A4342EA002242EA0142DA625A6B42F02B
:1058200006025A639A6942F001029A61002001233C
:10583000C4F8A40084F8A13038BD0120FCE770470B
:105840007047036870B59E6B5D6B7207044614D594
:10585000690712D55A6B22F004025A630422DA63F4
:10586000D0F8A43043F00103C0F8A430002380F83E
:10587000A12080F8A030FFF7E2FFB20716D5AB07F2
:1058800014D523685A6B22F002025A630222DA63AB
:10589000D4F8A4301343C4F8A430042384F8A1300E
:1058A000002384F8A0302046FFF7C9FFF00710D589
:1058B000E9070ED523685A6B22F001025A630122D0
:1058C000DA63002384F8A12084F8A0302046FBF797
:1058D000A3FE320711D52B070FD523685A6B22F090
:1058E00008025A630822DA63012384F8A1300023F6
:1058F00084F8A0302046FFF7A3FF70BD2DE9F041EA
:1059000090F8A030012B06460F4694464FF0020057
:105910001FD04FF0010886F8A08086F8A10034243B
:105920000D4604FB02640FCD38340FC40FCD0FC4F5
:105930000FCD0FC42B682360304662463946FFF70F
:10594000B5FE33680020C3F8248086F8A18086F86D
:10595000A000BDE8F081000090F8A020012A0346D5
:105960004FF0020012D01A6883F8A100506B20F0AB
:105970000100506306480164516B41F0010151631D
:105980000020012283F8A12083F8A000704700BF07
:105990000068014037B500230193184B184D1A6C6D
:1059A00042F080521A641B6C03F080530193019BF8
:1059B000144B01221A64FEF73DFC04466B68DA03BF
:1059C0000BD5104B0E4D01225A64FEF733FC0446F2
:1059D0006B689B030AD5002006E0FEF72BFC001B3A
:1059E000B0F57A7FEAD9032003B030BDFEF722FC80
:1059F000001BB0F57A7FEBD9F5E700BF0038024015
:105A00000070004000000E422DE9F341044640B30F
:105A10000368DE0710D423689D075BD42368190749
:105A200000F19D8023685A0700F1BD80A369002B17
:105A300040F0248100202CE08D4B9A6802F00C028B
:105A4000042A07D09A6802F00C02082A0BD15B687E
:105A5000590208D5864B1B689A03DCD56368002B76
:105A6000D9D1012015E06368814DB3F5803F13D192
:105A70002B6843F480332B60FEF7DCFB7C4E05463D
:105A800033689B03C7D4FEF7D5FB401B6428F7D9C6
:105A9000032002B0BDE8F081B3F5A02F04D12B683C
:105AA00043F480232B60E3E72A6822F480322A60E3
:105AB0002A6822F480222A60002BDDD1FEF7BAFB8F
:105AC00006462B689F03A6D5FEF7B4FB801B64280F
:105AD000F7D9DDE7664B9A6812F00C0F07D09A6889
