:020000040800F2
:1000000000000320699A00083F3F0008413F0008B4
:10001000433F0008453F0008473F0008000000003C
:1000200000000000000000000000000071920008C5
:10003000493F00080000000001930008218C0008DF
:10004000B99A0008B99A0008B99A0008B99A000844
:10005000B99A0008B99A0008B99A0008B99A000834
:10006000B99A0008B99A0008B99A0008B99A000824
:10007000B99A0008B99A0008B99A0008B99A000814
:10008000B99A0008B99A00084D3F0008B99A0008CB
:10009000B99A0008B99A0008B99A0008B99A0008F4
:1000A000B99A0008B99A0008B99A0008B99A0008E4
:1000B000B99A0008B99A0008B99A0008B99A0008D4
:1000C000B99A0008B99A0008B99A0008B99A0008C4
:1000D000B99A0008B99A0008B99A0008B99A0008B4
:1000E000B99A0008B99A0008B99A0008B99A0008A4
:1000F000B99A0008B99A0008B99A0008B99A000894
:10010000B99A0008B99A0008B99A0008B99A000883
:10011000B99A0008B99A0008693F0008B99A00081E
:10012000B99A0008B99A0008B99A0008B99A000863
:10013000B99A0008B99A0008B99A0008B99A000853
:10014000B99A0008B99A0008B99A0008B99A000843
:10015000B99A0008B99A0008B99A0008B99A000833
:10016000B99A0008B99A0008B99A0008B99A000823
:10017000B99A0008B99A0008B99A0008000000006E
:10018000B99A0008B99A0008B99A0008B99A000803
:10019000B99A0008B99A0008B99A0008B99A0008F3
:0C01A000753F0008B99A0008813F000874
:1001B00010B5054C237833B9044B13B10448AFF3A1
:1001C00000800123237010BD800300200000000088
:1001D000F03B020808B5034B1BB103490348AFF3DA
:1001E000008008BD0000000084030020F03B0208EE
:1001F00081F0004102E000BF83F0004330B54FEAD8
:1002000041044FEA430594EA050F08BF90EA020F44
:100210001FBF54EA000C55EA020C7FEA645C7FEAD7
:10022000655C00F0E2804FEA5454D4EB5555B8BFFA
:100230006D420CDD2C4480EA020281EA030382EA6B
:10024000000083EA010180EA020281EA0303362DFD
:1002500088BF30BD11F0004F4FEA01314FF4801CD0
:100260004CEA113102D0404261EB410113F0004FE2
:100270004FEA03334CEA133302D0524263EB430399
:1002800094EA050F00F0A780A4F10104D5F1200E37
:100290000DDB02FA0EFC22FA05F2801841F1000192
:1002A00003FA0EF2801843FA05F359410EE0A5F166
:1002B00020050EF1200E012A03FA0EFC28BF4CF097
:1002C000020C43FA05F3C01851EBE37101F000454D
:1002D00007D54FF0000EDCF1000C7EEB00006EEB5A
:1002E0000101B1F5801F1BD3B1F5001F0CD34908E4
:1002F0005FEA30004FEA3C0C04F101044FEA44523B
:1003000012F5800F80F09A80BCF1004F08BF5FEAC1
:10031000500C50F1000041EB045141EA050130BDA1
:100320005FEA4C0C404141EB010111F4801FA4F144
:100330000104E9D191F0000F04BF01460020B1FA99
:1003400081F308BF2033A3F10B03B3F120020CDAD1
:100350000C3208DD02F1140CC2F10C0201FA0CF0AF
:1003600021FA02F10CE002F11402D8BFC2F1200C14
:1003700001FA02F120FA0CFCDCBF41EA0C019040CA
:10038000E41AA2BF01EB0451294330BD6FEA040413
:100390001F3C1CDA0C340EDC04F11404C4F12002FE
:1003A00020FA04F001FA02F340EA030021FA04F310
:1003B00045EA030130BDC4F10C04C4F1200220FA67
:1003C00002F001FA04F340EA0300294630BD21FAA5
:1003D00004F0294630BD94F0000F83F4801306BF6B
:1003E00081F480110134013D4EE77FEA645C18BF5F
:1003F0007FEA655C29D094EA050F08BF90EA020FF6
:1004000005D054EA000C04BF1946104630BD91EAED
:10041000030F1EBF0021002030BD5FEA545C05D1F0
:100420004000494128BF41F0004130BD14F580042F
:100430003CBF01F5801130BD01F0004545F0FE41A3
:1004400041F470014FF0000030BD7FEA645C1ABFD8
:10045000194610467FEA655C1CBF0B46024650EA0F
:10046000013406BF52EA033591EA030F41F400213B
:1004700030BD00BF90F0000F04BF0021704730B5C1
:100480004FF4806404F132044FF000054FF0000196
:1004900050E700BF90F0000F04BF0021704730B557
:1004A0004FF4806404F1320410F0004548BF40422C
:1004B0004FF000013EE700BF42004FEAE2014FEA81
:1004C00031014FEA02701FBF12F07F4393F07F4F5C
:1004D00081F06051704732F07F4208BF704793F05F
:1004E0007F4F04BF41F40021704730B54FF4607472
:1004F00001F0004521F000411CE700BF50EA010275
:1005000008BF704730B54FF000050AE050EA01021D
:1005100008BF704730B511F0004502D5404261EB8D
:1005200041014FF4806404F132045FEA915C3FF4CE
:10053000D8AE4FF003025FEADC0C18BF03325FEA6B
:10054000DC0C18BF033202EBDC02C2F1200300FA1C
:1005500003FC20FA02F001FA03FE40EA0E0021FA41
:1005600002F11444BDE600BF70B54FF0FF0C4CF42F
:10057000E06C1CEA11541DBF1CEA135594EA0C0FE1
:1005800095EA0C0F00F0DEF82C4481EA030621EA1C
:100590004C5123EA4C5350EA013518BF52EA033557
:1005A00041F4801143F4801338D0A0FB02CE4FF009
:1005B0000005E1FB02E506F00042E0FB03E54FF039
:1005C0000006E1FB03569CF0000F18BF4EF0010E31
:1005D000A4F1FF04B6F5007F64F5407404D25FEA2D
:1005E0004E0E6D4146EB060642EAC62141EA5551E0
:1005F0004FEAC52040EA5E504FEACE2EB4F1FD0C22
:1006000088BFBCF5E06F1ED8BEF1004F08BF5FEA9F
:10061000500E50F1000041EB045170BD06F0004651
:1006200046EA010140EA020081EA0301B4EB5C04FE
:10063000C2BFD4EB0C0541EA045170BD41F48011F6
:100640004FF0000E013C00F3AB8014F1360FDEBF1B
:10065000002001F0004170BDC4F10004203C35DAF7
:100660000C341BDC04F11404C4F1200500FA05F37A
:1006700020FA04F001FA05F240EA020001F000421B
:1006800021F0004110EBD37021FA04F642EB060191
:100690005EEA430E08BF20EAD37070BDC4F10C04BB
:1006A000C4F1200500FA04F320FA05F001FA04F27F
:1006B00040EA020001F0004110EBD37041F100016B
:1006C0005EEA430E08BF20EAD37070BDC4F1200576
:1006D00000FA05F24EEA020E20FA04F301FA05F2DE
:1006E00043EA020321FA04F001F0004121FA04F286
:1006F00020EA020000EBD3705EEA430E08BF20EA56
:10070000D37070BD94F0000F0FD101F0004640008F
:1007100041EB010111F4801F08BF013CF7D041EA11
:10072000060195F0000F18BF704703F00046520015
:1007300043EB030313F4801F08BF013DF7D043EAE6
:100740000603704794EA0C0F0CEA135518BF95EA9C
:100750000C0F0CD050EA410618BF52EA4306D1D123
:1007600081EA030101F000414FF0000070BD50EA42
:10077000410606BF1046194652EA430619D094EACC
:100780000C0F02D150EA013613D195EA0C0F05D1B6
:1007900052EA03361CBF104619460AD181EA03010A
:1007A00001F0004141F0FE4141F470014FF00000C2
:1007B00070BD41F0FE4141F4780170BD70B54FF05D
:1007C000FF0C4CF4E06C1CEA11541DBF1CEA1355DD
:1007D00094EA0C0F95EA0C0F00F0A7F8A4EB0504BF
:1007E00081EA030E52EA03354FEA013100F08880B6
:1007F0004FEA03334FF0805545EA131343EA12637F
:100800004FEA022245EA111545EA10654FEA002633
:100810000EF000419D4208BF964244F1FD0404F5EC
:10082000407402D25B084FEA3202B61A65EB030548
:100830005B084FEA32024FF480104FF4002CB6EB05
:10084000020E75EB030E22BFB61A754640EA0C0085
:100850005B084FEA3202B6EB020E75EB030E22BFC5
:10086000B61A754640EA5C005B084FEA3202B6EB06
:10087000020E75EB030E22BFB61A754640EA9C00C5
:100880005B084FEA3202B6EB020E75EB030E22BF95
:10089000B61A754640EADC0055EA060E18D04FEA53
:1008A000051545EA16754FEA06164FEAC30343EAF3
:1008B00052734FEAC2025FEA1C1CC0D111F4801FC0
:1008C0000BD141EA00014FF000004FF0004CB6E7B9
:1008D00011F4801F04BF01430020B4F1FD0C88BF58
:1008E000BCF5E06F3FF6AFAEB5EB030C04BFB6EB63
:1008F000020C5FEA500C50F1000041EB045170BD56
:100900000EF0004E4EEA113114EB5C04C2BFD4EB82
:100910000C0541EA045170BD41F480114FF0000E06
:10092000013C90E645EA060E8DE60CEA135594EA82
:100930000C0F08BF95EA0C0F3FF43BAF94EA0C0F85
:100940000AD150EA01347FF434AF95EA0C0F7FF4FA
:1009500025AF104619462CE795EA0C0F06D152EA4E
:1009600003353FF4FDAE1046194622E750EA410632
:1009700018BF52EA43067FF4C5AE50EA41047FF443
:100980000DAF52EA43057FF4EBAE12E74FEA4102A6
:10099000B2F1E04324BFB3F5001CDCF1FE5C0DD9DD
:1009A00001F0004C4FEAC0024CEA5070B2F1004F27
:1009B00040EB830008BF20F00100704711F0804F2A
:1009C00021D113F13872BCBF01F00040704741F4EF
:1009D00080114FEA5252C2F11802C2F1200C10FAF3
:1009E0000CF320FA02F018BF40F001004FEAC123D7
:1009F0004FEAD32303FA0CFC40EA0C0023FA02F37B
:100A00004FEA4303CCE77FEA625307D150EA013350
:100A10001EBF4FF0FE4040F44000704701F0004020
:100A200040F0FE4040F40000704700BF7BB972B94F
:100A30000029BEBF00204FF0004106E008BF00289B
:100A40001CBF6FF000414FF0FF3000F0BDB9ADF1B9
:100A5000080C6DE904CE002909DB002B1ADB00F03D
:100A60004DF8DDF804E0DDE9022304B070474042B0
:100A700061EB4101002B1BDB00F040F8DDF804E0E6
:100A8000DDE9022304B0404261EB4101524263EBD5
:100A900043037047524263EB430300F02FF8DDF845
:100AA00004E0DDE9022304B0404261EB41017047FC
:100AB000524263EB430300F021F8DDF804E0DDE986
:100AC000022304B0524263EB4303704753B94AB95F
:100AD000002908BF00281CBF4FF0FF314FF0FF3046
:100AE00000F072B9ADF1080C6DE904CE00F006F823
:100AF000DDF804E0DDE9022304B070472DE9F0479A
:100B0000089E04468846002B4BD18A42154667D979
:100B1000B2FA82F24AB1C2F1200701FA02F320FAD6
:100B200007F7954047EA030894404FEA154E230C17
:100B3000B8FBFEF71FFA85FC0EFB178843EA084353
:100B400007FB0CF1994209D9EB1807F1FF3080F04F
:100B50001B81994240F21881023F2B445B1AA4B2D8
:100B6000B3FBFEF00EFB103344EA034400FB0CFC25
:100B7000A44509D92C1900F1FF3380F00781A44561
:100B800040F2048102382C4440EA0740A4EB0C04F4
:100B900000271EB1D4400023C6E900433946BDE812
:100BA000F0878B4209D9002E00F0EB800027C6E9C0
:100BB000000138463946BDE8F087B3FA83F7002FC5
:100BC00047D18B4202D3824200F2FA80841A61EB51
:100BD000030301209846002EE0D0C6E90048DDE777
:100BE00002B9FFDEB2FA82F2002A40F08F80491B80
:100BF0004FEA154E1FFA85F80127B1FBFEFC230CC6
:100C00000EFB1C1143EA014308FB0CF1994207D982
:100C1000EB180CF1FF3002D2994200F2CD808446ED
:100C2000591AA3B2B1FBFEF00EFB101443EA0444C0
:100C300008FB00F8A04507D92C1900F1FF3302D2B8
:100C4000A04500F2B6801846A4EB080440EA0C4028
:100C50009FE7C7F1200CBB4022FA0CFE4EEA030EC0
:100C600001FA07F420FA0CF521FA0CF34FEA1E48BA
:100C70002543B3FBF8F92C0C08FB19331FFA8EFA45
:100C800044EA034309FB0AF49C4202FA07F200FA21
:100C900007F10BD91EEB030309F1FF3080F08780C9
:100CA0009C4240F28480A9F1020973441B1BADB23F
:100CB000B3FBF8F008FB103345EA034400FB0AFAE3
:100CC000A24508D91EEB040400F1FF336BD2A24504
:100CD00069D90238744440EA0940A0FB0289A4EBB8
:100CE0000A044C45C2464B4654D351D0002E69D01D
:100CF000B1EB0A0564EB030404FA0CFCFD40FC4074
:100D00004CEA0505C6E90054002747E7C2F1200375
:100D100020FA03F7954001FA02F021FA03F34FEAB3
:100D2000154E3843010CB3FBFEF71FFA85F80EFB96
:100D3000173341EA034107FB08F38B4204FA02F43C
:100D400007D9691807F1FF3C2FD28B422DD9023FFA
:100D50002944CB1A81B2B3FBFEF00EFB103341EAFB
:100D6000034100FB08F38B4207D9691800F1FF3CEF
:100D700017D28B4215D902382944C91A40EA0747CD
:100D80003BE73746304609E70746E7E61846FBE605
:100D90004145ABD2B8EB020A69EB0E0201381346AB
:100DA000A4E76046E9E7184695E76746D1E781463C
:100DB0007CE702382C4447E7ACF1020C2B442FE7C8
:100DC000384608E73746E9E6704700BF00000000F4
:100DD00001F0FF01102A2BDB10F0070F08D010F8EC
:100DE000013B013A8B422DD010F0070F42B3F6D1F0
:100DF000F0B441EA012141EA014122F007047FF009
:100E000000070023F0E80256083C85EA010586EA5F
:100E1000010685FA47F5A3FA87F586FA47F6A5FA9B
:100E200087F68EB9EED1F0BC01F0FF0102F00702A7
:100E300032B110F8013B013A83EA010313B1F8D152
:100E40000020704701387047002D06BF3546033833
:100E5000073815F0010F07D1013015F4807F02BF6C
:100E6000013015F4C03F0130F0BC0138704700BFBD
:100E700090F8252012B103685B691847704781809C
:100E80007047C1807047018170474181704770474A
:100E90007047704770477047C38810B4D21A838870
:100EA0005DF8044BC91A036812B25B6D09B21847AA
:100EB000806A704710B5034B0360044600F050FA97
:100EC000204610BD503C020810B50446FFF7F2FF63
:100ED0002046582120F0E0FD204610BD10B5044604
:100EE00000F048FA014B2360204610BD503C020838
:100EF000402913B536D00ED808292FD005D802299D
:100F00001CD0042928D0022319E0102928D0202938
:100F1000F9D1092313E0B1F5007F27D006D8802945
:100F200022D0B1F5807FEED1082308E0B1F5806FC3
:100F30001ED0B1F5006FE6D1072300E0062300F1D3
:100F40002C0401A92046ADF804300BF02EFE2046FB
:100F50000FF09AFC02B010BD0A23F0E70D23EEE774
:100F60000523ECE70C23EAE70423E8E70B23E6E795
:100F70000323E4E710B5044600F0F3F9204600210E
:100F8000BDE81040FFF7B4BF704770477047704727
:100F900010B5034B0360044600F0C0FA204610BDB4
:100FA000E43C020810B50446FFF7F2FF20464FF478
:100FB000D66120F071FD204610BD000010B504463A
:100FC00000F044FB014B2360204610BDE43C0208C6
:100FD0002DE9F04100F26C668C1E01F11E0504F152
:100FE0000808374634F8021F57F8040FFFF780FF50
:100FF0004445F7D1AC4206F11006F0D1BDE8F081CE
:1010000010B5044600F02DFA4FF40071D4F87006C4
:10101000FFF76EFF0021D4F87406FFF769FF802107
:10102000D4F87806FFF764FF1021D4F87C06FFF7A8
:101030005FFF04F5FC73C4F8803604F51473C4F83C
:10104000843604F52A73C4F8883604F54073C4F86E
:101050008C3604F55673C4F8903604F56C73C4F8F6
:10106000943604F58163C4F8983604F58C63C4F8AB
:101070009C3604F59763C4F8A03604F5A263C4F85F
:10108000A43604F5AD63C4F8A83604F5B863C4F813
:10109000AC3610BD704704387047704710B510214A
:1010A000044620F0F9FC204610BDA0F10400F5E74D
:1010B000C068FFF78DBFA0F10400FFF7F9BF000083
:1010C00010B500228260044AC16002F10804243293
:1010D0000460426010BD00BF103D020870477047B9
:1010E00004387047704710B51021044620F0D4FC36
:1010F000204610BDA0F10400F5E7000010B5002265
:101100008260044AC16002F1080420320460426037
:1011100010BD00BF403D02087047000010B5034BF2
:101120000360044600F04AFC204610BD743D0208EE
:1011300010B50446FFF7F2FF2046C42120F0ACFCB6
:10114000204610BD10B5044600F070FC014B236032
:10115000204610BD743D020800F031BC0022026040
:101160004262704770B50023A0B00546811C1C4642
:101170000846002230F8026F2EB920AE06EBC406F6
:1011800046E9203201340132042AF3D10133042B21
:1011900001F10801ECD1D4B122F006F990FBF4F38F
:1011A00003FB140020AB03EBC00050E9206422F0E5
:1011B000FBF80A2304EB860490FBF3F202FB130016
:1011C000092805EB440514BF02230423AB8020B09B
:1011D00070BD2DE9FF4700240546061DA0460127E6
:1011E00010220021684621F066FDB44601204FEA36
:1011F000840E3CF8023F93B16146034631F802ACDD
:10120000B1F800905A1EBAF1000F19D121F8029DD1
:101210004FF00108A1F802A01346002AEED10130D8
:101220000428E6D10134042C06F10806D8D1B8F11F
:10123000000F20D0284604B0BDE8F047FFF792BF6A
:10124000CA45ECD104A901EB820151F8109CB9F117
:10125000000FE4D17244734405EB420205EB4303F3
:101260004FEA4A0AA2F804A041F8107CA3F80490BF
:101270004FF00108D3E704B0BDE8F08770B50D4D1D
:101280002B889BB20646A3B10B4C23889BB283B13B
:101290002B882288612B01D8FFF79BFF706A0023FF
:1012A0002B80238028B10368311D9B68BDE8704006
:1012B000184770BDC41C0020C61C0020704700F5F4
:1012C00098730868496803C37047704700F026BDEB
:1012D00010B54FF4B071044620F0DEFB204610BD7F
:1012E00010B50446D0F85C01FFF7C8FF2046BDE802
:1012F00010400EF099B910B50446D0F8400158B12D
:101300000368DB68984738B1D4F8400103689B68EC
:1013100098470023C4F8403110BD000038B504469A
:101320000D4600F0BFFC034B2360C4F85C5120461F
:1013300038BD00BFA83D0208002070474FF6FF737C
:1013400083814FF0FF3303621368C36110607047FD
:1013500090F825201AB190F8242002B11860704747
:101360007047704710B55821044620F095FB204681
:1013700010BD0000F7B50646002502AF0122244B40
:101380008580C580058145818581C581058245822D
:10139000C0E90555C5610584458480F8245080F86E
:1013A0002520856246F82C3B4FF6FF7327F8043D55
:1013B000058645868586C586058745878587C587D1
:1013C000C0E910558564A0F84C50A0F84E5080F844
:1013D000505080F851200F4AC2620446A0F85230A3
:1013E00080F85430394630460BF0DFFB4FF03213B3
:1013F000A3603946022330462563ADF804300BF074
:10140000D4FB2046314608F08FFB204603B0F0BDE8
:10141000FC3D02088C54020870477047704730B496
:10142000C56844686A100346ED0704EB02009B6838
:1014300048BFA25830BC48BFD358184743682BB1A7
:1014400083682BB9C06800F00100704718467047E8
:101450000120704710B51021044620F01DFB2046E6
:1014600010BD10B504469830FFF784FD04F1F0007C
:10147000FFF780FD04F5A470FFF77CFD04F5D07044
:10148000FFF778FD04F5FC70FFF774FD04F51470A8
:10149000FFF770FD04F52A70FFF76CFD04F540704E
:1014A000FFF768FD04F55670FFF764FD04F56C70F6
:1014B000FFF760FD04F58160FFF75CFD04F58C60CB
:1014C000FFF758FD04F59760FFF754FD04F5A2609F
:1014D000FFF750FD04F5AD60FFF74CFD04F5B86073
:1014E000BDE81040FFF746BD00F5C360884208B56F
:1014F00005D10EF017F8BDE8084000F01FBC08BD8C
:1015000070B5036804461B6B154698472368294647
:1015100020465B6BBDE8704018470000224B10B5B9
:101520000446036000F5B860FFF7C4FC04F5AD6045
:10153000FFF7C0FC04F5A260FFF7BCFC04F5976060
:10154000FFF7B8FC04F58C60FFF7B4FC04F581608C
:10155000FFF7B0FC04F56C70FFF7ACFC04F55670B7
:10156000FFF7A8FC04F54070FFF7A4FC04F52A700F
:10157000FFF7A0FC04F51470FFF79CFC04F5FC7069
:10158000FFF798FC04F5D070FFF794FC04F5A47005
:10159000FFF790FC04F1F000FFF78CFC04F19800D9
:1015A000FFF788FC204610BD2C3F020810B504460A
:1015B000FFF7B4FF20464FF4CE6120F06DFA2046CD
:1015C00010BD0000F8B51A4B018F1B888B420646F0
:1015D00029D9184B1B682BB9174B184A18486C218E
:1015E00021F0E6FA13F81120164B1B6853F822502D
:1015F000154B186801F04CF82B6807469B6B284682
:1016000098472B6804469B6C3946284698472B68B8
:1016100014FB00F45B6A394628469847A4B220447C
:10162000A6F84600F8BD0023A0F84630FAE700BF50
:10163000482A0120442A0120A03E0208583F0208FF
:10164000E23E02084C2A0120502A01202DE9F04FE9
:10165000044693B027460FF061FF0025D24BE563A7
:1016600047F8403BD14B23640DF1480AFF2384F82F
:1016700066304FF6FF732AF8043D4FF0010204F183
:101680006C0984F86520A4F84450A4F84650A4F8E6
:101690004850A4F84A50A4F84C50A4F84E50A4F86E
:1016A0005050A4F85250C4E91555E565A4F86050AF
:1016B000A4F8625084F86450A566A4F87050A4F8A9
:1016C0007250A4F87450A4F87650A4F87850A4F896
:1016D0007A50A4F87C50A4F87E50C4E92055C4F890
:1016E0008850A4F88C5084F89120B14AE2665146A3
:1016F000A4F8923084F894304846A4F88E5084F8C8
:1017000090500BF052FA04F1980304F1F00B1846D4
:101710000F93FFF7E3FB5846FFF7E0FB04F5A473D4
:1017200018460193FFF7DAFB04F5D07318460293CD
:10173000FFF7D4FB04F5FC7318460393FFF7CEFBC9
:1017400004F5147318460493FFF7C8FB04F52A73D5
:1017500018460593FFF7C2FB04F54073184606933D
:10176000FFF7BCFB04F5567318460793FFF7B6FB6B
:1017700004F56C7318460893FFF7B0FB04F581631A
:1017800018460993FFF7AAFB04F58C6318460A93E1
:10179000FFF7A4FB04F5976318460B93FFF79EFB36
:1017A00004F5A26318460C93FFF798FB04F5AD63AC
:1017B00018460D93FFF792FB04F5B863184604F53D
:1017C000C3680E93FFF78AFB40460BF02FFB794A64
:1017D000C4F86026784AC4F8682629462A4638465E
:1017E000C4F86446C4F86C56FFF78AFE3846F02108
:1017F000FFF749FB38464FF4A071261DFFF745FB64
:101800004FF07F42A2663946304608F08DF92946EE
:1018100048465022FFF774FE0E2251464846ADF866
:1018200044200BF0C2F94946304608F07DF90F9B81
:10183000582218460821FFF763FE0F9B30461946D1
:1018400008F072F9582258464221FFF759FE5946CE
:10185000304608F069F9582201987C21FFF750FEC4
:101860000199304608F060F958220298B621FFF736
:1018700047FE0299304608F057F992220398082152
:10188000FFF73EFE0399304608F04EF99222049885
:101890004221FFF735FE0499304608F045F99222BF
:1018A00005987C21FFF72CFE0599304608F03CF99D
:1018B00092220698B621FFF723FE0699304608F0DB
:1018C00033F9CC2207980821FFF71AFE0799304612
:1018D00008F02AF9CC2208984221FFF711FE089956
:1018E000304608F021F9CC2209987C21FFF708FE48
:1018F0000999304608F018F9CC220A98B621FFF76A
:10190000FFFD0A99304608F00FF94FF483720B98E7
:101910000821FFF7F5FD0B99304608F005F94FF463
:1019200083720C984221FFF7EBFD0C99304608F0CA
:10193000FBF84FF483720D987C21FFF7E1FD0D99C0
:10194000304608F0F1F84FF483720E98B621FFF795
:10195000D7FD0E99304608F0E7F82A46294640465A
:10196000FFF7CEFD4FF00103524610A94046ADF8F7
:101970004430ADF840500BF052F84046A4F85056B1
:10198000FFF720FE4FF0FF33C4F85436C4F8583642
:1019900004F5CC633046C4F84036414608F0C4F83C
:1019A000204613B0BDE8F08F2C3F020824540208F3
:1019B0008C540208903E0208E914000870477047F2
:1019C000704730B4C56844686A100346ED0704EBFD
:1019D00002009B6848BFA25830BC48BFD358184784
:1019E00043682BB183682BB9C06800F001007047D1
:1019F000184670470120704710B51021044620F0AA
:101A00004BF8204610BD10B5C421044620F044F820
:101A1000204610BD6C30884208B505D10DF082FD1E
:101A2000BDE8084000F09AB908BD00002DE9F74371
:101A3000044626460FF072FD0025364BE56346F856
:101A4000403B354B236404F16C074FF00108FF2342
:101A500084F86630A4F84450A4F84650A4F84850DE
:101A6000A4F84A50A4F84C50A4F84E50A4F8505092
:101A7000A4F85250C4E91555E565A4F86050A4F8DF
:101A8000625084F8645084F86580A56638460BF08F
:101A9000CDF9224BC4E92D34214B2946C4E92F3519
:101AA0003046FFF7ECF929463046FFF7EAF93046B1
:101AB000F021FFF7E8F930464FF4A071FFF7E5F9A0
:101AC00004F104094FF07F43A3663146484608F00D
:101AD0002BF802AA4FF44203236722F8048D6946CB
:101AE0003846ADF800500AF09AFF3846A4F8A480B2
:101AF000FFF768FD4FF0FF33C4E92A3304F1B40364
:101B00004846C4F89430394608F00EF8204603B031
:101B1000BDE8F083B43F0208245402089C3F020849
:101B2000151A00087047704770474160704770474A
:101B300001230372704770477047704710B4C46840
:101B4000416862100346E40701EB02009B6848BF4E
:101B50008A585DF8044B48BFD358184743682BB1E7
:101B600083682BB9C06800F00100704718467047C1
:101B70000120704710B50C2104461FF08DFF204650
:101B800010BD10B54FF4AE7104461FF085FF20461E
:101B900010BD10B5102104461FF07EFF204610BD79
:101BA00010B5402104461FF077FF204610BD10B548
:101BB0000DF0B8FC0368BDE81040DB6B184770B54A
:101BC000044690F8390094F838300130C0B2984299
:101BD00084F8390005D901232372002384F83930B1
:101BE00070BDB4F93A2000210FF04AFE83B213F021
:101BF000010206D04FF6FF710028D8BF0A46981898
:101C000000B2238AC01AA08760680368DB6998471E
:101C100005464DB1A988A38F19442B6828461B6B34
:101C200009B29847AD69F4E760680368BDE87040A1
:101C30005B691847054B1B783BB143682BB11A68A9
:101C400000F10C01526E184610477047E929012037
:101C500070B5037A0546BBB940680368DB699847ED
:101C600004464CB1A1886B8FC91A236820461B6BB0
:101C700009B29847A469F4E76868036805F10C01A4
:101C80001B6EBDE87040184770BD0000044B1B6818
:101C900093F858200AB1D86C00B99868704700BF13
:101CA000EC290120F8B5044617460E460DF0FCFC61
:101CB000164BC4F854711C60154B2360154BC4F8C7
:101CC0004431154BC4F8586100251868C4F83C51DC
:101CD000C4F84051C4F84851C4F84C51C4F85051AC
:101CE000036801219B689847284600F097FCFFF79E
:101CF000CDFF17F0AAFDFFF7C9FF17F021FEFFF790
:101D0000C5FF17F029FE2046F8BD00BF402A01207C
:101D100000400208E83F0208EC290120064BC0F809
:101D20004C310023C0F8503100F5A273C0F84801CF
:101D3000C0F84031704700BFBD1E0008064BC0F818
:101D40004C310023C0F8503100F5A273C0F84801AF
:101D5000C0F84031704700BF91200008064BC0F822
:101D60004C310023C0F8503100F5A273C0F848018F
:101D7000C0F84031704700BFF12100082DE9F0475D
:101D800007469068DDF820A0994603681B6A8846DC
:101D900015469847C32805D8424B434AA3214348D8
:101DA00020F006FF686803681B6A98470F2803D86D
:101DB0003F4B3D4AA421F2E7E86803681B6A984755
:101DC0000B2803D83B4B384AA521E8E70DF0AAFBC6
:101DD00004300DF0CCFBD9F8000010B10368DB68CB
:101DE0009847D9F8000010B103681B689847386815
:101DF00010B103685B699847D8F8000010B1036818
:101E00005B689847386810B103681B689847D8F832
:101E1000000010B103689B689847E86803680021D8
:101E20005B6A9847044620B1002343600372224B4B
:101E30000360A868036800215B6A9847064608B1FA
:101E4000FFF780F96868036800215B6A98470546D8
:101E500010B13146FFF752F9C9F80040C8F80050F8
:101E60003E60E5B12B1DCAF82430C5F808A03368E0
:101E7000F5633046DB6898472B6828461B6898470F
:101E8000214630460FF0F6FC236820461B69984730
:101E9000236820465B6998472846BDE8F0872B46B3
:101EA000E1E700BF94400208A9420208224102086B
:101EB00063410208064202085440020807B5D0F800
:101EC00058310093D0F85421044B00F59E7104481A
:101ED000FFF754FF03B05DF804FB00BF342A012074
:101EE000302A01202DE9F04105460026164B4660B8
:101EF000067245F80C3B044628460F460AF030FDB2
:101F0000124B84F838701B7884F83960A68723B99F
:101F1000012323722046BDE8F0810D4B0D4FB3F92C
:101F20000080E3682661B7F900109B6B284698474C
:101F3000E3684146DB6B2846984728460AF08BFC4D
:101F40003B885B426387E5E778400208E929012086
:101F5000E0290120DE2901202DE9F047074690689D
:101F6000DDF820A0994603681B6A88461446984706
:101F7000C32805D8414B424AA321424820F018FE0D
:101F8000606803681B6A98470F2803D83E4B3C4A99
:101F9000A421F2E7E06803681B6A98473F2803D84A
:101FA0003A4B374AA521E8E70DF0BCFA04300DF0B2
:101FB000DEFAD9F8000010B10368DB689847D9F859
:101FC000000010B103681B689847386810B10368B7
:101FD0005B699847D8F8000010B103685B689847C0
:101FE000386810B103681B689847D8F8000010B132
:101FF00003689B689847E068036800215B6A98471C
:10200000054610B11421FFF76DFFA0680368002199
:102010005B6A9847064608B1FFF794F86068036862
:1020200000215B6A9847044610B13146FFF766F815
:10203000C9F80050C8F800403E60E4B1231DCAF85A
:102040002430C4F808A03368F4633046DB6898474E
:10205000236820461B689847294630460FF00AFC43
:102060002B6828461B6998472B6828465B69984768
:102070002046BDE8F0872346E1E700BF9440020810
:10208000AD430208224102086341020806420208E9
:1020900007B5D0F858310093D0F85421044B00F51F
:1020A0009E710448FFF758FF03B05DF804FB00BFC2
:1020B000342A0120302A01202DE9F0470746906894
:1020C000DDF820A0994603681B6A884614469847A5
:1020D000B0F5D66F05D2414B414AA321414820F0CB
:1020E00067FD606803681B6A98470F2803D83E4B5A
:1020F0003B4AA421F2E7E06803681B6A98473F283F
:1021000003D83A4B364AA521E8E70DF00BFA043024
:102110000DF02DFAD9F8000010B10368DB6898477C
:10212000D9F8000010B103681B689847386810B1EF
:1021300003685B699847D8F8000010B103685B68D2
:102140009847386810B103681B689847D8F80000B2
:1021500010B103689B689847E068036800215B6AD8
:102160009847054610B11421FFF7BCFEA06803682C
:1021700000215B6A9847064608B1FEF71FFF6068BA
:10218000036800215B6A9847044610B13146FEF7A8
:1021900097FFC9F80050C8F800403E60E4B1231D25
:1021A000CAF82430C4F808A03368F4633046DB680A
:1021B0009847236820461B689847294630460FF009
:1021C00059FB2B6828461B6998472B6828465B6992
:1021D00098472046BDE8F0872346E1E7944002088F
:1021E000CC44020822410208634102080642020868
:1021F00007B5D0F858310093D0F85421044B00F5BE
:102200009E710448FFF758FF03B05DF804FB00BF60
:10221000342A0120302A012013B5002249B102AB33
:10222000019203F8052D0268946801AAA04702B044
:1022300010BD0846FBE7C0897047008A7047C08818
:10224000704780887047807A00F07F007047807AFE
:10225000C0097047002070479FED010A704700BF1A
:1022600000000000406A7047806A7047704710B5F0
:102270008A880B884C88C169D20A43EA044351F822
:102280002200184410BD10B5C2B1137BB3B1547B0A
:10229000D27A240204F4E0641443026A98B202EB96
:1022A000840213888B4202D192F9020010BD05D836
:1022B000013880B204320028F3D1F7E70020F5E7B7
:1022C00010B52C2104461FF0E7FB204610BD00008E
:1022D00030B58BB00446BDF860500895BDF85C5031
:1022E00007959DF8505006959DF84C5005959DF822
:1022F000485004959DF8445003959DF84050029530
:102300009DF83C500195BDF8385000950EF00CFF3B
:10231000064B2360159BE361169B2362199B636246
:102320001A9BA36220460BB030BD00BFF4450208E3
:1023300030B5174D2C78BFF35B8F14F001048FB0CC
:1023400022D128461FF07FFBF0B13F230993114BA8
:102350000893114B11490A940122CDE90643042345
:10236000CDE903320A230093CDE90B440594CDE96E
:1023700001440B48FFF7ACFF28461FF070FB094AE9
:10238000094907481FF083FB05480FB030BD00BF67
:102390009C030020906302088C630208A862020874
:1023A000A0030020000000206D220008704710B537
:1023B000082104461FF070FB204610BD10B5002414
:1023C00004600C6014601C6010BD000030B5174D37
:1023D0002C78BFF35B8F14F001048FB022D1284614
:1023E0001FF031FBF0B13F230993114B0893114BC0
:1023F00011490A940122CDE906430423CDE90332B1
:1024000028230093CDE90B440594CDE901440B4802
:10241000FFF75EFF28461FF022FB094A09490748DB
:102420001FF035FB05480FB030BD00BFCC030020C6
:102430008863020898630208D0620208D003002073
:10244000000000206D22000830B5174D2C78BFF336
:102450005B8F14F001048FB023D128461FF0F3FAEC
:10246000F8B13F230993114B0893114B11490A947A
:10247000CDE9064301220423CDE9033214230C22C3
:102480000093CDE90B440594CDE901440A48FFF7D8
:102490001FFF28461FF0E3FA084A094906481FF0C3
:1024A000F6FA05480FB030BDFC0300209463020823
:1024B0009C630208E0620208000400200000002083
:1024C0006D220008704710B5042104461FF0E4FA9D
:1024D000204610BD012908B508D003D3022909D030
:1024E000002002E000F012F8006808BD00F00EF8CD
:1024F0004068FAE700F00AF88068F6E7004870479D
:10250000784602080F207047022070470048704745
:102510002C04002010B5FFF797FF044C2060FFF754
:1025200055FF6060FFF704FFA06010BD2C04002081
:1025300000207047002070470EB403B503AB0021A4
:1025400053F8042B01930EF075F802B05DF804EB1C
:1025500003B070470CB407B504AB53F8042B0193D8
:102560000EF068F803B05DF804EB02B070470000AD
:1025700010B5436C044673B3038F2BB9184B194A3B
:10258000C521194820F014FBC38E00EB43035B8C7C
:102590000BB30FF0E2FE238F012B03D8134B144A29
:1025A000CB21EEE7E28E531C9BB2092B194688BF64
:1025B000A3F10A0104EB410140F63F10498C81422E
:1025C00009D10A2B04EB420228BF002304EB43038A
:1025D000508C588451842046BDE810400FF0C0BD97
:1025E000A4470208D1480208AD470208F147020893
:1025F000FF4702080FF07BBD10B586B002AC84E83F
:1026000006001A460AAB05930193099B00932146E5
:10261000089B0CF025FB06B010BD000038B5D8B9FA
:10262000114B12481B681249BBB11A689C681A44C6
:1026300002605A681A440A601C446CB10D4B0022B7
:102640001A80FFF763FF0546FFF75EFF0A4B1C6029
:102650000A4B1D600A4B188038BD0A4B03600A4BB9
:102660000B600A4B1C68E8E7380400203C0400209B
:102670004004002044040020442A01204C2A012068
:10268000482A012070330908603309086C330908AF
:10269000044B1B6853F82100034B1B6803EB4000FD
:1026A000704700BF400400203C040020012380F854
:1026B000781080F87930704770470020704700002C
:1026C0004164034B003118BF01211970704700BFEE
:1026D000E9290120704700207047836B0BB1084641
:1026E000184770474FF6FF707047406803689B6952
:1026F0001847704770477047704700207047B1F91E
:102700000430838001207047704780F8261070479E
:1027100090F82600704710B50022B1F90840B1F9D1
:102720000A10028042808480C18010BD0022028095
:1027300042808280C28070470177704780ED080A2E
:10274000704780F82410704780F8251070470120EA
:102750007047983070478C30704784307047000065
:10276000034B902283F85A2383F85823704700BF05
:1027700000E100E0094A0A49D3680A48C3F30A03A2
:10278000013B9BB20B801169C1F30A010139018041
:102790001364536B43F001035363704700680140B7
:1027A0004E0400204C040020014B986A704700BF83
:1027B00084680140024B0122996243F8602C704703
:1027C000846801407047704710B52C2104461FF003
:1027D00063F9204610BD10B5BC2104461FF05CF91A
:1027E000204610BD10B531B90A4B0B4A0B4840F2D8
:1027F000FF2120F0DDF9C0E90F120032084918BFAF
:1028000001220A7002681946D2F89020BDE81040F3
:10281000104700BF7D4B0208704C0208B54B020800
:10282000E829012008B5094B1B888B4203D8084BC7
:102830001B88934205D9074B074A0848A32120F07B
:10284000B7F9074B1980074B1A8008BDDE29012014
:10285000E02901201A4B02082D4C0208B54B020852
:10286000E4290120E629012070B5044607F047FC61
:1028700023689D6E0CF056FE01462046A84723684B
:10288000054AD3F88C502046AC460023A2F51631F9
:10289000BDE87040604700BF005802D007F016BC8A
:1028A00007F020BC07F0DCBB07F04BBD10B50446B9
:1028B00008F0A2F923682046D3F8BC30BDE81040E8
:1028C000184790F87A301BB1406803681B681847B6
:1028D0001846704710B590F8784090F834100C4BBB
:1028E0008C421A7809D03AB90A4A0B4914880888E8
:1028F00010800C8001221A7010BD002AFCD0054AFD
:1029000005491488088810800C800022F3E700BF76
:10291000E2290120DE290120E0290120034B4FF0AC
:1029200080629A604FF080729A60704700E100E028
:10293000084B4FF08062C3F88820BFF34F8FBFF37E
:102940006F8F4FF08072C3F88820BFF34F8FBFF3B3
:102950006F8F704700E100E070B500238380114D58
:10296000114B03602A6892F85810064609B1D06CE2
:1029700000B990680368DB6A98472B68B0FA80F466
:10298000D86C640928B10368DB6A9847002808BF3F
:1029900001242CB9054B064A06482C2120F008F9E1
:1029A000304670BDEC29012084490208604A0208C3
:1029B000F44B0208BE4A020870B5284E3578BFF3C2
:1029C0005B8F15F0010547D130461FF03CF8002819
:1029D00042D0234C234B256104F13400C4E9003577
:1029E000C4E90255E58425856585A5850EF0DFFAE5
:1029F00004F1580009F00CFF1B4BA36520461B4B4C
:102A000040F8843BFFF7A8FF194BC4F88430243307
:102A1000C4F88C304FF4C803C4E928350023C4F847
:102A2000AC30C4F8B030C4F8B430C4F8B830304674
:102A3000104BC4F89050A4F89C5084F8A85084F827
:102A4000A95084F8AA50C4F898301FF008F80A4A30
:102A50000A4920461FF01BF8014870BD48040020B9
:102A600050040020F0520208A44902081C4A02083F
:102A7000A45202088452020800000020C527000862
:102A800038B5184C23685BB3174B184A1B6C118878
:102A90008B4216D1164B198804F0A4FA236893F8D8
:102AA0006A200025013283F86A2083F87C5000F008
:102AB00083FA206808F0A0F82846BDE8384000F006
:102AC000BBBC04F08FFA2468236820461B6A984731
:102AD000012384F87C300020BDE8384000F0D6BCEB
:102AE00038BD00BFEC290120006801404E040020E1
:102AF0004C04002003685B6C184701207047036892
:102B00009B6A1847FEE7000082B0002301930E4B3A
:102B10001A6B42F400021A631A6B02F4000201926B
:102B2000019A1A6942F400021A611A6922F4000239
:102B30001A61064B064A1A61064A5A61064B4FF063
:102B400080629A6002B0704700380240DC36012093
:102B5000652B0008052B000800E100E040F2EF3093
:102B600070470000024B1B68586803685B69184790
:102B7000EC29012008B50B280BD8DFE800F012067D
:102B8000100A0A0A0A0808080808012008BD0520DA
:102B9000FCE7054B054A06486F2120F009F80020A4
:102BA000F4E70220F2E700BFD84C0208AA4D020861
:102BB000F34C020808B50A2809D8DFE800F010062F
:102BC0000E080808080606060600012008BD054B89
:102BD000054A064890211FF0EBFF0020F6E702208F
:102BE000F4E700BFD84C0208F44D0208F34C020889
:102BF000F8B50C46487FFFF7BDFFA77F054638466E
:102C0000FFF7B8FF06463846FFF7D4FFA38A628B6A
:102C1000D21A494B1A64A18A628B521A9A61A18A0C
:102C2000228B521A1A615863A18AE28A42EA01424F
:102C30005A642269DA636268DA602268402A70D0D6
:102C400010D8042A3BD0202A6BD0237F45EA0365A5
:102C5000394B45F40035DD61617FA27F914267D039
:102C6000364A4BE0B2F5807F1BD0B2F5007F23D00F
:102C7000802AEAD1A068021DDA62227F45EA026555
:102C800045F40035DD615E6222695A610278EAB17D
:102C9000012A35D02A4B2B4A2B484FF48D711FF057
:102CA00087FF217F294A42EA0162DA61E2681A62FB
:102CB0005E6222695A6120E0217F254AF3E7227F84
:102CC00045EA026545F40035DD61F1E7D9694288DE
:102CD000501E21F47F4222F0100242EA0022DA6103
:102CE0000121154BDA6942F02002DA61DA699206B5
:102CF000FCD410229A600029B2D0164A1A60F8BD9E
:102D0000DA694088217F22F47F4222F010020138E4
:102D100042F01002FF3942EA002218BF0121DA61B5
:102D2000DFE7237F45EA036545F40035024BCBE737
:102D300042F20132E2E700BF00B00240012301008D
:102D4000BE4C02086C4D0208F34C02080A00020057
:102D5000090002000123020010B5887F0C46FFF72E
:102D600029FF1C4B5863A18AE28A42EA01425A6455
:102D70002269DA63628BA18A521A1A642268082ACD
:102D800016D1A18A628B521A9A61A18A628B521A59
:102D90001A615862217F104A42EA0162DA61E268F0
:102DA0001A6222695A612269DA600C4A1A6010BDFF
:102DB0000022D8611A61E1680A0A480902F47842DF
:102DC00000F4FC600243C1F3C4010A439A63044A5D
:102DD000ECE700BF00B0024009000100012302003F
:102DE00001230300054B0360054B4FF08062C3F8DD
:102DF0008820BFF34F8FBFF36F8F7047244D0208B9
:102E000000E100E010B50446FFF7ECFF20464FF468
:102E10005A611EF041FE204610BD000070B5054607
:102E20002C460A4B0C30002668602E726E7244F8F5
:102E3000203B6022214608F035F805F55A63E6602C
:102E40002434A342FBD1284670BD00BF244D0208A4
:102E5000034B1A68D207FCD423229A60704700BF44
:102E600000B002407047000030B50F4C2568ED07F8
:102E7000FCD423250904A56041F001010225FF2BA4
:102E800065636164E0630AD00849656241EA0363EF
:102E9000E361074B22626061E060236030BDE56161
:102EA000039BA363034BF8E700B002400900010055
:102EB000010002000100030030B50E4C2568ED074B
:102EC000FCD423251204A56042F001020225FF2B49
:102ED00065636264E063E16008D01B0643F002139F
:102EE000E361054B65626061236030BD034BE361C4
:102EF0000123F9E700B0024001000200020002FFD6
:102F000030B50B4C2568ED07FCD4232512041B06B5
:102F1000A56043F40033022542F001026563626458
:102F2000E063E160E361034B65626061236030BD93
:102F300000B0024001000200012108B5002208464D
:102F400005F0FDFE0A4B186028B90A4B0A4A2821F1
:102F50000A481FF02DFE00220421012005F090FFF9
:102F6000074B186018B9074B034A2C21F0E708BD3E
:102F7000100500203F4E0208F34E0208884E02085A
:102F80000C050020B14E0208024B4FF0FF311868CB
:102F900005F020BF10050020014B186805F046BF62
:102FA00010050020024B0021186805F013BF00BF78
:102FB00010050020FFF7F0BF034804490068002314
:102FC0001A4605F099BF00BF0C0500200400002040
:102FD00013B5084C00231A4601A9206805F0BEFF6E
:102FE0004FF0FF33002201A9206805F0B7FF02B0BF
:102FF00010BD00BF0C050020704770477047704738
:10300000012070474020704700EB81100830704766
:1030100000EB811008307047012070474FF4D660F4
:1030200070474FF4D66303FB0100083070474FF43C
:10303000D66303FB01000830704701207047102061
:10304000704700EB01100830704700EB01100830AA
:1030500070470846FEF762BE10B5034B0360044696
:1030600006F04EFD204610BD944F020810B50446F0
:10307000FFF7F2FF204648211EF00EFD204610BD4E
:1030800010B5034B0360044606F03AFD204610BD20
:10309000604F020810B50446FFF7F2FF20464FF4D8
:1030A000D7611EF0F9FC204610BD000010B5034B9F
:1030B0000360044606F024FD204610BD2C4F020894
:1030C00010B50446FFF7F2FF204618211EF0E4FC7D
:1030D000204610BD10B5084B0360044600F2E460C2
:1030E000FFF7BAFF04F12C00FFF7CAFF04F1140048
:1030F000FFF7DCFF204610BDC84F020810B504469C
:10310000FFF7E8FF204640F6B4011EF0C5FC20465C
:1031100010BD00002DE9F341FFF7F0F90546FFF778
:10312000F1F90024014623462846224600940FF078
:10313000E7FB284B284A1A602046FFF76FFA274B17
:10314000274A284D9A6028480FF042FB2B78BFF39E
:103150005B8FDB0738D428461EF075FC002833D07F
:10316000224C234B236004F2547604F1140004F142
:103170002C0804F2E4676060C4F80880E760266108
:1031800006F0C0FC1B4B6361404606F0BBFC1A4BCB
:10319000E362384606F0B6FC184BC4F8E43604F295
:1031A0002C70FDF7DBFF224604F22C713046FEF74F
:1031B000B5F83046FEF7B2FD28461EF050FC104A26
:1031C000104920461EF063FC0F4802B0BDE8F041F4
:1031D00000F0FAB8502A0120101C0020141C002016
:1031E000CC0D002014050020080000201805002048
:1031F000C84F02082C4F0208604F0208944F020883
:1032000000000020D53000088C1B00207047000013
:10321000014800F0E7B800BF8C1B002010B5042166
:1032200004461EF039FC204610BD10B58C21044622
:103230001EF032FC204610BD10B51C2104461EF0C5
:103240002BFC204610BD10B5842104461EF024FC42
:10325000204610BD2DE9F041454C464D464F474BA9
:1032600047492B60224628461EF011FC454EDFF8E8
:1032700054813846FFF7D2FD2246434938461EF0B6
:1032800006FC304614F038FC2246404930461EF019
:10329000FEFB40460DF0A6FB22463D4940461EF08F
:1032A000F6FB22463B493C481EF0F1FB3B483C49BB
:1032B0008166002301220421C0E90176C560C0E9CE
:1032C0000433C0E90633C0E90833038580F82A30A7
:1032D000C3620386C0E90E33C0E9103380F848307A
:1032E00080F8492080F84A3080F84B30C0E9133329
:1032F000436580F85830C0E91733436680F86C3076
:1033000080F86D3080F86E3080F86F3080F87D1076
:103310005021A0F87E101A21A0F880101421A0F8E6
:1033200082102049204D0860F02129801F4D80F82F
:10333000703029801E4D43674FF4A07129801D4DC8
:1033400080F8783029801C4980F879300B7080F83B
:103350007C301A4B80F87A2080F87B2080F834206B
:10336000036022461649BDE8F0411EF090BB00BF45
:1033700000000020E80D0020EC0D0020C8500208DD
:10338000F92F0008141C0020E52D0008FB2F000871
:10339000FD2F0008C5240008080000208C1B002019
:1033A00001000001EC290120DE290120E42901208F
:1033B000E0290120E6290120E2290120DC4F020852
:1033C000FF2F0008CC0D002010B50446FFF74CFA83
:1033D00023680349D3F890302046BDE810401847D1
:1033E00000B004D008B503680446D3F88430984789
:1033F00023682046DB6F9847FFF7EAFD23682046E5
:103400005B6F9847292000F03FFDFFF7E1FD23683F
:1034100020465B6F9847F8E7FFF7C6B9FFF7CAB9D0
:10342000FFF740BAFFF79CB9FFF778BAFFF780BA09
:10343000FFF7A0B906F00EBE032821D8DFE800F0A0
:10344000020B12190F4B1A68B2FA82F252090421C8
:103450000D4802F03BBD0B4B5A68B2FA82F252099A
:103460000821F5E7074B9A68B2FA82F25209102157
:10347000EEE7044BDA68B2FA82F252092021E7E75C
:10348000704700BFA01C002000100240032821D874
:10349000DFE800F0020B12190F4B1A68003218BF58
:1034A000012204210D4802F011BD0B4B5A68003275
:1034B00018BF01220821F5E7074B9A68003218BFB0
:1034C00001221021EEE7044BDA68003218BF012216
:1034D0002021E7E7704700BFA01C00200010024039
:1034E00003280DD8DFE800F00206080A0421054889
:1034F00002F0F1BC0821FAE71021F8E72021F6E7F5
:10350000704700BF0010024008B5032811D8DFE85B
:1035100000F0020A0C0E0421074802F0D1FC431E01
:103520005842584108BD0821F6E71021F4E7202150
:10353000F2E70020F3E700BF0010024070B5084D2D
:1035400000240126E0B2FFF7DFFF28B155F8243050
:10355000012B18BF45F824600134052CF2D170BD51
:10356000A01C002038B50C4B0C4C18800C4B822052
:1035700019806368984740F6110398420AD1094DB3
:1035800023682C60822098472B688220DB6898474C
:10359000002038BD0120FCE7B01C002024000020E2
:1035A000B21C0020B41C00204FF4A071F020FFF7E3
:1035B000D9BF0000F7B5394D2B6804461B6982203E
:1035C000984780B2208000285AD02B680DF106025F
:1035D0005B6901A982209847314B1B78002B57D09B
:1035E000BDF8062040F674639A424BD9ADF8063018
:1035F000BDF806209B1AADF80630BDF806200B2357
:10360000B2FBF3F232B1274B1B8893423CBF03F16C
:10361000FF3292B2BDF8043040F6B8318B4295BF0C
:10362000C3F57163C3F56D630E330833ADF8043031
:10363000BDF804100F23B1FBF3F131B11A4B1B8815
:103640008B423CBF03F1FF3189B2184E184D3068F0
:103650002F6883B2814288BFCB1AB8B298BF5B1A79
:10366000BA428CBF101A801A9BB280B20344052B59
:10367000C8BF31603368C8BF2A6063802B68A380ED
:1036800003B0F0BDB32A9CBFB422ADF80620AFE76B
:10369000BDF80630A3F5B473ADE700BFB41C00203D
:1036A000C81C0020B21C0020B01C0020B81C002048
:1036B000BC1C002037B568460D461446FFF77AFF5C
:1036C000BDF8000030B1BDF802302B60BDF8043009
:1036D0002360012003B030BD054BD3F8882042F4AD
:1036E0007002C3F888204FF000629A60704700BFF4
:1036F00000ED00E070B588B000230293204B1A6CF7
:1037000042F010021A641B6C03F010030293064689
:1037100001A903A8029B01F031FA069B4BBB01F003
:103720000DFA184C184B236040F2E733E360174B57
:10373000B0FBF3F001380023606020462361A360F2
:10374000A36101F07BFB054680B9204601F036FA03
:10375000054658B9362002F009F90F2E0DD82A4631
:103760003146362002F0CEF8094B1E60284608B0DC
:1037700070BD01F0E3F94000D3E70125F6E700BF93
:1037800000380240543401200010004040420F0035
:103790001C00002007B5064B02A91B6821F8020D8A
:1037A0000122044802F0C9FC03B05DF804FB00BF2D
:1037B00014000020F434012070B5104D104C284640
:1037C00002F0CCFF0A21284603F04EF8284603F009
:1037D0002FF986B2204602F0C1FF0A21204603F0ED
:1037E00043F8204603F024F9064B1E80064B80B2B6
:1037F0001880642005F097FAE1E700BF4836012001
:103800004C350120C41C0020C61C002030B595B0EA
:103810003022002108A81FF04EFA1422002103A82C
:103820001FF049FA00241E4B01941A6C42F080529A
:103830001A641B6C03F080530193019B194B029493
:103840001A6842F440421A601B6803F44043029332
:103850000122029B4FF48033CDE9082302254FF467
:1038600080030821CDE90E534FF4B473CDE9101352
:1038700008A804231393129500F0E8FE00F054FE0C
:103880000F23CDE903354FF4A0504FF48053CDE919
:103890000603052103A8059401F0B2F815B030BD68
:1038A00000380240007000402DE980489DB003F0D0
:1038B000B9FBFFF7ABFF142200210FA81FF0FBF9A3
:1038C0000024C84B02941A6BC748C84D42F010023E
:1038D0001A631A6B02F010020292029A03941A6B96
:1038E00042F020021A631A6B02F020020392039A3C
:1038F00004941A6B42F080021A631A6B02F0800281
:103900000492049A05941A6B42F004021A631A6B2B
:1039100002F004020592059A06941A6B42F0010225
:103920001A631A6B02F001020692069A07941A6B48
:1039300042F002021A631A6B02F002020792079A1F
:1039400008941A6B42F040021A631A6B02F04002AC
:103950000892089A09941A6B42F008021A631B6BCA
:1039600003F00803224609933C21099B02F0AEFABA
:10397000012202219E4802F0A9FA224604219C4815
:1039800002F0A4FA22464FF440519A4802F09EFAFF
:1039900001263C23CDE90F360FA903239248129349
:1039A0000227119402F09EF90FA99148CDE90F76F4
:1039B000CDE9114402F096F904230FA98C48CDE912
:1039C0000F36CDE9114702F08DF90FA94FF440539E
:1039D0008848CDE90F36CDE9114702F083F98648D2
:1039E000864B036003F08CFCDFF838C2844B2C62FA
:1039F000C5E900C328464FF48043C5E90434C5E94E
:103A00000244C5E9064401F039FC1021284601F0C2
:103A100020FF2146284601F03EFF7A4DDFF808E2FC
:103A2000AC624FF48273C5E900E34FF400781823C9
:103A3000C5E9068328460A23C5E90244C5E90444CA
:103A4000C5E90844EB6202F019FB8F232246394690
:103A500067488DF82C308DF83C4002F037FA32463A
:103A60004FF47A730BA9284602F067FB4FF47A7380
:103A700032460FA9284602F012FD324639465C480C
:103A8000614D02F023FA9DF83C30D32B04BF5F4B0D
:103A90001E705F4B0126C5E900364FF01008402329
:103AA0000024C5E904834FF4C073C5E906344FF41C
:103AB0000063C5E908344FF400534FF0020A0427AD
:103AC0004FF0030BAB620FA907232846CDE90FA3E4
:103AD000CDE911734FF00809CDE913BAC5E90247E2
:103AE000CDF854A000F05CFD4FF6FF720BA92846FC
:103AF000CDE90C960B960A940E9400F071FD3046B9
:103B000003F0BCFA4FF6FF720BA92846CDE90BA9CA
:103B1000CDE90D6400F064FD4FF6FF720BA9284655
:103B2000CDE90BB9CDE90D7400F05AFD4FF40C73DB
:103B30000A930A9B0E934FF6FF720BA92846CDE914
:103B40000B790D9600F04CFD40F26A51284600F0CA
:103B500065FD342221460FA81FF0ADF82D4D2E4BE8
:103B60002C61C5E900340923C5E905361D23C5E9E3
:103B7000073B40F20D1240F24313C5E9092340F21E
:103B8000171140F24713C5E90B13C5E90244AC868F
:103B900085F83640284603F03BF9FF21F022CDE9B5
:103BA00014144FF005094FF480614FF4A073CDE970
:103BB0001024CDE91619CDE918420FA9224628464E
:103BC000CDE9123A154D1A930F94ADF86C408DF86B
:103BD0006E4003F0DEF9124B2B601B6898472B6890
:103BE00024E000BF0038024000100240A034012051
:103BF00000080240000C02409835012000300240CD
:103C0000A0860100F43401201C370120C81C0020CC
:103C1000400100A0A035012000680140C01C002028
:103C20004C000020005C0040005001404A4DDB6821
:103C300098474A4BC5E90A4AC5E90C442846C5E9F4
:103C40000034C5E902A401F043FF3146284601F0E3
:103C5000FFFF424621460FA81FF02DF8404D414876
:103C6000DFF830A12E614FF48033C5E900034FF037
:103C7000007B28460193EE616E61C5F808B02C7692
:103C800085F82040EC62C5F828A0EC6085F830404B
:103C900002F0ACFC0D220FA92846CDE90F261194A5
:103CA00002F05AFF42462146DFF8EC800FA81FF0D1
:103CB00002F8019B2C4AC8F800204046C8E9013BA5
:103CC000C8F81060C8F81C60C8F8146088F818407C
:103CD00088F82040C8E90AA4C8F80C4088F83040A9
:103CE00002F084FC0FA94046CDE90F9611941F4EB7
:103CF00002F032FF1E484FF4E133C0E900630C23A9
:103D0000C0E90534C0E902440461C46101F070FDFA
:103D100003F007FB03F004FB284602F0FBFD4046DE
:103D200002F0F8FD04F08AFF124A3946202005F01F
:103D3000A7F8114B114A18602146114804F0AAFF58
:103D4000104B114A18602146104804F0A3FF104B95
:103D5000186004F085FFFEE7DC36012000B0024069
:103D600048360120002001400021014000100140A0
:103D70009036012014510208943501202C5102087C
:103D8000B93700089C340120F05002083173000854
:103D9000D83601200100000F4C35012070477047D4
:103DA00010B586B006AC074B04F8012D1B680293D2
:103DB00001230A46CDE900430146034801F00EFB0A
:103DC00006B010BD10000020A03401207FB506AA67
:103DD000002302F8013D084B1B6802930123CDE943
:103DE00000230A460146054801F08CFB9DF81700A8
:103DF00007B05DF804FB00BF10000020A0340120D4
:103E00001FB5084C24680092CDE901340A4601230D
:103E10000146054801F076FB003018BF012004B0D0
:103E200010BD00BF10000020A034012003F026B90F
:103E300010B5064C00222046042102F047F8204627
:103E400001220421BDE8104002F040B80008024001
:103E500038B50B4C054601224FF40051094802F0D9
:103E600035F800220421204602F030F82846FFF7FA
:103E700091FC204601220421BDE8384002F026B81A
:103E800000080240000C024038B50B4C05460022E9
:103E90004FF40051094802F019F80022042120468D
:103EA00002F014F82846FFF775FC20460122042191
:103EB000BDE8384002F00AB800080240000C024099
:103EC000F7B5144C144D07460E4620460022042137
:103ED00001F0FCFF00224FF40051284601F0F6FFEC
:103EE0003846FFF757FC0D4B0D481B68324601A9B9
:103EF00002F0D5FA284601224FF40051019E01F04C
:103F0000E5FF20460122042101F0E0FF304603B026
:103F1000F0BD00BF00080240000C02401400002069
:103F2000F434012003F0AAB80268034B9A4201D18D
:103F300003F092B8704700BF001000407047704710
:103F4000FEE7FEE7FEE7FEE77047000008B504481D
:103F500002F074FD0348BDE8084002F06FBD00BFE9
:103F6000483601204C350120014800F065BE00BFF5
:103F700054340120014802F0ABBF00BFA03501203E
:103F8000014801F0D5BD00BFDC36012082B00E4BE8
:103F900000220092596C41F480415964596C01F43B
:103FA0008041009100990192196C41F0805119648F
:103FB0001B6C03F080530193019B0F216FF00100F4
:103FC00002B001F09FBC00BF0038024010B51422BF
:103FD0008AB0044600210DEB02001EF06CFE23683F
:103FE000254A934227D1254B2548002401945A6C39
:103FF00042F480725A645A6C02F480720192019AFF
:1040000002941A6B42F004021A631B6B03F0040360
:1040100002930821029B0323CDE9051305A901F0B2
:1040200061FE12202246052101F06CFC122001F0F5
:104030009DFC0AB010BD134A9342FAD10F4B1248AF
:10404000002403945A6C42F400725A645A6C02F4CD
:1040500000720392039A04941A6B42F001021A63ED
:104060001B6B03F001030493049B20220323CDE97F
:10407000052305A9D3E700BF002001400038024016
:104080000008024000210140000002400268094B84
:104090009A4282B00BD100230193074B1A6B42F472
:1040A00080521A631B6B03F480530193019B02B08F
:1040B000704700BF003002400038024007B50F4B88
:1040C00002689A4216D10022A3F5F0430192196BBF
:1040D00041F4000119631B6B03F4000301930521F4
:1040E0005A20019B01F00EFC5A2003B05DF804EB4E
:1040F00001F03CBC03B05DF804FB00BF00B002401F
:104100002DE9F043044689B01422002103A81EF0D3
:10411000D2FD2268244B9A4243D1244C24480025E6
:104120000095236B43F004032363236B03F0040324
:104130000093009B0195236B43F001032363236BE2
:1041400003F001030193019B4FF012094FF4007338
:104150004FF001080327042603A9CDE90339CDE96F
:104160000587079601F0BEFD4FF4807303A911483F
:104170000796CDE90339CDE9058701F0B3FD029536
:10418000236C43F400032364236C03F400030293C1
:10419000029B236A43F400032362236A23F400038F
:1041A000236209B0BDE8F083005C004000380240A3
:1041B0000008024000000240F0B599B00446142205
:1041C000002107A81EF077FD30220DEB0200002130
:1041D0001EF071FD22685E4B9A4240F0B7800823C2
:1041E0000C93C0231093042312930CA84FF40033B4
:1041F000159302F057FF08B1FFF7A0FE554B564844
:10420000002400945A6C42F080625A645A6C02F0A6
:1042100080620092009A01941A6B42F020021A63A5
:104220001A6B02F020020192019A02941A6B42F07A
:1042300001021A631A6B02F001020292029A0394BD
:104240001A6B42F002021A631A6B02F00202039226
:10425000039A04941A6B42F040021A631A6B02F03C
:1042600040020492049A05941A6B42F004021A6305
:104270001A6B02F004020592059A06941A6B42F03A
:1042800008021A631B6B03F00803069302250E262F
:10429000069B0B964FF4806307A9CDE90735CDE95E
:1042A000094501F01FFD41F6580307A92B480B965D
:1042B000CDE907350927CDE9094501F013FD0323B1
:1042C00007A927480B97CDE90735CDE9094501F046
:1042D00009FD4FF4706307A921480B96CDE9073516
:1042E000CDE9094501F0FEFC4FF40C6307A91D4818
:1042F0000B96CDE90735CDE9094501F0F3FCC02364
:1043000007A919480B96CDE90735CDE9094501F014
:10431000E9FC082307A915480B96CDE90735CDE937
:10432000094501F0DFFC4FF4A05307A90D480B9796
:10433000CDE90735CDE9094501F0D4FC58202246E6
:10434000052101F0DFFA582001F010FB19B0F0BD93
:1043500000680140003802400014024000000240A2
:10436000000402400018024000080240000C024015
:1043700010B5044688B01422002103A81EF09BFC4F
:104380002268144B9A4223D103F56843002101911E
:104390005A6C114842F480125A645A6C02F480122A
:1043A0000192019A02911A6B42F020021A631B6B70
:1043B00003F020030293029B4FF460720223032157
:1043C000CDE903230523CDE9061303A901F08AFCF7
:1043D00008B010BD005001400014024010B5044662
:1043E00088B01422002103A81EF065FC2268144B3B
:1043F0009A4223D103F59433002101915A6C11485C
:1044000042F010025A645A6C02F010020192019AB2
:1044100002911A6B42F001021A631B6B03F0010355
:104420000293029B4FF4C06202230321CDE90323D0
:104430000723CDE9061303A901F054FC08B010BD11
:1044400000100140000002402DE9F04186B0142226
:10445000002101A81EF02FFC2B4B1C68002C4FD113
:104460004FF00108C3F80080284B00949A6B28484D
:1044700042EA08029A639B6B03EA0803009302274F
:1044800003260C25009B01A94FF63F03CDE9013718
:10449000CDE9046501F026FC01A91E480595CDE98A
:1044A0000187CDE9034601F01DFC48F2331301A951
:1044B00019480595CDE90137CDE9034601F012FC15
:1044C0004FF6837301A915480595CDE90137CDE96C
:1044D000034601F007FC4CF2037301A9104805954F
:1044E000CDE90137CDE9034601F0FCFB602301A9CA
:1044F0000C480595CDE90137CDE9034601F0F2FB03
:1045000006B0BDE8F08100BFCC1C0020003802409E
:10451000001402400008024000180240001002404F
:10452000000C02400004024037B500230193184BF1
:10453000184C1A6C42F080521A641B6C03F08053C2
:104540000193019B144B01221A6002F091FD054674
:104550006368DA030BD5114B0E4C01221A6002F08E
:1045600087FD054663689B030AD5002006E002F03C
:104570007FFD401BB0F57A7FEAD9032003B030BD40
:1045800002F076FD401BB0F57A7FEBD9F5E700BF6E
:10459000003802400070004040000E4244000E42CD
:1045A00038B50D460446C8B190F82C3003F0FF0230
:1045B0001BB980F82D20FFF747FF022384F82C3029
:1045C000211D206801F0E0F962682068294601F0A9
:1045D0000FFA012384F82C30002038BD0120FCE7BD
:1045E00070B5054690F82C00C0B202280E4612D0D5
:1045F00000F0FB04012C0FD1022385F82C30286831
:1046000001F038FA3368022B06BF052385F82C30F9
:1046100085F82C40002070BD0120FCE738B5044629
:1046200090F82C00C0B202280DD094F82C50EDB2B6
:10463000012D09D1022384F82C30206801F03EFAC4
:1046400084F82C50002038BD0120FCE72DE9F3410F
:10465000044608B9012041E00368DD0710D423684F
:1046600098075AD423681A0700F19C8023685B07D7
:1046700000F1BA80A069002840F01C8100202DE0E4
:10468000A44B9A6802F00C02042A07D09A6802F040
:104690000C02082A0AD15B68590207D59D4B1B689A
:1046A0009A03DCD56368002BD9D1D3E76268994BB4
:1046B000B2F5803F15D11A6842F480321A606368FF
:1046C000F3B102F0D5FC934D06462B689B03C6D48C
:1046D00002F0CEFC801B6428F7D9032002B0BDE8AD
:1046E000F081B2F5A02F1A6803D142F480221A603B
:1046F000E1E722F480321A601A6822F48022DDE7B2
:1047000002F0B6FC834D06462B689F03A7D502F046
:10471000AFFC801B6428F7D9DFE77E4B9A6812F064
:104720000C0F07D09A6802F00C02082A11D15B68BE
:104730005E020ED4774B1A68950702D5E268012A0B
:1047400088D11A68216922F0F80242EAC1021A608F
:1047500088E7E268704BB2B101221A6002F088FC6F
:104760006C4D06462B68980707D52B68226923F005
:10477000F80343EAC2032B6074E702F079FC801B64
:104780000228EFD9A9E71A6002F072FC614D0646D3
:104790002B6899077FF566AF02F06AFC801B022840
:1047A000F6D99AE762695D4B7AB101221A6002F08C
:1047B0005FFC584D06466B6F9F073FF557AF02F001
:1047C00057FC801B0228F6D987E71A6002F050FCDC
:1047D000504D06466B6F98077FF548AF02F048FCD6
:1047E000801B0228F6D978E74A4B1A6C12F08052E7
:1047F0002BD101921A6C42F080521A641B6C03F0A8
:1048000080530193019B0126454D2B68D9051ED588
:10481000A268404B012A2AD11A6F42F001021A679E
:10482000A368002B37D002F023FC3A4D074641F233
:1048300088382B6F9B0728D5002E3FF41BAF354AD5
:10484000136C23F08053136414E70026DCE72B6815
:1048500043F480732B6002F00BFC07462B68DA05EB
:10486000D6D402F005FCC01B0228F7D935E7052A8B
:104870001A6F03D142F004021A67CDE722F0010259
:104880001A671A6F22F00402C9E702F0F1FBC01B9D
:104890004045CED921E702F0EBFB1E4D074641F221
:1048A00088382B6F9807C7D502F0E2FBC01B404544
:1048B000F7D912E7174DAB6803F00C03082B46D06D
:1048C000184E00230228336034D102F0D1FB074692
:1048D0002B68990128D4D4E907321343626A43EA6A
:1048E0008213E26A43EA0263A26A0A4C5208013A5E
:1048F00043EA02436B600123336002F0B9FB0546D3
:1049000023689A013FF5BAAE02F0B2FB401B0228C1
:10491000F6D9E2E60038024000004742800E4742E6
:10492000007000406000474202F0A2FBC01B02285A
:10493000CED9D2E602F09CFB04462B689B017FF5A2
:104940009DAE02F095FB001B0228F6D9C5E60128B2
:104950003FF4C4AE6B68E26903F4800191427FF4D6
:1049600079AE216A03F03F028A427FF473AE616A36
:1049700047F6C0721A40B2EB811F7FF46BAEA26A99
:10498000520803F44031013AB1EB024F7FF462AEBA
:10499000E26A03F07063B3EB026F14BF01200020E2
:1049A0009CE600BF08B513498B6803F00C03042B89
:1049B00003D0082B03D0104800E0104808BD4A6817
:1049C0004B68496813F4800314BF0C480A48C1F3CC
:1049D000881118BF002302F03F02A1FB0001FCF781
:1049E00075F8044B5B68C3F3014301335B00B0FB14
:1049F000F3F0E3E7003802400024F40000127A00EC
:104A00002DE9F0410D46044610B90120BDE8F081C2
:104A1000454B1A6802F00F028A422AD323689E0788
:104A20002FD42368D90743D43F4B1A6802F00F02F2
:104A3000AA4268D823685A076ED423681B0707D593
:104A40003A4A2169936823F4604343EAC1039360BF
:104A5000FFF7A8FF354B364A9B68C3F30313D35CBB
:104A6000D840344B1860344B1868FEF743FE0020E2
:104A7000CCE7CAB21A701B6803F00F038B42C4D193
:104A8000CCE7580741BF294A936843F4E053936049
:104A90002368264A13F0080F1EBF936843F460434F
:104AA00093609368A16823F0F0030B439360B8E729
:104AB00062681E4B012A1CD11B6813F4003FA4D06E
:104AC0001A4EB36823F003031343B36002F0D0FA25
:104AD00041F288380746B368626803F00C03B3EB11
:104AE000820FA1D002F0C4FAC01B4045F3D90320C5
:104AF0008CE7911E01291B6802D813F0007FDEE7C6
:104B000013F0020FDBE7EAB21A701B6803F00F0321
:104B1000AB427FF47AAF8DE7044AE168936823F4EF
:104B2000E0530B43936088E7003C024000380240AA
:104B3000D85002080C0000201C000020044B054A3D
:104B40009B68C3F38223D35C034A1068D840704744
:104B500000380240E85002080C000020044B054ACF
:104B60009B68C3F34233D35C034A1068D840704754
:104B700000380240E85002080C0000200F230360B8
:104B80000B4B9A6802F0030242609A6802F0F0024E
:104B900082609A6802F4E052C2609B68DB0803F40A
:104BA000E0530361034B1B6803F00F030B60704776
:104BB00000380240003C02407047000090F83D3051
:104BC000012B31D10268022380F83D30D36843F0D5
:104BD0000103D3600368154A93421AD0B3F1804FA2
:104BE00017D0A2F57C42934213D002F58062934223
:104BF0000FD002F5806293420BD002F578429342C7
:104C000007D002F57052934203D0A2F5943293423A
:104C100004D19A6802F00702062A03D01A6842F00B
:104C200001021A6000207047012070470000014017
:104C3000704770477047704770B50368DD681E693C
:104C4000B10704460ED5AA070CD56FF002021A610F
:104C50000123037703689B699B076CD0FFF7E9FF8B
:104C600000232377710711D56A070FD523686FF0EA
:104C700004021A610223237723689B6913F4407F9F
:104C800020465ED0FFF7D5FF00232377330710D5EA
:104C900028070ED523686FF008021A6104232377D2
:104CA0002368DB699907204651D0FFF7C2FF002334
:104CB0002377F20611D5EB060FD523686FF01002AB
:104CC0001A61082323772368DB6913F4407F2046A9
:104CD00043D0FFF7AEFF00232377F00708D5E9079D
:104CE00006D523686FF001021A612046FFF71CF910
:104CF000320608D52B0606D523686FF080021A61AC
:104D0000204600F0EBFD700608D5690606D523683D
:104D10006FF040021A612046FFF78DFFB20622D5E0
:104D2000AB0620D523686FF020021A612046BDE84B
:104D3000704000F0D2BDFFF77BFF2046FFF77AFFFF
:104D40008EE7FFF775FF2046FFF774FF9CE7FFF73C
:104D50006FFF2046FFF76EFFA9E7FFF769FF2046C8
:104D6000FFF768FFB7E770BD324A0368904212D080
:104D7000B0F1804F0FD0A2F57C4290420BD002F5EB
:104D80008062904207D002F58062904203D002F523
:104D90007842904219D14A6823F070031343254AA0
:104DA000904229D0B0F1804F26D0A2F57C429042AB
:104DB00022D002F5806290421ED002F580629042BD
:104DC0001AD002F57842904216D01B4A904213D076
:104DD00002F5806290420FD002F5806290420BD0C3
:104DE000A2F59832904207D002F58062904203D03B
:104DF00002F58062904203D1CA6823F440731343E2
:104E00004A6923F0800313438A68C2620A68826297
:104E1000084A904203D002F58062904201D10A69AB
:104E20000263026842F004020260012242610360F0
:104E3000704700BF000001400040014010B504462B
:104E400030B390F83D3003F0FF021BB980F83C20EE
:104E5000FFF7B2FE022384F83D302068211DFFF7E2
:104E600083FF012384F84630002084F83E3084F824
:104E70003F3084F8403084F8413084F8423084F880
:104E8000433084F8443084F8453084F83D3010BD18
:104E90000120FCE701684B6913F480634FF00002C6
:104EA00010D06FF480634B612023026380F83D30A3
:104EB00080F83E20036C80F83C2043F00403036438
:104EC00001207047184670472DE9F843089E0446B4
:104ED00090461F464FEA11498DB22068B9F1010F83
:104EE0000CBF4369836935EA03030CBF012100212C
:104EF000884501D0002023E07B1CEFD002F0B8F8F9
:104F0000801BB84201D8002FE7D12168B9F1010F09
:104F10000CBF4B698B6935EA03030CBF01210021EB
:104F20008845DAD100232022236384F83D2084F8C9
:104F30003E30226C84F83C3042F020022264012092
:104F4000BDE8F8832DE9F0410446174698468EB235
:104F50002568686936EA000018D06B695A0517D5CC
:104F60002B6843F400732B6023686FF480625A61EE
:104F700000232022236384F83D2084F83E30226CF5
:104F800042F00402226484F83C300120BDE8F08144
:104F90007B1CDED002F06CF8A0EB0800B84201D810
:104FA000002FD5D123685B6936EA0303D0D00023F4
:104FB0002022236384F83D2084F83E30226C42F0A6
:104FC0002002DFE770B504460D46164623685B698C
:104FD0005B0701D5002070BD2046FFF75BFFC8B915
:104FE0006A1CF3D002F044F8801BA84201D8002DBF
:104FF000ECD123685B6913F00403E7D1202223631B
:1050000084F83D2084F83E30226C84F83C3042F035
:10501000200222640120DEE770B504460D461646E4
:105020002068436913F0400301D0002010E042697A
:10503000D2060ED56FF0100242612022236384F85D
:105040003D2084F83E30226C226484F83C300120FC
:1050500070BD02F00DF8801BA84201D8002DDFD1F1
:1050600023685B6913F04003DAD12022236384F8BC
:105070003D2084F83E30226C42F02002E4E770B517
:1050800004460D46164623685B691B0601D50020C1
:1050900070BD2046FFF7FEFEC8B96A1CF3D001F0D0
:1050A000E7FF801BA84201D8002DECD123685B6983
:1050B00013F08003E7D12022236384F83D2084F895
:1050C0003E30226C84F83C3042F020022264012001
:1050D000DEE700002DE9FF41154602680B9E984669
:1050E000136843F4807313600F460A9B00960022F6
:1050F0004FF001110446FFF7E7FE236838B11B6843
:10510000DB0502D54FF40073236403200AE007F0A7
:10511000FE071F610A9A194933462046FFF712FF1E
:1051200018B1012004B0BDE8F081236803905A69EA
:1051300003929B69039332460A99039B2046FFF72B
:105140009EFF40B1236C042B01BF2268136843F417
:1051500000731360E5E7B8F1010F236802D1EDB2E7
:105160001D61DFE72A0A1A610A9932462046FFF7D5
:1051700086FF0028E6D12368F1E700BF02000100A6
:105180002DE9FF41164602680B9D9846136843F4CB
:10519000806313600268136843F4807313600F46E2
:1051A0000A9B009500224FF001110446FFF78CFE88
:1051B000236848B11B68DB0502D54FF400732364F4
:1051C000032004B0BDE8F081FFB207F0FE021A61CF
:1051D00029490A9A2B462046FFF7B4FE08B1012060
:1051E000EFE7236803905A6903929B6903932A4669
:1051F0000A99039B2046FFF742FF40B1236C042B22
:1052000001BF2268136843F400731360E7E7B8F145
:10521000010F236825D1F6B21E612A460A9920465D
:10522000FFF72DFF02460028E8D121680B6843F400
:1052300080730B6020460A9B00954FF00111FFF729
:1052400043FE23680028B5D147F001071F610A9A81
:1052500009492B462046FFF775FE003018BF012094
:10526000AFE7320A1A610A992A462046FFF707FF7C
:105270000028C3D12368CEE70200010070B50446C0
:1052800008B9012070BD90F83D3003F0FF021BB952
:1052900080F83C20FEF734FF2268242384F83D3058
:1052A000136823F0010313602268136843F400437A
:1052B00013602268136823F400431360FFF73EFC79
:1052C000424B62689A4294BF414B424B98428CBF1A
:1052D00000230123002BD4D122683F495368B0FB3F
:1052E000F1F123F03F030B4353606668374B2568A9
:1052F0009E4288BF4FF496732A6A8ABF4B434B1C69
:105300004FF47A7122F03F0284BFB3FBF1F3013313
:1053100013432B6221686368CA692C4D22F44F4203
:10532000AB4222F0FF0200F1FF3035D85B00B0FB4A
:10533000F3F0431CC3F30B03042B38BF04231343C4
:10534000CB612168D4E907300A68034322F0C00228
:1053500013430B602168D4E903038A6822F40342F3
:10536000034322F0FF0213438B602168D4E9053028
:10537000CA68034322F0FF021343CB60226813681C
:1053800043F00103136000202023206484F83D30A3
:10539000206384F83E0075E7A56855B903EB430325
:1053A000B0FBF3F0431CC3F30B036BB143F40043B6
:1053B000C5E719256B43B0FBF3F0431CC3F30B03A4
:1053C00013B143F44043BAE70123B8E7A0860100D4
:1053D0007F841E00FF083D0040420F002DE9F74387
:1053E000044699460F4690460C9E01F041FE94F803
:1053F0003D30202B054603D0022003B0BDE8F083EA
:105400000090192301223D492046FFF75DFD002849
:10541000F2D194F83C30012BEED0012384F83C30DB
:1054200023681A68D2075EBF1A6842F001021A6048
:105430002268136823F400631360212384F83D304D
:10544000402384F83E30002323640A9B6362BDF846
:105450002C306385638D2385294BE362CDE900659C
:105460004B46424639462046FFF734FE00282DD0F1
:105470000120C2E7FFF703FE40B1236C042B01BFFC
:105480002268136843F400731360F1E7626A2368CB
:1054900012781A61616A628D4B1C6362238D013A36
:1054A00092B2013B62859BB2226823855069400716
:1054B0000CD55BB14B781361636A01336362238D52
:1054C000013B2385638D013B9BB26385238D2A4677
:1054D00031462046002BCDD1FFF774FD0028CCD1FA
:1054E0002268136843F400731360202384F83D306E
:1054F00084F83C0084F83E007FE700BF0200100003
:105500000000FFFF2DE9F043044687B099460D46A1
:105510009046109F01F0ACFD94F83D30202B0646DC
:1055200004D00225284607B0BDE8F0830090192377
:1055300001227B492046FFF7C7FC0028F1D194F8EF
:105540003C30012BEDD0012384F83C3023681A68ED
:10555000D0075EBF1A6842F001021A602268136821
:1055600023F400631360222384F83D30402384F841
:105570003E30002323640E9B6362BDF83C3063859C
:10558000638D2385674BE3622946CDE900764B4660
:1055900042462046FFF7F4FD054608B10125C1E764
:1055A000228D2368B2B902905A6902929A690292D6
:1055B000029A1A6842F400721A60DFF86C81238D37
:1055C000002B2FD1202284F83D2084F83C3084F831
:1055D0003E30A7E7012A0BD11A6822F480621A60D4
:1055E000236803905A6903929A690392039AE0E749
:1055F000022A10D11A6822F480621A6022681368A5
:1056000043F400631360236804905A6904929B6911
:105610000493049BD1E705905A6905929B69059311
:10562000059BCAE7032B58D8012B0BD132463946CC
:105630002046FFF7F1FC0028B0D123681A69636A9D
:105640001A7021E0022B00963B464FF000024146C3
:10565000204624D1FFF738FC00289FD12268136828
:1056600043F40073136023681A69636A1A70626AEC
:10567000531C6362238D013B2385638D013B9BB2E9
:10568000638523681B695370636A01336362238DEA
:10569000013B2385638D013B9BB263858FE7FFF759
:1056A00013FC024600287FF479AF21680B6823F4CD
:1056B00080630B6023681969636A1970636A0096D6
:1056C00001336362238D013B2385638D013B9BB2D4
:1056D000638541463B462046BCE732463946204674
:1056E000FFF79AFC00287FF459AF23681A69636AB0
:1056F0001A70636A628D01336362238D013A92B23C
:10570000013B62859BB222682385516949077FF579
:1057100056AF032B02BF136823F4806313608CE73A
:10572000020010000000FFFF0400010070B50268D5
:10573000C168136923F440530B43136105460168A4
:1057400083680069CA68034368690343E86922F40F
:10575000164222F00C0203431343CB602A68A96966
:10576000536923F440730B4353612B681F4A9342E0
:1057700003D002F58062934224D1FFF7EFF9EA6982
:105780001923B2F5004FA0FB0301D5E900431CD15A
:10579000DA184FF0000646EB0603FBF797F9642191
:1057A000B0FBF1F501FB1503DB003233B3FBF1F382
:1057B00003F007025B0002EB051203F4F8731344D5
:1057C000A36070BDFFF7BAF9D9E79A009B0FFBF70A
:1057D0007DF96422B0FBF2F102FB11031B013233AD
:1057E000B3FBF2F303EB0113EAE700BF0010014043
:1057F00010B5044658B390F8413003F0FF021BB9CE
:1058000080F84020FEF7EAFD2268242384F8413026
:10581000D36823F40053D3602046FFF787FF226844
:10582000136923F4904313612268536923F02A0318
:1058300053612268D36843F40053D36000202023CF
:10584000606484F8413084F84230606310BD012008
:10585000FCE710B590F83D30DBB2202B19D104687D
:10586000242280F83D20226822F001022260046890
:10587000626A22F0100262620468626A1143616225
:1058800001680A6842F001020A6080F83D30002099
:1058900010BD0220FCE730B590F83D20D2B2202A9E
:1058A00018D10568242380F83D302C6824F00104C9
:1058B0002C600468656A4FF6F0732B400B439BB273
:1058C000636201680B6843F001030B6080F83D20C0
:1058D000002030BD0220FCE7704770477047000091
:1058E000074AD36823F4E0631B041B0C43F0BF6337
:1058F000000243F4003300F4E0600343D3607047D8
:1059000000ED00E070B5174BDC68C4F30224C4F16D
:105910000705042D04F1040328BF04254FF0FF36CA
:10592000062B06FA05F38CBF033C002421EA03038F
:10593000A34006FA04F422EA0404002843EA04031C
:10594000A8BF00F160404FEA0313BCBF00F00F0096
:10595000054ADBB2AABF00F56140135480F800335A
:1059600070BD00BF00ED00E014ED00E0002808DB92
:105970000123420900F01F0003FA00F0014B43F835
:105980002200704700E100E030B5D1E907340A6831
:105990004D6A2343154C92B902682B4322401343AE
:1059A0004A6813438A681343CA6813430A69134356
:1059B0004A6913438A6913430360002030BD0268BB
:1059C0002B4322F4F8421343036043684A682340A0
:1059D00013438A681343CA6813430A6913434A6925
:1059E00013438A6913434360E7E700BF0080FFFF6A
:1059F00030B5CB684D695C1E6B1E1B0543EA043451
:105A0000CAB90B688268013B02F07042234313431A
:105A10004A68013A43EA02138A68013A43EA0223D8
:105A20000A69013A43EA02438A69013A43EA026396
:105A30008360002030BD836823F4700323F4704337
:105A400023438360C3684A6803F07043013A43EA22
:105A500002130A68013A13438A68013A43EA0223AF
:105A60000A69013A43EA02438A69013A43EA026356
:105A7000C360DEE770B51546D1E900320446134332
:105A80000069CA68800D43EA42238A68800503439F
:105A9000013A43EA4213236101F0EAFA0646A0699B
:105AA00010F0200003D06B1CF9D00DB9032070BD9D
:105AB00001F0DEFA801BA842F1D9F7E7436923F42D
:105AC0007F5323F03E0343EA4101416100207047C8
:105AD00010B5044640B390F8393003F0FF021BB90B
